{
    "contractName": "ChangeblockMarketplace",
    "abi": [
        {
            "inputs": [
                {
                    "internalType": "uint256",
                    "name": "feeNumerator",
                    "type": "uint256"
                },
                {
                    "internalType": "uint256",
                    "name": "feeDenominator",
                    "type": "uint256"
                },
                {
                    "internalType": "address",
                    "name": "treasury",
                    "type": "address"
                }
            ],
            "stateMutability": "nonpayable",
            "type": "constructor"
        },
        {
            "anonymous": false,
            "inputs": [
                {
                    "indexed": true,
                    "internalType": "uint256",
                    "name": "listingId",
                    "type": "uint256"
                },
                {
                    "indexed": false,
                    "internalType": "uint256",
                    "name": "quantity",
                    "type": "uint256"
                },
                {
                    "indexed": false,
                    "internalType": "uint256",
                    "name": "price",
                    "type": "uint256"
                },
                {
                    "indexed": false,
                    "internalType": "address",
                    "name": "bidder",
                    "type": "address"
                }
            ],
            "name": "BidPlaced",
            "type": "event"
        },
        {
            "anonymous": false,
            "inputs": [
                {
                    "indexed": true,
                    "internalType": "uint256",
                    "name": "listingId",
                    "type": "uint256"
                },
                {
                    "indexed": false,
                    "internalType": "address",
                    "name": "bidder",
                    "type": "address"
                }
            ],
            "name": "BidWithdrawn",
            "type": "event"
        },
        {
            "anonymous": false,
            "inputs": [
                {
                    "indexed": true,
                    "internalType": "uint256",
                    "name": "listingId",
                    "type": "uint256"
                },
                {
                    "indexed": false,
                    "internalType": "uint256",
                    "name": "price",
                    "type": "uint256"
                }
            ],
            "name": "ERC20PriceUpdate",
            "type": "event"
        },
        {
            "anonymous": false,
            "inputs": [
                {
                    "indexed": false,
                    "internalType": "uint256",
                    "name": "amount",
                    "type": "uint256"
                },
                {
                    "indexed": false,
                    "internalType": "uint256",
                    "name": "price",
                    "type": "uint256"
                },
                {
                    "indexed": true,
                    "internalType": "address",
                    "name": "vendor",
                    "type": "address"
                },
                {
                    "indexed": true,
                    "internalType": "address",
                    "name": "product",
                    "type": "address"
                },
                {
                    "indexed": false,
                    "internalType": "address",
                    "name": "currency",
                    "type": "address"
                },
                {
                    "indexed": false,
                    "internalType": "uint256",
                    "name": "listingId",
                    "type": "uint256"
                }
            ],
            "name": "ERC20Registration",
            "type": "event"
        },
        {
            "anonymous": false,
            "inputs": [
                {
                    "indexed": false,
                    "internalType": "uint256",
                    "name": "id",
                    "type": "uint256"
                },
                {
                    "indexed": false,
                    "internalType": "uint256",
                    "name": "price",
                    "type": "uint256"
                },
                {
                    "indexed": true,
                    "internalType": "address",
                    "name": "vendor",
                    "type": "address"
                },
                {
                    "indexed": true,
                    "internalType": "address",
                    "name": "product",
                    "type": "address"
                },
                {
                    "indexed": false,
                    "internalType": "address",
                    "name": "currency",
                    "type": "address"
                },
                {
                    "indexed": false,
                    "internalType": "uint256",
                    "name": "listingId",
                    "type": "uint256"
                }
            ],
            "name": "ERC721Registration",
            "type": "event"
        },
        {
            "anonymous": false,
            "inputs": [
                {
                    "indexed": true,
                    "internalType": "address",
                    "name": "previousOwner",
                    "type": "address"
                },
                {
                    "indexed": true,
                    "internalType": "address",
                    "name": "newOwner",
                    "type": "address"
                }
            ],
            "name": "OwnershipTransferred",
            "type": "event"
        },
        {
            "anonymous": false,
            "inputs": [
                {
                    "indexed": true,
                    "internalType": "uint256",
                    "name": "listingId",
                    "type": "uint256"
                }
            ],
            "name": "Sale",
            "type": "event"
        },
        {
            "inputs": [
                {
                    "internalType": "uint256",
                    "name": "",
                    "type": "uint256"
                }
            ],
            "name": "ERC20Listings",
            "outputs": [
                {
                    "internalType": "uint256",
                    "name": "amount",
                    "type": "uint256"
                },
                {
                    "internalType": "uint256",
                    "name": "price",
                    "type": "uint256"
                },
                {
                    "internalType": "address",
                    "name": "vendor",
                    "type": "address"
                },
                {
                    "internalType": "address",
                    "name": "product",
                    "type": "address"
                },
                {
                    "internalType": "address",
                    "name": "currency",
                    "type": "address"
                }
            ],
            "stateMutability": "view",
            "type": "function"
        },
        {
            "inputs": [
                {
                    "internalType": "uint256",
                    "name": "",
                    "type": "uint256"
                }
            ],
            "name": "ERC721Listings",
            "outputs": [
                {
                    "internalType": "uint256",
                    "name": "id",
                    "type": "uint256"
                },
                {
                    "internalType": "uint256",
                    "name": "price",
                    "type": "uint256"
                },
                {
                    "internalType": "address",
                    "name": "vendor",
                    "type": "address"
                },
                {
                    "internalType": "address",
                    "name": "product",
                    "type": "address"
                },
                {
                    "internalType": "address",
                    "name": "currency",
                    "type": "address"
                }
            ],
            "stateMutability": "view",
            "type": "function"
        },
        {
            "inputs": [],
            "name": "FEE_DENOMINATOR",
            "outputs": [
                {
                    "internalType": "uint256",
                    "name": "",
                    "type": "uint256"
                }
            ],
            "stateMutability": "view",
            "type": "function"
        },
        {
            "inputs": [],
            "name": "FEE_NUMERATOR",
            "outputs": [
                {
                    "internalType": "uint256",
                    "name": "",
                    "type": "uint256"
                }
            ],
            "stateMutability": "view",
            "type": "function"
        },
        {
            "inputs": [
                {
                    "internalType": "uint256",
                    "name": "listingId",
                    "type": "uint256"
                },
                {
                    "internalType": "uint256",
                    "name": "bidId",
                    "type": "uint256"
                },
                {
                    "internalType": "uint256",
                    "name": "price",
                    "type": "uint256"
                }
            ],
            "name": "acceptBid",
            "outputs": [],
            "stateMutability": "nonpayable",
            "type": "function"
        },
        {
            "inputs": [
                {
                    "internalType": "uint256",
                    "name": "listingId",
                    "type": "uint256"
                },
                {
                    "internalType": "uint256",
                    "name": "quantity",
                    "type": "uint256"
                },
                {
                    "internalType": "uint256",
                    "name": "payment",
                    "type": "uint256"
                }
            ],
            "name": "bid",
            "outputs": [],
            "stateMutability": "nonpayable",
            "type": "function"
        },
        {
            "inputs": [
                {
                    "internalType": "uint256",
                    "name": "",
                    "type": "uint256"
                },
                {
                    "internalType": "uint256",
                    "name": "",
                    "type": "uint256"
                }
            ],
            "name": "bids",
            "outputs": [
                {
                    "internalType": "uint256",
                    "name": "quantity",
                    "type": "uint256"
                },
                {
                    "internalType": "uint256",
                    "name": "payment",
                    "type": "uint256"
                },
                {
                    "internalType": "address",
                    "name": "bidder",
                    "type": "address"
                }
            ],
            "stateMutability": "view",
            "type": "function"
        },
        {
            "inputs": [
                {
                    "internalType": "uint256",
                    "name": "listingId",
                    "type": "uint256"
                },
                {
                    "internalType": "uint256",
                    "name": "amount",
                    "type": "uint256"
                },
                {
                    "internalType": "uint256",
                    "name": "price",
                    "type": "uint256"
                }
            ],
            "name": "buyERC20",
            "outputs": [],
            "stateMutability": "nonpayable",
            "type": "function"
        },
        {
            "inputs": [
                {
                    "internalType": "uint256",
                    "name": "listingId",
                    "type": "uint256"
                },
                {
                    "internalType": "uint256",
                    "name": "price",
                    "type": "uint256"
                }
            ],
            "name": "buyERC721",
            "outputs": [],
            "stateMutability": "nonpayable",
            "type": "function"
        },
        {
            "inputs": [
                {
                    "internalType": "address",
                    "name": "",
                    "type": "address"
                }
            ],
            "name": "buyerApprovals",
            "outputs": [
                {
                    "internalType": "bool",
                    "name": "",
                    "type": "bool"
                }
            ],
            "stateMutability": "view",
            "type": "function"
        },
        {
            "inputs": [
                {
                    "internalType": "uint256",
                    "name": "",
                    "type": "uint256"
                },
                {
                    "internalType": "uint256",
                    "name": "",
                    "type": "uint256"
                }
            ],
            "name": "currentBids",
            "outputs": [
                {
                    "internalType": "uint256",
                    "name": "",
                    "type": "uint256"
                }
            ],
            "stateMutability": "view",
            "type": "function"
        },
        {
            "inputs": [
                {
                    "internalType": "uint256",
                    "name": "amount",
                    "type": "uint256"
                },
                {
                    "internalType": "uint256",
                    "name": "listingId",
                    "type": "uint256"
                }
            ],
            "name": "delistERC20",
            "outputs": [],
            "stateMutability": "nonpayable",
            "type": "function"
        },
        {
            "inputs": [
                {
                    "internalType": "uint256",
                    "name": "listingId",
                    "type": "uint256"
                }
            ],
            "name": "delistERC721",
            "outputs": [],
            "stateMutability": "nonpayable",
            "type": "function"
        },
        {
            "inputs": [
                {
                    "internalType": "uint256",
                    "name": "amount",
                    "type": "uint256"
                },
                {
                    "internalType": "uint256",
                    "name": "price",
                    "type": "uint256"
                },
                {
                    "internalType": "address",
                    "name": "product",
                    "type": "address"
                },
                {
                    "internalType": "address",
                    "name": "currency",
                    "type": "address"
                }
            ],
            "name": "listERC20",
            "outputs": [
                {
                    "internalType": "uint256",
                    "name": "",
                    "type": "uint256"
                }
            ],
            "stateMutability": "nonpayable",
            "type": "function"
        },
        {
            "inputs": [
                {
                    "internalType": "uint256",
                    "name": "id",
                    "type": "uint256"
                },
                {
                    "internalType": "uint256",
                    "name": "price",
                    "type": "uint256"
                },
                {
                    "internalType": "address",
                    "name": "product",
                    "type": "address"
                },
                {
                    "internalType": "address",
                    "name": "currency",
                    "type": "address"
                }
            ],
            "name": "listERC721",
            "outputs": [
                {
                    "internalType": "uint256",
                    "name": "",
                    "type": "uint256"
                }
            ],
            "stateMutability": "nonpayable",
            "type": "function"
        },
        {
            "inputs": [],
            "name": "owner",
            "outputs": [
                {
                    "internalType": "address",
                    "name": "",
                    "type": "address"
                }
            ],
            "stateMutability": "view",
            "type": "function"
        },
        {
            "inputs": [],
            "name": "renounceOwnership",
            "outputs": [],
            "stateMutability": "nonpayable",
            "type": "function"
        },
        {
            "inputs": [
                {
                    "internalType": "address",
                    "name": "",
                    "type": "address"
                }
            ],
            "name": "sellerApprovals",
            "outputs": [
                {
                    "internalType": "bool",
                    "name": "",
                    "type": "bool"
                }
            ],
            "stateMutability": "view",
            "type": "function"
        },
        {
            "inputs": [
                {
                    "internalType": "address[]",
                    "name": "targets",
                    "type": "address[]"
                },
                {
                    "internalType": "bool[]",
                    "name": "approvals",
                    "type": "bool[]"
                }
            ],
            "name": "setBuyers",
            "outputs": [],
            "stateMutability": "nonpayable",
            "type": "function"
        },
        {
            "inputs": [],
            "name": "setFeeDenominator",
            "outputs": [],
            "stateMutability": "nonpayable",
            "type": "function"
        },
        {
            "inputs": [],
            "name": "setFeeNumerator",
            "outputs": [],
            "stateMutability": "nonpayable",
            "type": "function"
        },
        {
            "inputs": [
                {
                    "internalType": "address[]",
                    "name": "targets",
                    "type": "address[]"
                },
                {
                    "internalType": "bool[]",
                    "name": "approvals",
                    "type": "bool[]"
                }
            ],
            "name": "setSellers",
            "outputs": [],
            "stateMutability": "nonpayable",
            "type": "function"
        },
        {
            "inputs": [
                {
                    "internalType": "address",
                    "name": "newOwner",
                    "type": "address"
                }
            ],
            "name": "transferOwnership",
            "outputs": [],
            "stateMutability": "nonpayable",
            "type": "function"
        },
        {
            "inputs": [
                {
                    "internalType": "uint256",
                    "name": "listingId",
                    "type": "uint256"
                },
                {
                    "internalType": "uint256",
                    "name": "price",
                    "type": "uint256"
                }
            ],
            "name": "updateERC20Price",
            "outputs": [],
            "stateMutability": "nonpayable",
            "type": "function"
        },
        {
            "inputs": [
                {
                    "internalType": "uint256",
                    "name": "listingId",
                    "type": "uint256"
                },
                {
                    "internalType": "uint256",
                    "name": "price",
                    "type": "uint256"
                }
            ],
            "name": "updateERC721Price",
            "outputs": [],
            "stateMutability": "nonpayable",
            "type": "function"
        },
        {
            "inputs": [
                {
                    "internalType": "uint256",
                    "name": "listingId",
                    "type": "uint256"
                },
                {
                    "internalType": "uint256",
                    "name": "bidId",
                    "type": "uint256"
                }
            ],
            "name": "withdrawBid",
            "outputs": [],
            "stateMutability": "nonpayable",
            "type": "function"
        }
    ],
    "bytecode": "60806040523480156200001157600080fd5b506040516200212d3803806200212d8339810160408190526200003491620000bd565b6200003f336200006d565b600892909255600955600a80546001600160a01b0319166001600160a01b0390921691909117905562000105565b600080546001600160a01b038381166001600160a01b0319831681178455604051919092169283917f8be0079c531659141344cd1fd0a4f28419497f9722a3daafe3b4186f6b6457e09190a35050565b600080600060608486031215620000d357600080fd5b83516020850151604086015191945092506001600160a01b0381168114620000fa57600080fd5b809150509250925092565b61201880620001156000396000f3fe608060405234801561001057600080fd5b506004361061018e5760003560e01c8063a2d0d029116100de578063d73d55a311610097578063f626dab011610071578063f626dab01461040c578063fbcc035114610459578063fec1d6c614610280578063ffda0a0b1461047c57600080fd5b8063d73d55a3146103d3578063efe5b871146103e6578063f2fde38b146103f957600080fd5b8063a2d0d0291461036b578063a57356621461037e578063aebfa63514610391578063c1ab2a4f146103a4578063cb36639b146103b7578063d73792a9146103ca57600080fd5b806345d84c941161014b578063715018a611610125578063715018a6146102ae5780637b3c4baa146102b65780638da5cb5b1461031d57806397895f3a1461033857600080fd5b806345d84c941461028057806346b504781461028857806366c7f8e51461029b57600080fd5b806302fa11bd146101935780630f2f8b2d1461021b578063151a47911461023c5780632ac9bf091461024f5780632b2d04601461026457806341cd47bf14610277575b600080fd5b6101e06101a1366004611c17565b600360208190526000918252604090912080546001820154600283015493830154600490930154919390926001600160a01b0391821692908216911685565b6040805195865260208601949094526001600160a01b03928316938501939093528116606084015216608082015260a0015b60405180910390f35b61022e610229366004611c30565b61048f565b604051908152602001610212565b61022e61024a366004611c6e565b6104c0565b61026261025d366004611cb4565b6106a0565b005b610262610272366004611d2c565b610841565b61022e60085481565b610262610909565b610262610296366004611c30565b610935565b61022e6102a9366004611c6e565b6109b3565b610262610bba565b6102f96102c4366004611c30565b60056020908152600092835260408084209091529082529020805460018201546002909201549091906001600160a01b031683565b6040805193845260208401929092526001600160a01b031690820152606001610212565b6000546040516001600160a01b039091168152602001610212565b61035b610346366004611d98565b60026020526000908152604090205460ff1681565b6040519015158152602001610212565b610262610379366004611cb4565b610bee565b61026261038c366004611c30565b610e6f565b61026261039f366004611d2c565b610ff7565b6102626103b2366004611c17565b6110b8565b6102626103c5366004611cb4565b611206565b61022e60095481565b6102626103e1366004611c30565b61154d565b6102626103f4366004611c30565b611730565b610262610407366004611d98565b6119e4565b6101e061041a366004611c17565b600460208190526000918252604090912080546001820154600283015460038401549390940154919390926001600160a01b0391821692908216911685565b61035b610467366004611d98565b60016020526000908152604090205460ff1681565b61026261048a366004611c30565b611a7f565b600660205281600052604060002081815481106104ab57600080fd5b90600052602060002001600091509150505481565b3360009081526001602052604081205460ff1661051c5760405162461bcd60e51b8152602060048201526015602482015274417070726f7665642073656c6c657273206f6e6c7960581b60448201526064015b60405180910390fd5b6040516323b872dd60e01b81526001600160a01b038416906323b872dd9061054c90339030908a90600401611dba565b600060405180830381600087803b15801561056657600080fd5b505af115801561057a573d6000803e3d6000fd5b50505050600085846040516020016105a59291909182526001600160a01b0316602082015260400190565b60408051601f19818403018152828252805160209182012060a084018352898452818401898152338585018181526001600160a01b038b81166060808a018281528d84166080808d0182815260008b81526004808e52908e90209e518f55995160018f0155965160028e0180549188166001600160a01b0319928316179055925160038e01805491881691851691909117905595519b90970180549b9094169a169990991790915586518e81529586018d9052958501929092529483018290529094509192917f96121474b4be0e5edfa0cf9721fe3e06611dc0048f4ec160f3f4aa1c5ca3ec4191015b60405180910390a395945050505050565b3360009081526002602052604090205460ff166106cf5760405162461bcd60e51b815260040161051390611dde565b604080516020810184905290810182905233606082015260009060800160408051601f1981840301815291815281516020928301206000878152600584528281208282529093529120600101549091501561076c5760405162461bcd60e51b815260206004820152601d60248201527f426964206f662074686973207479706520616c7265616479206d6164650000006044820152606401610513565b600084815260066020908152604080832080546007845282852086865284528285208190556001808201835591855283852001859055815160608082018452888252818501888152338386018181528c8952600588528689208a8a52885297869020935184559051938301939093559451600290910180546001600160a01b0319166001600160a01b0390921691909117905581518781529283018690529082015285917f379fe8bc550443c6867a021184bb0e5a961f3fcd271160873847410c7bdd0e28910160405180910390a250505050565b6000546001600160a01b0316331461086b5760405162461bcd60e51b815260040161051390611e0c565b60005b838110156109025782828281811061088857610888611e41565b905060200201602081019061089d9190611e65565b600160008787858181106108b3576108b3611e41565b90506020020160208101906108c89190611d98565b6001600160a01b031681526020810191909152604001600020805460ff1916911515919091179055806108fa81611e98565b91505061086e565b5050505050565b6000546001600160a01b031633146109335760405162461bcd60e51b815260040161051390611e0c565b565b6000828152600360205260409020600201546001600160a01b0316331461099e5760405162461bcd60e51b815260206004820152601c60248201527f4f6e6c792076656e646f722063616e20757064617465207072696365000000006044820152606401610513565b60009182526003602052604090912060010155565b3360009081526001602052604081205460ff16610a0a5760405162461bcd60e51b8152602060048201526015602482015274417070726f7665642073656c6c657273206f6e6c7960581b6044820152606401610513565b6040516323b872dd60e01b81526001600160a01b038416906323b872dd90610a3a90339030908a90600401611dba565b6020604051808303816000875af1158015610a59573d6000803e3d6000fd5b505050506040513d601f19601f82011682018060405250810190610a7d9190611eb1565b50604080513360208201526001600160a01b0380861692820192909252908316606082015260009060800160408051601f19818403018152828252805160209182012060a08401835260008181526003909252919020549092508190610ae39089611ece565b815260208082018890523360408084018290526001600160a01b0389811660608087018290528a8316608097880181905260008a81526003808952908690208a5181558a89015160018201558a8701516002820180549188166001600160a01b03199283161790558b850151928201805493881693821693909317909255998901516004909a0180549a90951699169890981790925582518d81529485018c905291840195909552938201859052917f4dac2e5e670f156eb092f4d2b4bd3db441153ea88b602e360195f855f144c6d7910161068f565b6000546001600160a01b03163314610be45760405162461bcd60e51b815260040161051390611e0c565b6109336000611afd565b6000838152600360205260409020600201546001600160a01b0316338114610c585760405162461bcd60e51b815260206004820152601c60248201527f4f6e6c792076656e646f722063616e20616363657074206120626964000000006044820152606401610513565b6000848152600560209081526040808320868452825280832054878452600390925290912054811115610cdf5760405162461bcd60e51b815260206004820152602960248201527f496e73756666696369656e7420746f6b656e73206c697374656420746f2066756044820152681b199a5b1b08189a5960ba1b6064820152608401610513565b6000858152600360209081526040808320600490810154600584528285208986529093529281902060010154905163a9059cbb60e01b81526001600160a01b0386811694820194909452602481019190915291169063a9059cbb906044016020604051808303816000875af1158015610d5c573d6000803e3d6000fd5b505050506040513d601f19601f82011682018060405250810190610d809190611eb1565b506000858152600360208190526040918290200154905163a9059cbb60e01b8152336004820152602481018390526001600160a01b039091169063a9059cbb906044016020604051808303816000875af1158015610de2573d6000803e3d6000fd5b505050506040513d601f19601f82011682018060405250810190610e069190611eb1565b5060008581526003602052604081208054839290610e25908490611ee6565b90915550610e3590508585611b4d565b50505060009182526005602090815260408084209284529190528120818155600181019190915560020180546001600160a01b0319169055565b3360009081526002602052604090205460ff16610e9e5760405162461bcd60e51b815260040161051390611dde565b60008281526005602090815260408083208484529091529020600201546001600160a01b0316338114610f135760405162461bcd60e51b815260206004820152601c60248201527f4f6e6c79206269646465722063616e2063616e63656c206120626964000000006044820152606401610513565b6000838152600360209081526040808320600490810154600584528285208786529093529281902060010154905163a9059cbb60e01b81526001600160a01b0385811694820194909452602481019190915291169063a9059cbb906044016020604051808303816000875af1158015610f90573d6000803e3d6000fd5b505050506040513d601f19601f82011682018060405250810190610fb49190611eb1565b50610fbf8383611b4d565b5060009182526005602090815260408084209284529190528120818155600181019190915560020180546001600160a01b0319169055565b6000546001600160a01b031633146110215760405162461bcd60e51b815260040161051390611e0c565b60005b838110156109025782828281811061103e5761103e611e41565b90506020020160208101906110539190611e65565b6002600087878581811061106957611069611e41565b905060200201602081019061107e9190611d98565b6001600160a01b031681526020810191909152604001600020805460ff1916911515919091179055806110b081611e98565b915050611024565b600081815260046020818152604092839020835160a0810185528154815260018201549281019290925260028101546001600160a01b0390811694830185905260038201548116606084015292015490911660808201529033148061113657503361112b6000546001600160a01b031690565b6001600160a01b0316145b6111525760405162461bcd60e51b815260040161051390611efd565b80606001516001600160a01b03166323b872dd30836040015184600001516040518463ffffffff1660e01b815260040161118e93929190611dba565b600060405180830381600087803b1580156111a857600080fd5b505af11580156111bc573d6000803e3d6000fd5b50505060009283525050600460208190526040822082815560018101929092556002820180546001600160a01b031990811690915560038301805482169055910180549091169055565b3360009081526002602052604090205460ff166112355760405162461bcd60e51b815260040161051390611dde565b600083815260036020818152604092839020835160a0810185528154815260018201549281019290925260028101546001600160a01b03908116948301949094529182015483166060820152600490910154909116608082018190526112dd5760405162461bcd60e51b815260206004820152601d60248201527f4e6f6e2d76616c6964206c697374696e672049442070726f76696465640000006044820152606401610513565b818160200151146113005760405162461bcd60e51b815260040161051390611f48565b60008160200151846113129190611f8b565b90506000600954600854836113279190611f8b565b6113319190611faa565b905082608001516001600160a01b03166323b872dd338560400151856040518463ffffffff1660e01b815260040161136b93929190611dba565b6020604051808303816000875af115801561138a573d6000803e3d6000fd5b505050506040513d601f19601f820116820180604052508101906113ae9190611eb1565b506080830151600a546040516323b872dd60e01b81526001600160a01b03928316926323b872dd926113ea923392909116908690600401611dba565b6020604051808303816000875af1158015611409573d6000803e3d6000fd5b505050506040513d601f19601f8201168201806040525081019061142d9190611eb1565b50825185111561147f5760405162461bcd60e51b815260206004820152601a60248201527f496e73756666696369656e74206c697374656420746f6b656e730000000000006044820152606401610513565b606083015160405163a9059cbb60e01b8152336004820152602481018790526001600160a01b039091169063a9059cbb906044016020604051808303816000875af11580156114d2573d6000803e3d6000fd5b505050506040513d601f19601f820116820180604052508101906114f69190611eb1565b5060008681526003602052604081208054879290611515908490611ee6565b909155505060405186907fc0a8d68d4d1f533ef6cdb7a49068cbe04356682803cb7983c4ba33ce99100efd90600090a2505050505050565b600081815260036020818152604092839020835160a0810185528154815260018201549281019290925260028101546001600160a01b039081169483018590529281015483166060830152600401549091166080820152903314806115cb5750336115c06000546001600160a01b031690565b6001600160a01b0316145b6115e75760405162461bcd60e51b815260040161051390611efd565b80518311156116385760405162461bcd60e51b815260206004820152601a60248201527f496e73756666696369656e7420746f6b656e73206c69737465640000000000006044820152606401610513565b6060810151604080830151905163a9059cbb60e01b81526001600160a01b0391821660048201526024810186905291169063a9059cbb906044016020604051808303816000875af1158015611691573d6000803e3d6000fd5b505050506040513d601f19601f820116820180604052508101906116b59190611eb1565b50805183900361170857506000908152600360208190526040822082815560018101929092556002820180546001600160a01b031990811690915590820180548216905560049091018054909116905550565b60008281526003602052604081208054859290611726908490611ee6565b9091555050505050565b3360009081526002602052604090205460ff1661175f5760405162461bcd60e51b815260040161051390611dde565b600082815260046020818152604092839020835160a0810185528154815260018201549281019290925260028101546001600160a01b039081169483019490945260038101548416606083015290910154909116608082018190526118065760405162461bcd60e51b815260206004820152601d60248201527f4e6f6e2d76616c6964206c697374696e672049442070726f76696465640000006044820152606401610513565b818160200151146118295760405162461bcd60e51b815260040161051390611f48565b600060095460085483602001516118409190611f8b565b61184a9190611faa565b905081608001516001600160a01b03166323b872dd33846040015185602001516040518463ffffffff1660e01b815260040161188893929190611dba565b6020604051808303816000875af11580156118a7573d6000803e3d6000fd5b505050506040513d601f19601f820116820180604052508101906118cb9190611eb1565b506080820151600a546040516323b872dd60e01b81526001600160a01b03928316926323b872dd92611907923392909116908690600401611dba565b6020604051808303816000875af1158015611926573d6000803e3d6000fd5b505050506040513d601f19601f8201168201806040525081019061194a9190611eb1565b50606082015182516040516323b872dd60e01b81526001600160a01b03909216916323b872dd916119819130913391600401611dba565b600060405180830381600087803b15801561199b57600080fd5b505af11580156119af573d6000803e3d6000fd5b50506040518692507fc0a8d68d4d1f533ef6cdb7a49068cbe04356682803cb7983c4ba33ce99100efd9150600090a250505050565b6000546001600160a01b03163314611a0e5760405162461bcd60e51b815260040161051390611e0c565b6001600160a01b038116611a735760405162461bcd60e51b815260206004820152602660248201527f4f776e61626c653a206e6577206f776e657220697320746865207a65726f206160448201526564647265737360d01b6064820152608401610513565b611a7c81611afd565b50565b6000828152600460205260409020600201546001600160a01b03163314611ae85760405162461bcd60e51b815260206004820152601c60248201527f4f6e6c792076656e646f722063616e20757064617465207072696365000000006044820152606401610513565b60009182526004602052604090912060010155565b600080546001600160a01b038381166001600160a01b0319831681178455604051919092169283917f8be0079c531659141344cd1fd0a4f28419497f9722a3daafe3b4186f6b6457e09190a35050565b60008281526006602052604090208054611b6990600190611ee6565b81548110611b7957611b79611e41565b6000918252602080832090910154848352600682526040808420600784528185208686529093529092205481548110611bb457611bb4611e41565b906000526020600020018190555060066000838152602001908152602001600020805480611be457611be4611fcc565b60008281526020808220830160001990810183905590920190925592815260078352604080822092825291909252812055565b600060208284031215611c2957600080fd5b5035919050565b60008060408385031215611c4357600080fd5b50508035926020909101359150565b80356001600160a01b0381168114611c6957600080fd5b919050565b60008060008060808587031215611c8457600080fd5b8435935060208501359250611c9b60408601611c52565b9150611ca960608601611c52565b905092959194509250565b600080600060608486031215611cc957600080fd5b505081359360208301359350604090920135919050565b60008083601f840112611cf257600080fd5b50813567ffffffffffffffff811115611d0a57600080fd5b6020830191508360208260051b8501011115611d2557600080fd5b9250929050565b60008060008060408587031215611d4257600080fd5b843567ffffffffffffffff80821115611d5a57600080fd5b611d6688838901611ce0565b90965094506020870135915080821115611d7f57600080fd5b50611d8c87828801611ce0565b95989497509550505050565b600060208284031215611daa57600080fd5b611db382611c52565b9392505050565b6001600160a01b039384168152919092166020820152604081019190915260600190565b602080825260149082015273417070726f76656420627579657273206f6e6c7960601b604082015260600190565b6020808252818101527f4f776e61626c653a2063616c6c6572206973206e6f7420746865206f776e6572604082015260600190565b634e487b7160e01b600052603260045260246000fd5b8015158114611a7c57600080fd5b600060208284031215611e7757600080fd5b8135611db381611e57565b634e487b7160e01b600052601160045260246000fd5b600060018201611eaa57611eaa611e82565b5060010190565b600060208284031215611ec357600080fd5b8151611db381611e57565b60008219821115611ee157611ee1611e82565b500190565b600082821015611ef857611ef8611e82565b500390565b6020808252602b908201527f4f6e6c792076656e646f72206f72206d61726b6574706c616365206f776e657260408201526a0818d85b8819195b1a5cdd60aa1b606082015260800190565b60208082526023908201527f43616e6e6f74206d616b6520707572636861736520617420696e70757420707260408201526269636560e81b606082015260800190565b6000816000190483118215151615611fa557611fa5611e82565b500290565b600082611fc757634e487b7160e01b600052601260045260246000fd5b500490565b634e487b7160e01b600052603160045260246000fdfea2646970667358221220e7f527f0b63eef9a89d837d6f660b7fcaa40296d2042e469e89a6700e285a9cd64736f6c634300080f0033",
    "sourcePath": "/home/theodale/Desktop/marketplace/contracts/ChangeblockMarketplace.sol",
    "compiler": {
        "name": "solc",
        "version": "0.8.15+commit.e14f2714"
    },
    "functionHashes": {
        "ERC20Listings(uint256)": "02fa11bd",
        "ERC721Listings(uint256)": "f626dab0",
        "FEE_DENOMINATOR()": "d73792a9",
        "FEE_NUMERATOR()": "41cd47bf",
        "acceptBid(uint256,uint256,uint256)": "a2d0d029",
        "bid(uint256,uint256,uint256)": "2ac9bf09",
        "bids(uint256,uint256)": "7b3c4baa",
        "buyERC20(uint256,uint256,uint256)": "cb36639b",
        "buyERC721(uint256,uint256)": "efe5b871",
        "buyerApprovals(address)": "97895f3a",
        "currentBids(uint256,uint256)": "0f2f8b2d",
        "delistERC20(uint256,uint256)": "d73d55a3",
        "delistERC721(uint256)": "c1ab2a4f",
        "listERC20(uint256,uint256,address,address)": "66c7f8e5",
        "listERC721(uint256,uint256,address,address)": "151a4791",
        "owner()": "8da5cb5b",
        "renounceOwnership()": "715018a6",
        "sellerApprovals(address)": "fbcc0351",
        "setBuyers(address[],bool[])": "aebfa635",
        "setFeeDenominator()": "fec1d6c6",
        "setFeeNumerator()": "45d84c94",
        "setSellers(address[],bool[])": "2b2d0460",
        "transferOwnership(address)": "f2fde38b",
        "updateERC20Price(uint256,uint256)": "46b50478",
        "updateERC721Price(uint256,uint256)": "ffda0a0b",
        "withdrawBid(uint256,uint256)": "a5735662"
    },
    "gasEstimates": {
        "creation": {
            "codeDepositCost": "1643200",
            "executionCost": "infinite",
            "totalCost": "infinite"
        },
        "external": {
            "ERC20Listings(uint256)": "11070",
            "ERC721Listings(uint256)": "11090",
            "FEE_DENOMINATOR()": "2428",
            "FEE_NUMERATOR()": "2429",
            "acceptBid(uint256,uint256,uint256)": "infinite",
            "bid(uint256,uint256,uint256)": "144401",
            "bids(uint256,uint256)": "6911",
            "buyERC20(uint256,uint256,uint256)": "infinite",
            "buyERC721(uint256,uint256)": "infinite",
            "buyerApprovals(address)": "2642",
            "currentBids(uint256,uint256)": "4711",
            "delistERC20(uint256,uint256)": "infinite",
            "delistERC721(uint256)": "infinite",
            "listERC20(uint256,uint256,address,address)": "infinite",
            "listERC721(uint256,uint256,address,address)": "infinite",
            "owner()": "2390",
            "renounceOwnership()": "28159",
            "sellerApprovals(address)": "2597",
            "setBuyers(address[],bool[])": "infinite",
            "setFeeDenominator()": "2497",
            "setFeeNumerator()": "2455",
            "setSellers(address[],bool[])": "infinite",
            "transferOwnership(address)": "28398",
            "updateERC20Price(uint256,uint256)": "24702",
            "updateERC721Price(uint256,uint256)": "24744",
            "withdrawBid(uint256,uint256)": "infinite"
        },
        "internal": {
            "_removeBid(uint256,uint256)": "67658"
        }
    }
}