{
  "_format": "hh-sol-artifact-1",
  "contractName": "ChangeblockMarketplace",
  "sourceName": "contracts/ChangeblockMarketplace.sol",
  "abi": [
    {
      "inputs": [
        {
          "internalType": "uint256",
          "name": "feeNumerator",
          "type": "uint256"
        },
        {
          "internalType": "uint256",
          "name": "feeDenominator",
          "type": "uint256"
        },
        {
          "internalType": "address",
          "name": "treasury",
          "type": "address"
        }
      ],
      "stateMutability": "nonpayable",
      "type": "constructor"
    },
    {
      "anonymous": false,
      "inputs": [
        {
          "indexed": true,
          "internalType": "uint256",
          "name": "listingId",
          "type": "uint256"
        },
        {
          "indexed": false,
          "internalType": "uint256",
          "name": "quantity",
          "type": "uint256"
        },
        {
          "indexed": false,
          "internalType": "uint256",
          "name": "price",
          "type": "uint256"
        },
        {
          "indexed": false,
          "internalType": "address",
          "name": "bidder",
          "type": "address"
        }
      ],
      "name": "BidPlaced",
      "type": "event"
    },
    {
      "anonymous": false,
      "inputs": [
        {
          "indexed": true,
          "internalType": "uint256",
          "name": "listingId",
          "type": "uint256"
        },
        {
          "indexed": false,
          "internalType": "address",
          "name": "bidder",
          "type": "address"
        }
      ],
      "name": "BidWithdrawn",
      "type": "event"
    },
    {
      "anonymous": false,
      "inputs": [
        {
          "indexed": false,
          "internalType": "uint256",
          "name": "amount",
          "type": "uint256"
        },
        {
          "indexed": false,
          "internalType": "uint256",
          "name": "price",
          "type": "uint256"
        },
        {
          "indexed": true,
          "internalType": "address",
          "name": "vendor",
          "type": "address"
        },
        {
          "indexed": true,
          "internalType": "address",
          "name": "product",
          "type": "address"
        },
        {
          "indexed": false,
          "internalType": "address",
          "name": "currency",
          "type": "address"
        },
        {
          "indexed": false,
          "internalType": "uint256",
          "name": "listingId",
          "type": "uint256"
        }
      ],
      "name": "ERC20Registration",
      "type": "event"
    },
    {
      "anonymous": false,
      "inputs": [
        {
          "indexed": false,
          "internalType": "uint256",
          "name": "id",
          "type": "uint256"
        },
        {
          "indexed": false,
          "internalType": "uint256",
          "name": "price",
          "type": "uint256"
        },
        {
          "indexed": true,
          "internalType": "address",
          "name": "vendor",
          "type": "address"
        },
        {
          "indexed": true,
          "internalType": "address",
          "name": "product",
          "type": "address"
        },
        {
          "indexed": false,
          "internalType": "address",
          "name": "currency",
          "type": "address"
        },
        {
          "indexed": false,
          "internalType": "uint256",
          "name": "listingId",
          "type": "uint256"
        }
      ],
      "name": "ERC721Registration",
      "type": "event"
    },
    {
      "anonymous": false,
      "inputs": [
        {
          "indexed": true,
          "internalType": "address",
          "name": "previousOwner",
          "type": "address"
        },
        {
          "indexed": true,
          "internalType": "address",
          "name": "newOwner",
          "type": "address"
        }
      ],
      "name": "OwnershipTransferred",
      "type": "event"
    },
    {
      "anonymous": false,
      "inputs": [
        {
          "indexed": true,
          "internalType": "uint256",
          "name": "listingId",
          "type": "uint256"
        }
      ],
      "name": "Removal",
      "type": "event"
    },
    {
      "anonymous": false,
      "inputs": [
        {
          "indexed": true,
          "internalType": "uint256",
          "name": "listingId",
          "type": "uint256"
        }
      ],
      "name": "Sale",
      "type": "event"
    },
    {
      "inputs": [
        {
          "internalType": "uint256",
          "name": "",
          "type": "uint256"
        }
      ],
      "name": "ERC20listings",
      "outputs": [
        {
          "internalType": "uint256",
          "name": "amount",
          "type": "uint256"
        },
        {
          "internalType": "uint256",
          "name": "price",
          "type": "uint256"
        },
        {
          "internalType": "address",
          "name": "vendor",
          "type": "address"
        },
        {
          "internalType": "address",
          "name": "product",
          "type": "address"
        },
        {
          "internalType": "address",
          "name": "currency",
          "type": "address"
        }
      ],
      "stateMutability": "view",
      "type": "function"
    },
    {
      "inputs": [
        {
          "internalType": "uint256",
          "name": "",
          "type": "uint256"
        }
      ],
      "name": "ERC721listings",
      "outputs": [
        {
          "internalType": "uint256",
          "name": "id",
          "type": "uint256"
        },
        {
          "internalType": "uint256",
          "name": "price",
          "type": "uint256"
        },
        {
          "internalType": "address",
          "name": "vendor",
          "type": "address"
        },
        {
          "internalType": "address",
          "name": "product",
          "type": "address"
        },
        {
          "internalType": "address",
          "name": "currency",
          "type": "address"
        }
      ],
      "stateMutability": "view",
      "type": "function"
    },
    {
      "inputs": [],
      "name": "FEE_DENOMINATOR",
      "outputs": [
        {
          "internalType": "uint256",
          "name": "",
          "type": "uint256"
        }
      ],
      "stateMutability": "view",
      "type": "function"
    },
    {
      "inputs": [],
      "name": "FEE_NUMERATOR",
      "outputs": [
        {
          "internalType": "uint256",
          "name": "",
          "type": "uint256"
        }
      ],
      "stateMutability": "view",
      "type": "function"
    },
    {
      "inputs": [
        {
          "internalType": "uint256",
          "name": "listingId",
          "type": "uint256"
        },
        {
          "internalType": "uint256",
          "name": "bidId",
          "type": "uint256"
        }
      ],
      "name": "acceptBid",
      "outputs": [],
      "stateMutability": "nonpayable",
      "type": "function"
    },
    {
      "inputs": [
        {
          "internalType": "uint256",
          "name": "listingId",
          "type": "uint256"
        },
        {
          "internalType": "uint256",
          "name": "quantity",
          "type": "uint256"
        },
        {
          "internalType": "uint256",
          "name": "payment",
          "type": "uint256"
        }
      ],
      "name": "bid",
      "outputs": [],
      "stateMutability": "nonpayable",
      "type": "function"
    },
    {
      "inputs": [
        {
          "internalType": "uint256",
          "name": "listingId",
          "type": "uint256"
        },
        {
          "internalType": "uint256",
          "name": "amount",
          "type": "uint256"
        }
      ],
      "name": "buyERC20",
      "outputs": [],
      "stateMutability": "nonpayable",
      "type": "function"
    },
    {
      "inputs": [
        {
          "internalType": "uint256",
          "name": "listingId",
          "type": "uint256"
        }
      ],
      "name": "buyERC721",
      "outputs": [],
      "stateMutability": "nonpayable",
      "type": "function"
    },
    {
      "inputs": [
        {
          "internalType": "address",
          "name": "",
          "type": "address"
        }
      ],
      "name": "buyerApprovals",
      "outputs": [
        {
          "internalType": "bool",
          "name": "",
          "type": "bool"
        }
      ],
      "stateMutability": "view",
      "type": "function"
    },
    {
      "inputs": [
        {
          "internalType": "uint256",
          "name": "",
          "type": "uint256"
        },
        {
          "internalType": "uint256",
          "name": "",
          "type": "uint256"
        }
      ],
      "name": "currentBids",
      "outputs": [
        {
          "internalType": "uint256",
          "name": "",
          "type": "uint256"
        }
      ],
      "stateMutability": "view",
      "type": "function"
    },
    {
      "inputs": [
        {
          "internalType": "uint256",
          "name": "amount",
          "type": "uint256"
        },
        {
          "internalType": "uint256",
          "name": "listingId",
          "type": "uint256"
        }
      ],
      "name": "delistERC20",
      "outputs": [],
      "stateMutability": "nonpayable",
      "type": "function"
    },
    {
      "inputs": [
        {
          "internalType": "uint256",
          "name": "listingId",
          "type": "uint256"
        }
      ],
      "name": "delistERC721",
      "outputs": [],
      "stateMutability": "nonpayable",
      "type": "function"
    },
    {
      "inputs": [
        {
          "internalType": "uint256",
          "name": "amount",
          "type": "uint256"
        },
        {
          "internalType": "uint256",
          "name": "price",
          "type": "uint256"
        },
        {
          "internalType": "address",
          "name": "product",
          "type": "address"
        },
        {
          "internalType": "address",
          "name": "currency",
          "type": "address"
        }
      ],
      "name": "listERC20",
      "outputs": [
        {
          "internalType": "uint256",
          "name": "",
          "type": "uint256"
        }
      ],
      "stateMutability": "nonpayable",
      "type": "function"
    },
    {
      "inputs": [
        {
          "internalType": "uint256",
          "name": "id",
          "type": "uint256"
        },
        {
          "internalType": "uint256",
          "name": "price",
          "type": "uint256"
        },
        {
          "internalType": "address",
          "name": "product",
          "type": "address"
        },
        {
          "internalType": "address",
          "name": "currency",
          "type": "address"
        }
      ],
      "name": "listERC721",
      "outputs": [
        {
          "internalType": "uint256",
          "name": "",
          "type": "uint256"
        }
      ],
      "stateMutability": "nonpayable",
      "type": "function"
    },
    {
      "inputs": [],
      "name": "owner",
      "outputs": [
        {
          "internalType": "address",
          "name": "",
          "type": "address"
        }
      ],
      "stateMutability": "view",
      "type": "function"
    },
    {
      "inputs": [],
      "name": "renounceOwnership",
      "outputs": [],
      "stateMutability": "nonpayable",
      "type": "function"
    },
    {
      "inputs": [
        {
          "internalType": "address",
          "name": "",
          "type": "address"
        }
      ],
      "name": "sellerApprovals",
      "outputs": [
        {
          "internalType": "bool",
          "name": "",
          "type": "bool"
        }
      ],
      "stateMutability": "view",
      "type": "function"
    },
    {
      "inputs": [
        {
          "internalType": "address[]",
          "name": "targets",
          "type": "address[]"
        },
        {
          "internalType": "bool[]",
          "name": "approvals",
          "type": "bool[]"
        }
      ],
      "name": "setBuyers",
      "outputs": [],
      "stateMutability": "nonpayable",
      "type": "function"
    },
    {
      "inputs": [],
      "name": "setFeeDenominator",
      "outputs": [],
      "stateMutability": "nonpayable",
      "type": "function"
    },
    {
      "inputs": [],
      "name": "setFeeNumerator",
      "outputs": [],
      "stateMutability": "nonpayable",
      "type": "function"
    },
    {
      "inputs": [
        {
          "internalType": "address[]",
          "name": "targets",
          "type": "address[]"
        },
        {
          "internalType": "bool[]",
          "name": "approvals",
          "type": "bool[]"
        }
      ],
      "name": "setSellers",
      "outputs": [],
      "stateMutability": "nonpayable",
      "type": "function"
    },
    {
      "inputs": [
        {
          "internalType": "address",
          "name": "newOwner",
          "type": "address"
        }
      ],
      "name": "transferOwnership",
      "outputs": [],
      "stateMutability": "nonpayable",
      "type": "function"
    },
    {
      "inputs": [],
      "name": "updatePrice",
      "outputs": [],
      "stateMutability": "nonpayable",
      "type": "function"
    },
    {
      "inputs": [
        {
          "internalType": "uint256",
          "name": "listingId",
          "type": "uint256"
        },
        {
          "internalType": "uint256",
          "name": "bidId",
          "type": "uint256"
        }
      ],
      "name": "withdrawBid",
      "outputs": [],
      "stateMutability": "nonpayable",
      "type": "function"
    }
  ],
  "bytecode": "0x60806040523480156200001157600080fd5b5060405162003c4c38038062003c4c8339818101604052810190620000379190620001a9565b620000576200004b620000af60201b60201c565b620000b760201b60201c565b826008819055508160098190555080600a60006101000a81548173ffffffffffffffffffffffffffffffffffffffff021916908373ffffffffffffffffffffffffffffffffffffffff16021790555050505062000271565b600033905090565b60008060009054906101000a900473ffffffffffffffffffffffffffffffffffffffff169050816000806101000a81548173ffffffffffffffffffffffffffffffffffffffff021916908373ffffffffffffffffffffffffffffffffffffffff1602179055508173ffffffffffffffffffffffffffffffffffffffff168173ffffffffffffffffffffffffffffffffffffffff167f8be0079c531659141344cd1fd0a4f28419497f9722a3daafe3b4186f6b6457e060405160405180910390a35050565b6000815190506200018c816200023d565b92915050565b600081519050620001a38162000257565b92915050565b600080600060608486031215620001bf57600080fd5b6000620001cf8682870162000192565b9350506020620001e28682870162000192565b9250506040620001f5868287016200017b565b9150509250925092565b60006200020c8262000213565b9050919050565b600073ffffffffffffffffffffffffffffffffffffffff82169050919050565b6000819050919050565b6200024881620001ff565b81146200025457600080fd5b50565b620002628162000233565b81146200026e57600080fd5b50565b6139cb80620002816000396000f3fe608060405234801561001057600080fd5b50600436106101585760003560e01c8063944cce5b116100c3578063ca9950411161007c578063ca9950411461038b578063d73792a9146103bf578063d73d55a3146103dd578063f2fde38b146103f9578063fbcc035114610415578063fec1d6c61461044557610158565b8063944cce5b146102cf57806397895f3a146102eb578063a57356621461031b578063aebfa63514610337578063c1ab2a4f14610353578063c2a792571461036f57610158565b806341cd47bf1161011557806341cd47bf1461024557806345d84c941461026357806366c7f8e51461026d578063673a7e281461029d578063715018a6146102a75780638da5cb5b146102b157610158565b806302e9d5e41461015d57806304cd9502146101795780630f2f8b2d146101ad578063151a4791146101dd5780632ac9bf091461020d5780632b2d046014610229575b600080fd5b61017760048036038101906101729190612ef5565b61044f565b005b610193600480360381019061018e9190612ea3565b6107c7565b6040516101a4959493929190613445565b60405180910390f35b6101c760048036038101906101c29190612ef5565b61085d565b6040516101d491906133f3565b60405180910390f35b6101f760048036038101906101f29190612f31565b61088e565b60405161020491906133f3565b60405180910390f35b61022760048036038101906102229190612f94565b610ba0565b005b610243600480360381019061023e9190612ddc565b610e36565b005b61024d610fcb565b60405161025a91906133f3565b60405180910390f35b61026b610fd1565b005b61028760048036038101906102829190612f31565b61104f565b60405161029491906133f3565b60405180910390f35b6102a56113a3565b005b6102af6113a5565b005b6102b961142d565b6040516102c691906131b4565b60405180910390f35b6102e960048036038101906102e49190612ea3565b611456565b005b61030560048036038101906103009190612db3565b61193c565b6040516103129190613258565b60405180910390f35b61033560048036038101906103309190612ef5565b61195c565b005b610351600480360381019061034c9190612ddc565b611bfa565b005b61036d60048036038101906103689190612ea3565b611d8f565b005b61038960048036038101906103849190612ef5565b612022565b005b6103a560048036038101906103a09190612ea3565b612515565b6040516103b6959493929190613445565b60405180910390f35b6103c76125ab565b6040516103d491906133f3565b60405180910390f35b6103f760048036038101906103f29190612ef5565b6125b1565b005b610413600480360381019061040e9190612db3565b6128d4565b005b61042f600480360381019061042a9190612db3565b6129cc565b60405161043c9190613258565b60405180910390f35b61044d6129ec565b005b60006003600084815260200190815260200160002060020160009054906101000a900473ffffffffffffffffffffffffffffffffffffffff1690503373ffffffffffffffffffffffffffffffffffffffff168173ffffffffffffffffffffffffffffffffffffffff16146104f8576040517f08c379a00000000000000000000000000000000000000000000000000000000081526004016104ef906133b3565b60405180910390fd5b6000600560008581526020019081526020016000206000848152602001908152602001600020600001549050806003600086815260200190815260200160002060000154101561057d576040517f08c379a000000000000000000000000000000000000000000000000000000000815260040161057490613393565b60405180910390fd5b6003600085815260200190815260200160002060040160009054906101000a900473ffffffffffffffffffffffffffffffffffffffff1673ffffffffffffffffffffffffffffffffffffffff1663a9059cbb83600560008881526020019081526020016000206000878152602001908152602001600020600101546040518363ffffffff1660e01b815260040161061592919061322f565b602060405180830381600087803b15801561062f57600080fd5b505af1158015610643573d6000803e3d6000fd5b505050506040513d601f19601f820116820180604052508101906106679190612e7a565b506003600085815260200190815260200160002060030160009054906101000a900473ffffffffffffffffffffffffffffffffffffffff1673ffffffffffffffffffffffffffffffffffffffff1663a9059cbb33836040518363ffffffff1660e01b81526004016106d992919061322f565b602060405180830381600087803b1580156106f357600080fd5b505af1158015610707573d6000803e3d6000fd5b505050506040513d601f19601f8201168201806040525081019061072b9190612e7a565b508060036000868152602001908152602001600020600001600082825461075291906135cf565b925050819055506107638484612a6a565b60056000858152602001908152602001600020600084815260200190815260200160002060008082016000905560018201600090556002820160006101000a81549073ffffffffffffffffffffffffffffffffffffffff0219169055505050505050565b60036020528060005260406000206000915090508060000154908060010154908060020160009054906101000a900473ffffffffffffffffffffffffffffffffffffffff16908060030160009054906101000a900473ffffffffffffffffffffffffffffffffffffffff16908060040160009054906101000a900473ffffffffffffffffffffffffffffffffffffffff16905085565b6006602052816000526040600020818154811061087957600080fd5b90600052602060002001600091509150505481565b6000600160003373ffffffffffffffffffffffffffffffffffffffff1673ffffffffffffffffffffffffffffffffffffffff16815260200190815260200160002060009054906101000a900460ff1661091c576040517f08c379a000000000000000000000000000000000000000000000000000000000815260040161091390613293565b60405180910390fd5b8273ffffffffffffffffffffffffffffffffffffffff166323b872dd3330886040518463ffffffff1660e01b8152600401610959939291906131f8565b600060405180830381600087803b15801561097357600080fd5b505af1158015610987573d6000803e3d6000fd5b50505050600085853386866040516020016109a6959493929190613445565b6040516020818303038152906040528051906020012060001c90506040518060a001604052808781526020018681526020013373ffffffffffffffffffffffffffffffffffffffff1681526020018573ffffffffffffffffffffffffffffffffffffffff1681526020018473ffffffffffffffffffffffffffffffffffffffff1681525060046000838152602001908152602001600020600082015181600001556020820151816001015560408201518160020160006101000a81548173ffffffffffffffffffffffffffffffffffffffff021916908373ffffffffffffffffffffffffffffffffffffffff16021790555060608201518160030160006101000a81548173ffffffffffffffffffffffffffffffffffffffff021916908373ffffffffffffffffffffffffffffffffffffffff16021790555060808201518160040160006101000a81548173ffffffffffffffffffffffffffffffffffffffff021916908373ffffffffffffffffffffffffffffffffffffffff1602179055509050508373ffffffffffffffffffffffffffffffffffffffff163373ffffffffffffffffffffffffffffffffffffffff167f96121474b4be0e5edfa0cf9721fe3e06611dc0048f4ec160f3f4aa1c5ca3ec4188888786604051610b8c9493929190613498565b60405180910390a380915050949350505050565b600260003373ffffffffffffffffffffffffffffffffffffffff1673ffffffffffffffffffffffffffffffffffffffff16815260200190815260200160002060009054906101000a900460ff16610c2c576040517f08c379a0000000000000000000000000000000000000000000000000000000008152600401610c2390613313565b60405180910390fd5b6000828233604051602001610c439392919061340e565b6040516020818303038152906040528051906020012060001c905060006005600086815260200190815260200160002060008381526020019081526020016000206001015414610cc8576040517f08c379a0000000000000000000000000000000000000000000000000000000008152600401610cbf90613353565b60405180910390fd5b6006600085815260200190815260200160002080549050600760008681526020019081526020016000206000838152602001908152602001600020819055506006600085815260200190815260200160002081908060018154018082558091505060019003906000526020600020016000909190919091505560405180606001604052808481526020018381526020013373ffffffffffffffffffffffffffffffffffffffff16815250600560008681526020019081526020016000206000838152602001908152602001600020600082015181600001556020820151816001015560408201518160020160006101000a81548173ffffffffffffffffffffffffffffffffffffffff021916908373ffffffffffffffffffffffffffffffffffffffff160217905550905050837f379fe8bc550443c6867a021184bb0e5a961f3fcd271160873847410c7bdd0e28848433604051610e289392919061340e565b60405180910390a250505050565b610e3e612bea565b73ffffffffffffffffffffffffffffffffffffffff16610e5c61142d565b73ffffffffffffffffffffffffffffffffffffffff1614610eb2576040517f08c379a0000000000000000000000000000000000000000000000000000000008152600401610ea990613333565b60405180910390fd5b60005b84849050811015610fc457828282818110610ef9577f4e487b7100000000000000000000000000000000000000000000000000000000600052603260045260246000fd5b9050602002016020810190610f0e9190612e51565b60016000878785818110610f4b577f4e487b7100000000000000000000000000000000000000000000000000000000600052603260045260246000fd5b9050602002016020810190610f609190612db3565b73ffffffffffffffffffffffffffffffffffffffff1673ffffffffffffffffffffffffffffffffffffffff16815260200190815260200160002060006101000a81548160ff0219169083151502179055508080610fbc9061364b565b915050610eb5565b5050505050565b60085481565b610fd9612bea565b73ffffffffffffffffffffffffffffffffffffffff16610ff761142d565b73ffffffffffffffffffffffffffffffffffffffff161461104d576040517f08c379a000000000000000000000000000000000000000000000000000000000815260040161104490613333565b60405180910390fd5b565b6000600160003373ffffffffffffffffffffffffffffffffffffffff1673ffffffffffffffffffffffffffffffffffffffff16815260200190815260200160002060009054906101000a900460ff166110dd576040517f08c379a00000000000000000000000000000000000000000000000000000000081526004016110d490613293565b60405180910390fd5b8273ffffffffffffffffffffffffffffffffffffffff166323b872dd3330886040518463ffffffff1660e01b815260040161111a939291906131f8565b602060405180830381600087803b15801561113457600080fd5b505af1158015611148573d6000803e3d6000fd5b505050506040513d601f19601f8201168201806040525081019061116c9190612e7a565b5060008585338686604051602001611188959493929190613445565b6040516020818303038152906040528051906020012060001c90506040518060a001604052806003600084815260200190815260200160002060000154886111d091906134ee565b81526020018681526020013373ffffffffffffffffffffffffffffffffffffffff1681526020018573ffffffffffffffffffffffffffffffffffffffff1681526020018473ffffffffffffffffffffffffffffffffffffffff1681525060036000838152602001908152602001600020600082015181600001556020820151816001015560408201518160020160006101000a81548173ffffffffffffffffffffffffffffffffffffffff021916908373ffffffffffffffffffffffffffffffffffffffff16021790555060608201518160030160006101000a81548173ffffffffffffffffffffffffffffffffffffffff021916908373ffffffffffffffffffffffffffffffffffffffff16021790555060808201518160040160006101000a81548173ffffffffffffffffffffffffffffffffffffffff021916908373ffffffffffffffffffffffffffffffffffffffff1602179055509050508373ffffffffffffffffffffffffffffffffffffffff163373ffffffffffffffffffffffffffffffffffffffff167f4dac2e5e670f156eb092f4d2b4bd3db441153ea88b602e360195f855f144c6d78888878660405161138f9493929190613498565b60405180910390a380915050949350505050565b565b6113ad612bea565b73ffffffffffffffffffffffffffffffffffffffff166113cb61142d565b73ffffffffffffffffffffffffffffffffffffffff1614611421576040517f08c379a000000000000000000000000000000000000000000000000000000000815260040161141890613333565b60405180910390fd5b61142b6000612bf2565b565b60008060009054906101000a900473ffffffffffffffffffffffffffffffffffffffff16905090565b600260003373ffffffffffffffffffffffffffffffffffffffff1673ffffffffffffffffffffffffffffffffffffffff16815260200190815260200160002060009054906101000a900460ff166114e2576040517f08c379a00000000000000000000000000000000000000000000000000000000081526004016114d990613313565b60405180910390fd5b6000600460008381526020019081526020016000206040518060a001604052908160008201548152602001600182015481526020016002820160009054906101000a900473ffffffffffffffffffffffffffffffffffffffff1673ffffffffffffffffffffffffffffffffffffffff1673ffffffffffffffffffffffffffffffffffffffff1681526020016003820160009054906101000a900473ffffffffffffffffffffffffffffffffffffffff1673ffffffffffffffffffffffffffffffffffffffff1673ffffffffffffffffffffffffffffffffffffffff1681526020016004820160009054906101000a900473ffffffffffffffffffffffffffffffffffffffff1673ffffffffffffffffffffffffffffffffffffffff1673ffffffffffffffffffffffffffffffffffffffff16815250509050600073ffffffffffffffffffffffffffffffffffffffff16816080015173ffffffffffffffffffffffffffffffffffffffff16141561168e576040517f08c379a000000000000000000000000000000000000000000000000000000000815260040161168590613373565b60405180910390fd5b600060095460085483602001516116a59190613575565b6116af9190613544565b9050816080015173ffffffffffffffffffffffffffffffffffffffff1663dd62ed3e33306040518363ffffffff1660e01b81526004016116f09291906131cf565b60206040518083038186803b15801561170857600080fd5b505afa15801561171c573d6000803e3d6000fd5b505050506040513d601f19601f820116820180604052508101906117409190612ecc565b50816080015173ffffffffffffffffffffffffffffffffffffffff166323b872dd33846040015185602001516040518463ffffffff1660e01b815260040161178a939291906131f8565b602060405180830381600087803b1580156117a457600080fd5b505af11580156117b8573d6000803e3d6000fd5b505050506040513d601f19601f820116820180604052508101906117dc9190612e7a565b50816080015173ffffffffffffffffffffffffffffffffffffffff166323b872dd33600a60009054906101000a900473ffffffffffffffffffffffffffffffffffffffff16846040518463ffffffff1660e01b8152600401611840939291906131f8565b602060405180830381600087803b15801561185a57600080fd5b505af115801561186e573d6000803e3d6000fd5b505050506040513d601f19601f820116820180604052508101906118929190612e7a565b50816060015173ffffffffffffffffffffffffffffffffffffffff166323b872dd303385600001516040518463ffffffff1660e01b81526004016118d8939291906131f8565b600060405180830381600087803b1580156118f257600080fd5b505af1158015611906573d6000803e3d6000fd5b50505050827fc0a8d68d4d1f533ef6cdb7a49068cbe04356682803cb7983c4ba33ce99100efd60405160405180910390a2505050565b60026020528060005260406000206000915054906101000a900460ff1681565b600260003373ffffffffffffffffffffffffffffffffffffffff1673ffffffffffffffffffffffffffffffffffffffff16815260200190815260200160002060009054906101000a900460ff166119e8576040517f08c379a00000000000000000000000000000000000000000000000000000000081526004016119df90613313565b60405180910390fd5b600060056000848152602001908152602001600020600083815260200190815260200160002060020160009054906101000a900473ffffffffffffffffffffffffffffffffffffffff1690508073ffffffffffffffffffffffffffffffffffffffff163373ffffffffffffffffffffffffffffffffffffffff1614611aa2576040517f08c379a0000000000000000000000000000000000000000000000000000000008152600401611a99906132d3565b60405180910390fd5b6003600084815260200190815260200160002060040160009054906101000a900473ffffffffffffffffffffffffffffffffffffffff1673ffffffffffffffffffffffffffffffffffffffff1663a9059cbb82600560008781526020019081526020016000206000868152602001908152602001600020600101546040518363ffffffff1660e01b8152600401611b3a92919061322f565b602060405180830381600087803b158015611b5457600080fd5b505af1158015611b68573d6000803e3d6000fd5b505050506040513d601f19601f82011682018060405250810190611b8c9190612e7a565b50611b978383612a6a565b60056000848152602001908152602001600020600083815260200190815260200160002060008082016000905560018201600090556002820160006101000a81549073ffffffffffffffffffffffffffffffffffffffff02191690555050505050565b611c02612bea565b73ffffffffffffffffffffffffffffffffffffffff16611c2061142d565b73ffffffffffffffffffffffffffffffffffffffff1614611c76576040517f08c379a0000000000000000000000000000000000000000000000000000000008152600401611c6d90613333565b60405180910390fd5b60005b84849050811015611d8857828282818110611cbd577f4e487b7100000000000000000000000000000000000000000000000000000000600052603260045260246000fd5b9050602002016020810190611cd29190612e51565b60026000878785818110611d0f577f4e487b7100000000000000000000000000000000000000000000000000000000600052603260045260246000fd5b9050602002016020810190611d249190612db3565b73ffffffffffffffffffffffffffffffffffffffff1673ffffffffffffffffffffffffffffffffffffffff16815260200190815260200160002060006101000a81548160ff0219169083151502179055508080611d809061364b565b915050611c79565b5050505050565b6000600460008381526020019081526020016000206040518060a001604052908160008201548152602001600182015481526020016002820160009054906101000a900473ffffffffffffffffffffffffffffffffffffffff1673ffffffffffffffffffffffffffffffffffffffff1673ffffffffffffffffffffffffffffffffffffffff1681526020016003820160009054906101000a900473ffffffffffffffffffffffffffffffffffffffff1673ffffffffffffffffffffffffffffffffffffffff1673ffffffffffffffffffffffffffffffffffffffff1681526020016004820160009054906101000a900473ffffffffffffffffffffffffffffffffffffffff1673ffffffffffffffffffffffffffffffffffffffff1673ffffffffffffffffffffffffffffffffffffffff168152505090503373ffffffffffffffffffffffffffffffffffffffff16816040015173ffffffffffffffffffffffffffffffffffffffff161480611f3757503373ffffffffffffffffffffffffffffffffffffffff16611f1f61142d565b73ffffffffffffffffffffffffffffffffffffffff16145b611f76576040517f08c379a0000000000000000000000000000000000000000000000000000000008152600401611f6d906133d3565b60405180910390fd5b806060015173ffffffffffffffffffffffffffffffffffffffff166323b872dd30836040015184600001516040518463ffffffff1660e01b8152600401611fbf939291906131f8565b600060405180830381600087803b158015611fd957600080fd5b505af1158015611fed573d6000803e3d6000fd5b50505050817f5db62f6a54d48d9bc8ab38f41eef80d3d41af8ab21d4c850a3276eb553d8efb160405160405180910390a25050565b600260003373ffffffffffffffffffffffffffffffffffffffff1673ffffffffffffffffffffffffffffffffffffffff16815260200190815260200160002060009054906101000a900460ff166120ae576040517f08c379a00000000000000000000000000000000000000000000000000000000081526004016120a590613313565b60405180910390fd5b6000600360008481526020019081526020016000206040518060a001604052908160008201548152602001600182015481526020016002820160009054906101000a900473ffffffffffffffffffffffffffffffffffffffff1673ffffffffffffffffffffffffffffffffffffffff1673ffffffffffffffffffffffffffffffffffffffff1681526020016003820160009054906101000a900473ffffffffffffffffffffffffffffffffffffffff1673ffffffffffffffffffffffffffffffffffffffff1673ffffffffffffffffffffffffffffffffffffffff1681526020016004820160009054906101000a900473ffffffffffffffffffffffffffffffffffffffff1673ffffffffffffffffffffffffffffffffffffffff1673ffffffffffffffffffffffffffffffffffffffff16815250509050600073ffffffffffffffffffffffffffffffffffffffff16816080015173ffffffffffffffffffffffffffffffffffffffff16141561225a576040517f08c379a000000000000000000000000000000000000000000000000000000000815260040161225190613373565b60405180910390fd5b600081602001518361226c9190613575565b90506000600954600854836122819190613575565b61228b9190613544565b9050826080015173ffffffffffffffffffffffffffffffffffffffff166323b872dd338560400151856040518463ffffffff1660e01b81526004016122d2939291906131f8565b602060405180830381600087803b1580156122ec57600080fd5b505af1158015612300573d6000803e3d6000fd5b505050506040513d601f19601f820116820180604052508101906123249190612e7a565b50826080015173ffffffffffffffffffffffffffffffffffffffff166323b872dd33600a60009054906101000a900473ffffffffffffffffffffffffffffffffffffffff16846040518463ffffffff1660e01b8152600401612388939291906131f8565b602060405180830381600087803b1580156123a257600080fd5b505af11580156123b6573d6000803e3d6000fd5b505050506040513d601f19601f820116820180604052508101906123da9190612e7a565b508383600001511015612422576040517f08c379a0000000000000000000000000000000000000000000000000000000008152600401612419906132b3565b60405180910390fd5b826060015173ffffffffffffffffffffffffffffffffffffffff1663a9059cbb33866040518363ffffffff1660e01b815260040161246192919061322f565b602060405180830381600087803b15801561247b57600080fd5b505af115801561248f573d6000803e3d6000fd5b505050506040513d601f19601f820116820180604052508101906124b39190612e7a565b50836003600087815260200190815260200160002060000160008282546124da91906135cf565b92505081905550847fc0a8d68d4d1f533ef6cdb7a49068cbe04356682803cb7983c4ba33ce99100efd60405160405180910390a25050505050565b60046020528060005260406000206000915090508060000154908060010154908060020160009054906101000a900473ffffffffffffffffffffffffffffffffffffffff16908060030160009054906101000a900473ffffffffffffffffffffffffffffffffffffffff16908060040160009054906101000a900473ffffffffffffffffffffffffffffffffffffffff16905085565b60095481565b6000600360008381526020019081526020016000206040518060a001604052908160008201548152602001600182015481526020016002820160009054906101000a900473ffffffffffffffffffffffffffffffffffffffff1673ffffffffffffffffffffffffffffffffffffffff1673ffffffffffffffffffffffffffffffffffffffff1681526020016003820160009054906101000a900473ffffffffffffffffffffffffffffffffffffffff1673ffffffffffffffffffffffffffffffffffffffff1673ffffffffffffffffffffffffffffffffffffffff1681526020016004820160009054906101000a900473ffffffffffffffffffffffffffffffffffffffff1673ffffffffffffffffffffffffffffffffffffffff1673ffffffffffffffffffffffffffffffffffffffff168152505090503373ffffffffffffffffffffffffffffffffffffffff16816040015173ffffffffffffffffffffffffffffffffffffffff16148061275957503373ffffffffffffffffffffffffffffffffffffffff1661274161142d565b73ffffffffffffffffffffffffffffffffffffffff16145b612798576040517f08c379a000000000000000000000000000000000000000000000000000000000815260040161278f906133d3565b60405180910390fd5b82816000015110156127df576040517f08c379a00000000000000000000000000000000000000000000000000000000081526004016127d6906132f3565b60405180910390fd5b806060015173ffffffffffffffffffffffffffffffffffffffff1663a9059cbb8260400151856040518363ffffffff1660e01b815260040161282292919061322f565b602060405180830381600087803b15801561283c57600080fd5b505af1158015612850573d6000803e3d6000fd5b505050506040513d601f19601f820116820180604052508101906128749190612e7a565b508260036000848152602001908152602001600020600001600082825461289b91906135cf565b92505081905550817f5db62f6a54d48d9bc8ab38f41eef80d3d41af8ab21d4c850a3276eb553d8efb160405160405180910390a2505050565b6128dc612bea565b73ffffffffffffffffffffffffffffffffffffffff166128fa61142d565b73ffffffffffffffffffffffffffffffffffffffff1614612950576040517f08c379a000000000000000000000000000000000000000000000000000000000815260040161294790613333565b60405180910390fd5b600073ffffffffffffffffffffffffffffffffffffffff168173ffffffffffffffffffffffffffffffffffffffff1614156129c0576040517f08c379a00000000000000000000000000000000000000000000000000000000081526004016129b790613273565b60405180910390fd5b6129c981612bf2565b50565b60016020528060005260406000206000915054906101000a900460ff1681565b6129f4612bea565b73ffffffffffffffffffffffffffffffffffffffff16612a1261142d565b73ffffffffffffffffffffffffffffffffffffffff1614612a68576040517f08c379a0000000000000000000000000000000000000000000000000000000008152600401612a5f90613333565b60405180910390fd5b565b6006600083815260200190815260200160002060016006600085815260200190815260200160002080549050612aa091906135cf565b81548110612ad7577f4e487b7100000000000000000000000000000000000000000000000000000000600052603260045260246000fd5b9060005260206000200154600660008481526020019081526020016000206007600085815260200190815260200160002060008481526020019081526020016000205481548110612b51577f4e487b7100000000000000000000000000000000000000000000000000000000600052603260045260246000fd5b906000526020600020018190555060066000838152602001908152602001600020805480612ba8577f4e487b7100000000000000000000000000000000000000000000000000000000600052603160045260246000fd5b60019003818190600052602060002001600090559055600760008381526020019081526020016000206000828152602001908152602001600020600090555050565b600033905090565b60008060009054906101000a900473ffffffffffffffffffffffffffffffffffffffff169050816000806101000a81548173ffffffffffffffffffffffffffffffffffffffff021916908373ffffffffffffffffffffffffffffffffffffffff1602179055508173ffffffffffffffffffffffffffffffffffffffff168173ffffffffffffffffffffffffffffffffffffffff167f8be0079c531659141344cd1fd0a4f28419497f9722a3daafe3b4186f6b6457e060405160405180910390a35050565b600081359050612cc581613950565b92915050565b60008083601f840112612cdd57600080fd5b8235905067ffffffffffffffff811115612cf657600080fd5b602083019150836020820283011115612d0e57600080fd5b9250929050565b60008083601f840112612d2757600080fd5b8235905067ffffffffffffffff811115612d4057600080fd5b602083019150836020820283011115612d5857600080fd5b9250929050565b600081359050612d6e81613967565b92915050565b600081519050612d8381613967565b92915050565b600081359050612d988161397e565b92915050565b600081519050612dad8161397e565b92915050565b600060208284031215612dc557600080fd5b6000612dd384828501612cb6565b91505092915050565b60008060008060408587031215612df257600080fd5b600085013567ffffffffffffffff811115612e0c57600080fd5b612e1887828801612ccb565b9450945050602085013567ffffffffffffffff811115612e3757600080fd5b612e4387828801612d15565b925092505092959194509250565b600060208284031215612e6357600080fd5b6000612e7184828501612d5f565b91505092915050565b600060208284031215612e8c57600080fd5b6000612e9a84828501612d74565b91505092915050565b600060208284031215612eb557600080fd5b6000612ec384828501612d89565b91505092915050565b600060208284031215612ede57600080fd5b6000612eec84828501612d9e565b91505092915050565b60008060408385031215612f0857600080fd5b6000612f1685828601612d89565b9250506020612f2785828601612d89565b9150509250929050565b60008060008060808587031215612f4757600080fd5b6000612f5587828801612d89565b9450506020612f6687828801612d89565b9350506040612f7787828801612cb6565b9250506060612f8887828801612cb6565b91505092959194509250565b600080600060608486031215612fa957600080fd5b6000612fb786828701612d89565b9350506020612fc886828701612d89565b9250506040612fd986828701612d89565b9150509250925092565b612fec81613603565b82525050565b612ffb81613615565b82525050565b600061300e6026836134dd565b9150613019826136f2565b604082019050919050565b60006130316015836134dd565b915061303c82613741565b602082019050919050565b6000613054601a836134dd565b915061305f8261376a565b602082019050919050565b6000613077601c836134dd565b915061308282613793565b602082019050919050565b600061309a601a836134dd565b91506130a5826137bc565b602082019050919050565b60006130bd6014836134dd565b91506130c8826137e5565b602082019050919050565b60006130e06020836134dd565b91506130eb8261380e565b602082019050919050565b6000613103601d836134dd565b915061310e82613837565b602082019050919050565b60006131266013836134dd565b915061313182613860565b602082019050919050565b60006131496029836134dd565b915061315482613889565b604082019050919050565b600061316c601c836134dd565b9150613177826138d8565b602082019050919050565b600061318f602b836134dd565b915061319a82613901565b604082019050919050565b6131ae81613641565b82525050565b60006020820190506131c96000830184612fe3565b92915050565b60006040820190506131e46000830185612fe3565b6131f16020830184612fe3565b9392505050565b600060608201905061320d6000830186612fe3565b61321a6020830185612fe3565b61322760408301846131a5565b949350505050565b60006040820190506132446000830185612fe3565b61325160208301846131a5565b9392505050565b600060208201905061326d6000830184612ff2565b92915050565b6000602082019050818103600083015261328c81613001565b9050919050565b600060208201905081810360008301526132ac81613024565b9050919050565b600060208201905081810360008301526132cc81613047565b9050919050565b600060208201905081810360008301526132ec8161306a565b9050919050565b6000602082019050818103600083015261330c8161308d565b9050919050565b6000602082019050818103600083015261332c816130b0565b9050919050565b6000602082019050818103600083015261334c816130d3565b9050919050565b6000602082019050818103600083015261336c816130f6565b9050919050565b6000602082019050818103600083015261338c81613119565b9050919050565b600060208201905081810360008301526133ac8161313c565b9050919050565b600060208201905081810360008301526133cc8161315f565b9050919050565b600060208201905081810360008301526133ec81613182565b9050919050565b600060208201905061340860008301846131a5565b92915050565b600060608201905061342360008301866131a5565b61343060208301856131a5565b61343d6040830184612fe3565b949350505050565b600060a08201905061345a60008301886131a5565b61346760208301876131a5565b6134746040830186612fe3565b6134816060830185612fe3565b61348e6080830184612fe3565b9695505050505050565b60006080820190506134ad60008301876131a5565b6134ba60208301866131a5565b6134c76040830185612fe3565b6134d460608301846131a5565b95945050505050565b600082825260208201905092915050565b60006134f982613641565b915061350483613641565b9250827fffffffffffffffffffffffffffffffffffffffffffffffffffffffffffffffff0382111561353957613538613694565b5b828201905092915050565b600061354f82613641565b915061355a83613641565b92508261356a576135696136c3565b5b828204905092915050565b600061358082613641565b915061358b83613641565b9250817fffffffffffffffffffffffffffffffffffffffffffffffffffffffffffffffff04831182151516156135c4576135c3613694565b5b828202905092915050565b60006135da82613641565b91506135e583613641565b9250828210156135f8576135f7613694565b5b828203905092915050565b600061360e82613621565b9050919050565b60008115159050919050565b600073ffffffffffffffffffffffffffffffffffffffff82169050919050565b6000819050919050565b600061365682613641565b91507fffffffffffffffffffffffffffffffffffffffffffffffffffffffffffffffff82141561368957613688613694565b5b600182019050919050565b7f4e487b7100000000000000000000000000000000000000000000000000000000600052601160045260246000fd5b7f4e487b7100000000000000000000000000000000000000000000000000000000600052601260045260246000fd5b7f4f776e61626c653a206e6577206f776e657220697320746865207a65726f206160008201527f6464726573730000000000000000000000000000000000000000000000000000602082015250565b7f417070726f7665642073656c6c657273206f6e6c790000000000000000000000600082015250565b7f496e73756666696369656e74206c697374656420746f6b656e73000000000000600082015250565b7f4f6e6c79206269646465722063616e2063616e63656c20612062696400000000600082015250565b7f496e73756666696369656e7420746f6b656e73206c6973746564000000000000600082015250565b7f417070726f76656420627579657273206f6e6c79000000000000000000000000600082015250565b7f4f776e61626c653a2063616c6c6572206973206e6f7420746865206f776e6572600082015250565b7f426964206f662074686973207479706520616c7265616479206d616465000000600082015250565b7f696e76616c69642049442070726f766964656400000000000000000000000000600082015250565b7f496e73756666696369656e7420746f6b656e73206c697374656420746f20667560008201527f6c66696c6c206269640000000000000000000000000000000000000000000000602082015250565b7f4f6e6c792076656e646f722063616e2061636365707420612062696400000000600082015250565b7f4f6e6c792076656e646f72206f72206d61726b6574706c616365206f776e657260008201527f2063616e2064656c697374000000000000000000000000000000000000000000602082015250565b61395981613603565b811461396457600080fd5b50565b61397081613615565b811461397b57600080fd5b50565b61398781613641565b811461399257600080fd5b5056fea26469706673582212204af632c97ccfa972bff7687a358ddb0960d0aa465ee0998b1c46336817bb151864736f6c63430008040033",
  "linkReferences": {},
  "deployedLinkReferences": {}
}