{
  "_format": "hh-sol-artifact-1",
  "contractName": "ChangeblockMarketplace",
  "sourceName": "contracts/ChangeblockMarketplace.sol",
  "abi": [
    {
      "inputs": [
        {
          "internalType": "uint256",
          "name": "feeNumerator",
          "type": "uint256"
        },
        {
          "internalType": "uint256",
          "name": "feeDenominator",
          "type": "uint256"
        },
        {
          "internalType": "address",
          "name": "treasury",
          "type": "address"
        }
      ],
      "stateMutability": "nonpayable",
      "type": "constructor"
    },
    {
      "anonymous": false,
      "inputs": [
        {
          "indexed": true,
          "internalType": "uint256",
          "name": "listingId",
          "type": "uint256"
        },
        {
          "indexed": false,
          "internalType": "uint256",
          "name": "quantity",
          "type": "uint256"
        },
        {
          "indexed": false,
          "internalType": "uint256",
          "name": "price",
          "type": "uint256"
        },
        {
          "indexed": false,
          "internalType": "address",
          "name": "bidder",
          "type": "address"
        }
      ],
      "name": "BidPlaced",
      "type": "event"
    },
    {
      "anonymous": false,
      "inputs": [
        {
          "indexed": true,
          "internalType": "uint256",
          "name": "listingId",
          "type": "uint256"
        },
        {
          "indexed": false,
          "internalType": "address",
          "name": "bidder",
          "type": "address"
        }
      ],
      "name": "BidWithdrawn",
      "type": "event"
    },
    {
      "anonymous": false,
      "inputs": [
        {
          "indexed": true,
          "internalType": "uint256",
          "name": "listingId",
          "type": "uint256"
        },
        {
          "indexed": false,
          "internalType": "uint256",
          "name": "price",
          "type": "uint256"
        }
      ],
      "name": "ERC20PriceUpdate",
      "type": "event"
    },
    {
      "anonymous": false,
      "inputs": [
        {
          "indexed": false,
          "internalType": "uint256",
          "name": "amount",
          "type": "uint256"
        },
        {
          "indexed": false,
          "internalType": "uint256",
          "name": "price",
          "type": "uint256"
        },
        {
          "indexed": true,
          "internalType": "address",
          "name": "vendor",
          "type": "address"
        },
        {
          "indexed": true,
          "internalType": "address",
          "name": "product",
          "type": "address"
        },
        {
          "indexed": false,
          "internalType": "address",
          "name": "currency",
          "type": "address"
        },
        {
          "indexed": false,
          "internalType": "uint256",
          "name": "listingId",
          "type": "uint256"
        }
      ],
      "name": "ERC20Registration",
      "type": "event"
    },
    {
      "anonymous": false,
      "inputs": [
        {
          "indexed": false,
          "internalType": "uint256",
          "name": "id",
          "type": "uint256"
        },
        {
          "indexed": false,
          "internalType": "uint256",
          "name": "price",
          "type": "uint256"
        },
        {
          "indexed": true,
          "internalType": "address",
          "name": "vendor",
          "type": "address"
        },
        {
          "indexed": true,
          "internalType": "address",
          "name": "product",
          "type": "address"
        },
        {
          "indexed": false,
          "internalType": "address",
          "name": "currency",
          "type": "address"
        },
        {
          "indexed": false,
          "internalType": "uint256",
          "name": "listingId",
          "type": "uint256"
        }
      ],
      "name": "ERC721Registration",
      "type": "event"
    },
    {
      "anonymous": false,
      "inputs": [
        {
          "indexed": true,
          "internalType": "address",
          "name": "previousOwner",
          "type": "address"
        },
        {
          "indexed": true,
          "internalType": "address",
          "name": "newOwner",
          "type": "address"
        }
      ],
      "name": "OwnershipTransferred",
      "type": "event"
    },
    {
      "anonymous": false,
      "inputs": [
        {
          "indexed": true,
          "internalType": "uint256",
          "name": "listingId",
          "type": "uint256"
        }
      ],
      "name": "Sale",
      "type": "event"
    },
    {
      "inputs": [
        {
          "internalType": "uint256",
          "name": "",
          "type": "uint256"
        }
      ],
      "name": "ERC20Listings",
      "outputs": [
        {
          "internalType": "uint256",
          "name": "amount",
          "type": "uint256"
        },
        {
          "internalType": "uint256",
          "name": "price",
          "type": "uint256"
        },
        {
          "internalType": "address",
          "name": "vendor",
          "type": "address"
        },
        {
          "internalType": "address",
          "name": "product",
          "type": "address"
        },
        {
          "internalType": "address",
          "name": "currency",
          "type": "address"
        }
      ],
      "stateMutability": "view",
      "type": "function"
    },
    {
      "inputs": [
        {
          "internalType": "uint256",
          "name": "",
          "type": "uint256"
        }
      ],
      "name": "ERC721Listings",
      "outputs": [
        {
          "internalType": "uint256",
          "name": "id",
          "type": "uint256"
        },
        {
          "internalType": "uint256",
          "name": "price",
          "type": "uint256"
        },
        {
          "internalType": "address",
          "name": "vendor",
          "type": "address"
        },
        {
          "internalType": "address",
          "name": "product",
          "type": "address"
        },
        {
          "internalType": "address",
          "name": "currency",
          "type": "address"
        }
      ],
      "stateMutability": "view",
      "type": "function"
    },
    {
      "inputs": [],
      "name": "FEE_DENOMINATOR",
      "outputs": [
        {
          "internalType": "uint256",
          "name": "",
          "type": "uint256"
        }
      ],
      "stateMutability": "view",
      "type": "function"
    },
    {
      "inputs": [],
      "name": "FEE_NUMERATOR",
      "outputs": [
        {
          "internalType": "uint256",
          "name": "",
          "type": "uint256"
        }
      ],
      "stateMutability": "view",
      "type": "function"
    },
    {
      "inputs": [
        {
          "internalType": "uint256",
          "name": "listingId",
          "type": "uint256"
        },
        {
          "internalType": "uint256",
          "name": "bidId",
          "type": "uint256"
        }
      ],
      "name": "acceptBid",
      "outputs": [],
      "stateMutability": "nonpayable",
      "type": "function"
    },
    {
      "inputs": [
        {
          "internalType": "uint256",
          "name": "listingId",
          "type": "uint256"
        },
        {
          "internalType": "uint256",
          "name": "quantity",
          "type": "uint256"
        },
        {
          "internalType": "uint256",
          "name": "payment",
          "type": "uint256"
        }
      ],
      "name": "bid",
      "outputs": [],
      "stateMutability": "nonpayable",
      "type": "function"
    },
    {
      "inputs": [
        {
          "internalType": "uint256",
          "name": "listingId",
          "type": "uint256"
        },
        {
          "internalType": "uint256",
          "name": "amount",
          "type": "uint256"
        }
      ],
      "name": "buyERC20",
      "outputs": [],
      "stateMutability": "nonpayable",
      "type": "function"
    },
    {
      "inputs": [
        {
          "internalType": "uint256",
          "name": "listingId",
          "type": "uint256"
        }
      ],
      "name": "buyERC721",
      "outputs": [],
      "stateMutability": "nonpayable",
      "type": "function"
    },
    {
      "inputs": [
        {
          "internalType": "address",
          "name": "",
          "type": "address"
        }
      ],
      "name": "buyerApprovals",
      "outputs": [
        {
          "internalType": "bool",
          "name": "",
          "type": "bool"
        }
      ],
      "stateMutability": "view",
      "type": "function"
    },
    {
      "inputs": [
        {
          "internalType": "uint256",
          "name": "",
          "type": "uint256"
        },
        {
          "internalType": "uint256",
          "name": "",
          "type": "uint256"
        }
      ],
      "name": "currentBids",
      "outputs": [
        {
          "internalType": "uint256",
          "name": "",
          "type": "uint256"
        }
      ],
      "stateMutability": "view",
      "type": "function"
    },
    {
      "inputs": [
        {
          "internalType": "uint256",
          "name": "amount",
          "type": "uint256"
        },
        {
          "internalType": "uint256",
          "name": "listingId",
          "type": "uint256"
        }
      ],
      "name": "delistERC20",
      "outputs": [],
      "stateMutability": "nonpayable",
      "type": "function"
    },
    {
      "inputs": [
        {
          "internalType": "uint256",
          "name": "listingId",
          "type": "uint256"
        }
      ],
      "name": "delistERC721",
      "outputs": [],
      "stateMutability": "nonpayable",
      "type": "function"
    },
    {
      "inputs": [
        {
          "internalType": "uint256",
          "name": "amount",
          "type": "uint256"
        },
        {
          "internalType": "uint256",
          "name": "price",
          "type": "uint256"
        },
        {
          "internalType": "address",
          "name": "product",
          "type": "address"
        },
        {
          "internalType": "address",
          "name": "currency",
          "type": "address"
        }
      ],
      "name": "listERC20",
      "outputs": [
        {
          "internalType": "uint256",
          "name": "",
          "type": "uint256"
        }
      ],
      "stateMutability": "nonpayable",
      "type": "function"
    },
    {
      "inputs": [
        {
          "internalType": "uint256",
          "name": "id",
          "type": "uint256"
        },
        {
          "internalType": "uint256",
          "name": "price",
          "type": "uint256"
        },
        {
          "internalType": "address",
          "name": "product",
          "type": "address"
        },
        {
          "internalType": "address",
          "name": "currency",
          "type": "address"
        }
      ],
      "name": "listERC721",
      "outputs": [
        {
          "internalType": "uint256",
          "name": "",
          "type": "uint256"
        }
      ],
      "stateMutability": "nonpayable",
      "type": "function"
    },
    {
      "inputs": [],
      "name": "owner",
      "outputs": [
        {
          "internalType": "address",
          "name": "",
          "type": "address"
        }
      ],
      "stateMutability": "view",
      "type": "function"
    },
    {
      "inputs": [],
      "name": "renounceOwnership",
      "outputs": [],
      "stateMutability": "nonpayable",
      "type": "function"
    },
    {
      "inputs": [
        {
          "internalType": "address",
          "name": "",
          "type": "address"
        }
      ],
      "name": "sellerApprovals",
      "outputs": [
        {
          "internalType": "bool",
          "name": "",
          "type": "bool"
        }
      ],
      "stateMutability": "view",
      "type": "function"
    },
    {
      "inputs": [
        {
          "internalType": "address[]",
          "name": "targets",
          "type": "address[]"
        },
        {
          "internalType": "bool[]",
          "name": "approvals",
          "type": "bool[]"
        }
      ],
      "name": "setBuyers",
      "outputs": [],
      "stateMutability": "nonpayable",
      "type": "function"
    },
    {
      "inputs": [],
      "name": "setFeeDenominator",
      "outputs": [],
      "stateMutability": "nonpayable",
      "type": "function"
    },
    {
      "inputs": [],
      "name": "setFeeNumerator",
      "outputs": [],
      "stateMutability": "nonpayable",
      "type": "function"
    },
    {
      "inputs": [
        {
          "internalType": "address[]",
          "name": "targets",
          "type": "address[]"
        },
        {
          "internalType": "bool[]",
          "name": "approvals",
          "type": "bool[]"
        }
      ],
      "name": "setSellers",
      "outputs": [],
      "stateMutability": "nonpayable",
      "type": "function"
    },
    {
      "inputs": [
        {
          "internalType": "address",
          "name": "newOwner",
          "type": "address"
        }
      ],
      "name": "transferOwnership",
      "outputs": [],
      "stateMutability": "nonpayable",
      "type": "function"
    },
    {
      "inputs": [
        {
          "internalType": "uint256",
          "name": "listingId",
          "type": "uint256"
        },
        {
          "internalType": "uint256",
          "name": "price",
          "type": "uint256"
        }
      ],
      "name": "updateERC20Price",
      "outputs": [],
      "stateMutability": "nonpayable",
      "type": "function"
    },
    {
      "inputs": [
        {
          "internalType": "uint256",
          "name": "listingId",
          "type": "uint256"
        },
        {
          "internalType": "uint256",
          "name": "price",
          "type": "uint256"
        }
      ],
      "name": "updateERC721Price",
      "outputs": [],
      "stateMutability": "nonpayable",
      "type": "function"
    },
    {
      "inputs": [
        {
          "internalType": "uint256",
          "name": "listingId",
          "type": "uint256"
        },
        {
          "internalType": "uint256",
          "name": "bidId",
          "type": "uint256"
        }
      ],
      "name": "withdrawBid",
      "outputs": [],
      "stateMutability": "nonpayable",
      "type": "function"
    }
  ],
  "bytecode": "0x60806040523480156200001157600080fd5b5060405162003fc938038062003fc98339818101604052810190620000379190620001a9565b620000576200004b620000af60201b60201c565b620000b760201b60201c565b826008819055508160098190555080600a60006101000a81548173ffffffffffffffffffffffffffffffffffffffff021916908373ffffffffffffffffffffffffffffffffffffffff16021790555050505062000271565b600033905090565b60008060009054906101000a900473ffffffffffffffffffffffffffffffffffffffff169050816000806101000a81548173ffffffffffffffffffffffffffffffffffffffff021916908373ffffffffffffffffffffffffffffffffffffffff1602179055508173ffffffffffffffffffffffffffffffffffffffff168173ffffffffffffffffffffffffffffffffffffffff167f8be0079c531659141344cd1fd0a4f28419497f9722a3daafe3b4186f6b6457e060405160405180910390a35050565b6000815190506200018c816200023d565b92915050565b600081519050620001a38162000257565b92915050565b600080600060608486031215620001bf57600080fd5b6000620001cf8682870162000192565b9350506020620001e28682870162000192565b9250506040620001f5868287016200017b565b9150509250925092565b60006200020c8262000213565b9050919050565b600073ffffffffffffffffffffffffffffffffffffffff82169050919050565b6000819050919050565b6200024881620001ff565b81146200025457600080fd5b50565b620002628162000233565b81146200026e57600080fd5b50565b613d4880620002816000396000f3fe608060405234801561001057600080fd5b50600436106101735760003560e01c8063944cce5b116100de578063d73792a911610097578063f626dab011610071578063f626dab01461040e578063fbcc035114610442578063fec1d6c614610472578063ffda0a0b1461047c57610173565b8063d73792a9146103b8578063d73d55a3146103d6578063f2fde38b146103f257610173565b8063944cce5b146102fc57806397895f3a14610318578063a573566214610348578063aebfa63514610364578063c1ab2a4f14610380578063c2a792571461039c57610173565b806341cd47bf1161013057806341cd47bf1461026057806345d84c941461027e57806346b504781461028857806366c7f8e5146102a4578063715018a6146102d45780638da5cb5b146102de57610173565b806302e9d5e41461017857806302fa11bd146101945780630f2f8b2d146101c8578063151a4791146101f85780632ac9bf09146102285780632b2d046014610244575b600080fd5b610192600480360381019061018d91906131a6565b610498565b005b6101ae60048036038101906101a99190613154565b610810565b6040516101bf959493929190613799565b60405180910390f35b6101e260048036038101906101dd91906131a6565b6108a6565b6040516101ef919061371e565b60405180910390f35b610212600480360381019061020d91906131e2565b6108d7565b60405161021f919061371e565b60405180910390f35b610242600480360381019061023d9190613245565b610be3565b005b61025e6004803603810190610259919061308d565b610e79565b005b61026861100e565b604051610275919061371e565b60405180910390f35b610286611014565b005b6102a2600480360381019061029d91906131a6565b611092565b005b6102be60048036038101906102b991906131e2565b611155565b6040516102cb919061371e565b60405180910390f35b6102dc6114a5565b005b6102e661152d565b6040516102f39190613488565b60405180910390f35b61031660048036038101906103119190613154565b611556565b005b610332600480360381019061032d9190613064565b611a3c565b60405161033f9190613563565b60405180910390f35b610362600480360381019061035d91906131a6565b611a5c565b005b61037e6004803603810190610379919061308d565b611cfa565b005b61039a60048036038101906103959190613154565b611e8f565b005b6103b660048036038101906103b191906131a6565b612190565b005b6103c0612683565b6040516103cd919061371e565b60405180910390f35b6103f060048036038101906103eb91906131a6565b612689565b005b61040c60048036038101906104079190613064565b612a2c565b005b61042860048036038101906104239190613154565b612b24565b604051610439959493929190613799565b60405180910390f35b61045c60048036038101906104579190613064565b612bba565b6040516104699190613563565b60405180910390f35b61047a612bda565b005b610496600480360381019061049191906131a6565b612c58565b005b60006003600084815260200190815260200160002060020160009054906101000a900473ffffffffffffffffffffffffffffffffffffffff1690503373ffffffffffffffffffffffffffffffffffffffff168173ffffffffffffffffffffffffffffffffffffffff1614610541576040517f08c379a0000000000000000000000000000000000000000000000000000000008152600401610538906136de565b60405180910390fd5b600060056000858152602001908152602001600020600084815260200190815260200160002060000154905080600360008681526020019081526020016000206000015410156105c6576040517f08c379a00000000000000000000000000000000000000000000000000000000081526004016105bd906136be565b60405180910390fd5b6003600085815260200190815260200160002060040160009054906101000a900473ffffffffffffffffffffffffffffffffffffffff1673ffffffffffffffffffffffffffffffffffffffff1663a9059cbb83600560008881526020019081526020016000206000878152602001908152602001600020600101546040518363ffffffff1660e01b815260040161065e92919061353a565b602060405180830381600087803b15801561067857600080fd5b505af115801561068c573d6000803e3d6000fd5b505050506040513d601f19601f820116820180604052508101906106b0919061312b565b506003600085815260200190815260200160002060030160009054906101000a900473ffffffffffffffffffffffffffffffffffffffff1673ffffffffffffffffffffffffffffffffffffffff1663a9059cbb33836040518363ffffffff1660e01b815260040161072292919061353a565b602060405180830381600087803b15801561073c57600080fd5b505af1158015610750573d6000803e3d6000fd5b505050506040513d601f19601f82011682018060405250810190610774919061312b565b508060036000868152602001908152602001600020600001600082825461079b9190613923565b925050819055506107ac8484612d1b565b60056000858152602001908152602001600020600084815260200190815260200160002060008082016000905560018201600090556002820160006101000a81549073ffffffffffffffffffffffffffffffffffffffff0219169055505050505050565b60036020528060005260406000206000915090508060000154908060010154908060020160009054906101000a900473ffffffffffffffffffffffffffffffffffffffff16908060030160009054906101000a900473ffffffffffffffffffffffffffffffffffffffff16908060040160009054906101000a900473ffffffffffffffffffffffffffffffffffffffff16905085565b600660205281600052604060002081815481106108c257600080fd5b90600052602060002001600091509150505481565b6000600160003373ffffffffffffffffffffffffffffffffffffffff1673ffffffffffffffffffffffffffffffffffffffff16815260200190815260200160002060009054906101000a900460ff16610965576040517f08c379a000000000000000000000000000000000000000000000000000000000815260040161095c906135be565b60405180910390fd5b8273ffffffffffffffffffffffffffffffffffffffff166323b872dd3330886040518463ffffffff1660e01b81526004016109a293929190613503565b600060405180830381600087803b1580156109bc57600080fd5b505af11580156109d0573d6000803e3d6000fd5b50505050600085846040516020016109e9929190613739565b6040516020818303038152906040528051906020012060001c90506040518060a001604052808781526020018681526020013373ffffffffffffffffffffffffffffffffffffffff1681526020018573ffffffffffffffffffffffffffffffffffffffff1681526020018473ffffffffffffffffffffffffffffffffffffffff1681525060046000838152602001908152602001600020600082015181600001556020820151816001015560408201518160020160006101000a81548173ffffffffffffffffffffffffffffffffffffffff021916908373ffffffffffffffffffffffffffffffffffffffff16021790555060608201518160030160006101000a81548173ffffffffffffffffffffffffffffffffffffffff021916908373ffffffffffffffffffffffffffffffffffffffff16021790555060808201518160040160006101000a81548173ffffffffffffffffffffffffffffffffffffffff021916908373ffffffffffffffffffffffffffffffffffffffff1602179055509050508373ffffffffffffffffffffffffffffffffffffffff163373ffffffffffffffffffffffffffffffffffffffff167f96121474b4be0e5edfa0cf9721fe3e06611dc0048f4ec160f3f4aa1c5ca3ec4188888786604051610bcf94939291906137ec565b60405180910390a380915050949350505050565b600260003373ffffffffffffffffffffffffffffffffffffffff1673ffffffffffffffffffffffffffffffffffffffff16815260200190815260200160002060009054906101000a900460ff16610c6f576040517f08c379a0000000000000000000000000000000000000000000000000000000008152600401610c669061363e565b60405180910390fd5b6000828233604051602001610c8693929190613762565b6040516020818303038152906040528051906020012060001c905060006005600086815260200190815260200160002060008381526020019081526020016000206001015414610d0b576040517f08c379a0000000000000000000000000000000000000000000000000000000008152600401610d029061367e565b60405180910390fd5b6006600085815260200190815260200160002080549050600760008681526020019081526020016000206000838152602001908152602001600020819055506006600085815260200190815260200160002081908060018154018082558091505060019003906000526020600020016000909190919091505560405180606001604052808481526020018381526020013373ffffffffffffffffffffffffffffffffffffffff16815250600560008681526020019081526020016000206000838152602001908152602001600020600082015181600001556020820151816001015560408201518160020160006101000a81548173ffffffffffffffffffffffffffffffffffffffff021916908373ffffffffffffffffffffffffffffffffffffffff160217905550905050837f379fe8bc550443c6867a021184bb0e5a961f3fcd271160873847410c7bdd0e28848433604051610e6b93929190613762565b60405180910390a250505050565b610e81612e9b565b73ffffffffffffffffffffffffffffffffffffffff16610e9f61152d565b73ffffffffffffffffffffffffffffffffffffffff1614610ef5576040517f08c379a0000000000000000000000000000000000000000000000000000000008152600401610eec9061365e565b60405180910390fd5b60005b8484905081101561100757828282818110610f3c577f4e487b7100000000000000000000000000000000000000000000000000000000600052603260045260246000fd5b9050602002016020810190610f519190613102565b60016000878785818110610f8e577f4e487b7100000000000000000000000000000000000000000000000000000000600052603260045260246000fd5b9050602002016020810190610fa39190613064565b73ffffffffffffffffffffffffffffffffffffffff1673ffffffffffffffffffffffffffffffffffffffff16815260200190815260200160002060006101000a81548160ff0219169083151502179055508080610fff9061399f565b915050610ef8565b5050505050565b60085481565b61101c612e9b565b73ffffffffffffffffffffffffffffffffffffffff1661103a61152d565b73ffffffffffffffffffffffffffffffffffffffff1614611090576040517f08c379a00000000000000000000000000000000000000000000000000000000081526004016110879061365e565b60405180910390fd5b565b6003600083815260200190815260200160002060020160009054906101000a900473ffffffffffffffffffffffffffffffffffffffff1673ffffffffffffffffffffffffffffffffffffffff163373ffffffffffffffffffffffffffffffffffffffff1614611136576040517f08c379a000000000000000000000000000000000000000000000000000000000815260040161112d9061357e565b60405180910390fd5b8060036000848152602001908152602001600020600101819055505050565b6000600160003373ffffffffffffffffffffffffffffffffffffffff1673ffffffffffffffffffffffffffffffffffffffff16815260200190815260200160002060009054906101000a900460ff166111e3576040517f08c379a00000000000000000000000000000000000000000000000000000000081526004016111da906135be565b60405180910390fd5b8273ffffffffffffffffffffffffffffffffffffffff166323b872dd3330886040518463ffffffff1660e01b815260040161122093929190613503565b602060405180830381600087803b15801561123a57600080fd5b505af115801561124e573d6000803e3d6000fd5b505050506040513d601f19601f82011682018060405250810190611272919061312b565b50600033848460405160200161128a939291906134cc565b6040516020818303038152906040528051906020012060001c90506040518060a001604052806003600084815260200190815260200160002060000154886112d29190613842565b81526020018681526020013373ffffffffffffffffffffffffffffffffffffffff1681526020018573ffffffffffffffffffffffffffffffffffffffff1681526020018473ffffffffffffffffffffffffffffffffffffffff1681525060036000838152602001908152602001600020600082015181600001556020820151816001015560408201518160020160006101000a81548173ffffffffffffffffffffffffffffffffffffffff021916908373ffffffffffffffffffffffffffffffffffffffff16021790555060608201518160030160006101000a81548173ffffffffffffffffffffffffffffffffffffffff021916908373ffffffffffffffffffffffffffffffffffffffff16021790555060808201518160040160006101000a81548173ffffffffffffffffffffffffffffffffffffffff021916908373ffffffffffffffffffffffffffffffffffffffff1602179055509050508373ffffffffffffffffffffffffffffffffffffffff163373ffffffffffffffffffffffffffffffffffffffff167f4dac2e5e670f156eb092f4d2b4bd3db441153ea88b602e360195f855f144c6d78888878660405161149194939291906137ec565b60405180910390a380915050949350505050565b6114ad612e9b565b73ffffffffffffffffffffffffffffffffffffffff166114cb61152d565b73ffffffffffffffffffffffffffffffffffffffff1614611521576040517f08c379a00000000000000000000000000000000000000000000000000000000081526004016115189061365e565b60405180910390fd5b61152b6000612ea3565b565b60008060009054906101000a900473ffffffffffffffffffffffffffffffffffffffff16905090565b600260003373ffffffffffffffffffffffffffffffffffffffff1673ffffffffffffffffffffffffffffffffffffffff16815260200190815260200160002060009054906101000a900460ff166115e2576040517f08c379a00000000000000000000000000000000000000000000000000000000081526004016115d99061363e565b60405180910390fd5b6000600460008381526020019081526020016000206040518060a001604052908160008201548152602001600182015481526020016002820160009054906101000a900473ffffffffffffffffffffffffffffffffffffffff1673ffffffffffffffffffffffffffffffffffffffff1673ffffffffffffffffffffffffffffffffffffffff1681526020016003820160009054906101000a900473ffffffffffffffffffffffffffffffffffffffff1673ffffffffffffffffffffffffffffffffffffffff1673ffffffffffffffffffffffffffffffffffffffff1681526020016004820160009054906101000a900473ffffffffffffffffffffffffffffffffffffffff1673ffffffffffffffffffffffffffffffffffffffff1673ffffffffffffffffffffffffffffffffffffffff16815250509050600073ffffffffffffffffffffffffffffffffffffffff16816080015173ffffffffffffffffffffffffffffffffffffffff16141561178e576040517f08c379a00000000000000000000000000000000000000000000000000000000081526004016117859061369e565b60405180910390fd5b600060095460085483602001516117a591906138c9565b6117af9190613898565b9050816080015173ffffffffffffffffffffffffffffffffffffffff1663dd62ed3e33306040518363ffffffff1660e01b81526004016117f09291906134a3565b60206040518083038186803b15801561180857600080fd5b505afa15801561181c573d6000803e3d6000fd5b505050506040513d601f19601f82011682018060405250810190611840919061317d565b50816080015173ffffffffffffffffffffffffffffffffffffffff166323b872dd33846040015185602001516040518463ffffffff1660e01b815260040161188a93929190613503565b602060405180830381600087803b1580156118a457600080fd5b505af11580156118b8573d6000803e3d6000fd5b505050506040513d601f19601f820116820180604052508101906118dc919061312b565b50816080015173ffffffffffffffffffffffffffffffffffffffff166323b872dd33600a60009054906101000a900473ffffffffffffffffffffffffffffffffffffffff16846040518463ffffffff1660e01b815260040161194093929190613503565b602060405180830381600087803b15801561195a57600080fd5b505af115801561196e573d6000803e3d6000fd5b505050506040513d601f19601f82011682018060405250810190611992919061312b565b50816060015173ffffffffffffffffffffffffffffffffffffffff166323b872dd303385600001516040518463ffffffff1660e01b81526004016119d893929190613503565b600060405180830381600087803b1580156119f257600080fd5b505af1158015611a06573d6000803e3d6000fd5b50505050827fc0a8d68d4d1f533ef6cdb7a49068cbe04356682803cb7983c4ba33ce99100efd60405160405180910390a2505050565b60026020528060005260406000206000915054906101000a900460ff1681565b600260003373ffffffffffffffffffffffffffffffffffffffff1673ffffffffffffffffffffffffffffffffffffffff16815260200190815260200160002060009054906101000a900460ff16611ae8576040517f08c379a0000000000000000000000000000000000000000000000000000000008152600401611adf9061363e565b60405180910390fd5b600060056000848152602001908152602001600020600083815260200190815260200160002060020160009054906101000a900473ffffffffffffffffffffffffffffffffffffffff1690508073ffffffffffffffffffffffffffffffffffffffff163373ffffffffffffffffffffffffffffffffffffffff1614611ba2576040517f08c379a0000000000000000000000000000000000000000000000000000000008152600401611b99906135fe565b60405180910390fd5b6003600084815260200190815260200160002060040160009054906101000a900473ffffffffffffffffffffffffffffffffffffffff1673ffffffffffffffffffffffffffffffffffffffff1663a9059cbb82600560008781526020019081526020016000206000868152602001908152602001600020600101546040518363ffffffff1660e01b8152600401611c3a92919061353a565b602060405180830381600087803b158015611c5457600080fd5b505af1158015611c68573d6000803e3d6000fd5b505050506040513d601f19601f82011682018060405250810190611c8c919061312b565b50611c978383612d1b565b60056000848152602001908152602001600020600083815260200190815260200160002060008082016000905560018201600090556002820160006101000a81549073ffffffffffffffffffffffffffffffffffffffff02191690555050505050565b611d02612e9b565b73ffffffffffffffffffffffffffffffffffffffff16611d2061152d565b73ffffffffffffffffffffffffffffffffffffffff1614611d76576040517f08c379a0000000000000000000000000000000000000000000000000000000008152600401611d6d9061365e565b60405180910390fd5b60005b84849050811015611e8857828282818110611dbd577f4e487b7100000000000000000000000000000000000000000000000000000000600052603260045260246000fd5b9050602002016020810190611dd29190613102565b60026000878785818110611e0f577f4e487b7100000000000000000000000000000000000000000000000000000000600052603260045260246000fd5b9050602002016020810190611e249190613064565b73ffffffffffffffffffffffffffffffffffffffff1673ffffffffffffffffffffffffffffffffffffffff16815260200190815260200160002060006101000a81548160ff0219169083151502179055508080611e809061399f565b915050611d79565b5050505050565b6000600460008381526020019081526020016000206040518060a001604052908160008201548152602001600182015481526020016002820160009054906101000a900473ffffffffffffffffffffffffffffffffffffffff1673ffffffffffffffffffffffffffffffffffffffff1673ffffffffffffffffffffffffffffffffffffffff1681526020016003820160009054906101000a900473ffffffffffffffffffffffffffffffffffffffff1673ffffffffffffffffffffffffffffffffffffffff1673ffffffffffffffffffffffffffffffffffffffff1681526020016004820160009054906101000a900473ffffffffffffffffffffffffffffffffffffffff1673ffffffffffffffffffffffffffffffffffffffff1673ffffffffffffffffffffffffffffffffffffffff168152505090503373ffffffffffffffffffffffffffffffffffffffff16816040015173ffffffffffffffffffffffffffffffffffffffff16148061203757503373ffffffffffffffffffffffffffffffffffffffff1661201f61152d565b73ffffffffffffffffffffffffffffffffffffffff16145b612076576040517f08c379a000000000000000000000000000000000000000000000000000000000815260040161206d906136fe565b60405180910390fd5b806060015173ffffffffffffffffffffffffffffffffffffffff166323b872dd30836040015184600001516040518463ffffffff1660e01b81526004016120bf93929190613503565b600060405180830381600087803b1580156120d957600080fd5b505af11580156120ed573d6000803e3d6000fd5b505050506004600083815260200190815260200160002060008082016000905560018201600090556002820160006101000a81549073ffffffffffffffffffffffffffffffffffffffff02191690556003820160006101000a81549073ffffffffffffffffffffffffffffffffffffffff02191690556004820160006101000a81549073ffffffffffffffffffffffffffffffffffffffff021916905550505050565b600260003373ffffffffffffffffffffffffffffffffffffffff1673ffffffffffffffffffffffffffffffffffffffff16815260200190815260200160002060009054906101000a900460ff1661221c576040517f08c379a00000000000000000000000000000000000000000000000000000000081526004016122139061363e565b60405180910390fd5b6000600360008481526020019081526020016000206040518060a001604052908160008201548152602001600182015481526020016002820160009054906101000a900473ffffffffffffffffffffffffffffffffffffffff1673ffffffffffffffffffffffffffffffffffffffff1673ffffffffffffffffffffffffffffffffffffffff1681526020016003820160009054906101000a900473ffffffffffffffffffffffffffffffffffffffff1673ffffffffffffffffffffffffffffffffffffffff1673ffffffffffffffffffffffffffffffffffffffff1681526020016004820160009054906101000a900473ffffffffffffffffffffffffffffffffffffffff1673ffffffffffffffffffffffffffffffffffffffff1673ffffffffffffffffffffffffffffffffffffffff16815250509050600073ffffffffffffffffffffffffffffffffffffffff16816080015173ffffffffffffffffffffffffffffffffffffffff1614156123c8576040517f08c379a00000000000000000000000000000000000000000000000000000000081526004016123bf9061369e565b60405180910390fd5b60008160200151836123da91906138c9565b90506000600954600854836123ef91906138c9565b6123f99190613898565b9050826080015173ffffffffffffffffffffffffffffffffffffffff166323b872dd338560400151856040518463ffffffff1660e01b815260040161244093929190613503565b602060405180830381600087803b15801561245a57600080fd5b505af115801561246e573d6000803e3d6000fd5b505050506040513d601f19601f82011682018060405250810190612492919061312b565b50826080015173ffffffffffffffffffffffffffffffffffffffff166323b872dd33600a60009054906101000a900473ffffffffffffffffffffffffffffffffffffffff16846040518463ffffffff1660e01b81526004016124f693929190613503565b602060405180830381600087803b15801561251057600080fd5b505af1158015612524573d6000803e3d6000fd5b505050506040513d601f19601f82011682018060405250810190612548919061312b565b508383600001511015612590576040517f08c379a0000000000000000000000000000000000000000000000000000000008152600401612587906135de565b60405180910390fd5b826060015173ffffffffffffffffffffffffffffffffffffffff1663a9059cbb33866040518363ffffffff1660e01b81526004016125cf92919061353a565b602060405180830381600087803b1580156125e957600080fd5b505af11580156125fd573d6000803e3d6000fd5b505050506040513d601f19601f82011682018060405250810190612621919061312b565b50836003600087815260200190815260200160002060000160008282546126489190613923565b92505081905550847fc0a8d68d4d1f533ef6cdb7a49068cbe04356682803cb7983c4ba33ce99100efd60405160405180910390a25050505050565b60095481565b6000600360008381526020019081526020016000206040518060a001604052908160008201548152602001600182015481526020016002820160009054906101000a900473ffffffffffffffffffffffffffffffffffffffff1673ffffffffffffffffffffffffffffffffffffffff1673ffffffffffffffffffffffffffffffffffffffff1681526020016003820160009054906101000a900473ffffffffffffffffffffffffffffffffffffffff1673ffffffffffffffffffffffffffffffffffffffff1673ffffffffffffffffffffffffffffffffffffffff1681526020016004820160009054906101000a900473ffffffffffffffffffffffffffffffffffffffff1673ffffffffffffffffffffffffffffffffffffffff1673ffffffffffffffffffffffffffffffffffffffff168152505090503373ffffffffffffffffffffffffffffffffffffffff16816040015173ffffffffffffffffffffffffffffffffffffffff16148061283157503373ffffffffffffffffffffffffffffffffffffffff1661281961152d565b73ffffffffffffffffffffffffffffffffffffffff16145b612870576040517f08c379a0000000000000000000000000000000000000000000000000000000008152600401612867906136fe565b60405180910390fd5b82816000015110156128b7576040517f08c379a00000000000000000000000000000000000000000000000000000000081526004016128ae9061361e565b60405180910390fd5b806060015173ffffffffffffffffffffffffffffffffffffffff1663a9059cbb8260400151856040518363ffffffff1660e01b81526004016128fa92919061353a565b602060405180830381600087803b15801561291457600080fd5b505af1158015612928573d6000803e3d6000fd5b505050506040513d601f19601f8201168201806040525081019061294c919061312b565b5082816000015114156129f9576003600083815260200190815260200160002060008082016000905560018201600090556002820160006101000a81549073ffffffffffffffffffffffffffffffffffffffff02191690556003820160006101000a81549073ffffffffffffffffffffffffffffffffffffffff02191690556004820160006101000a81549073ffffffffffffffffffffffffffffffffffffffff02191690555050612a27565b82600360008481526020019081526020016000206000016000828254612a1f9190613923565b925050819055505b505050565b612a34612e9b565b73ffffffffffffffffffffffffffffffffffffffff16612a5261152d565b73ffffffffffffffffffffffffffffffffffffffff1614612aa8576040517f08c379a0000000000000000000000000000000000000000000000000000000008152600401612a9f9061365e565b60405180910390fd5b600073ffffffffffffffffffffffffffffffffffffffff168173ffffffffffffffffffffffffffffffffffffffff161415612b18576040517f08c379a0000000000000000000000000000000000000000000000000000000008152600401612b0f9061359e565b60405180910390fd5b612b2181612ea3565b50565b60046020528060005260406000206000915090508060000154908060010154908060020160009054906101000a900473ffffffffffffffffffffffffffffffffffffffff16908060030160009054906101000a900473ffffffffffffffffffffffffffffffffffffffff16908060040160009054906101000a900473ffffffffffffffffffffffffffffffffffffffff16905085565b60016020528060005260406000206000915054906101000a900460ff1681565b612be2612e9b565b73ffffffffffffffffffffffffffffffffffffffff16612c0061152d565b73ffffffffffffffffffffffffffffffffffffffff1614612c56576040517f08c379a0000000000000000000000000000000000000000000000000000000008152600401612c4d9061365e565b60405180910390fd5b565b6004600083815260200190815260200160002060020160009054906101000a900473ffffffffffffffffffffffffffffffffffffffff1673ffffffffffffffffffffffffffffffffffffffff163373ffffffffffffffffffffffffffffffffffffffff1614612cfc576040517f08c379a0000000000000000000000000000000000000000000000000000000008152600401612cf39061357e565b60405180910390fd5b8060046000848152602001908152602001600020600101819055505050565b6006600083815260200190815260200160002060016006600085815260200190815260200160002080549050612d519190613923565b81548110612d88577f4e487b7100000000000000000000000000000000000000000000000000000000600052603260045260246000fd5b9060005260206000200154600660008481526020019081526020016000206007600085815260200190815260200160002060008481526020019081526020016000205481548110612e02577f4e487b7100000000000000000000000000000000000000000000000000000000600052603260045260246000fd5b906000526020600020018190555060066000838152602001908152602001600020805480612e59577f4e487b7100000000000000000000000000000000000000000000000000000000600052603160045260246000fd5b60019003818190600052602060002001600090559055600760008381526020019081526020016000206000828152602001908152602001600020600090555050565b600033905090565b60008060009054906101000a900473ffffffffffffffffffffffffffffffffffffffff169050816000806101000a81548173ffffffffffffffffffffffffffffffffffffffff021916908373ffffffffffffffffffffffffffffffffffffffff1602179055508173ffffffffffffffffffffffffffffffffffffffff168173ffffffffffffffffffffffffffffffffffffffff167f8be0079c531659141344cd1fd0a4f28419497f9722a3daafe3b4186f6b6457e060405160405180910390a35050565b600081359050612f7681613ccd565b92915050565b60008083601f840112612f8e57600080fd5b8235905067ffffffffffffffff811115612fa757600080fd5b602083019150836020820283011115612fbf57600080fd5b9250929050565b60008083601f840112612fd857600080fd5b8235905067ffffffffffffffff811115612ff157600080fd5b60208301915083602082028301111561300957600080fd5b9250929050565b60008135905061301f81613ce4565b92915050565b60008151905061303481613ce4565b92915050565b60008135905061304981613cfb565b92915050565b60008151905061305e81613cfb565b92915050565b60006020828403121561307657600080fd5b600061308484828501612f67565b91505092915050565b600080600080604085870312156130a357600080fd5b600085013567ffffffffffffffff8111156130bd57600080fd5b6130c987828801612f7c565b9450945050602085013567ffffffffffffffff8111156130e857600080fd5b6130f487828801612fc6565b925092505092959194509250565b60006020828403121561311457600080fd5b600061312284828501613010565b91505092915050565b60006020828403121561313d57600080fd5b600061314b84828501613025565b91505092915050565b60006020828403121561316657600080fd5b60006131748482850161303a565b91505092915050565b60006020828403121561318f57600080fd5b600061319d8482850161304f565b91505092915050565b600080604083850312156131b957600080fd5b60006131c78582860161303a565b92505060206131d88582860161303a565b9150509250929050565b600080600080608085870312156131f857600080fd5b60006132068782880161303a565b94505060206132178782880161303a565b935050604061322887828801612f67565b925050606061323987828801612f67565b91505092959194509250565b60008060006060848603121561325a57600080fd5b60006132688682870161303a565b93505060206132798682870161303a565b925050604061328a8682870161303a565b9150509250925092565b61329d81613957565b82525050565b6132ac81613969565b82525050565b60006132bf601c83613831565b91506132ca82613a46565b602082019050919050565b60006132e2602683613831565b91506132ed82613a6f565b604082019050919050565b6000613305601583613831565b915061331082613abe565b602082019050919050565b6000613328601a83613831565b915061333382613ae7565b602082019050919050565b600061334b601c83613831565b915061335682613b10565b602082019050919050565b600061336e601a83613831565b915061337982613b39565b602082019050919050565b6000613391601483613831565b915061339c82613b62565b602082019050919050565b60006133b4602083613831565b91506133bf82613b8b565b602082019050919050565b60006133d7601d83613831565b91506133e282613bb4565b602082019050919050565b60006133fa601383613831565b915061340582613bdd565b602082019050919050565b600061341d602983613831565b915061342882613c06565b604082019050919050565b6000613440601c83613831565b915061344b82613c55565b602082019050919050565b6000613463602b83613831565b915061346e82613c7e565b604082019050919050565b61348281613995565b82525050565b600060208201905061349d6000830184613294565b92915050565b60006040820190506134b86000830185613294565b6134c56020830184613294565b9392505050565b60006060820190506134e16000830186613294565b6134ee6020830185613294565b6134fb6040830184613294565b949350505050565b60006060820190506135186000830186613294565b6135256020830185613294565b6135326040830184613479565b949350505050565b600060408201905061354f6000830185613294565b61355c6020830184613479565b9392505050565b600060208201905061357860008301846132a3565b92915050565b60006020820190508181036000830152613597816132b2565b9050919050565b600060208201905081810360008301526135b7816132d5565b9050919050565b600060208201905081810360008301526135d7816132f8565b9050919050565b600060208201905081810360008301526135f78161331b565b9050919050565b600060208201905081810360008301526136178161333e565b9050919050565b6000602082019050818103600083015261363781613361565b9050919050565b6000602082019050818103600083015261365781613384565b9050919050565b60006020820190508181036000830152613677816133a7565b9050919050565b60006020820190508181036000830152613697816133ca565b9050919050565b600060208201905081810360008301526136b7816133ed565b9050919050565b600060208201905081810360008301526136d781613410565b9050919050565b600060208201905081810360008301526136f781613433565b9050919050565b6000602082019050818103600083015261371781613456565b9050919050565b60006020820190506137336000830184613479565b92915050565b600060408201905061374e6000830185613479565b61375b6020830184613294565b9392505050565b60006060820190506137776000830186613479565b6137846020830185613479565b6137916040830184613294565b949350505050565b600060a0820190506137ae6000830188613479565b6137bb6020830187613479565b6137c86040830186613294565b6137d56060830185613294565b6137e26080830184613294565b9695505050505050565b60006080820190506138016000830187613479565b61380e6020830186613479565b61381b6040830185613294565b6138286060830184613479565b95945050505050565b600082825260208201905092915050565b600061384d82613995565b915061385883613995565b9250827fffffffffffffffffffffffffffffffffffffffffffffffffffffffffffffffff0382111561388d5761388c6139e8565b5b828201905092915050565b60006138a382613995565b91506138ae83613995565b9250826138be576138bd613a17565b5b828204905092915050565b60006138d482613995565b91506138df83613995565b9250817fffffffffffffffffffffffffffffffffffffffffffffffffffffffffffffffff0483118215151615613918576139176139e8565b5b828202905092915050565b600061392e82613995565b915061393983613995565b92508282101561394c5761394b6139e8565b5b828203905092915050565b600061396282613975565b9050919050565b60008115159050919050565b600073ffffffffffffffffffffffffffffffffffffffff82169050919050565b6000819050919050565b60006139aa82613995565b91507fffffffffffffffffffffffffffffffffffffffffffffffffffffffffffffffff8214156139dd576139dc6139e8565b5b600182019050919050565b7f4e487b7100000000000000000000000000000000000000000000000000000000600052601160045260246000fd5b7f4e487b7100000000000000000000000000000000000000000000000000000000600052601260045260246000fd5b7f4f6e6c792076656e646f722063616e2075706461746520707269636500000000600082015250565b7f4f776e61626c653a206e6577206f776e657220697320746865207a65726f206160008201527f6464726573730000000000000000000000000000000000000000000000000000602082015250565b7f417070726f7665642073656c6c657273206f6e6c790000000000000000000000600082015250565b7f496e73756666696369656e74206c697374656420746f6b656e73000000000000600082015250565b7f4f6e6c79206269646465722063616e2063616e63656c20612062696400000000600082015250565b7f496e73756666696369656e7420746f6b656e73206c6973746564000000000000600082015250565b7f417070726f76656420627579657273206f6e6c79000000000000000000000000600082015250565b7f4f776e61626c653a2063616c6c6572206973206e6f7420746865206f776e6572600082015250565b7f426964206f662074686973207479706520616c7265616479206d616465000000600082015250565b7f696e76616c69642049442070726f766964656400000000000000000000000000600082015250565b7f496e73756666696369656e7420746f6b656e73206c697374656420746f20667560008201527f6c66696c6c206269640000000000000000000000000000000000000000000000602082015250565b7f4f6e6c792076656e646f722063616e2061636365707420612062696400000000600082015250565b7f4f6e6c792076656e646f72206f72206d61726b6574706c616365206f776e657260008201527f2063616e2064656c697374000000000000000000000000000000000000000000602082015250565b613cd681613957565b8114613ce157600080fd5b50565b613ced81613969565b8114613cf857600080fd5b50565b613d0481613995565b8114613d0f57600080fd5b5056fea2646970667358221220344aceb36df000d9f2ef444b2cfad914cb792cbe5a676f3b902743d875366d6e64736f6c63430008040033",
  "linkReferences": {},
  "deployedLinkReferences": {}
}