{
  "_format": "hh-sol-artifact-1",
  "contractName": "ChangeblockMarketplace",
  "sourceName": "contracts/ChangeblockMarketplace.sol",
  "abi": [
    {
      "inputs": [
        {
          "internalType": "uint256",
          "name": "feeNumerator",
          "type": "uint256"
        },
        {
          "internalType": "uint256",
          "name": "feeDenominator",
          "type": "uint256"
        },
        {
          "internalType": "address",
          "name": "treasury",
          "type": "address"
        }
      ],
      "stateMutability": "nonpayable",
      "type": "constructor"
    },
    {
      "anonymous": false,
      "inputs": [
        {
          "indexed": true,
          "internalType": "uint256",
          "name": "listingId",
          "type": "uint256"
        },
        {
          "indexed": false,
          "internalType": "uint256",
          "name": "quantity",
          "type": "uint256"
        },
        {
          "indexed": false,
          "internalType": "uint256",
          "name": "price",
          "type": "uint256"
        },
        {
          "indexed": false,
          "internalType": "address",
          "name": "bidder",
          "type": "address"
        },
        {
          "indexed": false,
          "internalType": "uint256",
          "name": "index",
          "type": "uint256"
        }
      ],
      "name": "BidPlaced",
      "type": "event"
    },
    {
      "anonymous": false,
      "inputs": [
        {
          "indexed": true,
          "internalType": "uint256",
          "name": "listingId",
          "type": "uint256"
        },
        {
          "indexed": false,
          "internalType": "address",
          "name": "bidder",
          "type": "address"
        },
        {
          "indexed": false,
          "internalType": "uint256",
          "name": "index",
          "type": "uint256"
        }
      ],
      "name": "BidWithdrawn",
      "type": "event"
    },
    {
      "anonymous": false,
      "inputs": [
        {
          "indexed": true,
          "internalType": "uint256",
          "name": "listingId",
          "type": "uint256"
        },
        {
          "indexed": false,
          "internalType": "uint256",
          "name": "price",
          "type": "uint256"
        }
      ],
      "name": "ERC20PriceUpdate",
      "type": "event"
    },
    {
      "anonymous": false,
      "inputs": [
        {
          "indexed": false,
          "internalType": "uint256",
          "name": "amount",
          "type": "uint256"
        },
        {
          "indexed": false,
          "internalType": "uint256",
          "name": "price",
          "type": "uint256"
        },
        {
          "indexed": true,
          "internalType": "address",
          "name": "vendor",
          "type": "address"
        },
        {
          "indexed": true,
          "internalType": "address",
          "name": "product",
          "type": "address"
        },
        {
          "indexed": false,
          "internalType": "address",
          "name": "currency",
          "type": "address"
        },
        {
          "indexed": false,
          "internalType": "uint256",
          "name": "listingId",
          "type": "uint256"
        }
      ],
      "name": "ERC20Registration",
      "type": "event"
    },
    {
      "anonymous": false,
      "inputs": [
        {
          "indexed": false,
          "internalType": "uint256",
          "name": "id",
          "type": "uint256"
        },
        {
          "indexed": false,
          "internalType": "uint256",
          "name": "price",
          "type": "uint256"
        },
        {
          "indexed": true,
          "internalType": "address",
          "name": "vendor",
          "type": "address"
        },
        {
          "indexed": true,
          "internalType": "address",
          "name": "product",
          "type": "address"
        },
        {
          "indexed": false,
          "internalType": "address",
          "name": "currency",
          "type": "address"
        },
        {
          "indexed": false,
          "internalType": "uint256",
          "name": "listingId",
          "type": "uint256"
        }
      ],
      "name": "ERC721Registration",
      "type": "event"
    },
    {
      "anonymous": false,
      "inputs": [
        {
          "indexed": true,
          "internalType": "address",
          "name": "previousOwner",
          "type": "address"
        },
        {
          "indexed": true,
          "internalType": "address",
          "name": "newOwner",
          "type": "address"
        }
      ],
      "name": "OwnershipTransferred",
      "type": "event"
    },
    {
      "anonymous": false,
      "inputs": [
        {
          "indexed": true,
          "internalType": "uint256",
          "name": "listingId",
          "type": "uint256"
        }
      ],
      "name": "Sale",
      "type": "event"
    },
    {
      "inputs": [
        {
          "internalType": "uint256",
          "name": "",
          "type": "uint256"
        }
      ],
      "name": "ERC20Listings",
      "outputs": [
        {
          "internalType": "uint256",
          "name": "amount",
          "type": "uint256"
        },
        {
          "internalType": "uint256",
          "name": "price",
          "type": "uint256"
        },
        {
          "internalType": "address",
          "name": "vendor",
          "type": "address"
        },
        {
          "internalType": "address",
          "name": "product",
          "type": "address"
        },
        {
          "internalType": "address",
          "name": "currency",
          "type": "address"
        }
      ],
      "stateMutability": "view",
      "type": "function"
    },
    {
      "inputs": [
        {
          "internalType": "uint256",
          "name": "",
          "type": "uint256"
        }
      ],
      "name": "ERC721Listings",
      "outputs": [
        {
          "internalType": "uint256",
          "name": "id",
          "type": "uint256"
        },
        {
          "internalType": "uint256",
          "name": "price",
          "type": "uint256"
        },
        {
          "internalType": "address",
          "name": "vendor",
          "type": "address"
        },
        {
          "internalType": "address",
          "name": "product",
          "type": "address"
        },
        {
          "internalType": "address",
          "name": "currency",
          "type": "address"
        }
      ],
      "stateMutability": "view",
      "type": "function"
    },
    {
      "inputs": [],
      "name": "FEE_DENOMINATOR",
      "outputs": [
        {
          "internalType": "uint256",
          "name": "",
          "type": "uint256"
        }
      ],
      "stateMutability": "view",
      "type": "function"
    },
    {
      "inputs": [],
      "name": "FEE_NUMERATOR",
      "outputs": [
        {
          "internalType": "uint256",
          "name": "",
          "type": "uint256"
        }
      ],
      "stateMutability": "view",
      "type": "function"
    },
    {
      "inputs": [
        {
          "internalType": "uint256",
          "name": "listingId",
          "type": "uint256"
        },
        {
          "internalType": "address",
          "name": "bidder",
          "type": "address"
        },
        {
          "internalType": "uint256",
          "name": "index",
          "type": "uint256"
        },
        {
          "internalType": "uint256",
          "name": "quantity",
          "type": "uint256"
        },
        {
          "internalType": "uint256",
          "name": "payment",
          "type": "uint256"
        }
      ],
      "name": "acceptBid",
      "outputs": [],
      "stateMutability": "nonpayable",
      "type": "function"
    },
    {
      "inputs": [
        {
          "internalType": "uint256",
          "name": "listingId",
          "type": "uint256"
        },
        {
          "internalType": "uint256",
          "name": "quantity",
          "type": "uint256"
        },
        {
          "internalType": "uint256",
          "name": "payment",
          "type": "uint256"
        }
      ],
      "name": "bid",
      "outputs": [],
      "stateMutability": "nonpayable",
      "type": "function"
    },
    {
      "inputs": [
        {
          "internalType": "uint256",
          "name": "",
          "type": "uint256"
        },
        {
          "internalType": "address",
          "name": "",
          "type": "address"
        },
        {
          "internalType": "uint256",
          "name": "",
          "type": "uint256"
        }
      ],
      "name": "bids",
      "outputs": [
        {
          "internalType": "uint256",
          "name": "quantity",
          "type": "uint256"
        },
        {
          "internalType": "uint256",
          "name": "payment",
          "type": "uint256"
        }
      ],
      "stateMutability": "view",
      "type": "function"
    },
    {
      "inputs": [
        {
          "internalType": "uint256",
          "name": "listingId",
          "type": "uint256"
        },
        {
          "internalType": "uint256",
          "name": "amount",
          "type": "uint256"
        },
        {
          "internalType": "uint256",
          "name": "price",
          "type": "uint256"
        }
      ],
      "name": "buyERC20",
      "outputs": [],
      "stateMutability": "nonpayable",
      "type": "function"
    },
    {
      "inputs": [
        {
          "internalType": "uint256",
          "name": "listingId",
          "type": "uint256"
        },
        {
          "internalType": "uint256",
          "name": "price",
          "type": "uint256"
        }
      ],
      "name": "buyERC721",
      "outputs": [],
      "stateMutability": "nonpayable",
      "type": "function"
    },
    {
      "inputs": [
        {
          "internalType": "address",
          "name": "",
          "type": "address"
        }
      ],
      "name": "buyerApprovals",
      "outputs": [
        {
          "internalType": "bool",
          "name": "",
          "type": "bool"
        }
      ],
      "stateMutability": "view",
      "type": "function"
    },
    {
      "inputs": [
        {
          "internalType": "uint256",
          "name": "amount",
          "type": "uint256"
        },
        {
          "internalType": "uint256",
          "name": "listingId",
          "type": "uint256"
        }
      ],
      "name": "delistERC20",
      "outputs": [],
      "stateMutability": "nonpayable",
      "type": "function"
    },
    {
      "inputs": [
        {
          "internalType": "uint256",
          "name": "listingId",
          "type": "uint256"
        }
      ],
      "name": "delistERC721",
      "outputs": [],
      "stateMutability": "nonpayable",
      "type": "function"
    },
    {
      "inputs": [
        {
          "internalType": "uint256",
          "name": "amount",
          "type": "uint256"
        },
        {
          "internalType": "uint256",
          "name": "price",
          "type": "uint256"
        },
        {
          "internalType": "address",
          "name": "product",
          "type": "address"
        },
        {
          "internalType": "address",
          "name": "currency",
          "type": "address"
        }
      ],
      "name": "listERC20",
      "outputs": [
        {
          "internalType": "uint256",
          "name": "",
          "type": "uint256"
        }
      ],
      "stateMutability": "nonpayable",
      "type": "function"
    },
    {
      "inputs": [
        {
          "internalType": "uint256",
          "name": "id",
          "type": "uint256"
        },
        {
          "internalType": "uint256",
          "name": "price",
          "type": "uint256"
        },
        {
          "internalType": "address",
          "name": "product",
          "type": "address"
        },
        {
          "internalType": "address",
          "name": "currency",
          "type": "address"
        }
      ],
      "name": "listERC721",
      "outputs": [
        {
          "internalType": "uint256",
          "name": "",
          "type": "uint256"
        }
      ],
      "stateMutability": "nonpayable",
      "type": "function"
    },
    {
      "inputs": [],
      "name": "owner",
      "outputs": [
        {
          "internalType": "address",
          "name": "",
          "type": "address"
        }
      ],
      "stateMutability": "view",
      "type": "function"
    },
    {
      "inputs": [],
      "name": "renounceOwnership",
      "outputs": [],
      "stateMutability": "nonpayable",
      "type": "function"
    },
    {
      "inputs": [
        {
          "internalType": "address",
          "name": "",
          "type": "address"
        }
      ],
      "name": "sellerApprovals",
      "outputs": [
        {
          "internalType": "bool",
          "name": "",
          "type": "bool"
        }
      ],
      "stateMutability": "view",
      "type": "function"
    },
    {
      "inputs": [
        {
          "internalType": "address[]",
          "name": "targets",
          "type": "address[]"
        },
        {
          "internalType": "bool[]",
          "name": "approvals",
          "type": "bool[]"
        }
      ],
      "name": "setBuyers",
      "outputs": [],
      "stateMutability": "nonpayable",
      "type": "function"
    },
    {
      "inputs": [],
      "name": "setFeeDenominator",
      "outputs": [],
      "stateMutability": "nonpayable",
      "type": "function"
    },
    {
      "inputs": [],
      "name": "setFeeNumerator",
      "outputs": [],
      "stateMutability": "nonpayable",
      "type": "function"
    },
    {
      "inputs": [
        {
          "internalType": "address[]",
          "name": "targets",
          "type": "address[]"
        },
        {
          "internalType": "bool[]",
          "name": "approvals",
          "type": "bool[]"
        }
      ],
      "name": "setSellers",
      "outputs": [],
      "stateMutability": "nonpayable",
      "type": "function"
    },
    {
      "inputs": [
        {
          "internalType": "address",
          "name": "newOwner",
          "type": "address"
        }
      ],
      "name": "transferOwnership",
      "outputs": [],
      "stateMutability": "nonpayable",
      "type": "function"
    },
    {
      "inputs": [
        {
          "internalType": "uint256",
          "name": "listingId",
          "type": "uint256"
        },
        {
          "internalType": "uint256",
          "name": "price",
          "type": "uint256"
        }
      ],
      "name": "updateERC20Price",
      "outputs": [],
      "stateMutability": "nonpayable",
      "type": "function"
    },
    {
      "inputs": [
        {
          "internalType": "uint256",
          "name": "listingId",
          "type": "uint256"
        },
        {
          "internalType": "uint256",
          "name": "price",
          "type": "uint256"
        }
      ],
      "name": "updateERC721Price",
      "outputs": [],
      "stateMutability": "nonpayable",
      "type": "function"
    },
    {
      "inputs": [
        {
          "internalType": "uint256",
          "name": "listingId",
          "type": "uint256"
        },
        {
          "internalType": "uint256",
          "name": "index",
          "type": "uint256"
        }
      ],
      "name": "withdrawBid",
      "outputs": [],
      "stateMutability": "nonpayable",
      "type": "function"
    }
  ],
  "bytecode": "0x60806040523480156200001157600080fd5b5060405162004249380380620042498339818101604052810190620000379190620001a9565b620000576200004b620000af60201b60201c565b620000b760201b60201c565b826005819055508160068190555080600760006101000a81548173ffffffffffffffffffffffffffffffffffffffff021916908373ffffffffffffffffffffffffffffffffffffffff16021790555050505062000271565b600033905090565b60008060009054906101000a900473ffffffffffffffffffffffffffffffffffffffff169050816000806101000a81548173ffffffffffffffffffffffffffffffffffffffff021916908373ffffffffffffffffffffffffffffffffffffffff1602179055508173ffffffffffffffffffffffffffffffffffffffff168173ffffffffffffffffffffffffffffffffffffffff167f8be0079c531659141344cd1fd0a4f28419497f9722a3daafe3b4186f6b6457e060405160405180910390a35050565b6000815190506200018c816200023d565b92915050565b600081519050620001a38162000257565b92915050565b600080600060608486031215620001bf57600080fd5b6000620001cf8682870162000192565b9350506020620001e28682870162000192565b9250506040620001f5868287016200017b565b9150509250925092565b60006200020c8262000213565b9050919050565b600073ffffffffffffffffffffffffffffffffffffffff82169050919050565b6000819050919050565b6200024881620001ff565b81146200025457600080fd5b50565b620002628162000233565b81146200026e57600080fd5b50565b613fc880620002816000396000f3fe608060405234801561001057600080fd5b50600436106101735760003560e01c806397895f3a116100de578063d73d55a311610097578063f626dab011610071578063f626dab01461040f578063fbcc035114610443578063fec1d6c614610473578063ffda0a0b1461047d57610173565b8063d73d55a3146103bb578063efe5b871146103d7578063f2fde38b146103f357610173565b806397895f3a146102fd578063a57356621461032d578063aebfa63514610349578063c1ab2a4f14610365578063cb36639b14610381578063d73792a91461039d57610173565b806346b504781161013057806346b504781461023c57806366c7f8e514610258578063715018a6146102885780638449e22c146102925780638da5cb5b146102ae57806394fccfb2146102cc57610173565b806302fa11bd14610178578063151a4791146101ac5780632ac9bf09146101dc5780632b2d0460146101f857806341cd47bf1461021457806345d84c9414610232575b600080fd5b610192600480360381019061018d91906132b6565b610499565b6040516101a39594939291906139a4565b60405180910390f35b6101c660048036038101906101c191906133e1565b61052f565b6040516101d39190613937565b60405180910390f35b6101f660048036038101906101f19190613444565b61083b565b005b610212600480360381019061020d91906131ef565b610ac7565b005b61021c610c5c565b6040516102299190613937565b60405180910390f35b61023a610c62565b005b610256600480360381019061025191906133a5565b610ce0565b005b610272600480360381019061026d91906133e1565b610da3565b60405161027f9190613937565b60405180910390f35b6102906110f3565b005b6102ac60048036038101906102a7919061332e565b61117b565b005b6102b66115e3565b6040516102c391906136aa565b60405180910390f35b6102e660048036038101906102e191906132df565b61160c565b6040516102f492919061397b565b60405180910390f35b610317600480360381019061031291906131c6565b61165a565b604051610324919061375c565b60405180910390f35b610347600480360381019061034291906133a5565b61167a565b005b610363600480360381019061035e91906131ef565b6118b7565b005b61037f600480360381019061037a91906132b6565b611a4c565b005b61039b60048036038101906103969190613444565b611d4d565b005b6103a5612287565b6040516103b29190613937565b60405180910390f35b6103d560048036038101906103d091906133a5565b61228d565b005b6103f160048036038101906103ec91906133a5565b612630565b005b61040d600480360381019061040891906131c6565b612acd565b005b610429600480360381019061042491906132b6565b612bc5565b60405161043a9594939291906139a4565b60405180910390f35b61045d600480360381019061045891906131c6565b612c5b565b60405161046a919061375c565b60405180910390f35b61047b612c7b565b005b610497600480360381019061049291906133a5565b612cf9565b005b60036020528060005260406000206000915090508060000154908060010154908060020160009054906101000a900473ffffffffffffffffffffffffffffffffffffffff16908060030160009054906101000a900473ffffffffffffffffffffffffffffffffffffffff16908060040160009054906101000a900473ffffffffffffffffffffffffffffffffffffffff16905085565b6000600160003373ffffffffffffffffffffffffffffffffffffffff1673ffffffffffffffffffffffffffffffffffffffff16815260200190815260200160002060009054906101000a900460ff166105bd576040517f08c379a00000000000000000000000000000000000000000000000000000000081526004016105b490613817565b60405180910390fd5b8273ffffffffffffffffffffffffffffffffffffffff166323b872dd3330886040518463ffffffff1660e01b81526004016105fa939291906136fc565b600060405180830381600087803b15801561061457600080fd5b505af1158015610628573d6000803e3d6000fd5b5050505060008584604051602001610641929190613952565b6040516020818303038152906040528051906020012060001c90506040518060a001604052808781526020018681526020013373ffffffffffffffffffffffffffffffffffffffff1681526020018573ffffffffffffffffffffffffffffffffffffffff1681526020018473ffffffffffffffffffffffffffffffffffffffff1681525060046000838152602001908152602001600020600082015181600001556020820151816001015560408201518160020160006101000a81548173ffffffffffffffffffffffffffffffffffffffff021916908373ffffffffffffffffffffffffffffffffffffffff16021790555060608201518160030160006101000a81548173ffffffffffffffffffffffffffffffffffffffff021916908373ffffffffffffffffffffffffffffffffffffffff16021790555060808201518160040160006101000a81548173ffffffffffffffffffffffffffffffffffffffff021916908373ffffffffffffffffffffffffffffffffffffffff1602179055509050508373ffffffffffffffffffffffffffffffffffffffff163373ffffffffffffffffffffffffffffffffffffffff167f96121474b4be0e5edfa0cf9721fe3e06611dc0048f4ec160f3f4aa1c5ca3ec418888878660405161082794939291906139f7565b60405180910390a380915050949350505050565b600260003373ffffffffffffffffffffffffffffffffffffffff1673ffffffffffffffffffffffffffffffffffffffff16815260200190815260200160002060009054906101000a900460ff166108c7576040517f08c379a00000000000000000000000000000000000000000000000000000000081526004016108be90613877565b60405180910390fd5b827f0596870c910fd22e7d7060a9123ea11d885af76b24003b78da44bf03a5d0eceb8383336008600089815260200190815260200160002060003373ffffffffffffffffffffffffffffffffffffffff1673ffffffffffffffffffffffffffffffffffffffff1681526020019081526020016000208054905060405161095094939291906139f7565b60405180910390a26008600084815260200190815260200160002060003373ffffffffffffffffffffffffffffffffffffffff1673ffffffffffffffffffffffffffffffffffffffff1681526020019081526020016000206040518060400160405280848152602001838152509080600181540180825580915050600190039060005260206000209060020201600090919091909150600082015181600001556020820151816001015550506003600084815260200190815260200160002060040160009054906101000a900473ffffffffffffffffffffffffffffffffffffffff1673ffffffffffffffffffffffffffffffffffffffff166323b872dd3330846040518463ffffffff1660e01b8152600401610a6f939291906136fc565b602060405180830381600087803b158015610a8957600080fd5b505af1158015610a9d573d6000803e3d6000fd5b505050506040513d601f19601f82011682018060405250810190610ac1919061328d565b50505050565b610acf612dbc565b73ffffffffffffffffffffffffffffffffffffffff16610aed6115e3565b73ffffffffffffffffffffffffffffffffffffffff1614610b43576040517f08c379a0000000000000000000000000000000000000000000000000000000008152600401610b3a90613897565b60405180910390fd5b60005b84849050811015610c5557828282818110610b8a577f4e487b7100000000000000000000000000000000000000000000000000000000600052603260045260246000fd5b9050602002016020810190610b9f9190613264565b60016000878785818110610bdc577f4e487b7100000000000000000000000000000000000000000000000000000000600052603260045260246000fd5b9050602002016020810190610bf191906131c6565b73ffffffffffffffffffffffffffffffffffffffff1673ffffffffffffffffffffffffffffffffffffffff16815260200190815260200160002060006101000a81548160ff0219169083151502179055508080610c4d90613baa565b915050610b46565b5050505050565b60055481565b610c6a612dbc565b73ffffffffffffffffffffffffffffffffffffffff16610c886115e3565b73ffffffffffffffffffffffffffffffffffffffff1614610cde576040517f08c379a0000000000000000000000000000000000000000000000000000000008152600401610cd590613897565b60405180910390fd5b565b6003600083815260200190815260200160002060020160009054906101000a900473ffffffffffffffffffffffffffffffffffffffff1673ffffffffffffffffffffffffffffffffffffffff163373ffffffffffffffffffffffffffffffffffffffff1614610d84576040517f08c379a0000000000000000000000000000000000000000000000000000000008152600401610d7b90613777565b60405180910390fd5b8060036000848152602001908152602001600020600101819055505050565b6000600160003373ffffffffffffffffffffffffffffffffffffffff1673ffffffffffffffffffffffffffffffffffffffff16815260200190815260200160002060009054906101000a900460ff16610e31576040517f08c379a0000000000000000000000000000000000000000000000000000000008152600401610e2890613817565b60405180910390fd5b8273ffffffffffffffffffffffffffffffffffffffff166323b872dd3330886040518463ffffffff1660e01b8152600401610e6e939291906136fc565b602060405180830381600087803b158015610e8857600080fd5b505af1158015610e9c573d6000803e3d6000fd5b505050506040513d601f19601f82011682018060405250810190610ec0919061328d565b506000338484604051602001610ed8939291906136c5565b6040516020818303038152906040528051906020012060001c90506040518060a00160405280600360008481526020019081526020016000206000015488610f209190613a4d565b81526020018681526020013373ffffffffffffffffffffffffffffffffffffffff1681526020018573ffffffffffffffffffffffffffffffffffffffff1681526020018473ffffffffffffffffffffffffffffffffffffffff1681525060036000838152602001908152602001600020600082015181600001556020820151816001015560408201518160020160006101000a81548173ffffffffffffffffffffffffffffffffffffffff021916908373ffffffffffffffffffffffffffffffffffffffff16021790555060608201518160030160006101000a81548173ffffffffffffffffffffffffffffffffffffffff021916908373ffffffffffffffffffffffffffffffffffffffff16021790555060808201518160040160006101000a81548173ffffffffffffffffffffffffffffffffffffffff021916908373ffffffffffffffffffffffffffffffffffffffff1602179055509050508373ffffffffffffffffffffffffffffffffffffffff163373ffffffffffffffffffffffffffffffffffffffff167f4dac2e5e670f156eb092f4d2b4bd3db441153ea88b602e360195f855f144c6d7888887866040516110df94939291906139f7565b60405180910390a380915050949350505050565b6110fb612dbc565b73ffffffffffffffffffffffffffffffffffffffff166111196115e3565b73ffffffffffffffffffffffffffffffffffffffff161461116f576040517f08c379a000000000000000000000000000000000000000000000000000000000815260040161116690613897565b60405180910390fd5b6111796000612dc4565b565b6003600086815260200190815260200160002060020160009054906101000a900473ffffffffffffffffffffffffffffffffffffffff1673ffffffffffffffffffffffffffffffffffffffff163373ffffffffffffffffffffffffffffffffffffffff161461121f576040517f08c379a0000000000000000000000000000000000000000000000000000000008152600401611216906138d7565b60405180910390fd5b8160036000878152602001908152602001600020600001541015611278576040517f08c379a000000000000000000000000000000000000000000000000000000000815260040161126f906138b7565b60405180910390fd5b826008600087815260200190815260200160002060003373ffffffffffffffffffffffffffffffffffffffff1673ffffffffffffffffffffffffffffffffffffffff168152602001908152602001600020805490501161130d576040517f08c379a0000000000000000000000000000000000000000000000000000000008152600401611304906137d7565b60405180910390fd5b60006008600087815260200190815260200160002060008673ffffffffffffffffffffffffffffffffffffffff1673ffffffffffffffffffffffffffffffffffffffff1681526020019081526020016000208481548110611397577f4e487b7100000000000000000000000000000000000000000000000000000000600052603260045260246000fd5b90600052602060002090600202016040518060400160405290816000820154815260200160018201548152505090508281600001511480156113dc5750818160200151145b61141b576040517f08c379a0000000000000000000000000000000000000000000000000000000008152600401611412906137f7565b60405180910390fd5b6003600087815260200190815260200160002060040160009054906101000a900473ffffffffffffffffffffffffffffffffffffffff1673ffffffffffffffffffffffffffffffffffffffff1663a9059cbb33846040518363ffffffff1660e01b815260040161148c929190613733565b602060405180830381600087803b1580156114a657600080fd5b505af11580156114ba573d6000803e3d6000fd5b505050506040513d601f19601f820116820180604052508101906114de919061328d565b506003600087815260200190815260200160002060030160009054906101000a900473ffffffffffffffffffffffffffffffffffffffff1673ffffffffffffffffffffffffffffffffffffffff1663a9059cbb33856040518363ffffffff1660e01b8152600401611550929190613733565b602060405180830381600087803b15801561156a57600080fd5b505af115801561157e573d6000803e3d6000fd5b505050506040513d601f19601f820116820180604052508101906115a2919061328d565b50826003600088815260200190815260200160002060000160008282546115c99190613b2e565b925050819055506115db868686612e88565b505050505050565b60008060009054906101000a900473ffffffffffffffffffffffffffffffffffffffff16905090565b6008602052826000526040600020602052816000526040600020818154811061163457600080fd5b906000526020600020906002020160009250925050508060000154908060010154905082565b60026020528060005260406000206000915054906101000a900460ff1681565b806008600084815260200190815260200160002060003373ffffffffffffffffffffffffffffffffffffffff1673ffffffffffffffffffffffffffffffffffffffff168152602001908152602001600020805490501161170f576040517f08c379a0000000000000000000000000000000000000000000000000000000008152600401611706906137d7565b60405180910390fd5b6003600083815260200190815260200160002060040160009054906101000a900473ffffffffffffffffffffffffffffffffffffffff1673ffffffffffffffffffffffffffffffffffffffff166323b872dd33306008600087815260200190815260200160002060003373ffffffffffffffffffffffffffffffffffffffff1673ffffffffffffffffffffffffffffffffffffffff16815260200190815260200160002085815481106117eb577f4e487b7100000000000000000000000000000000000000000000000000000000600052603260045260246000fd5b9060005260206000209060020201600101546040518463ffffffff1660e01b815260040161181b939291906136fc565b602060405180830381600087803b15801561183557600080fd5b505af1158015611849573d6000803e3d6000fd5b505050506040513d601f19601f8201168201806040525081019061186d919061328d565b50611879823383612e88565b817f8f8619524e8d462cead34604bd2247ede24175801481e4d0b8059ac8aa41c30133836040516118ab929190613733565b60405180910390a25050565b6118bf612dbc565b73ffffffffffffffffffffffffffffffffffffffff166118dd6115e3565b73ffffffffffffffffffffffffffffffffffffffff1614611933576040517f08c379a000000000000000000000000000000000000000000000000000000000815260040161192a90613897565b60405180910390fd5b60005b84849050811015611a455782828281811061197a577f4e487b7100000000000000000000000000000000000000000000000000000000600052603260045260246000fd5b905060200201602081019061198f9190613264565b600260008787858181106119cc577f4e487b7100000000000000000000000000000000000000000000000000000000600052603260045260246000fd5b90506020020160208101906119e191906131c6565b73ffffffffffffffffffffffffffffffffffffffff1673ffffffffffffffffffffffffffffffffffffffff16815260200190815260200160002060006101000a81548160ff0219169083151502179055508080611a3d90613baa565b915050611936565b5050505050565b6000600460008381526020019081526020016000206040518060a001604052908160008201548152602001600182015481526020016002820160009054906101000a900473ffffffffffffffffffffffffffffffffffffffff1673ffffffffffffffffffffffffffffffffffffffff1673ffffffffffffffffffffffffffffffffffffffff1681526020016003820160009054906101000a900473ffffffffffffffffffffffffffffffffffffffff1673ffffffffffffffffffffffffffffffffffffffff1673ffffffffffffffffffffffffffffffffffffffff1681526020016004820160009054906101000a900473ffffffffffffffffffffffffffffffffffffffff1673ffffffffffffffffffffffffffffffffffffffff1673ffffffffffffffffffffffffffffffffffffffff168152505090503373ffffffffffffffffffffffffffffffffffffffff16816040015173ffffffffffffffffffffffffffffffffffffffff161480611bf457503373ffffffffffffffffffffffffffffffffffffffff16611bdc6115e3565b73ffffffffffffffffffffffffffffffffffffffff16145b611c33576040517f08c379a0000000000000000000000000000000000000000000000000000000008152600401611c2a906138f7565b60405180910390fd5b806060015173ffffffffffffffffffffffffffffffffffffffff166323b872dd30836040015184600001516040518463ffffffff1660e01b8152600401611c7c939291906136fc565b600060405180830381600087803b158015611c9657600080fd5b505af1158015611caa573d6000803e3d6000fd5b505050506004600083815260200190815260200160002060008082016000905560018201600090556002820160006101000a81549073ffffffffffffffffffffffffffffffffffffffff02191690556003820160006101000a81549073ffffffffffffffffffffffffffffffffffffffff02191690556004820160006101000a81549073ffffffffffffffffffffffffffffffffffffffff021916905550505050565b600260003373ffffffffffffffffffffffffffffffffffffffff1673ffffffffffffffffffffffffffffffffffffffff16815260200190815260200160002060009054906101000a900460ff16611dd9576040517f08c379a0000000000000000000000000000000000000000000000000000000008152600401611dd090613877565b60405180910390fd5b6000600360008581526020019081526020016000206040518060a001604052908160008201548152602001600182015481526020016002820160009054906101000a900473ffffffffffffffffffffffffffffffffffffffff1673ffffffffffffffffffffffffffffffffffffffff1673ffffffffffffffffffffffffffffffffffffffff1681526020016003820160009054906101000a900473ffffffffffffffffffffffffffffffffffffffff1673ffffffffffffffffffffffffffffffffffffffff1673ffffffffffffffffffffffffffffffffffffffff1681526020016004820160009054906101000a900473ffffffffffffffffffffffffffffffffffffffff1673ffffffffffffffffffffffffffffffffffffffff1673ffffffffffffffffffffffffffffffffffffffff16815250509050600073ffffffffffffffffffffffffffffffffffffffff16816080015173ffffffffffffffffffffffffffffffffffffffff161415611f85576040517f08c379a0000000000000000000000000000000000000000000000000000000008152600401611f7c90613917565b60405180910390fd5b81816020015114611fcb576040517f08c379a0000000000000000000000000000000000000000000000000000000008152600401611fc2906137b7565b60405180910390fd5b6000816020015184611fdd9190613ad4565b9050600060065460055483611ff29190613ad4565b611ffc9190613aa3565b9050826080015173ffffffffffffffffffffffffffffffffffffffff166323b872dd338560400151856040518463ffffffff1660e01b8152600401612043939291906136fc565b602060405180830381600087803b15801561205d57600080fd5b505af1158015612071573d6000803e3d6000fd5b505050506040513d601f19601f82011682018060405250810190612095919061328d565b50826080015173ffffffffffffffffffffffffffffffffffffffff166323b872dd33600760009054906101000a900473ffffffffffffffffffffffffffffffffffffffff16846040518463ffffffff1660e01b81526004016120f9939291906136fc565b602060405180830381600087803b15801561211357600080fd5b505af1158015612127573d6000803e3d6000fd5b505050506040513d601f19601f8201168201806040525081019061214b919061328d565b508483600001511015612193576040517f08c379a000000000000000000000000000000000000000000000000000000000815260040161218a90613837565b60405180910390fd5b826060015173ffffffffffffffffffffffffffffffffffffffff1663a9059cbb33876040518363ffffffff1660e01b81526004016121d2929190613733565b602060405180830381600087803b1580156121ec57600080fd5b505af1158015612200573d6000803e3d6000fd5b505050506040513d601f19601f82011682018060405250810190612224919061328d565b508460036000888152602001908152602001600020600001600082825461224b9190613b2e565b92505081905550857fc0a8d68d4d1f533ef6cdb7a49068cbe04356682803cb7983c4ba33ce99100efd60405160405180910390a2505050505050565b60065481565b6000600360008381526020019081526020016000206040518060a001604052908160008201548152602001600182015481526020016002820160009054906101000a900473ffffffffffffffffffffffffffffffffffffffff1673ffffffffffffffffffffffffffffffffffffffff1673ffffffffffffffffffffffffffffffffffffffff1681526020016003820160009054906101000a900473ffffffffffffffffffffffffffffffffffffffff1673ffffffffffffffffffffffffffffffffffffffff1673ffffffffffffffffffffffffffffffffffffffff1681526020016004820160009054906101000a900473ffffffffffffffffffffffffffffffffffffffff1673ffffffffffffffffffffffffffffffffffffffff1673ffffffffffffffffffffffffffffffffffffffff168152505090503373ffffffffffffffffffffffffffffffffffffffff16816040015173ffffffffffffffffffffffffffffffffffffffff16148061243557503373ffffffffffffffffffffffffffffffffffffffff1661241d6115e3565b73ffffffffffffffffffffffffffffffffffffffff16145b612474576040517f08c379a000000000000000000000000000000000000000000000000000000000815260040161246b906138f7565b60405180910390fd5b82816000015110156124bb576040517f08c379a00000000000000000000000000000000000000000000000000000000081526004016124b290613857565b60405180910390fd5b806060015173ffffffffffffffffffffffffffffffffffffffff1663a9059cbb8260400151856040518363ffffffff1660e01b81526004016124fe929190613733565b602060405180830381600087803b15801561251857600080fd5b505af115801561252c573d6000803e3d6000fd5b505050506040513d601f19601f82011682018060405250810190612550919061328d565b5082816000015114156125fd576003600083815260200190815260200160002060008082016000905560018201600090556002820160006101000a81549073ffffffffffffffffffffffffffffffffffffffff02191690556003820160006101000a81549073ffffffffffffffffffffffffffffffffffffffff02191690556004820160006101000a81549073ffffffffffffffffffffffffffffffffffffffff0219169055505061262b565b826003600084815260200190815260200160002060000160008282546126239190613b2e565b925050819055505b505050565b600260003373ffffffffffffffffffffffffffffffffffffffff1673ffffffffffffffffffffffffffffffffffffffff16815260200190815260200160002060009054906101000a900460ff166126bc576040517f08c379a00000000000000000000000000000000000000000000000000000000081526004016126b390613877565b60405180910390fd5b6000600460008481526020019081526020016000206040518060a001604052908160008201548152602001600182015481526020016002820160009054906101000a900473ffffffffffffffffffffffffffffffffffffffff1673ffffffffffffffffffffffffffffffffffffffff1673ffffffffffffffffffffffffffffffffffffffff1681526020016003820160009054906101000a900473ffffffffffffffffffffffffffffffffffffffff1673ffffffffffffffffffffffffffffffffffffffff1673ffffffffffffffffffffffffffffffffffffffff1681526020016004820160009054906101000a900473ffffffffffffffffffffffffffffffffffffffff1673ffffffffffffffffffffffffffffffffffffffff1673ffffffffffffffffffffffffffffffffffffffff16815250509050600073ffffffffffffffffffffffffffffffffffffffff16816080015173ffffffffffffffffffffffffffffffffffffffff161415612868576040517f08c379a000000000000000000000000000000000000000000000000000000000815260040161285f90613917565b60405180910390fd5b818160200151146128ae576040517f08c379a00000000000000000000000000000000000000000000000000000000081526004016128a5906137b7565b60405180910390fd5b600060065460055483602001516128c59190613ad4565b6128cf9190613aa3565b9050816080015173ffffffffffffffffffffffffffffffffffffffff166323b872dd33846040015185602001516040518463ffffffff1660e01b815260040161291a939291906136fc565b602060405180830381600087803b15801561293457600080fd5b505af1158015612948573d6000803e3d6000fd5b505050506040513d601f19601f8201168201806040525081019061296c919061328d565b50816080015173ffffffffffffffffffffffffffffffffffffffff166323b872dd33600760009054906101000a900473ffffffffffffffffffffffffffffffffffffffff16846040518463ffffffff1660e01b81526004016129d0939291906136fc565b602060405180830381600087803b1580156129ea57600080fd5b505af11580156129fe573d6000803e3d6000fd5b505050506040513d601f19601f82011682018060405250810190612a22919061328d565b50816060015173ffffffffffffffffffffffffffffffffffffffff166323b872dd303385600001516040518463ffffffff1660e01b8152600401612a68939291906136fc565b600060405180830381600087803b158015612a8257600080fd5b505af1158015612a96573d6000803e3d6000fd5b50505050837fc0a8d68d4d1f533ef6cdb7a49068cbe04356682803cb7983c4ba33ce99100efd60405160405180910390a250505050565b612ad5612dbc565b73ffffffffffffffffffffffffffffffffffffffff16612af36115e3565b73ffffffffffffffffffffffffffffffffffffffff1614612b49576040517f08c379a0000000000000000000000000000000000000000000000000000000008152600401612b4090613897565b60405180910390fd5b600073ffffffffffffffffffffffffffffffffffffffff168173ffffffffffffffffffffffffffffffffffffffff161415612bb9576040517f08c379a0000000000000000000000000000000000000000000000000000000008152600401612bb090613797565b60405180910390fd5b612bc281612dc4565b50565b60046020528060005260406000206000915090508060000154908060010154908060020160009054906101000a900473ffffffffffffffffffffffffffffffffffffffff16908060030160009054906101000a900473ffffffffffffffffffffffffffffffffffffffff16908060040160009054906101000a900473ffffffffffffffffffffffffffffffffffffffff16905085565b60016020528060005260406000206000915054906101000a900460ff1681565b612c83612dbc565b73ffffffffffffffffffffffffffffffffffffffff16612ca16115e3565b73ffffffffffffffffffffffffffffffffffffffff1614612cf7576040517f08c379a0000000000000000000000000000000000000000000000000000000008152600401612cee90613897565b60405180910390fd5b565b6004600083815260200190815260200160002060020160009054906101000a900473ffffffffffffffffffffffffffffffffffffffff1673ffffffffffffffffffffffffffffffffffffffff163373ffffffffffffffffffffffffffffffffffffffff1614612d9d576040517f08c379a0000000000000000000000000000000000000000000000000000000008152600401612d9490613777565b60405180910390fd5b8060046000848152602001908152602001600020600101819055505050565b600033905090565b60008060009054906101000a900473ffffffffffffffffffffffffffffffffffffffff169050816000806101000a81548173ffffffffffffffffffffffffffffffffffffffff021916908373ffffffffffffffffffffffffffffffffffffffff1602179055508173ffffffffffffffffffffffffffffffffffffffff168173ffffffffffffffffffffffffffffffffffffffff167f8be0079c531659141344cd1fd0a4f28419497f9722a3daafe3b4186f6b6457e060405160405180910390a35050565b6008600084815260200190815260200160002060008373ffffffffffffffffffffffffffffffffffffffff1673ffffffffffffffffffffffffffffffffffffffff16815260200190815260200160002060016008600086815260200190815260200160002060008573ffffffffffffffffffffffffffffffffffffffff1673ffffffffffffffffffffffffffffffffffffffff16815260200190815260200160002080549050612f389190613b2e565b81548110612f6f577f4e487b7100000000000000000000000000000000000000000000000000000000600052603260045260246000fd5b90600052602060002090600202016008600085815260200190815260200160002060008473ffffffffffffffffffffffffffffffffffffffff1673ffffffffffffffffffffffffffffffffffffffff1681526020019081526020016000208281548110613005577f4e487b7100000000000000000000000000000000000000000000000000000000600052603260045260246000fd5b906000526020600020906002020160008201548160000155600182015481600101559050506008600084815260200190815260200160002060008373ffffffffffffffffffffffffffffffffffffffff1673ffffffffffffffffffffffffffffffffffffffff1681526020019081526020016000208054806130b0577f4e487b7100000000000000000000000000000000000000000000000000000000600052603160045260246000fd5b6001900381819060005260206000209060020201600080820160009055600182016000905550509055505050565b6000813590506130ed81613f4d565b92915050565b60008083601f84011261310557600080fd5b8235905067ffffffffffffffff81111561311e57600080fd5b60208301915083602082028301111561313657600080fd5b9250929050565b60008083601f84011261314f57600080fd5b8235905067ffffffffffffffff81111561316857600080fd5b60208301915083602082028301111561318057600080fd5b9250929050565b60008135905061319681613f64565b92915050565b6000815190506131ab81613f64565b92915050565b6000813590506131c081613f7b565b92915050565b6000602082840312156131d857600080fd5b60006131e6848285016130de565b91505092915050565b6000806000806040858703121561320557600080fd5b600085013567ffffffffffffffff81111561321f57600080fd5b61322b878288016130f3565b9450945050602085013567ffffffffffffffff81111561324a57600080fd5b6132568782880161313d565b925092505092959194509250565b60006020828403121561327657600080fd5b600061328484828501613187565b91505092915050565b60006020828403121561329f57600080fd5b60006132ad8482850161319c565b91505092915050565b6000602082840312156132c857600080fd5b60006132d6848285016131b1565b91505092915050565b6000806000606084860312156132f457600080fd5b6000613302868287016131b1565b9350506020613313868287016130de565b9250506040613324868287016131b1565b9150509250925092565b600080600080600060a0868803121561334657600080fd5b6000613354888289016131b1565b9550506020613365888289016130de565b9450506040613376888289016131b1565b9350506060613387888289016131b1565b9250506080613398888289016131b1565b9150509295509295909350565b600080604083850312156133b857600080fd5b60006133c6858286016131b1565b92505060206133d7858286016131b1565b9150509250929050565b600080600080608085870312156133f757600080fd5b6000613405878288016131b1565b9450506020613416878288016131b1565b9350506040613427878288016130de565b9250506060613438878288016130de565b91505092959194509250565b60008060006060848603121561345957600080fd5b6000613467868287016131b1565b9350506020613478868287016131b1565b9250506040613489868287016131b1565b9150509250925092565b61349c81613b62565b82525050565b6134ab81613b74565b82525050565b60006134be601c83613a3c565b91506134c982613c51565b602082019050919050565b60006134e1602683613a3c565b91506134ec82613c7a565b604082019050919050565b6000613504602383613a3c565b915061350f82613cc9565b604082019050919050565b6000613527601583613a3c565b915061353282613d18565b602082019050919050565b600061354a603983613a3c565b915061355582613d41565b604082019050919050565b600061356d601583613a3c565b915061357882613d90565b602082019050919050565b6000613590601a83613a3c565b915061359b82613db9565b602082019050919050565b60006135b3601a83613a3c565b91506135be82613de2565b602082019050919050565b60006135d6601483613a3c565b91506135e182613e0b565b602082019050919050565b60006135f9602083613a3c565b915061360482613e34565b602082019050919050565b600061361c602983613a3c565b915061362782613e5d565b604082019050919050565b600061363f601a83613a3c565b915061364a82613eac565b602082019050919050565b6000613662602b83613a3c565b915061366d82613ed5565b604082019050919050565b6000613685601d83613a3c565b915061369082613f24565b602082019050919050565b6136a481613ba0565b82525050565b60006020820190506136bf6000830184613493565b92915050565b60006060820190506136da6000830186613493565b6136e76020830185613493565b6136f46040830184613493565b949350505050565b60006060820190506137116000830186613493565b61371e6020830185613493565b61372b604083018461369b565b949350505050565b60006040820190506137486000830185613493565b613755602083018461369b565b9392505050565b600060208201905061377160008301846134a2565b92915050565b60006020820190508181036000830152613790816134b1565b9050919050565b600060208201905081810360008301526137b0816134d4565b9050919050565b600060208201905081810360008301526137d0816134f7565b9050919050565b600060208201905081810360008301526137f08161351a565b9050919050565b600060208201905081810360008301526138108161353d565b9050919050565b6000602082019050818103600083015261383081613560565b9050919050565b6000602082019050818103600083015261385081613583565b9050919050565b60006020820190508181036000830152613870816135a6565b9050919050565b60006020820190508181036000830152613890816135c9565b9050919050565b600060208201905081810360008301526138b0816135ec565b9050919050565b600060208201905081810360008301526138d08161360f565b9050919050565b600060208201905081810360008301526138f081613632565b9050919050565b6000602082019050818103600083015261391081613655565b9050919050565b6000602082019050818103600083015261393081613678565b9050919050565b600060208201905061394c600083018461369b565b92915050565b6000604082019050613967600083018561369b565b6139746020830184613493565b9392505050565b6000604082019050613990600083018561369b565b61399d602083018461369b565b9392505050565b600060a0820190506139b9600083018861369b565b6139c6602083018761369b565b6139d36040830186613493565b6139e06060830185613493565b6139ed6080830184613493565b9695505050505050565b6000608082019050613a0c600083018761369b565b613a19602083018661369b565b613a266040830185613493565b613a33606083018461369b565b95945050505050565b600082825260208201905092915050565b6000613a5882613ba0565b9150613a6383613ba0565b9250827fffffffffffffffffffffffffffffffffffffffffffffffffffffffffffffffff03821115613a9857613a97613bf3565b5b828201905092915050565b6000613aae82613ba0565b9150613ab983613ba0565b925082613ac957613ac8613c22565b5b828204905092915050565b6000613adf82613ba0565b9150613aea83613ba0565b9250817fffffffffffffffffffffffffffffffffffffffffffffffffffffffffffffffff0483118215151615613b2357613b22613bf3565b5b828202905092915050565b6000613b3982613ba0565b9150613b4483613ba0565b925082821015613b5757613b56613bf3565b5b828203905092915050565b6000613b6d82613b80565b9050919050565b60008115159050919050565b600073ffffffffffffffffffffffffffffffffffffffff82169050919050565b6000819050919050565b6000613bb582613ba0565b91507fffffffffffffffffffffffffffffffffffffffffffffffffffffffffffffffff821415613be857613be7613bf3565b5b600182019050919050565b7f4e487b7100000000000000000000000000000000000000000000000000000000600052601160045260246000fd5b7f4e487b7100000000000000000000000000000000000000000000000000000000600052601260045260246000fd5b7f4f6e6c792076656e646f722063616e2075706461746520707269636500000000600082015250565b7f4f776e61626c653a206e6577206f776e657220697320746865207a65726f206160008201527f6464726573730000000000000000000000000000000000000000000000000000602082015250565b7f43616e6e6f74206d616b6520707572636861736520617420696e70757420707260008201527f6963650000000000000000000000000000000000000000000000000000000000602082015250565b7f4e6f2062696420617420696e70757420696e6465780000000000000000000000600082015250565b7f42696420617420696e70757420696e64657820646f6573206e6f74206861766560008201527f20696e707574207175616e7469747920616e6420707269636500000000000000602082015250565b7f417070726f7665642073656c6c657273206f6e6c790000000000000000000000600082015250565b7f496e73756666696369656e74206c697374656420746f6b656e73000000000000600082015250565b7f496e73756666696369656e7420746f6b656e73206c6973746564000000000000600082015250565b7f417070726f76656420627579657273206f6e6c79000000000000000000000000600082015250565b7f4f776e61626c653a2063616c6c6572206973206e6f7420746865206f776e6572600082015250565b7f496e73756666696369656e7420746f6b656e73206c697374656420746f20667560008201527f6c66696c6c206269640000000000000000000000000000000000000000000000602082015250565b7f4f6e6c792076656e646f722063616e2061636365707420626964000000000000600082015250565b7f4f6e6c792076656e646f72206f72206d61726b6574706c616365206f776e657260008201527f2063616e2064656c697374000000000000000000000000000000000000000000602082015250565b7f4e6f6e2d76616c6964206c697374696e672049442070726f7669646564000000600082015250565b613f5681613b62565b8114613f6157600080fd5b50565b613f6d81613b74565b8114613f7857600080fd5b50565b613f8481613ba0565b8114613f8f57600080fd5b5056fea26469706673582212209e9d2ecf4e78df86f9622191a2e0f99275e1dabeae7df1a3991abd6606303cf764736f6c63430008040033",
  "linkReferences": {},
  "deployedLinkReferences": {}
}