{
  "_format": "hh-sol-artifact-1",
  "contractName": "ChangeblockMarketplace",
  "sourceName": "contracts/ChangeblockMarketplace.sol",
  "abi": [
    {
      "inputs": [
        {
          "internalType": "uint256",
          "name": "feeNumerator",
          "type": "uint256"
        },
        {
          "internalType": "uint256",
          "name": "feeDenominator",
          "type": "uint256"
        },
        {
          "internalType": "address",
          "name": "treasury",
          "type": "address"
        }
      ],
      "stateMutability": "nonpayable",
      "type": "constructor"
    },
    {
      "anonymous": false,
      "inputs": [
        {
          "indexed": true,
          "internalType": "uint256",
          "name": "listingId",
          "type": "uint256"
        },
        {
          "indexed": false,
          "internalType": "uint256",
          "name": "quantity",
          "type": "uint256"
        },
        {
          "indexed": false,
          "internalType": "uint256",
          "name": "payment",
          "type": "uint256"
        },
        {
          "indexed": false,
          "internalType": "address",
          "name": "bidder",
          "type": "address"
        }
      ],
      "name": "BidPlaced",
      "type": "event"
    },
    {
      "anonymous": false,
      "inputs": [
        {
          "indexed": true,
          "internalType": "uint256",
          "name": "listingId",
          "type": "uint256"
        },
        {
          "indexed": false,
          "internalType": "address",
          "name": "bidder",
          "type": "address"
        }
      ],
      "name": "BidWithdrawn",
      "type": "event"
    },
    {
      "anonymous": false,
      "inputs": [
        {
          "indexed": false,
          "internalType": "uint256",
          "name": "amount",
          "type": "uint256"
        },
        {
          "indexed": false,
          "internalType": "uint256",
          "name": "price",
          "type": "uint256"
        },
        {
          "indexed": true,
          "internalType": "address",
          "name": "vendor",
          "type": "address"
        },
        {
          "indexed": true,
          "internalType": "address",
          "name": "product",
          "type": "address"
        },
        {
          "indexed": false,
          "internalType": "address",
          "name": "currency",
          "type": "address"
        },
        {
          "indexed": false,
          "internalType": "uint256",
          "name": "listingId",
          "type": "uint256"
        }
      ],
      "name": "ERC20Registration",
      "type": "event"
    },
    {
      "anonymous": false,
      "inputs": [
        {
          "indexed": false,
          "internalType": "uint256",
          "name": "id",
          "type": "uint256"
        },
        {
          "indexed": false,
          "internalType": "uint256",
          "name": "price",
          "type": "uint256"
        },
        {
          "indexed": true,
          "internalType": "address",
          "name": "vendor",
          "type": "address"
        },
        {
          "indexed": true,
          "internalType": "address",
          "name": "product",
          "type": "address"
        },
        {
          "indexed": false,
          "internalType": "address",
          "name": "currency",
          "type": "address"
        },
        {
          "indexed": false,
          "internalType": "uint256",
          "name": "listingId",
          "type": "uint256"
        }
      ],
      "name": "ERC721Registration",
      "type": "event"
    },
    {
      "anonymous": false,
      "inputs": [
        {
          "indexed": true,
          "internalType": "address",
          "name": "previousOwner",
          "type": "address"
        },
        {
          "indexed": true,
          "internalType": "address",
          "name": "newOwner",
          "type": "address"
        }
      ],
      "name": "OwnershipTransferred",
      "type": "event"
    },
    {
      "anonymous": false,
      "inputs": [
        {
          "indexed": true,
          "internalType": "uint256",
          "name": "listingId",
          "type": "uint256"
        }
      ],
      "name": "Removal",
      "type": "event"
    },
    {
      "anonymous": false,
      "inputs": [
        {
          "indexed": true,
          "internalType": "uint256",
          "name": "listingId",
          "type": "uint256"
        }
      ],
      "name": "Sale",
      "type": "event"
    },
    {
      "inputs": [
        {
          "internalType": "uint256",
          "name": "",
          "type": "uint256"
        }
      ],
      "name": "ERC20listings",
      "outputs": [
        {
          "internalType": "uint256",
          "name": "amount",
          "type": "uint256"
        },
        {
          "internalType": "uint256",
          "name": "price",
          "type": "uint256"
        },
        {
          "internalType": "address",
          "name": "vendor",
          "type": "address"
        },
        {
          "internalType": "address",
          "name": "product",
          "type": "address"
        },
        {
          "internalType": "address",
          "name": "currency",
          "type": "address"
        }
      ],
      "stateMutability": "view",
      "type": "function"
    },
    {
      "inputs": [
        {
          "internalType": "uint256",
          "name": "",
          "type": "uint256"
        }
      ],
      "name": "ERC721listings",
      "outputs": [
        {
          "internalType": "uint256",
          "name": "id",
          "type": "uint256"
        },
        {
          "internalType": "uint256",
          "name": "price",
          "type": "uint256"
        },
        {
          "internalType": "address",
          "name": "vendor",
          "type": "address"
        },
        {
          "internalType": "address",
          "name": "product",
          "type": "address"
        },
        {
          "internalType": "address",
          "name": "currency",
          "type": "address"
        }
      ],
      "stateMutability": "view",
      "type": "function"
    },
    {
      "inputs": [],
      "name": "FEE_DENOMINATOR",
      "outputs": [
        {
          "internalType": "uint256",
          "name": "",
          "type": "uint256"
        }
      ],
      "stateMutability": "view",
      "type": "function"
    },
    {
      "inputs": [],
      "name": "FEE_NUMERATOR",
      "outputs": [
        {
          "internalType": "uint256",
          "name": "",
          "type": "uint256"
        }
      ],
      "stateMutability": "view",
      "type": "function"
    },
    {
      "inputs": [
        {
          "internalType": "uint256",
          "name": "listingId",
          "type": "uint256"
        },
        {
          "internalType": "uint256",
          "name": "bidId",
          "type": "uint256"
        }
      ],
      "name": "acceptBid",
      "outputs": [],
      "stateMutability": "nonpayable",
      "type": "function"
    },
    {
      "inputs": [
        {
          "internalType": "uint256",
          "name": "listingId",
          "type": "uint256"
        },
        {
          "internalType": "uint256",
          "name": "quantity",
          "type": "uint256"
        },
        {
          "internalType": "uint256",
          "name": "payment",
          "type": "uint256"
        }
      ],
      "name": "bid",
      "outputs": [],
      "stateMutability": "nonpayable",
      "type": "function"
    },
    {
      "inputs": [
        {
          "internalType": "uint256",
          "name": "listingId",
          "type": "uint256"
        },
        {
          "internalType": "uint256",
          "name": "amount",
          "type": "uint256"
        }
      ],
      "name": "buyERC20",
      "outputs": [],
      "stateMutability": "nonpayable",
      "type": "function"
    },
    {
      "inputs": [
        {
          "internalType": "uint256",
          "name": "listingId",
          "type": "uint256"
        }
      ],
      "name": "buyERC721",
      "outputs": [],
      "stateMutability": "nonpayable",
      "type": "function"
    },
    {
      "inputs": [
        {
          "internalType": "address",
          "name": "",
          "type": "address"
        }
      ],
      "name": "buyerApprovals",
      "outputs": [
        {
          "internalType": "bool",
          "name": "",
          "type": "bool"
        }
      ],
      "stateMutability": "view",
      "type": "function"
    },
    {
      "inputs": [
        {
          "internalType": "uint256",
          "name": "amount",
          "type": "uint256"
        },
        {
          "internalType": "uint256",
          "name": "listingId",
          "type": "uint256"
        }
      ],
      "name": "delistERC20",
      "outputs": [],
      "stateMutability": "nonpayable",
      "type": "function"
    },
    {
      "inputs": [
        {
          "internalType": "uint256",
          "name": "listingId",
          "type": "uint256"
        }
      ],
      "name": "delistERC721",
      "outputs": [],
      "stateMutability": "nonpayable",
      "type": "function"
    },
    {
      "inputs": [
        {
          "internalType": "uint256",
          "name": "amount",
          "type": "uint256"
        },
        {
          "internalType": "uint256",
          "name": "price",
          "type": "uint256"
        },
        {
          "internalType": "address",
          "name": "product",
          "type": "address"
        },
        {
          "internalType": "address",
          "name": "currency",
          "type": "address"
        }
      ],
      "name": "listERC20",
      "outputs": [
        {
          "internalType": "uint256",
          "name": "",
          "type": "uint256"
        }
      ],
      "stateMutability": "nonpayable",
      "type": "function"
    },
    {
      "inputs": [
        {
          "internalType": "uint256",
          "name": "id",
          "type": "uint256"
        },
        {
          "internalType": "uint256",
          "name": "price",
          "type": "uint256"
        },
        {
          "internalType": "address",
          "name": "product",
          "type": "address"
        },
        {
          "internalType": "address",
          "name": "currency",
          "type": "address"
        }
      ],
      "name": "listERC721",
      "outputs": [
        {
          "internalType": "uint256",
          "name": "",
          "type": "uint256"
        }
      ],
      "stateMutability": "nonpayable",
      "type": "function"
    },
    {
      "inputs": [],
      "name": "owner",
      "outputs": [
        {
          "internalType": "address",
          "name": "",
          "type": "address"
        }
      ],
      "stateMutability": "view",
      "type": "function"
    },
    {
      "inputs": [],
      "name": "renounceOwnership",
      "outputs": [],
      "stateMutability": "nonpayable",
      "type": "function"
    },
    {
      "inputs": [
        {
          "internalType": "address",
          "name": "",
          "type": "address"
        }
      ],
      "name": "sellerApprovals",
      "outputs": [
        {
          "internalType": "bool",
          "name": "",
          "type": "bool"
        }
      ],
      "stateMutability": "view",
      "type": "function"
    },
    {
      "inputs": [
        {
          "internalType": "address[]",
          "name": "targets",
          "type": "address[]"
        },
        {
          "internalType": "bool[]",
          "name": "approvals",
          "type": "bool[]"
        }
      ],
      "name": "setBuyers",
      "outputs": [],
      "stateMutability": "nonpayable",
      "type": "function"
    },
    {
      "inputs": [],
      "name": "setFeeDenominator",
      "outputs": [],
      "stateMutability": "nonpayable",
      "type": "function"
    },
    {
      "inputs": [],
      "name": "setFeeNumerator",
      "outputs": [],
      "stateMutability": "nonpayable",
      "type": "function"
    },
    {
      "inputs": [
        {
          "internalType": "address[]",
          "name": "targets",
          "type": "address[]"
        },
        {
          "internalType": "bool[]",
          "name": "approvals",
          "type": "bool[]"
        }
      ],
      "name": "setSellers",
      "outputs": [],
      "stateMutability": "nonpayable",
      "type": "function"
    },
    {
      "inputs": [
        {
          "internalType": "address",
          "name": "newOwner",
          "type": "address"
        }
      ],
      "name": "transferOwnership",
      "outputs": [],
      "stateMutability": "nonpayable",
      "type": "function"
    },
    {
      "inputs": [],
      "name": "updatePrice",
      "outputs": [],
      "stateMutability": "nonpayable",
      "type": "function"
    },
    {
      "inputs": [
        {
          "internalType": "uint256",
          "name": "listingId",
          "type": "uint256"
        },
        {
          "internalType": "uint256",
          "name": "bidId",
          "type": "uint256"
        }
      ],
      "name": "withdrawBid",
      "outputs": [],
      "stateMutability": "nonpayable",
      "type": "function"
    }
  ],
  "bytecode": "0x60806040523480156200001157600080fd5b5060405162003b0138038062003b018339818101604052810190620000379190620001a9565b620000576200004b620000af60201b60201c565b620000b760201b60201c565b826005819055508160068190555080600760006101000a81548173ffffffffffffffffffffffffffffffffffffffff021916908373ffffffffffffffffffffffffffffffffffffffff16021790555050505062000271565b600033905090565b60008060009054906101000a900473ffffffffffffffffffffffffffffffffffffffff169050816000806101000a81548173ffffffffffffffffffffffffffffffffffffffff021916908373ffffffffffffffffffffffffffffffffffffffff1602179055508173ffffffffffffffffffffffffffffffffffffffff168173ffffffffffffffffffffffffffffffffffffffff167f8be0079c531659141344cd1fd0a4f28419497f9722a3daafe3b4186f6b6457e060405160405180910390a35050565b6000815190506200018c816200023d565b92915050565b600081519050620001a38162000257565b92915050565b600080600060608486031215620001bf57600080fd5b6000620001cf8682870162000192565b9350506020620001e28682870162000192565b9250506040620001f5868287016200017b565b9150509250925092565b60006200020c8262000213565b9050919050565b600073ffffffffffffffffffffffffffffffffffffffff82169050919050565b6000819050919050565b6200024881620001ff565b81146200025457600080fd5b50565b620002628162000233565b81146200026e57600080fd5b50565b61388080620002816000396000f3fe608060405234801561001057600080fd5b506004361061014d5760003560e01c8063944cce5b116100c3578063ca9950411161007c578063ca99504114610350578063d73792a914610384578063d73d55a3146103a2578063f2fde38b146103be578063fbcc0351146103da578063fec1d6c61461040a5761014d565b8063944cce5b1461029457806397895f3a146102b0578063a5735662146102e0578063aebfa635146102fc578063c1ab2a4f14610318578063c2a79257146103345761014d565b806341cd47bf1161011557806341cd47bf1461020a57806345d84c941461022857806366c7f8e514610232578063673a7e2814610262578063715018a61461026c5780638da5cb5b146102765761014d565b806302e9d5e41461015257806304cd95021461016e578063151a4791146101a25780632ac9bf09146101d25780632b2d0460146101ee575b600080fd5b61016c60048036038101906101679190612e16565b610414565b005b61018860048036038101906101839190612dc4565b610782565b604051610199959493929190613323565b60405180910390f35b6101bc60048036038101906101b79190612e52565b610818565b6040516101c991906132d1565b60405180910390f35b6101ec60048036038101906101e79190612eb5565b610b2a565b005b61020860048036038101906102039190612cfd565b610ee1565b005b610212611076565b60405161021f91906132d1565b60405180910390f35b61023061107c565b005b61024c60048036038101906102479190612e52565b6110fa565b60405161025991906132d1565b60405180910390f35b61026a61144e565b005b610274611450565b005b61027e6114d8565b60405161028b91906130b2565b60405180910390f35b6102ae60048036038101906102a99190612dc4565b611501565b005b6102ca60048036038101906102c59190612cd4565b6119e7565b6040516102d79190613156565b60405180910390f35b6102fa60048036038101906102f59190612e16565b611a07565b005b61031660048036038101906103119190612cfd565b611c9b565b005b610332600480360381019061032d9190612dc4565b611e30565b005b61034e60048036038101906103499190612e16565b6120c3565b005b61036a60048036038101906103659190612dc4565b6125b6565b60405161037b959493929190613323565b60405180910390f35b61038c61264c565b60405161039991906132d1565b60405180910390f35b6103bc60048036038101906103b79190612e16565b612652565b005b6103d860048036038101906103d39190612cd4565b612975565b005b6103f460048036038101906103ef9190612cd4565b612a6d565b6040516104019190613156565b60405180910390f35b610412612a8d565b005b60006003600084815260200190815260200160002060020160009054906101000a900473ffffffffffffffffffffffffffffffffffffffff1690503373ffffffffffffffffffffffffffffffffffffffff168173ffffffffffffffffffffffffffffffffffffffff16146104bd576040517f08c379a00000000000000000000000000000000000000000000000000000000081526004016104b490613291565b60405180910390fd5b60006008600085815260200190815260200160002060008481526020019081526020016000206000015490508060036000868152602001908152602001600020600001541015610542576040517f08c379a000000000000000000000000000000000000000000000000000000000815260040161053990613271565b60405180910390fd5b6003600085815260200190815260200160002060040160009054906101000a900473ffffffffffffffffffffffffffffffffffffffff1673ffffffffffffffffffffffffffffffffffffffff1663a9059cbb83600860008881526020019081526020016000206000878152602001908152602001600020600101546040518363ffffffff1660e01b81526004016105da92919061312d565b602060405180830381600087803b1580156105f457600080fd5b505af1158015610608573d6000803e3d6000fd5b505050506040513d601f19601f8201168201806040525081019061062c9190612d9b565b506003600085815260200190815260200160002060030160009054906101000a900473ffffffffffffffffffffffffffffffffffffffff1673ffffffffffffffffffffffffffffffffffffffff1663a9059cbb33836040518363ffffffff1660e01b815260040161069e92919061312d565b602060405180830381600087803b1580156106b857600080fd5b505af11580156106cc573d6000803e3d6000fd5b505050506040513d601f19601f820116820180604052508101906106f09190612d9b565b508060036000868152602001908152602001600020600001600082825461071791906134ad565b9250508190555060086000858152602001908152602001600020600084815260200190815260200160002060008082016000905560018201600090556002820160006101000a81549073ffffffffffffffffffffffffffffffffffffffff0219169055505050505050565b60036020528060005260406000206000915090508060000154908060010154908060020160009054906101000a900473ffffffffffffffffffffffffffffffffffffffff16908060030160009054906101000a900473ffffffffffffffffffffffffffffffffffffffff16908060040160009054906101000a900473ffffffffffffffffffffffffffffffffffffffff16905085565b6000600160003373ffffffffffffffffffffffffffffffffffffffff1673ffffffffffffffffffffffffffffffffffffffff16815260200190815260200160002060009054906101000a900460ff166108a6576040517f08c379a000000000000000000000000000000000000000000000000000000000815260040161089d90613191565b60405180910390fd5b8273ffffffffffffffffffffffffffffffffffffffff166323b872dd3330886040518463ffffffff1660e01b81526004016108e3939291906130f6565b600060405180830381600087803b1580156108fd57600080fd5b505af1158015610911573d6000803e3d6000fd5b5050505060008585338686604051602001610930959493929190613323565b6040516020818303038152906040528051906020012060001c90506040518060a001604052808781526020018681526020013373ffffffffffffffffffffffffffffffffffffffff1681526020018573ffffffffffffffffffffffffffffffffffffffff1681526020018473ffffffffffffffffffffffffffffffffffffffff1681525060046000838152602001908152602001600020600082015181600001556020820151816001015560408201518160020160006101000a81548173ffffffffffffffffffffffffffffffffffffffff021916908373ffffffffffffffffffffffffffffffffffffffff16021790555060608201518160030160006101000a81548173ffffffffffffffffffffffffffffffffffffffff021916908373ffffffffffffffffffffffffffffffffffffffff16021790555060808201518160040160006101000a81548173ffffffffffffffffffffffffffffffffffffffff021916908373ffffffffffffffffffffffffffffffffffffffff1602179055509050508373ffffffffffffffffffffffffffffffffffffffff163373ffffffffffffffffffffffffffffffffffffffff167f96121474b4be0e5edfa0cf9721fe3e06611dc0048f4ec160f3f4aa1c5ca3ec4188888786604051610b169493929190613376565b60405180910390a380915050949350505050565b600260003373ffffffffffffffffffffffffffffffffffffffff1673ffffffffffffffffffffffffffffffffffffffff16815260200190815260200160002060009054906101000a900460ff16610bb6576040517f08c379a0000000000000000000000000000000000000000000000000000000008152600401610bad90613211565b60405180910390fd5b6000600360008581526020019081526020016000206040518060a001604052908160008201548152602001600182015481526020016002820160009054906101000a900473ffffffffffffffffffffffffffffffffffffffff1673ffffffffffffffffffffffffffffffffffffffff1673ffffffffffffffffffffffffffffffffffffffff1681526020016003820160009054906101000a900473ffffffffffffffffffffffffffffffffffffffff1673ffffffffffffffffffffffffffffffffffffffff1673ffffffffffffffffffffffffffffffffffffffff1681526020016004820160009054906101000a900473ffffffffffffffffffffffffffffffffffffffff1673ffffffffffffffffffffffffffffffffffffffff1673ffffffffffffffffffffffffffffffffffffffff16815250509050806080015173ffffffffffffffffffffffffffffffffffffffff166323b872dd3330856040518463ffffffff1660e01b8152600401610d2f939291906130f6565b602060405180830381600087803b158015610d4957600080fd5b505af1158015610d5d573d6000803e3d6000fd5b505050506040513d601f19601f82011682018060405250810190610d819190612d9b565b610d8a57600080fd5b6000838333604051602001610da1939291906132ec565b6040516020818303038152906040528051906020012060001c90503360086000878152602001908152602001600020600083815260200190815260200160002060020160006101000a81548173ffffffffffffffffffffffffffffffffffffffff021916908373ffffffffffffffffffffffffffffffffffffffff160217905550836008600087815260200190815260200160002060008381526020019081526020016000206000016000828254610e5991906133cc565b92505081905550826008600087815260200190815260200160002060008381526020019081526020016000206001016000828254610e9791906133cc565b92505081905550847f379fe8bc550443c6867a021184bb0e5a961f3fcd271160873847410c7bdd0e28858533604051610ed2939291906132ec565b60405180910390a25050505050565b610ee9612b0b565b73ffffffffffffffffffffffffffffffffffffffff16610f076114d8565b73ffffffffffffffffffffffffffffffffffffffff1614610f5d576040517f08c379a0000000000000000000000000000000000000000000000000000000008152600401610f5490613231565b60405180910390fd5b60005b8484905081101561106f57828282818110610fa4577f4e487b7100000000000000000000000000000000000000000000000000000000600052603260045260246000fd5b9050602002016020810190610fb99190612d72565b60016000878785818110610ff6577f4e487b7100000000000000000000000000000000000000000000000000000000600052603260045260246000fd5b905060200201602081019061100b9190612cd4565b73ffffffffffffffffffffffffffffffffffffffff1673ffffffffffffffffffffffffffffffffffffffff16815260200190815260200160002060006101000a81548160ff021916908315150217905550808061106790613529565b915050610f60565b5050505050565b60055481565b611084612b0b565b73ffffffffffffffffffffffffffffffffffffffff166110a26114d8565b73ffffffffffffffffffffffffffffffffffffffff16146110f8576040517f08c379a00000000000000000000000000000000000000000000000000000000081526004016110ef90613231565b60405180910390fd5b565b6000600160003373ffffffffffffffffffffffffffffffffffffffff1673ffffffffffffffffffffffffffffffffffffffff16815260200190815260200160002060009054906101000a900460ff16611188576040517f08c379a000000000000000000000000000000000000000000000000000000000815260040161117f90613191565b60405180910390fd5b8273ffffffffffffffffffffffffffffffffffffffff166323b872dd3330886040518463ffffffff1660e01b81526004016111c5939291906130f6565b602060405180830381600087803b1580156111df57600080fd5b505af11580156111f3573d6000803e3d6000fd5b505050506040513d601f19601f820116820180604052508101906112179190612d9b565b5060008585338686604051602001611233959493929190613323565b6040516020818303038152906040528051906020012060001c90506040518060a0016040528060036000848152602001908152602001600020600001548861127b91906133cc565b81526020018681526020013373ffffffffffffffffffffffffffffffffffffffff1681526020018573ffffffffffffffffffffffffffffffffffffffff1681526020018473ffffffffffffffffffffffffffffffffffffffff1681525060036000838152602001908152602001600020600082015181600001556020820151816001015560408201518160020160006101000a81548173ffffffffffffffffffffffffffffffffffffffff021916908373ffffffffffffffffffffffffffffffffffffffff16021790555060608201518160030160006101000a81548173ffffffffffffffffffffffffffffffffffffffff021916908373ffffffffffffffffffffffffffffffffffffffff16021790555060808201518160040160006101000a81548173ffffffffffffffffffffffffffffffffffffffff021916908373ffffffffffffffffffffffffffffffffffffffff1602179055509050508373ffffffffffffffffffffffffffffffffffffffff163373ffffffffffffffffffffffffffffffffffffffff167f4dac2e5e670f156eb092f4d2b4bd3db441153ea88b602e360195f855f144c6d78888878660405161143a9493929190613376565b60405180910390a380915050949350505050565b565b611458612b0b565b73ffffffffffffffffffffffffffffffffffffffff166114766114d8565b73ffffffffffffffffffffffffffffffffffffffff16146114cc576040517f08c379a00000000000000000000000000000000000000000000000000000000081526004016114c390613231565b60405180910390fd5b6114d66000612b13565b565b60008060009054906101000a900473ffffffffffffffffffffffffffffffffffffffff16905090565b600260003373ffffffffffffffffffffffffffffffffffffffff1673ffffffffffffffffffffffffffffffffffffffff16815260200190815260200160002060009054906101000a900460ff1661158d576040517f08c379a000000000000000000000000000000000000000000000000000000000815260040161158490613211565b60405180910390fd5b6000600460008381526020019081526020016000206040518060a001604052908160008201548152602001600182015481526020016002820160009054906101000a900473ffffffffffffffffffffffffffffffffffffffff1673ffffffffffffffffffffffffffffffffffffffff1673ffffffffffffffffffffffffffffffffffffffff1681526020016003820160009054906101000a900473ffffffffffffffffffffffffffffffffffffffff1673ffffffffffffffffffffffffffffffffffffffff1673ffffffffffffffffffffffffffffffffffffffff1681526020016004820160009054906101000a900473ffffffffffffffffffffffffffffffffffffffff1673ffffffffffffffffffffffffffffffffffffffff1673ffffffffffffffffffffffffffffffffffffffff16815250509050600073ffffffffffffffffffffffffffffffffffffffff16816080015173ffffffffffffffffffffffffffffffffffffffff161415611739576040517f08c379a000000000000000000000000000000000000000000000000000000000815260040161173090613251565b60405180910390fd5b600060065460055483602001516117509190613453565b61175a9190613422565b9050816080015173ffffffffffffffffffffffffffffffffffffffff1663dd62ed3e33306040518363ffffffff1660e01b815260040161179b9291906130cd565b60206040518083038186803b1580156117b357600080fd5b505afa1580156117c7573d6000803e3d6000fd5b505050506040513d601f19601f820116820180604052508101906117eb9190612ded565b50816080015173ffffffffffffffffffffffffffffffffffffffff166323b872dd33846040015185602001516040518463ffffffff1660e01b8152600401611835939291906130f6565b602060405180830381600087803b15801561184f57600080fd5b505af1158015611863573d6000803e3d6000fd5b505050506040513d601f19601f820116820180604052508101906118879190612d9b565b50816080015173ffffffffffffffffffffffffffffffffffffffff166323b872dd33600760009054906101000a900473ffffffffffffffffffffffffffffffffffffffff16846040518463ffffffff1660e01b81526004016118eb939291906130f6565b602060405180830381600087803b15801561190557600080fd5b505af1158015611919573d6000803e3d6000fd5b505050506040513d601f19601f8201168201806040525081019061193d9190612d9b565b50816060015173ffffffffffffffffffffffffffffffffffffffff166323b872dd303385600001516040518463ffffffff1660e01b8152600401611983939291906130f6565b600060405180830381600087803b15801561199d57600080fd5b505af11580156119b1573d6000803e3d6000fd5b50505050827fc0a8d68d4d1f533ef6cdb7a49068cbe04356682803cb7983c4ba33ce99100efd60405160405180910390a2505050565b60026020528060005260406000206000915054906101000a900460ff1681565b600260003373ffffffffffffffffffffffffffffffffffffffff1673ffffffffffffffffffffffffffffffffffffffff16815260200190815260200160002060009054906101000a900460ff16611a93576040517f08c379a0000000000000000000000000000000000000000000000000000000008152600401611a8a90613211565b60405180910390fd5b600060086000848152602001908152602001600020600083815260200190815260200160002060020160009054906101000a900473ffffffffffffffffffffffffffffffffffffffff1690508073ffffffffffffffffffffffffffffffffffffffff163373ffffffffffffffffffffffffffffffffffffffff1614611b4d576040517f08c379a0000000000000000000000000000000000000000000000000000000008152600401611b44906131d1565b60405180910390fd5b6003600084815260200190815260200160002060040160009054906101000a900473ffffffffffffffffffffffffffffffffffffffff1673ffffffffffffffffffffffffffffffffffffffff1663a9059cbb82600860008781526020019081526020016000206000868152602001908152602001600020600101546040518363ffffffff1660e01b8152600401611be592919061312d565b602060405180830381600087803b158015611bff57600080fd5b505af1158015611c13573d6000803e3d6000fd5b505050506040513d601f19601f82011682018060405250810190611c379190612d9b565b5060086000848152602001908152602001600020600083815260200190815260200160002060008082016000905560018201600090556002820160006101000a81549073ffffffffffffffffffffffffffffffffffffffff02191690555050505050565b611ca3612b0b565b73ffffffffffffffffffffffffffffffffffffffff16611cc16114d8565b73ffffffffffffffffffffffffffffffffffffffff1614611d17576040517f08c379a0000000000000000000000000000000000000000000000000000000008152600401611d0e90613231565b60405180910390fd5b60005b84849050811015611e2957828282818110611d5e577f4e487b7100000000000000000000000000000000000000000000000000000000600052603260045260246000fd5b9050602002016020810190611d739190612d72565b60026000878785818110611db0577f4e487b7100000000000000000000000000000000000000000000000000000000600052603260045260246000fd5b9050602002016020810190611dc59190612cd4565b73ffffffffffffffffffffffffffffffffffffffff1673ffffffffffffffffffffffffffffffffffffffff16815260200190815260200160002060006101000a81548160ff0219169083151502179055508080611e2190613529565b915050611d1a565b5050505050565b6000600460008381526020019081526020016000206040518060a001604052908160008201548152602001600182015481526020016002820160009054906101000a900473ffffffffffffffffffffffffffffffffffffffff1673ffffffffffffffffffffffffffffffffffffffff1673ffffffffffffffffffffffffffffffffffffffff1681526020016003820160009054906101000a900473ffffffffffffffffffffffffffffffffffffffff1673ffffffffffffffffffffffffffffffffffffffff1673ffffffffffffffffffffffffffffffffffffffff1681526020016004820160009054906101000a900473ffffffffffffffffffffffffffffffffffffffff1673ffffffffffffffffffffffffffffffffffffffff1673ffffffffffffffffffffffffffffffffffffffff168152505090503373ffffffffffffffffffffffffffffffffffffffff16816040015173ffffffffffffffffffffffffffffffffffffffff161480611fd857503373ffffffffffffffffffffffffffffffffffffffff16611fc06114d8565b73ffffffffffffffffffffffffffffffffffffffff16145b612017576040517f08c379a000000000000000000000000000000000000000000000000000000000815260040161200e906132b1565b60405180910390fd5b806060015173ffffffffffffffffffffffffffffffffffffffff166323b872dd30836040015184600001516040518463ffffffff1660e01b8152600401612060939291906130f6565b600060405180830381600087803b15801561207a57600080fd5b505af115801561208e573d6000803e3d6000fd5b50505050817f5db62f6a54d48d9bc8ab38f41eef80d3d41af8ab21d4c850a3276eb553d8efb160405160405180910390a25050565b600260003373ffffffffffffffffffffffffffffffffffffffff1673ffffffffffffffffffffffffffffffffffffffff16815260200190815260200160002060009054906101000a900460ff1661214f576040517f08c379a000000000000000000000000000000000000000000000000000000000815260040161214690613211565b60405180910390fd5b6000600360008481526020019081526020016000206040518060a001604052908160008201548152602001600182015481526020016002820160009054906101000a900473ffffffffffffffffffffffffffffffffffffffff1673ffffffffffffffffffffffffffffffffffffffff1673ffffffffffffffffffffffffffffffffffffffff1681526020016003820160009054906101000a900473ffffffffffffffffffffffffffffffffffffffff1673ffffffffffffffffffffffffffffffffffffffff1673ffffffffffffffffffffffffffffffffffffffff1681526020016004820160009054906101000a900473ffffffffffffffffffffffffffffffffffffffff1673ffffffffffffffffffffffffffffffffffffffff1673ffffffffffffffffffffffffffffffffffffffff16815250509050600073ffffffffffffffffffffffffffffffffffffffff16816080015173ffffffffffffffffffffffffffffffffffffffff1614156122fb576040517f08c379a00000000000000000000000000000000000000000000000000000000081526004016122f290613251565b60405180910390fd5b600081602001518361230d9190613453565b90506000600654600554836123229190613453565b61232c9190613422565b9050826080015173ffffffffffffffffffffffffffffffffffffffff166323b872dd338560400151856040518463ffffffff1660e01b8152600401612373939291906130f6565b602060405180830381600087803b15801561238d57600080fd5b505af11580156123a1573d6000803e3d6000fd5b505050506040513d601f19601f820116820180604052508101906123c59190612d9b565b50826080015173ffffffffffffffffffffffffffffffffffffffff166323b872dd33600760009054906101000a900473ffffffffffffffffffffffffffffffffffffffff16846040518463ffffffff1660e01b8152600401612429939291906130f6565b602060405180830381600087803b15801561244357600080fd5b505af1158015612457573d6000803e3d6000fd5b505050506040513d601f19601f8201168201806040525081019061247b9190612d9b565b5083836000015110156124c3576040517f08c379a00000000000000000000000000000000000000000000000000000000081526004016124ba906131b1565b60405180910390fd5b826060015173ffffffffffffffffffffffffffffffffffffffff1663a9059cbb33866040518363ffffffff1660e01b815260040161250292919061312d565b602060405180830381600087803b15801561251c57600080fd5b505af1158015612530573d6000803e3d6000fd5b505050506040513d601f19601f820116820180604052508101906125549190612d9b565b508360036000878152602001908152602001600020600001600082825461257b91906134ad565b92505081905550847fc0a8d68d4d1f533ef6cdb7a49068cbe04356682803cb7983c4ba33ce99100efd60405160405180910390a25050505050565b60046020528060005260406000206000915090508060000154908060010154908060020160009054906101000a900473ffffffffffffffffffffffffffffffffffffffff16908060030160009054906101000a900473ffffffffffffffffffffffffffffffffffffffff16908060040160009054906101000a900473ffffffffffffffffffffffffffffffffffffffff16905085565b60065481565b6000600360008381526020019081526020016000206040518060a001604052908160008201548152602001600182015481526020016002820160009054906101000a900473ffffffffffffffffffffffffffffffffffffffff1673ffffffffffffffffffffffffffffffffffffffff1673ffffffffffffffffffffffffffffffffffffffff1681526020016003820160009054906101000a900473ffffffffffffffffffffffffffffffffffffffff1673ffffffffffffffffffffffffffffffffffffffff1673ffffffffffffffffffffffffffffffffffffffff1681526020016004820160009054906101000a900473ffffffffffffffffffffffffffffffffffffffff1673ffffffffffffffffffffffffffffffffffffffff1673ffffffffffffffffffffffffffffffffffffffff168152505090503373ffffffffffffffffffffffffffffffffffffffff16816040015173ffffffffffffffffffffffffffffffffffffffff1614806127fa57503373ffffffffffffffffffffffffffffffffffffffff166127e26114d8565b73ffffffffffffffffffffffffffffffffffffffff16145b612839576040517f08c379a0000000000000000000000000000000000000000000000000000000008152600401612830906132b1565b60405180910390fd5b8281600001511015612880576040517f08c379a0000000000000000000000000000000000000000000000000000000008152600401612877906131f1565b60405180910390fd5b806060015173ffffffffffffffffffffffffffffffffffffffff1663a9059cbb8260400151856040518363ffffffff1660e01b81526004016128c392919061312d565b602060405180830381600087803b1580156128dd57600080fd5b505af11580156128f1573d6000803e3d6000fd5b505050506040513d601f19601f820116820180604052508101906129159190612d9b565b508260036000848152602001908152602001600020600001600082825461293c91906134ad565b92505081905550817f5db62f6a54d48d9bc8ab38f41eef80d3d41af8ab21d4c850a3276eb553d8efb160405160405180910390a2505050565b61297d612b0b565b73ffffffffffffffffffffffffffffffffffffffff1661299b6114d8565b73ffffffffffffffffffffffffffffffffffffffff16146129f1576040517f08c379a00000000000000000000000000000000000000000000000000000000081526004016129e890613231565b60405180910390fd5b600073ffffffffffffffffffffffffffffffffffffffff168173ffffffffffffffffffffffffffffffffffffffff161415612a61576040517f08c379a0000000000000000000000000000000000000000000000000000000008152600401612a5890613171565b60405180910390fd5b612a6a81612b13565b50565b60016020528060005260406000206000915054906101000a900460ff1681565b612a95612b0b565b73ffffffffffffffffffffffffffffffffffffffff16612ab36114d8565b73ffffffffffffffffffffffffffffffffffffffff1614612b09576040517f08c379a0000000000000000000000000000000000000000000000000000000008152600401612b0090613231565b60405180910390fd5b565b600033905090565b60008060009054906101000a900473ffffffffffffffffffffffffffffffffffffffff169050816000806101000a81548173ffffffffffffffffffffffffffffffffffffffff021916908373ffffffffffffffffffffffffffffffffffffffff1602179055508173ffffffffffffffffffffffffffffffffffffffff168173ffffffffffffffffffffffffffffffffffffffff167f8be0079c531659141344cd1fd0a4f28419497f9722a3daafe3b4186f6b6457e060405160405180910390a35050565b600081359050612be681613805565b92915050565b60008083601f840112612bfe57600080fd5b8235905067ffffffffffffffff811115612c1757600080fd5b602083019150836020820283011115612c2f57600080fd5b9250929050565b60008083601f840112612c4857600080fd5b8235905067ffffffffffffffff811115612c6157600080fd5b602083019150836020820283011115612c7957600080fd5b9250929050565b600081359050612c8f8161381c565b92915050565b600081519050612ca48161381c565b92915050565b600081359050612cb981613833565b92915050565b600081519050612cce81613833565b92915050565b600060208284031215612ce657600080fd5b6000612cf484828501612bd7565b91505092915050565b60008060008060408587031215612d1357600080fd5b600085013567ffffffffffffffff811115612d2d57600080fd5b612d3987828801612bec565b9450945050602085013567ffffffffffffffff811115612d5857600080fd5b612d6487828801612c36565b925092505092959194509250565b600060208284031215612d8457600080fd5b6000612d9284828501612c80565b91505092915050565b600060208284031215612dad57600080fd5b6000612dbb84828501612c95565b91505092915050565b600060208284031215612dd657600080fd5b6000612de484828501612caa565b91505092915050565b600060208284031215612dff57600080fd5b6000612e0d84828501612cbf565b91505092915050565b60008060408385031215612e2957600080fd5b6000612e3785828601612caa565b9250506020612e4885828601612caa565b9150509250929050565b60008060008060808587031215612e6857600080fd5b6000612e7687828801612caa565b9450506020612e8787828801612caa565b9350506040612e9887828801612bd7565b9250506060612ea987828801612bd7565b91505092959194509250565b600080600060608486031215612eca57600080fd5b6000612ed886828701612caa565b9350506020612ee986828701612caa565b9250506040612efa86828701612caa565b9150509250925092565b612f0d816134e1565b82525050565b612f1c816134f3565b82525050565b6000612f2f6026836133bb565b9150612f3a826135d0565b604082019050919050565b6000612f526015836133bb565b9150612f5d8261361f565b602082019050919050565b6000612f75601a836133bb565b9150612f8082613648565b602082019050919050565b6000612f98601c836133bb565b9150612fa382613671565b602082019050919050565b6000612fbb601a836133bb565b9150612fc68261369a565b602082019050919050565b6000612fde6014836133bb565b9150612fe9826136c3565b602082019050919050565b60006130016020836133bb565b915061300c826136ec565b602082019050919050565b60006130246013836133bb565b915061302f82613715565b602082019050919050565b60006130476029836133bb565b91506130528261373e565b604082019050919050565b600061306a601c836133bb565b91506130758261378d565b602082019050919050565b600061308d602b836133bb565b9150613098826137b6565b604082019050919050565b6130ac8161351f565b82525050565b60006020820190506130c76000830184612f04565b92915050565b60006040820190506130e26000830185612f04565b6130ef6020830184612f04565b9392505050565b600060608201905061310b6000830186612f04565b6131186020830185612f04565b61312560408301846130a3565b949350505050565b60006040820190506131426000830185612f04565b61314f60208301846130a3565b9392505050565b600060208201905061316b6000830184612f13565b92915050565b6000602082019050818103600083015261318a81612f22565b9050919050565b600060208201905081810360008301526131aa81612f45565b9050919050565b600060208201905081810360008301526131ca81612f68565b9050919050565b600060208201905081810360008301526131ea81612f8b565b9050919050565b6000602082019050818103600083015261320a81612fae565b9050919050565b6000602082019050818103600083015261322a81612fd1565b9050919050565b6000602082019050818103600083015261324a81612ff4565b9050919050565b6000602082019050818103600083015261326a81613017565b9050919050565b6000602082019050818103600083015261328a8161303a565b9050919050565b600060208201905081810360008301526132aa8161305d565b9050919050565b600060208201905081810360008301526132ca81613080565b9050919050565b60006020820190506132e660008301846130a3565b92915050565b600060608201905061330160008301866130a3565b61330e60208301856130a3565b61331b6040830184612f04565b949350505050565b600060a08201905061333860008301886130a3565b61334560208301876130a3565b6133526040830186612f04565b61335f6060830185612f04565b61336c6080830184612f04565b9695505050505050565b600060808201905061338b60008301876130a3565b61339860208301866130a3565b6133a56040830185612f04565b6133b260608301846130a3565b95945050505050565b600082825260208201905092915050565b60006133d78261351f565b91506133e28361351f565b9250827fffffffffffffffffffffffffffffffffffffffffffffffffffffffffffffffff0382111561341757613416613572565b5b828201905092915050565b600061342d8261351f565b91506134388361351f565b925082613448576134476135a1565b5b828204905092915050565b600061345e8261351f565b91506134698361351f565b9250817fffffffffffffffffffffffffffffffffffffffffffffffffffffffffffffffff04831182151516156134a2576134a1613572565b5b828202905092915050565b60006134b88261351f565b91506134c38361351f565b9250828210156134d6576134d5613572565b5b828203905092915050565b60006134ec826134ff565b9050919050565b60008115159050919050565b600073ffffffffffffffffffffffffffffffffffffffff82169050919050565b6000819050919050565b60006135348261351f565b91507fffffffffffffffffffffffffffffffffffffffffffffffffffffffffffffffff82141561356757613566613572565b5b600182019050919050565b7f4e487b7100000000000000000000000000000000000000000000000000000000600052601160045260246000fd5b7f4e487b7100000000000000000000000000000000000000000000000000000000600052601260045260246000fd5b7f4f776e61626c653a206e6577206f776e657220697320746865207a65726f206160008201527f6464726573730000000000000000000000000000000000000000000000000000602082015250565b7f417070726f7665642073656c6c657273206f6e6c790000000000000000000000600082015250565b7f496e73756666696369656e74206c697374656420746f6b656e73000000000000600082015250565b7f4f6e6c79206269646465722063616e2063616e63656c20612062696400000000600082015250565b7f496e73756666696369656e7420746f6b656e73206c6973746564000000000000600082015250565b7f417070726f76656420627579657273206f6e6c79000000000000000000000000600082015250565b7f4f776e61626c653a2063616c6c6572206973206e6f7420746865206f776e6572600082015250565b7f696e76616c69642049442070726f766964656400000000000000000000000000600082015250565b7f496e73756666696369656e7420746f6b656e73206c697374656420746f20667560008201527f6c66696c6c206269640000000000000000000000000000000000000000000000602082015250565b7f4f6e6c792076656e646f722063616e2061636365707420612062696400000000600082015250565b7f4f6e6c792076656e646f72206f72206d61726b6574706c616365206f776e657260008201527f2063616e2064656c697374000000000000000000000000000000000000000000602082015250565b61380e816134e1565b811461381957600080fd5b50565b613825816134f3565b811461383057600080fd5b50565b61383c8161351f565b811461384757600080fd5b5056fea2646970667358221220076633627d21f58baf39c721ba1703cf5928f7bcfc5e781216a8a8088c43093564736f6c63430008040033",
  "linkReferences": {},
  "deployedLinkReferences": {}
}