{
  "_format": "hh-sol-artifact-1",
  "contractName": "ChangeblockMarketplace",
  "sourceName": "contracts/ChangeblockMarketplace.sol",
  "abi": [
    {
      "inputs": [
        {
          "internalType": "uint256",
          "name": "feeNumerator",
          "type": "uint256"
        },
        {
          "internalType": "uint256",
          "name": "feeDenominator",
          "type": "uint256"
        },
        {
          "internalType": "address",
          "name": "treasury",
          "type": "address"
        }
      ],
      "stateMutability": "nonpayable",
      "type": "constructor"
    },
    {
      "anonymous": false,
      "inputs": [
        {
          "indexed": true,
          "internalType": "uint256",
          "name": "listingId",
          "type": "uint256"
        },
        {
          "indexed": false,
          "internalType": "uint256",
          "name": "quantity",
          "type": "uint256"
        },
        {
          "indexed": false,
          "internalType": "uint256",
          "name": "price",
          "type": "uint256"
        },
        {
          "indexed": false,
          "internalType": "address",
          "name": "bidder",
          "type": "address"
        }
      ],
      "name": "BidPlaced",
      "type": "event"
    },
    {
      "anonymous": false,
      "inputs": [
        {
          "indexed": true,
          "internalType": "uint256",
          "name": "listingId",
          "type": "uint256"
        },
        {
          "indexed": false,
          "internalType": "address",
          "name": "bidder",
          "type": "address"
        }
      ],
      "name": "BidWithdrawn",
      "type": "event"
    },
    {
      "anonymous": false,
      "inputs": [
        {
          "indexed": true,
          "internalType": "uint256",
          "name": "listingId",
          "type": "uint256"
        },
        {
          "indexed": false,
          "internalType": "uint256",
          "name": "price",
          "type": "uint256"
        }
      ],
      "name": "ERC20PriceUpdate",
      "type": "event"
    },
    {
      "anonymous": false,
      "inputs": [
        {
          "indexed": false,
          "internalType": "uint256",
          "name": "amount",
          "type": "uint256"
        },
        {
          "indexed": false,
          "internalType": "uint256",
          "name": "price",
          "type": "uint256"
        },
        {
          "indexed": true,
          "internalType": "address",
          "name": "vendor",
          "type": "address"
        },
        {
          "indexed": true,
          "internalType": "address",
          "name": "product",
          "type": "address"
        },
        {
          "indexed": false,
          "internalType": "address",
          "name": "currency",
          "type": "address"
        },
        {
          "indexed": false,
          "internalType": "uint256",
          "name": "listingId",
          "type": "uint256"
        }
      ],
      "name": "ERC20Registration",
      "type": "event"
    },
    {
      "anonymous": false,
      "inputs": [
        {
          "indexed": false,
          "internalType": "uint256",
          "name": "id",
          "type": "uint256"
        },
        {
          "indexed": false,
          "internalType": "uint256",
          "name": "price",
          "type": "uint256"
        },
        {
          "indexed": true,
          "internalType": "address",
          "name": "vendor",
          "type": "address"
        },
        {
          "indexed": true,
          "internalType": "address",
          "name": "product",
          "type": "address"
        },
        {
          "indexed": false,
          "internalType": "address",
          "name": "currency",
          "type": "address"
        },
        {
          "indexed": false,
          "internalType": "uint256",
          "name": "listingId",
          "type": "uint256"
        }
      ],
      "name": "ERC721Registration",
      "type": "event"
    },
    {
      "anonymous": false,
      "inputs": [
        {
          "indexed": true,
          "internalType": "address",
          "name": "previousOwner",
          "type": "address"
        },
        {
          "indexed": true,
          "internalType": "address",
          "name": "newOwner",
          "type": "address"
        }
      ],
      "name": "OwnershipTransferred",
      "type": "event"
    },
    {
      "anonymous": false,
      "inputs": [
        {
          "indexed": true,
          "internalType": "uint256",
          "name": "listingId",
          "type": "uint256"
        }
      ],
      "name": "Sale",
      "type": "event"
    },
    {
      "inputs": [
        {
          "internalType": "uint256",
          "name": "",
          "type": "uint256"
        }
      ],
      "name": "ERC20Listings",
      "outputs": [
        {
          "internalType": "uint256",
          "name": "amount",
          "type": "uint256"
        },
        {
          "internalType": "uint256",
          "name": "price",
          "type": "uint256"
        },
        {
          "internalType": "address",
          "name": "vendor",
          "type": "address"
        },
        {
          "internalType": "address",
          "name": "product",
          "type": "address"
        },
        {
          "internalType": "address",
          "name": "currency",
          "type": "address"
        }
      ],
      "stateMutability": "view",
      "type": "function"
    },
    {
      "inputs": [
        {
          "internalType": "uint256",
          "name": "",
          "type": "uint256"
        }
      ],
      "name": "ERC721Listings",
      "outputs": [
        {
          "internalType": "uint256",
          "name": "id",
          "type": "uint256"
        },
        {
          "internalType": "uint256",
          "name": "price",
          "type": "uint256"
        },
        {
          "internalType": "address",
          "name": "vendor",
          "type": "address"
        },
        {
          "internalType": "address",
          "name": "product",
          "type": "address"
        },
        {
          "internalType": "address",
          "name": "currency",
          "type": "address"
        }
      ],
      "stateMutability": "view",
      "type": "function"
    },
    {
      "inputs": [],
      "name": "FEE_DENOMINATOR",
      "outputs": [
        {
          "internalType": "uint256",
          "name": "",
          "type": "uint256"
        }
      ],
      "stateMutability": "view",
      "type": "function"
    },
    {
      "inputs": [],
      "name": "FEE_NUMERATOR",
      "outputs": [
        {
          "internalType": "uint256",
          "name": "",
          "type": "uint256"
        }
      ],
      "stateMutability": "view",
      "type": "function"
    },
    {
      "inputs": [
        {
          "internalType": "uint256",
          "name": "listingId",
          "type": "uint256"
        },
        {
          "internalType": "uint256",
          "name": "quantity",
          "type": "uint256"
        },
        {
          "internalType": "uint256",
          "name": "payment",
          "type": "uint256"
        }
      ],
      "name": "bid",
      "outputs": [],
      "stateMutability": "nonpayable",
      "type": "function"
    },
    {
      "inputs": [
        {
          "internalType": "uint256",
          "name": "",
          "type": "uint256"
        },
        {
          "internalType": "uint256",
          "name": "",
          "type": "uint256"
        }
      ],
      "name": "bidders",
      "outputs": [
        {
          "internalType": "address",
          "name": "",
          "type": "address"
        }
      ],
      "stateMutability": "view",
      "type": "function"
    },
    {
      "inputs": [
        {
          "internalType": "uint256",
          "name": "",
          "type": "uint256"
        },
        {
          "internalType": "address",
          "name": "",
          "type": "address"
        }
      ],
      "name": "bids",
      "outputs": [
        {
          "internalType": "uint256",
          "name": "quantity",
          "type": "uint256"
        },
        {
          "internalType": "uint256",
          "name": "payment",
          "type": "uint256"
        }
      ],
      "stateMutability": "view",
      "type": "function"
    },
    {
      "inputs": [
        {
          "internalType": "uint256",
          "name": "listingId",
          "type": "uint256"
        },
        {
          "internalType": "uint256",
          "name": "amount",
          "type": "uint256"
        },
        {
          "internalType": "uint256",
          "name": "price",
          "type": "uint256"
        }
      ],
      "name": "buyERC20",
      "outputs": [],
      "stateMutability": "nonpayable",
      "type": "function"
    },
    {
      "inputs": [
        {
          "internalType": "uint256",
          "name": "listingId",
          "type": "uint256"
        },
        {
          "internalType": "uint256",
          "name": "price",
          "type": "uint256"
        }
      ],
      "name": "buyERC721",
      "outputs": [],
      "stateMutability": "nonpayable",
      "type": "function"
    },
    {
      "inputs": [
        {
          "internalType": "address",
          "name": "",
          "type": "address"
        }
      ],
      "name": "buyerApprovals",
      "outputs": [
        {
          "internalType": "bool",
          "name": "",
          "type": "bool"
        }
      ],
      "stateMutability": "view",
      "type": "function"
    },
    {
      "inputs": [
        {
          "internalType": "uint256",
          "name": "amount",
          "type": "uint256"
        },
        {
          "internalType": "uint256",
          "name": "listingId",
          "type": "uint256"
        }
      ],
      "name": "delistERC20",
      "outputs": [],
      "stateMutability": "nonpayable",
      "type": "function"
    },
    {
      "inputs": [
        {
          "internalType": "uint256",
          "name": "listingId",
          "type": "uint256"
        }
      ],
      "name": "delistERC721",
      "outputs": [],
      "stateMutability": "nonpayable",
      "type": "function"
    },
    {
      "inputs": [
        {
          "internalType": "uint256",
          "name": "amount",
          "type": "uint256"
        },
        {
          "internalType": "uint256",
          "name": "price",
          "type": "uint256"
        },
        {
          "internalType": "address",
          "name": "product",
          "type": "address"
        },
        {
          "internalType": "address",
          "name": "currency",
          "type": "address"
        }
      ],
      "name": "listERC20",
      "outputs": [
        {
          "internalType": "uint256",
          "name": "",
          "type": "uint256"
        }
      ],
      "stateMutability": "nonpayable",
      "type": "function"
    },
    {
      "inputs": [
        {
          "internalType": "uint256",
          "name": "id",
          "type": "uint256"
        },
        {
          "internalType": "uint256",
          "name": "price",
          "type": "uint256"
        },
        {
          "internalType": "address",
          "name": "product",
          "type": "address"
        },
        {
          "internalType": "address",
          "name": "currency",
          "type": "address"
        }
      ],
      "name": "listERC721",
      "outputs": [
        {
          "internalType": "uint256",
          "name": "",
          "type": "uint256"
        }
      ],
      "stateMutability": "nonpayable",
      "type": "function"
    },
    {
      "inputs": [],
      "name": "owner",
      "outputs": [
        {
          "internalType": "address",
          "name": "",
          "type": "address"
        }
      ],
      "stateMutability": "view",
      "type": "function"
    },
    {
      "inputs": [],
      "name": "renounceOwnership",
      "outputs": [],
      "stateMutability": "nonpayable",
      "type": "function"
    },
    {
      "inputs": [
        {
          "internalType": "address",
          "name": "",
          "type": "address"
        }
      ],
      "name": "sellerApprovals",
      "outputs": [
        {
          "internalType": "bool",
          "name": "",
          "type": "bool"
        }
      ],
      "stateMutability": "view",
      "type": "function"
    },
    {
      "inputs": [
        {
          "internalType": "address[]",
          "name": "targets",
          "type": "address[]"
        },
        {
          "internalType": "bool[]",
          "name": "approvals",
          "type": "bool[]"
        }
      ],
      "name": "setBuyers",
      "outputs": [],
      "stateMutability": "nonpayable",
      "type": "function"
    },
    {
      "inputs": [],
      "name": "setFeeDenominator",
      "outputs": [],
      "stateMutability": "nonpayable",
      "type": "function"
    },
    {
      "inputs": [],
      "name": "setFeeNumerator",
      "outputs": [],
      "stateMutability": "nonpayable",
      "type": "function"
    },
    {
      "inputs": [
        {
          "internalType": "address[]",
          "name": "targets",
          "type": "address[]"
        },
        {
          "internalType": "bool[]",
          "name": "approvals",
          "type": "bool[]"
        }
      ],
      "name": "setSellers",
      "outputs": [],
      "stateMutability": "nonpayable",
      "type": "function"
    },
    {
      "inputs": [
        {
          "internalType": "address",
          "name": "newOwner",
          "type": "address"
        }
      ],
      "name": "transferOwnership",
      "outputs": [],
      "stateMutability": "nonpayable",
      "type": "function"
    },
    {
      "inputs": [
        {
          "internalType": "uint256",
          "name": "listingId",
          "type": "uint256"
        },
        {
          "internalType": "uint256",
          "name": "price",
          "type": "uint256"
        }
      ],
      "name": "updateERC20Price",
      "outputs": [],
      "stateMutability": "nonpayable",
      "type": "function"
    },
    {
      "inputs": [
        {
          "internalType": "uint256",
          "name": "listingId",
          "type": "uint256"
        },
        {
          "internalType": "uint256",
          "name": "price",
          "type": "uint256"
        }
      ],
      "name": "updateERC721Price",
      "outputs": [],
      "stateMutability": "nonpayable",
      "type": "function"
    }
  ],
  "bytecode": "0x60806040523480156200001157600080fd5b50604051620036a9380380620036a98339818101604052810190620000379190620001a9565b620000576200004b620000af60201b60201c565b620000b760201b60201c565b826005819055508160068190555080600760006101000a81548173ffffffffffffffffffffffffffffffffffffffff021916908373ffffffffffffffffffffffffffffffffffffffff16021790555050505062000271565b600033905090565b60008060009054906101000a900473ffffffffffffffffffffffffffffffffffffffff169050816000806101000a81548173ffffffffffffffffffffffffffffffffffffffff021916908373ffffffffffffffffffffffffffffffffffffffff1602179055508173ffffffffffffffffffffffffffffffffffffffff168173ffffffffffffffffffffffffffffffffffffffff167f8be0079c531659141344cd1fd0a4f28419497f9722a3daafe3b4186f6b6457e060405160405180910390a35050565b6000815190506200018c816200023d565b92915050565b600081519050620001a38162000257565b92915050565b600080600060608486031215620001bf57600080fd5b6000620001cf8682870162000192565b9350506020620001e28682870162000192565b9250506040620001f5868287016200017b565b9150509250925092565b60006200020c8262000213565b9050919050565b600073ffffffffffffffffffffffffffffffffffffffff82169050919050565b6000819050919050565b6200024881620001ff565b81146200025457600080fd5b50565b620002628162000233565b81146200026e57600080fd5b50565b61342880620002816000396000f3fe608060405234801561001057600080fd5b50600436106101585760003560e01c8063aebfa635116100c3578063efe5b8711161007c578063efe5b871146103b4578063f2fde38b146103d0578063f626dab0146103ec578063fbcc035114610420578063fec1d6c614610450578063ffda0a0b1461045a57610158565b8063aebfa635146102f6578063c1ab2a4f14610312578063cb36639b1461032e578063d1c112051461034a578063d73792a91461037a578063d73d55a31461039857610158565b806345d84c941161011557806345d84c941461024857806346b504781461025257806366c7f8e51461026e578063715018a61461029e5780638da5cb5b146102a857806397895f3a146102c657610158565b806302fa11bd1461015d578063151a4791146101915780632ac9bf09146101c15780632b2d0460146101dd5780633f1ffcec146101f957806341cd47bf1461022a575b600080fd5b61017760048036038101906101729190612965565b610476565b604051610188959493929190612ef4565b60405180910390f35b6101ab60048036038101906101a69190612a06565b61050c565b6040516101b89190612e50565b60405180910390f35b6101db60048036038101906101d69190612a69565b610818565b005b6101f760048036038101906101f2919061289e565b610a40565b005b610213600480360381019061020e919061298e565b610bd5565b604051610221929190612e94565b60405180910390f35b610232610c06565b60405161023f9190612e50565b60405180910390f35b610250610c0c565b005b61026c600480360381019061026791906129ca565b610c8a565b005b61028860048036038101906102839190612a06565b610d4d565b6040516102959190612e50565b60405180910390f35b6102a661109d565b005b6102b0611125565b6040516102bd9190612c43565b60405180910390f35b6102e060048036038101906102db9190612875565b61114e565b6040516102ed9190612cf5565b60405180910390f35b610310600480360381019061030b919061289e565b61116e565b005b61032c60048036038101906103279190612965565b611303565b005b61034860048036038101906103439190612a69565b611604565b005b610364600480360381019061035f91906129ca565b611b3e565b6040516103719190612c43565b60405180910390f35b610382611b8c565b60405161038f9190612e50565b60405180910390f35b6103b260048036038101906103ad91906129ca565b611b92565b005b6103ce60048036038101906103c991906129ca565b611f35565b005b6103ea60048036038101906103e59190612875565b6123d2565b005b61040660048036038101906104019190612965565b6124ca565b604051610417959493929190612ef4565b60405180910390f35b61043a60048036038101906104359190612875565b612560565b6040516104479190612cf5565b60405180910390f35b610458612580565b005b610474600480360381019061046f91906129ca565b6125fe565b005b60036020528060005260406000206000915090508060000154908060010154908060020160009054906101000a900473ffffffffffffffffffffffffffffffffffffffff16908060030160009054906101000a900473ffffffffffffffffffffffffffffffffffffffff16908060040160009054906101000a900473ffffffffffffffffffffffffffffffffffffffff16905085565b6000600160003373ffffffffffffffffffffffffffffffffffffffff1673ffffffffffffffffffffffffffffffffffffffff16815260200190815260200160002060009054906101000a900460ff1661059a576040517f08c379a000000000000000000000000000000000000000000000000000000000815260040161059190612d70565b60405180910390fd5b8273ffffffffffffffffffffffffffffffffffffffff166323b872dd3330886040518463ffffffff1660e01b81526004016105d793929190612c95565b600060405180830381600087803b1580156105f157600080fd5b505af1158015610605573d6000803e3d6000fd5b505050506000858460405160200161061e929190612e6b565b6040516020818303038152906040528051906020012060001c90506040518060a001604052808781526020018681526020013373ffffffffffffffffffffffffffffffffffffffff1681526020018573ffffffffffffffffffffffffffffffffffffffff1681526020018473ffffffffffffffffffffffffffffffffffffffff1681525060046000838152602001908152602001600020600082015181600001556020820151816001015560408201518160020160006101000a81548173ffffffffffffffffffffffffffffffffffffffff021916908373ffffffffffffffffffffffffffffffffffffffff16021790555060608201518160030160006101000a81548173ffffffffffffffffffffffffffffffffffffffff021916908373ffffffffffffffffffffffffffffffffffffffff16021790555060808201518160040160006101000a81548173ffffffffffffffffffffffffffffffffffffffff021916908373ffffffffffffffffffffffffffffffffffffffff1602179055509050508373ffffffffffffffffffffffffffffffffffffffff163373ffffffffffffffffffffffffffffffffffffffff167f96121474b4be0e5edfa0cf9721fe3e06611dc0048f4ec160f3f4aa1c5ca3ec41888887866040516108049493929190612f47565b60405180910390a380915050949350505050565b600260003373ffffffffffffffffffffffffffffffffffffffff1673ffffffffffffffffffffffffffffffffffffffff16815260200190815260200160002060009054906101000a900460ff166108a4576040517f08c379a000000000000000000000000000000000000000000000000000000000815260040161089b90612dd0565b60405180910390fd5b6009600084815260200190815260200160002080549050600a600085815260200190815260200160002060003373ffffffffffffffffffffffffffffffffffffffff1673ffffffffffffffffffffffffffffffffffffffff1681526020019081526020016000208190555060096000848152602001908152602001600020339080600181540180825580915050600190039060005260206000200160009091909190916101000a81548173ffffffffffffffffffffffffffffffffffffffff021916908373ffffffffffffffffffffffffffffffffffffffff1602179055506040518060400160405280838152602001828152506008600085815260200190815260200160002060003373ffffffffffffffffffffffffffffffffffffffff1673ffffffffffffffffffffffffffffffffffffffff1681526020019081526020016000206000820151816000015560208201518160010155905050827f379fe8bc550443c6867a021184bb0e5a961f3fcd271160873847410c7bdd0e28838333604051610a3393929190612ebd565b60405180910390a2505050565b610a486126c1565b73ffffffffffffffffffffffffffffffffffffffff16610a66611125565b73ffffffffffffffffffffffffffffffffffffffff1614610abc576040517f08c379a0000000000000000000000000000000000000000000000000000000008152600401610ab390612df0565b60405180910390fd5b60005b84849050811015610bce57828282818110610b03577f4e487b7100000000000000000000000000000000000000000000000000000000600052603260045260246000fd5b9050602002016020810190610b189190612913565b60016000878785818110610b55577f4e487b7100000000000000000000000000000000000000000000000000000000600052603260045260246000fd5b9050602002016020810190610b6a9190612875565b73ffffffffffffffffffffffffffffffffffffffff1673ffffffffffffffffffffffffffffffffffffffff16815260200190815260200160002060006101000a81548160ff0219169083151502179055508080610bc6906130fa565b915050610abf565b5050505050565b6008602052816000526040600020602052806000526040600020600091509150508060000154908060010154905082565b60055481565b610c146126c1565b73ffffffffffffffffffffffffffffffffffffffff16610c32611125565b73ffffffffffffffffffffffffffffffffffffffff1614610c88576040517f08c379a0000000000000000000000000000000000000000000000000000000008152600401610c7f90612df0565b60405180910390fd5b565b6003600083815260200190815260200160002060020160009054906101000a900473ffffffffffffffffffffffffffffffffffffffff1673ffffffffffffffffffffffffffffffffffffffff163373ffffffffffffffffffffffffffffffffffffffff1614610d2e576040517f08c379a0000000000000000000000000000000000000000000000000000000008152600401610d2590612d10565b60405180910390fd5b8060036000848152602001908152602001600020600101819055505050565b6000600160003373ffffffffffffffffffffffffffffffffffffffff1673ffffffffffffffffffffffffffffffffffffffff16815260200190815260200160002060009054906101000a900460ff16610ddb576040517f08c379a0000000000000000000000000000000000000000000000000000000008152600401610dd290612d70565b60405180910390fd5b8273ffffffffffffffffffffffffffffffffffffffff166323b872dd3330886040518463ffffffff1660e01b8152600401610e1893929190612c95565b602060405180830381600087803b158015610e3257600080fd5b505af1158015610e46573d6000803e3d6000fd5b505050506040513d601f19601f82011682018060405250810190610e6a919061293c565b506000338484604051602001610e8293929190612c5e565b6040516020818303038152906040528051906020012060001c90506040518060a00160405280600360008481526020019081526020016000206000015488610eca9190612f9d565b81526020018681526020013373ffffffffffffffffffffffffffffffffffffffff1681526020018573ffffffffffffffffffffffffffffffffffffffff1681526020018473ffffffffffffffffffffffffffffffffffffffff1681525060036000838152602001908152602001600020600082015181600001556020820151816001015560408201518160020160006101000a81548173ffffffffffffffffffffffffffffffffffffffff021916908373ffffffffffffffffffffffffffffffffffffffff16021790555060608201518160030160006101000a81548173ffffffffffffffffffffffffffffffffffffffff021916908373ffffffffffffffffffffffffffffffffffffffff16021790555060808201518160040160006101000a81548173ffffffffffffffffffffffffffffffffffffffff021916908373ffffffffffffffffffffffffffffffffffffffff1602179055509050508373ffffffffffffffffffffffffffffffffffffffff163373ffffffffffffffffffffffffffffffffffffffff167f4dac2e5e670f156eb092f4d2b4bd3db441153ea88b602e360195f855f144c6d7888887866040516110899493929190612f47565b60405180910390a380915050949350505050565b6110a56126c1565b73ffffffffffffffffffffffffffffffffffffffff166110c3611125565b73ffffffffffffffffffffffffffffffffffffffff1614611119576040517f08c379a000000000000000000000000000000000000000000000000000000000815260040161111090612df0565b60405180910390fd5b61112360006126c9565b565b60008060009054906101000a900473ffffffffffffffffffffffffffffffffffffffff16905090565b60026020528060005260406000206000915054906101000a900460ff1681565b6111766126c1565b73ffffffffffffffffffffffffffffffffffffffff16611194611125565b73ffffffffffffffffffffffffffffffffffffffff16146111ea576040517f08c379a00000000000000000000000000000000000000000000000000000000081526004016111e190612df0565b60405180910390fd5b60005b848490508110156112fc57828282818110611231577f4e487b7100000000000000000000000000000000000000000000000000000000600052603260045260246000fd5b90506020020160208101906112469190612913565b60026000878785818110611283577f4e487b7100000000000000000000000000000000000000000000000000000000600052603260045260246000fd5b90506020020160208101906112989190612875565b73ffffffffffffffffffffffffffffffffffffffff1673ffffffffffffffffffffffffffffffffffffffff16815260200190815260200160002060006101000a81548160ff02191690831515021790555080806112f4906130fa565b9150506111ed565b5050505050565b6000600460008381526020019081526020016000206040518060a001604052908160008201548152602001600182015481526020016002820160009054906101000a900473ffffffffffffffffffffffffffffffffffffffff1673ffffffffffffffffffffffffffffffffffffffff1673ffffffffffffffffffffffffffffffffffffffff1681526020016003820160009054906101000a900473ffffffffffffffffffffffffffffffffffffffff1673ffffffffffffffffffffffffffffffffffffffff1673ffffffffffffffffffffffffffffffffffffffff1681526020016004820160009054906101000a900473ffffffffffffffffffffffffffffffffffffffff1673ffffffffffffffffffffffffffffffffffffffff1673ffffffffffffffffffffffffffffffffffffffff168152505090503373ffffffffffffffffffffffffffffffffffffffff16816040015173ffffffffffffffffffffffffffffffffffffffff1614806114ab57503373ffffffffffffffffffffffffffffffffffffffff16611493611125565b73ffffffffffffffffffffffffffffffffffffffff16145b6114ea576040517f08c379a00000000000000000000000000000000000000000000000000000000081526004016114e190612e10565b60405180910390fd5b806060015173ffffffffffffffffffffffffffffffffffffffff166323b872dd30836040015184600001516040518463ffffffff1660e01b815260040161153393929190612c95565b600060405180830381600087803b15801561154d57600080fd5b505af1158015611561573d6000803e3d6000fd5b505050506004600083815260200190815260200160002060008082016000905560018201600090556002820160006101000a81549073ffffffffffffffffffffffffffffffffffffffff02191690556003820160006101000a81549073ffffffffffffffffffffffffffffffffffffffff02191690556004820160006101000a81549073ffffffffffffffffffffffffffffffffffffffff021916905550505050565b600260003373ffffffffffffffffffffffffffffffffffffffff1673ffffffffffffffffffffffffffffffffffffffff16815260200190815260200160002060009054906101000a900460ff16611690576040517f08c379a000000000000000000000000000000000000000000000000000000000815260040161168790612dd0565b60405180910390fd5b6000600360008581526020019081526020016000206040518060a001604052908160008201548152602001600182015481526020016002820160009054906101000a900473ffffffffffffffffffffffffffffffffffffffff1673ffffffffffffffffffffffffffffffffffffffff1673ffffffffffffffffffffffffffffffffffffffff1681526020016003820160009054906101000a900473ffffffffffffffffffffffffffffffffffffffff1673ffffffffffffffffffffffffffffffffffffffff1673ffffffffffffffffffffffffffffffffffffffff1681526020016004820160009054906101000a900473ffffffffffffffffffffffffffffffffffffffff1673ffffffffffffffffffffffffffffffffffffffff1673ffffffffffffffffffffffffffffffffffffffff16815250509050600073ffffffffffffffffffffffffffffffffffffffff16816080015173ffffffffffffffffffffffffffffffffffffffff16141561183c576040517f08c379a000000000000000000000000000000000000000000000000000000000815260040161183390612e30565b60405180910390fd5b81816020015114611882576040517f08c379a000000000000000000000000000000000000000000000000000000000815260040161187990612d50565b60405180910390fd5b60008160200151846118949190613024565b90506000600654600554836118a99190613024565b6118b39190612ff3565b9050826080015173ffffffffffffffffffffffffffffffffffffffff166323b872dd338560400151856040518463ffffffff1660e01b81526004016118fa93929190612c95565b602060405180830381600087803b15801561191457600080fd5b505af1158015611928573d6000803e3d6000fd5b505050506040513d601f19601f8201168201806040525081019061194c919061293c565b50826080015173ffffffffffffffffffffffffffffffffffffffff166323b872dd33600760009054906101000a900473ffffffffffffffffffffffffffffffffffffffff16846040518463ffffffff1660e01b81526004016119b093929190612c95565b602060405180830381600087803b1580156119ca57600080fd5b505af11580156119de573d6000803e3d6000fd5b505050506040513d601f19601f82011682018060405250810190611a02919061293c565b508483600001511015611a4a576040517f08c379a0000000000000000000000000000000000000000000000000000000008152600401611a4190612d90565b60405180910390fd5b826060015173ffffffffffffffffffffffffffffffffffffffff1663a9059cbb33876040518363ffffffff1660e01b8152600401611a89929190612ccc565b602060405180830381600087803b158015611aa357600080fd5b505af1158015611ab7573d6000803e3d6000fd5b505050506040513d601f19601f82011682018060405250810190611adb919061293c565b5084600360008881526020019081526020016000206000016000828254611b02919061307e565b92505081905550857fc0a8d68d4d1f533ef6cdb7a49068cbe04356682803cb7983c4ba33ce99100efd60405160405180910390a2505050505050565b60096020528160005260406000208181548110611b5a57600080fd5b906000526020600020016000915091509054906101000a900473ffffffffffffffffffffffffffffffffffffffff1681565b60065481565b6000600360008381526020019081526020016000206040518060a001604052908160008201548152602001600182015481526020016002820160009054906101000a900473ffffffffffffffffffffffffffffffffffffffff1673ffffffffffffffffffffffffffffffffffffffff1673ffffffffffffffffffffffffffffffffffffffff1681526020016003820160009054906101000a900473ffffffffffffffffffffffffffffffffffffffff1673ffffffffffffffffffffffffffffffffffffffff1673ffffffffffffffffffffffffffffffffffffffff1681526020016004820160009054906101000a900473ffffffffffffffffffffffffffffffffffffffff1673ffffffffffffffffffffffffffffffffffffffff1673ffffffffffffffffffffffffffffffffffffffff168152505090503373ffffffffffffffffffffffffffffffffffffffff16816040015173ffffffffffffffffffffffffffffffffffffffff161480611d3a57503373ffffffffffffffffffffffffffffffffffffffff16611d22611125565b73ffffffffffffffffffffffffffffffffffffffff16145b611d79576040517f08c379a0000000000000000000000000000000000000000000000000000000008152600401611d7090612e10565b60405180910390fd5b8281600001511015611dc0576040517f08c379a0000000000000000000000000000000000000000000000000000000008152600401611db790612db0565b60405180910390fd5b806060015173ffffffffffffffffffffffffffffffffffffffff1663a9059cbb8260400151856040518363ffffffff1660e01b8152600401611e03929190612ccc565b602060405180830381600087803b158015611e1d57600080fd5b505af1158015611e31573d6000803e3d6000fd5b505050506040513d601f19601f82011682018060405250810190611e55919061293c565b508281600001511415611f02576003600083815260200190815260200160002060008082016000905560018201600090556002820160006101000a81549073ffffffffffffffffffffffffffffffffffffffff02191690556003820160006101000a81549073ffffffffffffffffffffffffffffffffffffffff02191690556004820160006101000a81549073ffffffffffffffffffffffffffffffffffffffff02191690555050611f30565b82600360008481526020019081526020016000206000016000828254611f28919061307e565b925050819055505b505050565b600260003373ffffffffffffffffffffffffffffffffffffffff1673ffffffffffffffffffffffffffffffffffffffff16815260200190815260200160002060009054906101000a900460ff16611fc1576040517f08c379a0000000000000000000000000000000000000000000000000000000008152600401611fb890612dd0565b60405180910390fd5b6000600460008481526020019081526020016000206040518060a001604052908160008201548152602001600182015481526020016002820160009054906101000a900473ffffffffffffffffffffffffffffffffffffffff1673ffffffffffffffffffffffffffffffffffffffff1673ffffffffffffffffffffffffffffffffffffffff1681526020016003820160009054906101000a900473ffffffffffffffffffffffffffffffffffffffff1673ffffffffffffffffffffffffffffffffffffffff1673ffffffffffffffffffffffffffffffffffffffff1681526020016004820160009054906101000a900473ffffffffffffffffffffffffffffffffffffffff1673ffffffffffffffffffffffffffffffffffffffff1673ffffffffffffffffffffffffffffffffffffffff16815250509050600073ffffffffffffffffffffffffffffffffffffffff16816080015173ffffffffffffffffffffffffffffffffffffffff16141561216d576040517f08c379a000000000000000000000000000000000000000000000000000000000815260040161216490612e30565b60405180910390fd5b818160200151146121b3576040517f08c379a00000000000000000000000000000000000000000000000000000000081526004016121aa90612d50565b60405180910390fd5b600060065460055483602001516121ca9190613024565b6121d49190612ff3565b9050816080015173ffffffffffffffffffffffffffffffffffffffff166323b872dd33846040015185602001516040518463ffffffff1660e01b815260040161221f93929190612c95565b602060405180830381600087803b15801561223957600080fd5b505af115801561224d573d6000803e3d6000fd5b505050506040513d601f19601f82011682018060405250810190612271919061293c565b50816080015173ffffffffffffffffffffffffffffffffffffffff166323b872dd33600760009054906101000a900473ffffffffffffffffffffffffffffffffffffffff16846040518463ffffffff1660e01b81526004016122d593929190612c95565b602060405180830381600087803b1580156122ef57600080fd5b505af1158015612303573d6000803e3d6000fd5b505050506040513d601f19601f82011682018060405250810190612327919061293c565b50816060015173ffffffffffffffffffffffffffffffffffffffff166323b872dd303385600001516040518463ffffffff1660e01b815260040161236d93929190612c95565b600060405180830381600087803b15801561238757600080fd5b505af115801561239b573d6000803e3d6000fd5b50505050837fc0a8d68d4d1f533ef6cdb7a49068cbe04356682803cb7983c4ba33ce99100efd60405160405180910390a250505050565b6123da6126c1565b73ffffffffffffffffffffffffffffffffffffffff166123f8611125565b73ffffffffffffffffffffffffffffffffffffffff161461244e576040517f08c379a000000000000000000000000000000000000000000000000000000000815260040161244590612df0565b60405180910390fd5b600073ffffffffffffffffffffffffffffffffffffffff168173ffffffffffffffffffffffffffffffffffffffff1614156124be576040517f08c379a00000000000000000000000000000000000000000000000000000000081526004016124b590612d30565b60405180910390fd5b6124c7816126c9565b50565b60046020528060005260406000206000915090508060000154908060010154908060020160009054906101000a900473ffffffffffffffffffffffffffffffffffffffff16908060030160009054906101000a900473ffffffffffffffffffffffffffffffffffffffff16908060040160009054906101000a900473ffffffffffffffffffffffffffffffffffffffff16905085565b60016020528060005260406000206000915054906101000a900460ff1681565b6125886126c1565b73ffffffffffffffffffffffffffffffffffffffff166125a6611125565b73ffffffffffffffffffffffffffffffffffffffff16146125fc576040517f08c379a00000000000000000000000000000000000000000000000000000000081526004016125f390612df0565b60405180910390fd5b565b6004600083815260200190815260200160002060020160009054906101000a900473ffffffffffffffffffffffffffffffffffffffff1673ffffffffffffffffffffffffffffffffffffffff163373ffffffffffffffffffffffffffffffffffffffff16146126a2576040517f08c379a000000000000000000000000000000000000000000000000000000000815260040161269990612d10565b60405180910390fd5b8060046000848152602001908152602001600020600101819055505050565b600033905090565b60008060009054906101000a900473ffffffffffffffffffffffffffffffffffffffff169050816000806101000a81548173ffffffffffffffffffffffffffffffffffffffff021916908373ffffffffffffffffffffffffffffffffffffffff1602179055508173ffffffffffffffffffffffffffffffffffffffff168173ffffffffffffffffffffffffffffffffffffffff167f8be0079c531659141344cd1fd0a4f28419497f9722a3daafe3b4186f6b6457e060405160405180910390a35050565b60008135905061279c816133ad565b92915050565b60008083601f8401126127b457600080fd5b8235905067ffffffffffffffff8111156127cd57600080fd5b6020830191508360208202830111156127e557600080fd5b9250929050565b60008083601f8401126127fe57600080fd5b8235905067ffffffffffffffff81111561281757600080fd5b60208301915083602082028301111561282f57600080fd5b9250929050565b600081359050612845816133c4565b92915050565b60008151905061285a816133c4565b92915050565b60008135905061286f816133db565b92915050565b60006020828403121561288757600080fd5b60006128958482850161278d565b91505092915050565b600080600080604085870312156128b457600080fd5b600085013567ffffffffffffffff8111156128ce57600080fd5b6128da878288016127a2565b9450945050602085013567ffffffffffffffff8111156128f957600080fd5b612905878288016127ec565b925092505092959194509250565b60006020828403121561292557600080fd5b600061293384828501612836565b91505092915050565b60006020828403121561294e57600080fd5b600061295c8482850161284b565b91505092915050565b60006020828403121561297757600080fd5b600061298584828501612860565b91505092915050565b600080604083850312156129a157600080fd5b60006129af85828601612860565b92505060206129c08582860161278d565b9150509250929050565b600080604083850312156129dd57600080fd5b60006129eb85828601612860565b92505060206129fc85828601612860565b9150509250929050565b60008060008060808587031215612a1c57600080fd5b6000612a2a87828801612860565b9450506020612a3b87828801612860565b9350506040612a4c8782880161278d565b9250506060612a5d8782880161278d565b91505092959194509250565b600080600060608486031215612a7e57600080fd5b6000612a8c86828701612860565b9350506020612a9d86828701612860565b9250506040612aae86828701612860565b9150509250925092565b612ac1816130b2565b82525050565b612ad0816130c4565b82525050565b6000612ae3601c83612f8c565b9150612aee826131a1565b602082019050919050565b6000612b06602683612f8c565b9150612b11826131ca565b604082019050919050565b6000612b29602383612f8c565b9150612b3482613219565b604082019050919050565b6000612b4c601583612f8c565b9150612b5782613268565b602082019050919050565b6000612b6f601a83612f8c565b9150612b7a82613291565b602082019050919050565b6000612b92601a83612f8c565b9150612b9d826132ba565b602082019050919050565b6000612bb5601483612f8c565b9150612bc0826132e3565b602082019050919050565b6000612bd8602083612f8c565b9150612be38261330c565b602082019050919050565b6000612bfb602b83612f8c565b9150612c0682613335565b604082019050919050565b6000612c1e601d83612f8c565b9150612c2982613384565b602082019050919050565b612c3d816130f0565b82525050565b6000602082019050612c586000830184612ab8565b92915050565b6000606082019050612c736000830186612ab8565b612c806020830185612ab8565b612c8d6040830184612ab8565b949350505050565b6000606082019050612caa6000830186612ab8565b612cb76020830185612ab8565b612cc46040830184612c34565b949350505050565b6000604082019050612ce16000830185612ab8565b612cee6020830184612c34565b9392505050565b6000602082019050612d0a6000830184612ac7565b92915050565b60006020820190508181036000830152612d2981612ad6565b9050919050565b60006020820190508181036000830152612d4981612af9565b9050919050565b60006020820190508181036000830152612d6981612b1c565b9050919050565b60006020820190508181036000830152612d8981612b3f565b9050919050565b60006020820190508181036000830152612da981612b62565b9050919050565b60006020820190508181036000830152612dc981612b85565b9050919050565b60006020820190508181036000830152612de981612ba8565b9050919050565b60006020820190508181036000830152612e0981612bcb565b9050919050565b60006020820190508181036000830152612e2981612bee565b9050919050565b60006020820190508181036000830152612e4981612c11565b9050919050565b6000602082019050612e656000830184612c34565b92915050565b6000604082019050612e806000830185612c34565b612e8d6020830184612ab8565b9392505050565b6000604082019050612ea96000830185612c34565b612eb66020830184612c34565b9392505050565b6000606082019050612ed26000830186612c34565b612edf6020830185612c34565b612eec6040830184612ab8565b949350505050565b600060a082019050612f096000830188612c34565b612f166020830187612c34565b612f236040830186612ab8565b612f306060830185612ab8565b612f3d6080830184612ab8565b9695505050505050565b6000608082019050612f5c6000830187612c34565b612f696020830186612c34565b612f766040830185612ab8565b612f836060830184612c34565b95945050505050565b600082825260208201905092915050565b6000612fa8826130f0565b9150612fb3836130f0565b9250827fffffffffffffffffffffffffffffffffffffffffffffffffffffffffffffffff03821115612fe857612fe7613143565b5b828201905092915050565b6000612ffe826130f0565b9150613009836130f0565b92508261301957613018613172565b5b828204905092915050565b600061302f826130f0565b915061303a836130f0565b9250817fffffffffffffffffffffffffffffffffffffffffffffffffffffffffffffffff048311821515161561307357613072613143565b5b828202905092915050565b6000613089826130f0565b9150613094836130f0565b9250828210156130a7576130a6613143565b5b828203905092915050565b60006130bd826130d0565b9050919050565b60008115159050919050565b600073ffffffffffffffffffffffffffffffffffffffff82169050919050565b6000819050919050565b6000613105826130f0565b91507fffffffffffffffffffffffffffffffffffffffffffffffffffffffffffffffff82141561313857613137613143565b5b600182019050919050565b7f4e487b7100000000000000000000000000000000000000000000000000000000600052601160045260246000fd5b7f4e487b7100000000000000000000000000000000000000000000000000000000600052601260045260246000fd5b7f4f6e6c792076656e646f722063616e2075706461746520707269636500000000600082015250565b7f4f776e61626c653a206e6577206f776e657220697320746865207a65726f206160008201527f6464726573730000000000000000000000000000000000000000000000000000602082015250565b7f43616e6e6f74206d616b6520707572636861736520617420696e70757420707260008201527f6963650000000000000000000000000000000000000000000000000000000000602082015250565b7f417070726f7665642073656c6c657273206f6e6c790000000000000000000000600082015250565b7f496e73756666696369656e74206c697374656420746f6b656e73000000000000600082015250565b7f496e73756666696369656e7420746f6b656e73206c6973746564000000000000600082015250565b7f417070726f76656420627579657273206f6e6c79000000000000000000000000600082015250565b7f4f776e61626c653a2063616c6c6572206973206e6f7420746865206f776e6572600082015250565b7f4f6e6c792076656e646f72206f72206d61726b6574706c616365206f776e657260008201527f2063616e2064656c697374000000000000000000000000000000000000000000602082015250565b7f4e6f6e2d76616c6964206c697374696e672049442070726f7669646564000000600082015250565b6133b6816130b2565b81146133c157600080fd5b50565b6133cd816130c4565b81146133d857600080fd5b50565b6133e4816130f0565b81146133ef57600080fd5b5056fea2646970667358221220d09a7880c2cfe9194b030ff640284c4c6109b0694ff7e6505735224acf4994ff64736f6c63430008040033",
  "linkReferences": {},
  "deployedLinkReferences": {}
}