{
  "_format": "hh-sol-artifact-1",
  "contractName": "ChangeblockMarketplace",
  "sourceName": "contracts/ChangeblockMarketplace.sol",
  "abi": [
    {
      "inputs": [
        {
          "internalType": "uint256",
          "name": "feeNumerator",
          "type": "uint256"
        },
        {
          "internalType": "uint256",
          "name": "feeDenominator",
          "type": "uint256"
        },
        {
          "internalType": "address",
          "name": "treasury",
          "type": "address"
        }
      ],
      "stateMutability": "nonpayable",
      "type": "constructor"
    },
    {
      "anonymous": false,
      "inputs": [
        {
          "indexed": true,
          "internalType": "uint256",
          "name": "listingId",
          "type": "uint256"
        },
        {
          "indexed": false,
          "internalType": "address",
          "name": "bidder",
          "type": "address"
        },
        {
          "indexed": false,
          "internalType": "uint256",
          "name": "quantity",
          "type": "uint256"
        },
        {
          "indexed": false,
          "internalType": "uint256",
          "name": "payment",
          "type": "uint256"
        }
      ],
      "name": "BidAccepted",
      "type": "event"
    },
    {
      "anonymous": false,
      "inputs": [
        {
          "indexed": true,
          "internalType": "uint256",
          "name": "listingId",
          "type": "uint256"
        },
        {
          "indexed": false,
          "internalType": "uint256",
          "name": "quantity",
          "type": "uint256"
        },
        {
          "indexed": false,
          "internalType": "uint256",
          "name": "price",
          "type": "uint256"
        },
        {
          "indexed": false,
          "internalType": "address",
          "name": "bidder",
          "type": "address"
        },
        {
          "indexed": false,
          "internalType": "uint256",
          "name": "index",
          "type": "uint256"
        }
      ],
      "name": "BidPlaced",
      "type": "event"
    },
    {
      "anonymous": false,
      "inputs": [
        {
          "indexed": true,
          "internalType": "uint256",
          "name": "listingId",
          "type": "uint256"
        },
        {
          "indexed": false,
          "internalType": "address",
          "name": "bidder",
          "type": "address"
        },
        {
          "indexed": false,
          "internalType": "uint256",
          "name": "index",
          "type": "uint256"
        }
      ],
      "name": "BidWithdrawn",
      "type": "event"
    },
    {
      "anonymous": false,
      "inputs": [
        {
          "indexed": false,
          "internalType": "address[]",
          "name": "accounts",
          "type": "address[]"
        },
        {
          "indexed": false,
          "internalType": "bool[]",
          "name": "approvals",
          "type": "bool[]"
        }
      ],
      "name": "BuyerApproval",
      "type": "event"
    },
    {
      "anonymous": false,
      "inputs": [
        {
          "indexed": true,
          "internalType": "uint256",
          "name": "listingId",
          "type": "uint256"
        },
        {
          "indexed": false,
          "internalType": "uint256",
          "name": "price",
          "type": "uint256"
        }
      ],
      "name": "ERC20PriceChanged",
      "type": "event"
    },
    {
      "anonymous": false,
      "inputs": [
        {
          "indexed": false,
          "internalType": "uint256",
          "name": "amount",
          "type": "uint256"
        },
        {
          "indexed": false,
          "internalType": "uint256",
          "name": "price",
          "type": "uint256"
        },
        {
          "indexed": true,
          "internalType": "address",
          "name": "vendor",
          "type": "address"
        },
        {
          "indexed": true,
          "internalType": "address",
          "name": "product",
          "type": "address"
        },
        {
          "indexed": false,
          "internalType": "address",
          "name": "currency",
          "type": "address"
        },
        {
          "indexed": false,
          "internalType": "uint256",
          "name": "listingId",
          "type": "uint256"
        }
      ],
      "name": "ERC20Registration",
      "type": "event"
    },
    {
      "anonymous": false,
      "inputs": [
        {
          "indexed": true,
          "internalType": "uint256",
          "name": "listingId",
          "type": "uint256"
        },
        {
          "indexed": false,
          "internalType": "uint256",
          "name": "price",
          "type": "uint256"
        }
      ],
      "name": "ERC721PriceChanged",
      "type": "event"
    },
    {
      "anonymous": false,
      "inputs": [
        {
          "indexed": false,
          "internalType": "uint256",
          "name": "id",
          "type": "uint256"
        },
        {
          "indexed": false,
          "internalType": "uint256",
          "name": "price",
          "type": "uint256"
        },
        {
          "indexed": true,
          "internalType": "address",
          "name": "vendor",
          "type": "address"
        },
        {
          "indexed": true,
          "internalType": "address",
          "name": "product",
          "type": "address"
        },
        {
          "indexed": false,
          "internalType": "address",
          "name": "currency",
          "type": "address"
        },
        {
          "indexed": false,
          "internalType": "uint256",
          "name": "listingId",
          "type": "uint256"
        }
      ],
      "name": "ERC721Registration",
      "type": "event"
    },
    {
      "anonymous": false,
      "inputs": [
        {
          "indexed": true,
          "internalType": "address",
          "name": "previousOwner",
          "type": "address"
        },
        {
          "indexed": true,
          "internalType": "address",
          "name": "newOwner",
          "type": "address"
        }
      ],
      "name": "OwnershipTransferred",
      "type": "event"
    },
    {
      "anonymous": false,
      "inputs": [
        {
          "indexed": true,
          "internalType": "uint256",
          "name": "listingId",
          "type": "uint256"
        }
      ],
      "name": "Sale",
      "type": "event"
    },
    {
      "anonymous": false,
      "inputs": [
        {
          "indexed": false,
          "internalType": "address[]",
          "name": "accounts",
          "type": "address[]"
        },
        {
          "indexed": false,
          "internalType": "bool[]",
          "name": "approvals",
          "type": "bool[]"
        }
      ],
      "name": "SellerApproval",
      "type": "event"
    },
    {
      "inputs": [
        {
          "internalType": "uint256",
          "name": "",
          "type": "uint256"
        }
      ],
      "name": "ERC20Listings",
      "outputs": [
        {
          "internalType": "uint256",
          "name": "amount",
          "type": "uint256"
        },
        {
          "internalType": "uint256",
          "name": "price",
          "type": "uint256"
        },
        {
          "internalType": "address",
          "name": "vendor",
          "type": "address"
        },
        {
          "internalType": "address",
          "name": "product",
          "type": "address"
        },
        {
          "internalType": "address",
          "name": "currency",
          "type": "address"
        }
      ],
      "stateMutability": "view",
      "type": "function"
    },
    {
      "inputs": [
        {
          "internalType": "uint256",
          "name": "",
          "type": "uint256"
        }
      ],
      "name": "ERC721Listings",
      "outputs": [
        {
          "internalType": "uint256",
          "name": "id",
          "type": "uint256"
        },
        {
          "internalType": "uint256",
          "name": "price",
          "type": "uint256"
        },
        {
          "internalType": "address",
          "name": "vendor",
          "type": "address"
        },
        {
          "internalType": "address",
          "name": "product",
          "type": "address"
        },
        {
          "internalType": "address",
          "name": "currency",
          "type": "address"
        }
      ],
      "stateMutability": "view",
      "type": "function"
    },
    {
      "inputs": [],
      "name": "FEE_DENOMINATOR",
      "outputs": [
        {
          "internalType": "uint256",
          "name": "",
          "type": "uint256"
        }
      ],
      "stateMutability": "view",
      "type": "function"
    },
    {
      "inputs": [],
      "name": "FEE_NUMERATOR",
      "outputs": [
        {
          "internalType": "uint256",
          "name": "",
          "type": "uint256"
        }
      ],
      "stateMutability": "view",
      "type": "function"
    },
    {
      "inputs": [
        {
          "internalType": "uint256",
          "name": "listingId",
          "type": "uint256"
        },
        {
          "internalType": "address",
          "name": "bidder",
          "type": "address"
        },
        {
          "internalType": "uint256",
          "name": "index",
          "type": "uint256"
        },
        {
          "internalType": "uint256",
          "name": "quantity",
          "type": "uint256"
        },
        {
          "internalType": "uint256",
          "name": "payment",
          "type": "uint256"
        }
      ],
      "name": "acceptBid",
      "outputs": [],
      "stateMutability": "nonpayable",
      "type": "function"
    },
    {
      "inputs": [
        {
          "internalType": "uint256",
          "name": "listingId",
          "type": "uint256"
        },
        {
          "internalType": "uint256",
          "name": "quantity",
          "type": "uint256"
        },
        {
          "internalType": "uint256",
          "name": "payment",
          "type": "uint256"
        }
      ],
      "name": "bid",
      "outputs": [],
      "stateMutability": "nonpayable",
      "type": "function"
    },
    {
      "inputs": [
        {
          "internalType": "uint256",
          "name": "",
          "type": "uint256"
        },
        {
          "internalType": "address",
          "name": "",
          "type": "address"
        },
        {
          "internalType": "uint256",
          "name": "",
          "type": "uint256"
        }
      ],
      "name": "bids",
      "outputs": [
        {
          "internalType": "uint256",
          "name": "quantity",
          "type": "uint256"
        },
        {
          "internalType": "uint256",
          "name": "payment",
          "type": "uint256"
        }
      ],
      "stateMutability": "view",
      "type": "function"
    },
    {
      "inputs": [
        {
          "internalType": "uint256",
          "name": "listingId",
          "type": "uint256"
        },
        {
          "internalType": "uint256",
          "name": "amount",
          "type": "uint256"
        },
        {
          "internalType": "uint256",
          "name": "price",
          "type": "uint256"
        }
      ],
      "name": "buyERC20",
      "outputs": [],
      "stateMutability": "nonpayable",
      "type": "function"
    },
    {
      "inputs": [
        {
          "internalType": "uint256",
          "name": "listingId",
          "type": "uint256"
        },
        {
          "internalType": "uint256",
          "name": "price",
          "type": "uint256"
        }
      ],
      "name": "buyERC721",
      "outputs": [],
      "stateMutability": "nonpayable",
      "type": "function"
    },
    {
      "inputs": [
        {
          "internalType": "address",
          "name": "",
          "type": "address"
        }
      ],
      "name": "buyerApprovals",
      "outputs": [
        {
          "internalType": "bool",
          "name": "",
          "type": "bool"
        }
      ],
      "stateMutability": "view",
      "type": "function"
    },
    {
      "inputs": [
        {
          "internalType": "uint256",
          "name": "amount",
          "type": "uint256"
        },
        {
          "internalType": "uint256",
          "name": "listingId",
          "type": "uint256"
        }
      ],
      "name": "delistERC20",
      "outputs": [],
      "stateMutability": "nonpayable",
      "type": "function"
    },
    {
      "inputs": [
        {
          "internalType": "uint256",
          "name": "listingId",
          "type": "uint256"
        }
      ],
      "name": "delistERC721",
      "outputs": [],
      "stateMutability": "nonpayable",
      "type": "function"
    },
    {
      "inputs": [
        {
          "internalType": "uint256",
          "name": "amount",
          "type": "uint256"
        },
        {
          "internalType": "uint256",
          "name": "price",
          "type": "uint256"
        },
        {
          "internalType": "address",
          "name": "product",
          "type": "address"
        },
        {
          "internalType": "address",
          "name": "currency",
          "type": "address"
        }
      ],
      "name": "listERC20",
      "outputs": [
        {
          "internalType": "uint256",
          "name": "",
          "type": "uint256"
        }
      ],
      "stateMutability": "nonpayable",
      "type": "function"
    },
    {
      "inputs": [
        {
          "internalType": "uint256",
          "name": "id",
          "type": "uint256"
        },
        {
          "internalType": "uint256",
          "name": "price",
          "type": "uint256"
        },
        {
          "internalType": "address",
          "name": "product",
          "type": "address"
        },
        {
          "internalType": "address",
          "name": "currency",
          "type": "address"
        }
      ],
      "name": "listERC721",
      "outputs": [
        {
          "internalType": "uint256",
          "name": "",
          "type": "uint256"
        }
      ],
      "stateMutability": "nonpayable",
      "type": "function"
    },
    {
      "inputs": [],
      "name": "owner",
      "outputs": [
        {
          "internalType": "address",
          "name": "",
          "type": "address"
        }
      ],
      "stateMutability": "view",
      "type": "function"
    },
    {
      "inputs": [],
      "name": "renounceOwnership",
      "outputs": [],
      "stateMutability": "nonpayable",
      "type": "function"
    },
    {
      "inputs": [
        {
          "internalType": "address",
          "name": "",
          "type": "address"
        }
      ],
      "name": "sellerApprovals",
      "outputs": [
        {
          "internalType": "bool",
          "name": "",
          "type": "bool"
        }
      ],
      "stateMutability": "view",
      "type": "function"
    },
    {
      "inputs": [
        {
          "internalType": "bool",
          "name": "whitelisting",
          "type": "bool"
        }
      ],
      "name": "setBuyerWhitelisting",
      "outputs": [],
      "stateMutability": "nonpayable",
      "type": "function"
    },
    {
      "inputs": [
        {
          "internalType": "address[]",
          "name": "targets",
          "type": "address[]"
        },
        {
          "internalType": "bool[]",
          "name": "approvals",
          "type": "bool[]"
        }
      ],
      "name": "setBuyers",
      "outputs": [],
      "stateMutability": "nonpayable",
      "type": "function"
    },
    {
      "inputs": [
        {
          "internalType": "uint256",
          "name": "feeDenominator",
          "type": "uint256"
        }
      ],
      "name": "setFeeDenominator",
      "outputs": [],
      "stateMutability": "nonpayable",
      "type": "function"
    },
    {
      "inputs": [
        {
          "internalType": "uint256",
          "name": "feeNumerator",
          "type": "uint256"
        }
      ],
      "name": "setFeeNumerator",
      "outputs": [],
      "stateMutability": "nonpayable",
      "type": "function"
    },
    {
      "inputs": [
        {
          "internalType": "address[]",
          "name": "targets",
          "type": "address[]"
        },
        {
          "internalType": "bool[]",
          "name": "approvals",
          "type": "bool[]"
        }
      ],
      "name": "setSellers",
      "outputs": [],
      "stateMutability": "nonpayable",
      "type": "function"
    },
    {
      "inputs": [
        {
          "internalType": "address",
          "name": "newOwner",
          "type": "address"
        }
      ],
      "name": "transferOwnership",
      "outputs": [],
      "stateMutability": "nonpayable",
      "type": "function"
    },
    {
      "inputs": [
        {
          "internalType": "uint256",
          "name": "listingId",
          "type": "uint256"
        },
        {
          "internalType": "uint256",
          "name": "price",
          "type": "uint256"
        }
      ],
      "name": "updateERC20Price",
      "outputs": [],
      "stateMutability": "nonpayable",
      "type": "function"
    },
    {
      "inputs": [
        {
          "internalType": "uint256",
          "name": "listingId",
          "type": "uint256"
        },
        {
          "internalType": "uint256",
          "name": "price",
          "type": "uint256"
        }
      ],
      "name": "updateERC721Price",
      "outputs": [],
      "stateMutability": "nonpayable",
      "type": "function"
    },
    {
      "inputs": [
        {
          "internalType": "uint256",
          "name": "listingId",
          "type": "uint256"
        },
        {
          "internalType": "uint256",
          "name": "index",
          "type": "uint256"
        }
      ],
      "name": "withdrawBid",
      "outputs": [],
      "stateMutability": "nonpayable",
      "type": "function"
    }
  ],
  "bytecode": "0x60806040526000600860146101000a81548160ff0219169083151502179055503480156200002c57600080fd5b50604051620047a7380380620047a78339818101604052810190620000529190620001c4565b6200007262000066620000ca60201b60201c565b620000d260201b60201c565b826006819055508160078190555080600860006101000a81548173ffffffffffffffffffffffffffffffffffffffff021916908373ffffffffffffffffffffffffffffffffffffffff1602179055505050506200028c565b600033905090565b60008060009054906101000a900473ffffffffffffffffffffffffffffffffffffffff169050816000806101000a81548173ffffffffffffffffffffffffffffffffffffffff021916908373ffffffffffffffffffffffffffffffffffffffff1602179055508173ffffffffffffffffffffffffffffffffffffffff168173ffffffffffffffffffffffffffffffffffffffff167f8be0079c531659141344cd1fd0a4f28419497f9722a3daafe3b4186f6b6457e060405160405180910390a35050565b600081519050620001a78162000258565b92915050565b600081519050620001be8162000272565b92915050565b600080600060608486031215620001da57600080fd5b6000620001ea86828701620001ad565b9350506020620001fd86828701620001ad565b9250506040620002108682870162000196565b9150509250925092565b600062000227826200022e565b9050919050565b600073ffffffffffffffffffffffffffffffffffffffff82169050919050565b6000819050919050565b62000263816200021a565b81146200026f57600080fd5b50565b6200027d816200024e565b81146200028957600080fd5b50565b61450b806200029c6000396000f3fe608060405234801561001057600080fd5b506004361061018e5760003560e01c806397895f3a116100de578063d73792a911610097578063f2fde38b11610071578063f2fde38b14610458578063f626dab014610474578063fbcc0351146104a8578063ffda0a0b146104d85761018e565b8063d73792a914610402578063d73d55a314610420578063efe5b8711461043c5761018e565b806397895f3a14610346578063a45db91114610376578063a573566214610392578063aebfa635146103ae578063c1ab2a4f146103ca578063cb36639b146103e65761018e565b80634a0676b81161014b5780638449e22c116101255780638449e22c146102bf5780638a30104a146102db5780638da5cb5b146102f757806394fccfb2146103155761018e565b80634a0676b81461026957806366c7f8e514610285578063715018a6146102b55761018e565b806302fa11bd14610193578063151a4791146101c75780632ac9bf09146101f75780632b2d04601461021357806341cd47bf1461022f57806346b504781461024d575b600080fd5b6101ad60048036038101906101a89190613601565b6104f4565b6040516101be959493929190613e69565b60405180910390f35b6101e160048036038101906101dc919061372c565b61058a565b6040516101ee9190613dfc565b60405180910390f35b610211600480360381019061020c919061378f565b610896565b005b61022d6004803603810190610228919061353a565b610b38565b005b610237610d0a565b6040516102449190613dfc565b60405180910390f35b610267600480360381019061026291906136f0565b610d10565b005b610283600480360381019061027e91906135af565b610e0b565b005b61029f600480360381019061029a919061372c565b610ea4565b6040516102ac9190613dfc565b60405180910390f35b6102bd6111f4565b005b6102d960048036038101906102d49190613679565b61127c565b005b6102f560048036038101906102f09190613601565b611801565b005b6102ff611887565b60405161030c9190613afd565b60405180910390f35b61032f600480360381019061032a919061362a565b6118b0565b60405161033d929190613e40565b60405180910390f35b610360600480360381019061035b9190613511565b6118fe565b60405161036d9190613c21565b60405180910390f35b610390600480360381019061038b9190613601565b61191e565b005b6103ac60048036038101906103a791906136f0565b6119a4565b005b6103c860048036038101906103c3919061353a565b611bdf565b005b6103e460048036038101906103df9190613601565b611db1565b005b61040060048036038101906103fb919061378f565b6120b2565b005b61040a612602565b6040516104179190613dfc565b60405180910390f35b61043a600480360381019061043591906136f0565b612608565b005b610456600480360381019061045191906136f0565b6129ab565b005b610472600480360381019061046d9190613511565b612e5e565b005b61048e60048036038101906104899190613601565b612f56565b60405161049f959493929190613e69565b60405180910390f35b6104c260048036038101906104bd9190613511565b612fec565b6040516104cf9190613c21565b60405180910390f35b6104f260048036038101906104ed91906136f0565b61300c565b005b60036020528060005260406000206000915090508060000154908060010154908060020160009054906101000a900473ffffffffffffffffffffffffffffffffffffffff16908060030160009054906101000a900473ffffffffffffffffffffffffffffffffffffffff16908060040160009054906101000a900473ffffffffffffffffffffffffffffffffffffffff16905085565b6000600160003373ffffffffffffffffffffffffffffffffffffffff1673ffffffffffffffffffffffffffffffffffffffff16815260200190815260200160002060009054906101000a900460ff16610618576040517f08c379a000000000000000000000000000000000000000000000000000000000815260040161060f90613cdc565b60405180910390fd5b8273ffffffffffffffffffffffffffffffffffffffff166323b872dd3330886040518463ffffffff1660e01b815260040161065593929190613b4f565b600060405180830381600087803b15801561066f57600080fd5b505af1158015610683573d6000803e3d6000fd5b505050506000858460405160200161069c929190613e17565b6040516020818303038152906040528051906020012060001c90506040518060a001604052808781526020018681526020013373ffffffffffffffffffffffffffffffffffffffff1681526020018573ffffffffffffffffffffffffffffffffffffffff1681526020018473ffffffffffffffffffffffffffffffffffffffff1681525060046000838152602001908152602001600020600082015181600001556020820151816001015560408201518160020160006101000a81548173ffffffffffffffffffffffffffffffffffffffff021916908373ffffffffffffffffffffffffffffffffffffffff16021790555060608201518160030160006101000a81548173ffffffffffffffffffffffffffffffffffffffff021916908373ffffffffffffffffffffffffffffffffffffffff16021790555060808201518160040160006101000a81548173ffffffffffffffffffffffffffffffffffffffff021916908373ffffffffffffffffffffffffffffffffffffffff1602179055509050508373ffffffffffffffffffffffffffffffffffffffff163373ffffffffffffffffffffffffffffffffffffffff167f96121474b4be0e5edfa0cf9721fe3e06611dc0048f4ec160f3f4aa1c5ca3ec41888887866040516108829493929190613ebc565b60405180910390a380915050949350505050565b600860149054906101000a900460ff161561093857600260003373ffffffffffffffffffffffffffffffffffffffff1673ffffffffffffffffffffffffffffffffffffffff16815260200190815260200160002060009054906101000a900460ff16610937576040517f08c379a000000000000000000000000000000000000000000000000000000000815260040161092e90613d3c565b60405180910390fd5b5b6005600084815260200190815260200160002060003373ffffffffffffffffffffffffffffffffffffffff1673ffffffffffffffffffffffffffffffffffffffff1681526020019081526020016000206040518060400160405280848152602001838152509080600181540180825580915050600190039060005260206000209060020201600090919091909150600082015181600001556020820151816001015550506003600084815260200190815260200160002060040160009054906101000a900473ffffffffffffffffffffffffffffffffffffffff1673ffffffffffffffffffffffffffffffffffffffff166323b872dd3330846040518463ffffffff1660e01b8152600401610a4f93929190613b4f565b602060405180830381600087803b158015610a6957600080fd5b505af1158015610a7d573d6000803e3d6000fd5b505050506040513d601f19601f82011682018060405250810190610aa191906135d8565b50827f0596870c910fd22e7d7060a9123ea11d885af76b24003b78da44bf03a5d0eceb8383336005600089815260200190815260200160002060003373ffffffffffffffffffffffffffffffffffffffff1673ffffffffffffffffffffffffffffffffffffffff16815260200190815260200160002080549050604051610b2b9493929190613ebc565b60405180910390a2505050565b610b40613107565b73ffffffffffffffffffffffffffffffffffffffff16610b5e611887565b73ffffffffffffffffffffffffffffffffffffffff1614610bb4576040517f08c379a0000000000000000000000000000000000000000000000000000000008152600401610bab90613d5c565b60405180910390fd5b60005b84849050811015610cc657828282818110610bfb577f4e487b7100000000000000000000000000000000000000000000000000000000600052603260045260246000fd5b9050602002016020810190610c1091906135af565b60016000878785818110610c4d577f4e487b7100000000000000000000000000000000000000000000000000000000600052603260045260246000fd5b9050602002016020810190610c629190613511565b73ffffffffffffffffffffffffffffffffffffffff1673ffffffffffffffffffffffffffffffffffffffff16815260200190815260200160002060006101000a81548160ff0219169083151502179055508080610cbe906140ed565b915050610bb7565b507ff8968ccea9d37f57961cb846533d8ad46273e280f5e1fe6cb35e197042a4552684848484604051610cfc9493929190613be6565b60405180910390a150505050565b60065481565b6003600083815260200190815260200160002060020160009054906101000a900473ffffffffffffffffffffffffffffffffffffffff1673ffffffffffffffffffffffffffffffffffffffff163373ffffffffffffffffffffffffffffffffffffffff1614610db4576040517f08c379a0000000000000000000000000000000000000000000000000000000008152600401610dab90613c3c565b60405180910390fd5b806003600084815260200190815260200160002060010181905550817f0c10fcb347de8233b8667606a02ded2d944fbaee61ee897cc162592e8818bb4e82604051610dff9190613dfc565b60405180910390a25050565b610e13613107565b73ffffffffffffffffffffffffffffffffffffffff16610e31611887565b73ffffffffffffffffffffffffffffffffffffffff1614610e87576040517f08c379a0000000000000000000000000000000000000000000000000000000008152600401610e7e90613d5c565b60405180910390fd5b80600860146101000a81548160ff02191690831515021790555050565b6000600160003373ffffffffffffffffffffffffffffffffffffffff1673ffffffffffffffffffffffffffffffffffffffff16815260200190815260200160002060009054906101000a900460ff16610f32576040517f08c379a0000000000000000000000000000000000000000000000000000000008152600401610f2990613cdc565b60405180910390fd5b8273ffffffffffffffffffffffffffffffffffffffff166323b872dd3330886040518463ffffffff1660e01b8152600401610f6f93929190613b4f565b602060405180830381600087803b158015610f8957600080fd5b505af1158015610f9d573d6000803e3d6000fd5b505050506040513d601f19601f82011682018060405250810190610fc191906135d8565b506000338484604051602001610fd993929190613b18565b6040516020818303038152906040528051906020012060001c90506040518060a001604052806003600084815260200190815260200160002060000154886110219190613f90565b81526020018681526020013373ffffffffffffffffffffffffffffffffffffffff1681526020018573ffffffffffffffffffffffffffffffffffffffff1681526020018473ffffffffffffffffffffffffffffffffffffffff1681525060036000838152602001908152602001600020600082015181600001556020820151816001015560408201518160020160006101000a81548173ffffffffffffffffffffffffffffffffffffffff021916908373ffffffffffffffffffffffffffffffffffffffff16021790555060608201518160030160006101000a81548173ffffffffffffffffffffffffffffffffffffffff021916908373ffffffffffffffffffffffffffffffffffffffff16021790555060808201518160040160006101000a81548173ffffffffffffffffffffffffffffffffffffffff021916908373ffffffffffffffffffffffffffffffffffffffff1602179055509050508373ffffffffffffffffffffffffffffffffffffffff163373ffffffffffffffffffffffffffffffffffffffff167f4dac2e5e670f156eb092f4d2b4bd3db441153ea88b602e360195f855f144c6d7888887866040516111e09493929190613ebc565b60405180910390a380915050949350505050565b6111fc613107565b73ffffffffffffffffffffffffffffffffffffffff1661121a611887565b73ffffffffffffffffffffffffffffffffffffffff1614611270576040517f08c379a000000000000000000000000000000000000000000000000000000000815260040161126790613d5c565b60405180910390fd5b61127a600061310f565b565b6003600086815260200190815260200160002060020160009054906101000a900473ffffffffffffffffffffffffffffffffffffffff1673ffffffffffffffffffffffffffffffffffffffff163373ffffffffffffffffffffffffffffffffffffffff1614611320576040517f08c379a000000000000000000000000000000000000000000000000000000000815260040161131790613d9c565b60405180910390fd5b8160036000878152602001908152602001600020600001541015611379576040517f08c379a000000000000000000000000000000000000000000000000000000000815260040161137090613d7c565b60405180910390fd5b826005600087815260200190815260200160002060008673ffffffffffffffffffffffffffffffffffffffff1673ffffffffffffffffffffffffffffffffffffffff168152602001908152602001600020805490501161140e576040517f08c379a000000000000000000000000000000000000000000000000000000000815260040161140590613c9c565b60405180910390fd5b60006005600087815260200190815260200160002060008673ffffffffffffffffffffffffffffffffffffffff1673ffffffffffffffffffffffffffffffffffffffff1681526020019081526020016000208481548110611498577f4e487b7100000000000000000000000000000000000000000000000000000000600052603260045260246000fd5b90600052602060002090600202016040518060400160405290816000820154815260200160018201548152505090508281600001511480156114dd5750818160200151145b61151c576040517f08c379a000000000000000000000000000000000000000000000000000000000815260040161151390613cbc565b60405180910390fd5b60006007546006548461152f9190614017565b6115399190613fe6565b905060006003600089815260200190815260200160002060040160009054906101000a900473ffffffffffffffffffffffffffffffffffffffff1690508073ffffffffffffffffffffffffffffffffffffffff1663a9059cbb33848761159f9190614071565b6040518363ffffffff1660e01b81526004016115bc929190613b86565b602060405180830381600087803b1580156115d657600080fd5b505af11580156115ea573d6000803e3d6000fd5b505050506040513d601f19601f8201168201806040525081019061160e91906135d8565b508073ffffffffffffffffffffffffffffffffffffffff1663a9059cbb600860009054906101000a900473ffffffffffffffffffffffffffffffffffffffff16846040518363ffffffff1660e01b815260040161166c929190613b86565b602060405180830381600087803b15801561168657600080fd5b505af115801561169a573d6000803e3d6000fd5b505050506040513d601f19601f820116820180604052508101906116be91906135d8565b506003600089815260200190815260200160002060030160009054906101000a900473ffffffffffffffffffffffffffffffffffffffff1673ffffffffffffffffffffffffffffffffffffffff1663a9059cbb88876040518363ffffffff1660e01b8152600401611730929190613b86565b602060405180830381600087803b15801561174a57600080fd5b505af115801561175e573d6000803e3d6000fd5b505050506040513d601f19601f8201168201806040525081019061178291906135d8565b5084600360008a815260200190815260200160002060000160008282546117a99190614071565b925050819055506117bb8888886131d3565b877fc010663b4671fbc59fd233abd280de5ff0f2f9c20931f3b0e289169d084daeb28887876040516117ef93929190613baf565b60405180910390a25050505050505050565b611809613107565b73ffffffffffffffffffffffffffffffffffffffff16611827611887565b73ffffffffffffffffffffffffffffffffffffffff161461187d576040517f08c379a000000000000000000000000000000000000000000000000000000000815260040161187490613d5c565b60405180910390fd5b8060078190555050565b60008060009054906101000a900473ffffffffffffffffffffffffffffffffffffffff16905090565b600560205282600052604060002060205281600052604060002081815481106118d857600080fd5b906000526020600020906002020160009250925050508060000154908060010154905082565b60026020528060005260406000206000915054906101000a900460ff1681565b611926613107565b73ffffffffffffffffffffffffffffffffffffffff16611944611887565b73ffffffffffffffffffffffffffffffffffffffff161461199a576040517f08c379a000000000000000000000000000000000000000000000000000000000815260040161199190613d5c565b60405180910390fd5b8060068190555050565b806005600084815260200190815260200160002060003373ffffffffffffffffffffffffffffffffffffffff1673ffffffffffffffffffffffffffffffffffffffff1681526020019081526020016000208054905011611a39576040517f08c379a0000000000000000000000000000000000000000000000000000000008152600401611a3090613c9c565b60405180910390fd5b6003600083815260200190815260200160002060040160009054906101000a900473ffffffffffffffffffffffffffffffffffffffff1673ffffffffffffffffffffffffffffffffffffffff1663a9059cbb336005600086815260200190815260200160002060003373ffffffffffffffffffffffffffffffffffffffff1673ffffffffffffffffffffffffffffffffffffffff1681526020019081526020016000208481548110611b14577f4e487b7100000000000000000000000000000000000000000000000000000000600052603260045260246000fd5b9060005260206000209060020201600101546040518363ffffffff1660e01b8152600401611b43929190613b86565b602060405180830381600087803b158015611b5d57600080fd5b505af1158015611b71573d6000803e3d6000fd5b505050506040513d601f19601f82011682018060405250810190611b9591906135d8565b50611ba18233836131d3565b817f8f8619524e8d462cead34604bd2247ede24175801481e4d0b8059ac8aa41c3013383604051611bd3929190613b86565b60405180910390a25050565b611be7613107565b73ffffffffffffffffffffffffffffffffffffffff16611c05611887565b73ffffffffffffffffffffffffffffffffffffffff1614611c5b576040517f08c379a0000000000000000000000000000000000000000000000000000000008152600401611c5290613d5c565b60405180910390fd5b60005b84849050811015611d6d57828282818110611ca2577f4e487b7100000000000000000000000000000000000000000000000000000000600052603260045260246000fd5b9050602002016020810190611cb791906135af565b60026000878785818110611cf4577f4e487b7100000000000000000000000000000000000000000000000000000000600052603260045260246000fd5b9050602002016020810190611d099190613511565b73ffffffffffffffffffffffffffffffffffffffff1673ffffffffffffffffffffffffffffffffffffffff16815260200190815260200160002060006101000a81548160ff0219169083151502179055508080611d65906140ed565b915050611c5e565b507f74d6afa071dabba89982442b41cf8e104f04e65fd81dee8a5313967c957c55f784848484604051611da39493929190613be6565b60405180910390a150505050565b6000600460008381526020019081526020016000206040518060a001604052908160008201548152602001600182015481526020016002820160009054906101000a900473ffffffffffffffffffffffffffffffffffffffff1673ffffffffffffffffffffffffffffffffffffffff1673ffffffffffffffffffffffffffffffffffffffff1681526020016003820160009054906101000a900473ffffffffffffffffffffffffffffffffffffffff1673ffffffffffffffffffffffffffffffffffffffff1673ffffffffffffffffffffffffffffffffffffffff1681526020016004820160009054906101000a900473ffffffffffffffffffffffffffffffffffffffff1673ffffffffffffffffffffffffffffffffffffffff1673ffffffffffffffffffffffffffffffffffffffff168152505090503373ffffffffffffffffffffffffffffffffffffffff16816040015173ffffffffffffffffffffffffffffffffffffffff161480611f5957503373ffffffffffffffffffffffffffffffffffffffff16611f41611887565b73ffffffffffffffffffffffffffffffffffffffff16145b611f98576040517f08c379a0000000000000000000000000000000000000000000000000000000008152600401611f8f90613dbc565b60405180910390fd5b806060015173ffffffffffffffffffffffffffffffffffffffff166323b872dd30836040015184600001516040518463ffffffff1660e01b8152600401611fe193929190613b4f565b600060405180830381600087803b158015611ffb57600080fd5b505af115801561200f573d6000803e3d6000fd5b505050506004600083815260200190815260200160002060008082016000905560018201600090556002820160006101000a81549073ffffffffffffffffffffffffffffffffffffffff02191690556003820160006101000a81549073ffffffffffffffffffffffffffffffffffffffff02191690556004820160006101000a81549073ffffffffffffffffffffffffffffffffffffffff021916905550505050565b600860149054906101000a900460ff161561215457600260003373ffffffffffffffffffffffffffffffffffffffff1673ffffffffffffffffffffffffffffffffffffffff16815260200190815260200160002060009054906101000a900460ff16612153576040517f08c379a000000000000000000000000000000000000000000000000000000000815260040161214a90613d3c565b60405180910390fd5b5b6000600360008581526020019081526020016000206040518060a001604052908160008201548152602001600182015481526020016002820160009054906101000a900473ffffffffffffffffffffffffffffffffffffffff1673ffffffffffffffffffffffffffffffffffffffff1673ffffffffffffffffffffffffffffffffffffffff1681526020016003820160009054906101000a900473ffffffffffffffffffffffffffffffffffffffff1673ffffffffffffffffffffffffffffffffffffffff1673ffffffffffffffffffffffffffffffffffffffff1681526020016004820160009054906101000a900473ffffffffffffffffffffffffffffffffffffffff1673ffffffffffffffffffffffffffffffffffffffff1673ffffffffffffffffffffffffffffffffffffffff16815250509050600073ffffffffffffffffffffffffffffffffffffffff16816080015173ffffffffffffffffffffffffffffffffffffffff161415612300576040517f08c379a00000000000000000000000000000000000000000000000000000000081526004016122f790613ddc565b60405180910390fd5b81816020015114612346576040517f08c379a000000000000000000000000000000000000000000000000000000000815260040161233d90613c7c565b60405180910390fd5b60008160200151846123589190614017565b905060006007546006548361236d9190614017565b6123779190613fe6565b9050826080015173ffffffffffffffffffffffffffffffffffffffff166323b872dd338560400151856040518463ffffffff1660e01b81526004016123be93929190613b4f565b602060405180830381600087803b1580156123d857600080fd5b505af11580156123ec573d6000803e3d6000fd5b505050506040513d601f19601f8201168201806040525081019061241091906135d8565b50826080015173ffffffffffffffffffffffffffffffffffffffff166323b872dd33600860009054906101000a900473ffffffffffffffffffffffffffffffffffffffff16846040518463ffffffff1660e01b815260040161247493929190613b4f565b602060405180830381600087803b15801561248e57600080fd5b505af11580156124a2573d6000803e3d6000fd5b505050506040513d601f19601f820116820180604052508101906124c691906135d8565b50848360000151101561250e576040517f08c379a000000000000000000000000000000000000000000000000000000000815260040161250590613cfc565b60405180910390fd5b826060015173ffffffffffffffffffffffffffffffffffffffff1663a9059cbb33876040518363ffffffff1660e01b815260040161254d929190613b86565b602060405180830381600087803b15801561256757600080fd5b505af115801561257b573d6000803e3d6000fd5b505050506040513d601f19601f8201168201806040525081019061259f91906135d8565b50846003600088815260200190815260200160002060000160008282546125c69190614071565b92505081905550857fc0a8d68d4d1f533ef6cdb7a49068cbe04356682803cb7983c4ba33ce99100efd60405160405180910390a2505050505050565b60075481565b6000600360008381526020019081526020016000206040518060a001604052908160008201548152602001600182015481526020016002820160009054906101000a900473ffffffffffffffffffffffffffffffffffffffff1673ffffffffffffffffffffffffffffffffffffffff1673ffffffffffffffffffffffffffffffffffffffff1681526020016003820160009054906101000a900473ffffffffffffffffffffffffffffffffffffffff1673ffffffffffffffffffffffffffffffffffffffff1673ffffffffffffffffffffffffffffffffffffffff1681526020016004820160009054906101000a900473ffffffffffffffffffffffffffffffffffffffff1673ffffffffffffffffffffffffffffffffffffffff1673ffffffffffffffffffffffffffffffffffffffff168152505090503373ffffffffffffffffffffffffffffffffffffffff16816040015173ffffffffffffffffffffffffffffffffffffffff1614806127b057503373ffffffffffffffffffffffffffffffffffffffff16612798611887565b73ffffffffffffffffffffffffffffffffffffffff16145b6127ef576040517f08c379a00000000000000000000000000000000000000000000000000000000081526004016127e690613dbc565b60405180910390fd5b8281600001511015612836576040517f08c379a000000000000000000000000000000000000000000000000000000000815260040161282d90613d1c565b60405180910390fd5b806060015173ffffffffffffffffffffffffffffffffffffffff1663a9059cbb8260400151856040518363ffffffff1660e01b8152600401612879929190613b86565b602060405180830381600087803b15801561289357600080fd5b505af11580156128a7573d6000803e3d6000fd5b505050506040513d601f19601f820116820180604052508101906128cb91906135d8565b508281600001511415612978576003600083815260200190815260200160002060008082016000905560018201600090556002820160006101000a81549073ffffffffffffffffffffffffffffffffffffffff02191690556003820160006101000a81549073ffffffffffffffffffffffffffffffffffffffff02191690556004820160006101000a81549073ffffffffffffffffffffffffffffffffffffffff021916905550506129a6565b8260036000848152602001908152602001600020600001600082825461299e9190614071565b925050819055505b505050565b600860149054906101000a900460ff1615612a4d57600260003373ffffffffffffffffffffffffffffffffffffffff1673ffffffffffffffffffffffffffffffffffffffff16815260200190815260200160002060009054906101000a900460ff16612a4c576040517f08c379a0000000000000000000000000000000000000000000000000000000008152600401612a4390613d3c565b60405180910390fd5b5b6000600460008481526020019081526020016000206040518060a001604052908160008201548152602001600182015481526020016002820160009054906101000a900473ffffffffffffffffffffffffffffffffffffffff1673ffffffffffffffffffffffffffffffffffffffff1673ffffffffffffffffffffffffffffffffffffffff1681526020016003820160009054906101000a900473ffffffffffffffffffffffffffffffffffffffff1673ffffffffffffffffffffffffffffffffffffffff1673ffffffffffffffffffffffffffffffffffffffff1681526020016004820160009054906101000a900473ffffffffffffffffffffffffffffffffffffffff1673ffffffffffffffffffffffffffffffffffffffff1673ffffffffffffffffffffffffffffffffffffffff16815250509050600073ffffffffffffffffffffffffffffffffffffffff16816080015173ffffffffffffffffffffffffffffffffffffffff161415612bf9576040517f08c379a0000000000000000000000000000000000000000000000000000000008152600401612bf090613ddc565b60405180910390fd5b81816020015114612c3f576040517f08c379a0000000000000000000000000000000000000000000000000000000008152600401612c3690613c7c565b60405180910390fd5b60006007546006548360200151612c569190614017565b612c609190613fe6565b9050816080015173ffffffffffffffffffffffffffffffffffffffff166323b872dd33846040015185602001516040518463ffffffff1660e01b8152600401612cab93929190613b4f565b602060405180830381600087803b158015612cc557600080fd5b505af1158015612cd9573d6000803e3d6000fd5b505050506040513d601f19601f82011682018060405250810190612cfd91906135d8565b50816080015173ffffffffffffffffffffffffffffffffffffffff166323b872dd33600860009054906101000a900473ffffffffffffffffffffffffffffffffffffffff16846040518463ffffffff1660e01b8152600401612d6193929190613b4f565b602060405180830381600087803b158015612d7b57600080fd5b505af1158015612d8f573d6000803e3d6000fd5b505050506040513d601f19601f82011682018060405250810190612db391906135d8565b50816060015173ffffffffffffffffffffffffffffffffffffffff166323b872dd303385600001516040518463ffffffff1660e01b8152600401612df993929190613b4f565b600060405180830381600087803b158015612e1357600080fd5b505af1158015612e27573d6000803e3d6000fd5b50505050837fc0a8d68d4d1f533ef6cdb7a49068cbe04356682803cb7983c4ba33ce99100efd60405160405180910390a250505050565b612e66613107565b73ffffffffffffffffffffffffffffffffffffffff16612e84611887565b73ffffffffffffffffffffffffffffffffffffffff1614612eda576040517f08c379a0000000000000000000000000000000000000000000000000000000008152600401612ed190613d5c565b60405180910390fd5b600073ffffffffffffffffffffffffffffffffffffffff168173ffffffffffffffffffffffffffffffffffffffff161415612f4a576040517f08c379a0000000000000000000000000000000000000000000000000000000008152600401612f4190613c5c565b60405180910390fd5b612f538161310f565b50565b60046020528060005260406000206000915090508060000154908060010154908060020160009054906101000a900473ffffffffffffffffffffffffffffffffffffffff16908060030160009054906101000a900473ffffffffffffffffffffffffffffffffffffffff16908060040160009054906101000a900473ffffffffffffffffffffffffffffffffffffffff16905085565b60016020528060005260406000206000915054906101000a900460ff1681565b6004600083815260200190815260200160002060020160009054906101000a900473ffffffffffffffffffffffffffffffffffffffff1673ffffffffffffffffffffffffffffffffffffffff163373ffffffffffffffffffffffffffffffffffffffff16146130b0576040517f08c379a00000000000000000000000000000000000000000000000000000000081526004016130a790613c3c565b60405180910390fd5b806004600084815260200190815260200160002060010181905550817fe3624e8e4405cdd4a62e7ee25f4fe0a96c5cf2b802ad1f6f59ec2370bb32f1fc826040516130fb9190613dfc565b60405180910390a25050565b600033905090565b60008060009054906101000a900473ffffffffffffffffffffffffffffffffffffffff169050816000806101000a81548173ffffffffffffffffffffffffffffffffffffffff021916908373ffffffffffffffffffffffffffffffffffffffff1602179055508173ffffffffffffffffffffffffffffffffffffffff168173ffffffffffffffffffffffffffffffffffffffff167f8be0079c531659141344cd1fd0a4f28419497f9722a3daafe3b4186f6b6457e060405160405180910390a35050565b6005600084815260200190815260200160002060008373ffffffffffffffffffffffffffffffffffffffff1673ffffffffffffffffffffffffffffffffffffffff16815260200190815260200160002060016005600086815260200190815260200160002060008573ffffffffffffffffffffffffffffffffffffffff1673ffffffffffffffffffffffffffffffffffffffff168152602001908152602001600020805490506132839190614071565b815481106132ba577f4e487b7100000000000000000000000000000000000000000000000000000000600052603260045260246000fd5b90600052602060002090600202016005600085815260200190815260200160002060008473ffffffffffffffffffffffffffffffffffffffff1673ffffffffffffffffffffffffffffffffffffffff1681526020019081526020016000208281548110613350577f4e487b7100000000000000000000000000000000000000000000000000000000600052603260045260246000fd5b906000526020600020906002020160008201548160000155600182015481600101559050506005600084815260200190815260200160002060008373ffffffffffffffffffffffffffffffffffffffff1673ffffffffffffffffffffffffffffffffffffffff1681526020019081526020016000208054806133fb577f4e487b7100000000000000000000000000000000000000000000000000000000600052603160045260246000fd5b6001900381819060005260206000209060020201600080820160009055600182016000905550509055505050565b60008135905061343881614490565b92915050565b60008083601f84011261345057600080fd5b8235905067ffffffffffffffff81111561346957600080fd5b60208301915083602082028301111561348157600080fd5b9250929050565b60008083601f84011261349a57600080fd5b8235905067ffffffffffffffff8111156134b357600080fd5b6020830191508360208202830111156134cb57600080fd5b9250929050565b6000813590506134e1816144a7565b92915050565b6000815190506134f6816144a7565b92915050565b60008135905061350b816144be565b92915050565b60006020828403121561352357600080fd5b600061353184828501613429565b91505092915050565b6000806000806040858703121561355057600080fd5b600085013567ffffffffffffffff81111561356a57600080fd5b6135768782880161343e565b9450945050602085013567ffffffffffffffff81111561359557600080fd5b6135a187828801613488565b925092505092959194509250565b6000602082840312156135c157600080fd5b60006135cf848285016134d2565b91505092915050565b6000602082840312156135ea57600080fd5b60006135f8848285016134e7565b91505092915050565b60006020828403121561361357600080fd5b6000613621848285016134fc565b91505092915050565b60008060006060848603121561363f57600080fd5b600061364d868287016134fc565b935050602061365e86828701613429565b925050604061366f868287016134fc565b9150509250925092565b600080600080600060a0868803121561369157600080fd5b600061369f888289016134fc565b95505060206136b088828901613429565b94505060406136c1888289016134fc565b93505060606136d2888289016134fc565b92505060806136e3888289016134fc565b9150509295509295909350565b6000806040838503121561370357600080fd5b6000613711858286016134fc565b9250506020613722858286016134fc565b9150509250929050565b6000806000806080858703121561374257600080fd5b6000613750878288016134fc565b9450506020613761878288016134fc565b935050604061377287828801613429565b925050606061378387828801613429565b91505092959194509250565b6000806000606084860312156137a457600080fd5b60006137b2868287016134fc565b93505060206137c3868287016134fc565b92505060406137d4868287016134fc565b9150509250925092565b60006137ea838361380e565b60208301905092915050565b600061380283836138e6565b60208301905092915050565b613817816140a5565b82525050565b613826816140a5565b82525050565b60006138388385613f2f565b935061384382613f01565b8060005b8581101561387c576138598284613f62565b61386388826137de565b975061386e83613f15565b925050600181019050613847565b5085925050509392505050565b60006138958385613f40565b93506138a082613f0b565b8060005b858110156138d9576138b68284613f79565b6138c088826137f6565b97506138cb83613f22565b9250506001810190506138a4565b5085925050509392505050565b6138ef816140b7565b82525050565b6138fe816140b7565b82525050565b6000613911601c83613f51565b915061391c82614194565b602082019050919050565b6000613934602683613f51565b915061393f826141bd565b604082019050919050565b6000613957602383613f51565b91506139628261420c565b604082019050919050565b600061397a601583613f51565b91506139858261425b565b602082019050919050565b600061399d603983613f51565b91506139a882614284565b604082019050919050565b60006139c0601583613f51565b91506139cb826142d3565b602082019050919050565b60006139e3601a83613f51565b91506139ee826142fc565b602082019050919050565b6000613a06601a83613f51565b9150613a1182614325565b602082019050919050565b6000613a29601483613f51565b9150613a348261434e565b602082019050919050565b6000613a4c602083613f51565b9150613a5782614377565b602082019050919050565b6000613a6f602983613f51565b9150613a7a826143a0565b604082019050919050565b6000613a92601a83613f51565b9150613a9d826143ef565b602082019050919050565b6000613ab5602b83613f51565b9150613ac082614418565b604082019050919050565b6000613ad8601d83613f51565b9150613ae382614467565b602082019050919050565b613af7816140e3565b82525050565b6000602082019050613b12600083018461381d565b92915050565b6000606082019050613b2d600083018661381d565b613b3a602083018561381d565b613b47604083018461381d565b949350505050565b6000606082019050613b64600083018661381d565b613b71602083018561381d565b613b7e6040830184613aee565b949350505050565b6000604082019050613b9b600083018561381d565b613ba86020830184613aee565b9392505050565b6000606082019050613bc4600083018661381d565b613bd16020830185613aee565b613bde6040830184613aee565b949350505050565b60006040820190508181036000830152613c0181868861382c565b90508181036020830152613c16818486613889565b905095945050505050565b6000602082019050613c3660008301846138f5565b92915050565b60006020820190508181036000830152613c5581613904565b9050919050565b60006020820190508181036000830152613c7581613927565b9050919050565b60006020820190508181036000830152613c958161394a565b9050919050565b60006020820190508181036000830152613cb58161396d565b9050919050565b60006020820190508181036000830152613cd581613990565b9050919050565b60006020820190508181036000830152613cf5816139b3565b9050919050565b60006020820190508181036000830152613d15816139d6565b9050919050565b60006020820190508181036000830152613d35816139f9565b9050919050565b60006020820190508181036000830152613d5581613a1c565b9050919050565b60006020820190508181036000830152613d7581613a3f565b9050919050565b60006020820190508181036000830152613d9581613a62565b9050919050565b60006020820190508181036000830152613db581613a85565b9050919050565b60006020820190508181036000830152613dd581613aa8565b9050919050565b60006020820190508181036000830152613df581613acb565b9050919050565b6000602082019050613e116000830184613aee565b92915050565b6000604082019050613e2c6000830185613aee565b613e39602083018461381d565b9392505050565b6000604082019050613e556000830185613aee565b613e626020830184613aee565b9392505050565b600060a082019050613e7e6000830188613aee565b613e8b6020830187613aee565b613e98604083018661381d565b613ea5606083018561381d565b613eb2608083018461381d565b9695505050505050565b6000608082019050613ed16000830187613aee565b613ede6020830186613aee565b613eeb604083018561381d565b613ef86060830184613aee565b95945050505050565b6000819050919050565b6000819050919050565b6000602082019050919050565b6000602082019050919050565b600082825260208201905092915050565b600082825260208201905092915050565b600082825260208201905092915050565b6000613f716020840184613429565b905092915050565b6000613f8860208401846134d2565b905092915050565b6000613f9b826140e3565b9150613fa6836140e3565b9250827fffffffffffffffffffffffffffffffffffffffffffffffffffffffffffffffff03821115613fdb57613fda614136565b5b828201905092915050565b6000613ff1826140e3565b9150613ffc836140e3565b92508261400c5761400b614165565b5b828204905092915050565b6000614022826140e3565b915061402d836140e3565b9250817fffffffffffffffffffffffffffffffffffffffffffffffffffffffffffffffff048311821515161561406657614065614136565b5b828202905092915050565b600061407c826140e3565b9150614087836140e3565b92508282101561409a57614099614136565b5b828203905092915050565b60006140b0826140c3565b9050919050565b60008115159050919050565b600073ffffffffffffffffffffffffffffffffffffffff82169050919050565b6000819050919050565b60006140f8826140e3565b91507fffffffffffffffffffffffffffffffffffffffffffffffffffffffffffffffff82141561412b5761412a614136565b5b600182019050919050565b7f4e487b7100000000000000000000000000000000000000000000000000000000600052601160045260246000fd5b7f4e487b7100000000000000000000000000000000000000000000000000000000600052601260045260246000fd5b7f4f6e6c792076656e646f722063616e2075706461746520707269636500000000600082015250565b7f4f776e61626c653a206e6577206f776e657220697320746865207a65726f206160008201527f6464726573730000000000000000000000000000000000000000000000000000602082015250565b7f43616e6e6f74206d616b6520707572636861736520617420696e70757420707260008201527f6963650000000000000000000000000000000000000000000000000000000000602082015250565b7f4e6f2062696420617420696e70757420696e6465780000000000000000000000600082015250565b7f42696420617420696e70757420696e64657820646f6573206e6f74206861766560008201527f20696e707574207175616e7469747920616e6420707269636500000000000000602082015250565b7f417070726f7665642073656c6c657273206f6e6c790000000000000000000000600082015250565b7f496e73756666696369656e74206c697374656420746f6b656e73000000000000600082015250565b7f496e73756666696369656e7420746f6b656e73206c6973746564000000000000600082015250565b7f417070726f76656420627579657273206f6e6c79000000000000000000000000600082015250565b7f4f776e61626c653a2063616c6c6572206973206e6f7420746865206f776e6572600082015250565b7f496e73756666696369656e7420746f6b656e73206c697374656420746f20667560008201527f6c66696c6c206269640000000000000000000000000000000000000000000000602082015250565b7f4f6e6c792076656e646f722063616e2061636365707420626964000000000000600082015250565b7f4f6e6c792076656e646f72206f72206d61726b6574706c616365206f776e657260008201527f2063616e2064656c697374000000000000000000000000000000000000000000602082015250565b7f4e6f6e2d76616c6964206c697374696e672049442070726f7669646564000000600082015250565b614499816140a5565b81146144a457600080fd5b50565b6144b0816140b7565b81146144bb57600080fd5b50565b6144c7816140e3565b81146144d257600080fd5b5056fea26469706673582212209a1dc65adb741d089acc2143a81e0130526718bf36d2fd964714b8d7df26368764736f6c63430008040033",
  "linkReferences": {},
  "deployedLinkReferences": {}
}