{
  "_format": "hh-sol-artifact-1",
  "contractName": "ChangeblockMarketplace",
  "sourceName": "contracts/ChangeblockMarketplace.sol",
  "abi": [
    {
      "inputs": [
        {
          "internalType": "uint256",
          "name": "feeNumerator",
          "type": "uint256"
        },
        {
          "internalType": "uint256",
          "name": "feeDenominator",
          "type": "uint256"
        },
        {
          "internalType": "address",
          "name": "treasury",
          "type": "address"
        }
      ],
      "stateMutability": "nonpayable",
      "type": "constructor"
    },
    {
      "anonymous": false,
      "inputs": [
        {
          "indexed": true,
          "internalType": "uint256",
          "name": "listingId",
          "type": "uint256"
        },
        {
          "indexed": false,
          "internalType": "uint256",
          "name": "quantity",
          "type": "uint256"
        },
        {
          "indexed": false,
          "internalType": "uint256",
          "name": "price",
          "type": "uint256"
        },
        {
          "indexed": false,
          "internalType": "address",
          "name": "bidder",
          "type": "address"
        }
      ],
      "name": "BidPlaced",
      "type": "event"
    },
    {
      "anonymous": false,
      "inputs": [
        {
          "indexed": true,
          "internalType": "uint256",
          "name": "listingId",
          "type": "uint256"
        },
        {
          "indexed": false,
          "internalType": "address",
          "name": "bidder",
          "type": "address"
        }
      ],
      "name": "BidWithdrawn",
      "type": "event"
    },
    {
      "anonymous": false,
      "inputs": [
        {
          "indexed": false,
          "internalType": "uint256",
          "name": "amount",
          "type": "uint256"
        },
        {
          "indexed": false,
          "internalType": "uint256",
          "name": "price",
          "type": "uint256"
        },
        {
          "indexed": true,
          "internalType": "address",
          "name": "vendor",
          "type": "address"
        },
        {
          "indexed": true,
          "internalType": "address",
          "name": "product",
          "type": "address"
        },
        {
          "indexed": false,
          "internalType": "address",
          "name": "currency",
          "type": "address"
        },
        {
          "indexed": false,
          "internalType": "uint256",
          "name": "listingId",
          "type": "uint256"
        }
      ],
      "name": "ERC20Registration",
      "type": "event"
    },
    {
      "anonymous": false,
      "inputs": [
        {
          "indexed": false,
          "internalType": "uint256",
          "name": "id",
          "type": "uint256"
        },
        {
          "indexed": false,
          "internalType": "uint256",
          "name": "price",
          "type": "uint256"
        },
        {
          "indexed": true,
          "internalType": "address",
          "name": "vendor",
          "type": "address"
        },
        {
          "indexed": true,
          "internalType": "address",
          "name": "product",
          "type": "address"
        },
        {
          "indexed": false,
          "internalType": "address",
          "name": "currency",
          "type": "address"
        },
        {
          "indexed": false,
          "internalType": "uint256",
          "name": "listingId",
          "type": "uint256"
        }
      ],
      "name": "ERC721Registration",
      "type": "event"
    },
    {
      "anonymous": false,
      "inputs": [
        {
          "indexed": true,
          "internalType": "address",
          "name": "previousOwner",
          "type": "address"
        },
        {
          "indexed": true,
          "internalType": "address",
          "name": "newOwner",
          "type": "address"
        }
      ],
      "name": "OwnershipTransferred",
      "type": "event"
    },
    {
      "anonymous": false,
      "inputs": [
        {
          "indexed": true,
          "internalType": "uint256",
          "name": "listingId",
          "type": "uint256"
        }
      ],
      "name": "Removal",
      "type": "event"
    },
    {
      "anonymous": false,
      "inputs": [
        {
          "indexed": true,
          "internalType": "uint256",
          "name": "listingId",
          "type": "uint256"
        }
      ],
      "name": "Sale",
      "type": "event"
    },
    {
      "inputs": [
        {
          "internalType": "uint256",
          "name": "",
          "type": "uint256"
        }
      ],
      "name": "ERC20Listings",
      "outputs": [
        {
          "internalType": "uint256",
          "name": "amount",
          "type": "uint256"
        },
        {
          "internalType": "uint256",
          "name": "price",
          "type": "uint256"
        },
        {
          "internalType": "address",
          "name": "vendor",
          "type": "address"
        },
        {
          "internalType": "address",
          "name": "product",
          "type": "address"
        },
        {
          "internalType": "address",
          "name": "currency",
          "type": "address"
        }
      ],
      "stateMutability": "view",
      "type": "function"
    },
    {
      "inputs": [
        {
          "internalType": "uint256",
          "name": "",
          "type": "uint256"
        }
      ],
      "name": "ERC721Listings",
      "outputs": [
        {
          "internalType": "uint256",
          "name": "id",
          "type": "uint256"
        },
        {
          "internalType": "uint256",
          "name": "price",
          "type": "uint256"
        },
        {
          "internalType": "address",
          "name": "vendor",
          "type": "address"
        },
        {
          "internalType": "address",
          "name": "product",
          "type": "address"
        },
        {
          "internalType": "address",
          "name": "currency",
          "type": "address"
        }
      ],
      "stateMutability": "view",
      "type": "function"
    },
    {
      "inputs": [],
      "name": "FEE_DENOMINATOR",
      "outputs": [
        {
          "internalType": "uint256",
          "name": "",
          "type": "uint256"
        }
      ],
      "stateMutability": "view",
      "type": "function"
    },
    {
      "inputs": [],
      "name": "FEE_NUMERATOR",
      "outputs": [
        {
          "internalType": "uint256",
          "name": "",
          "type": "uint256"
        }
      ],
      "stateMutability": "view",
      "type": "function"
    },
    {
      "inputs": [
        {
          "internalType": "uint256",
          "name": "listingId",
          "type": "uint256"
        },
        {
          "internalType": "uint256",
          "name": "bidId",
          "type": "uint256"
        }
      ],
      "name": "acceptBid",
      "outputs": [],
      "stateMutability": "nonpayable",
      "type": "function"
    },
    {
      "inputs": [
        {
          "internalType": "uint256",
          "name": "listingId",
          "type": "uint256"
        },
        {
          "internalType": "uint256",
          "name": "quantity",
          "type": "uint256"
        },
        {
          "internalType": "uint256",
          "name": "payment",
          "type": "uint256"
        }
      ],
      "name": "bid",
      "outputs": [],
      "stateMutability": "nonpayable",
      "type": "function"
    },
    {
      "inputs": [
        {
          "internalType": "uint256",
          "name": "listingId",
          "type": "uint256"
        },
        {
          "internalType": "uint256",
          "name": "amount",
          "type": "uint256"
        }
      ],
      "name": "buyERC20",
      "outputs": [],
      "stateMutability": "nonpayable",
      "type": "function"
    },
    {
      "inputs": [
        {
          "internalType": "uint256",
          "name": "listingId",
          "type": "uint256"
        }
      ],
      "name": "buyERC721",
      "outputs": [],
      "stateMutability": "nonpayable",
      "type": "function"
    },
    {
      "inputs": [
        {
          "internalType": "address",
          "name": "",
          "type": "address"
        }
      ],
      "name": "buyerApprovals",
      "outputs": [
        {
          "internalType": "bool",
          "name": "",
          "type": "bool"
        }
      ],
      "stateMutability": "view",
      "type": "function"
    },
    {
      "inputs": [
        {
          "internalType": "uint256",
          "name": "",
          "type": "uint256"
        },
        {
          "internalType": "uint256",
          "name": "",
          "type": "uint256"
        }
      ],
      "name": "currentBids",
      "outputs": [
        {
          "internalType": "uint256",
          "name": "",
          "type": "uint256"
        }
      ],
      "stateMutability": "view",
      "type": "function"
    },
    {
      "inputs": [
        {
          "internalType": "uint256",
          "name": "amount",
          "type": "uint256"
        },
        {
          "internalType": "uint256",
          "name": "listingId",
          "type": "uint256"
        }
      ],
      "name": "delistERC20",
      "outputs": [],
      "stateMutability": "nonpayable",
      "type": "function"
    },
    {
      "inputs": [
        {
          "internalType": "uint256",
          "name": "listingId",
          "type": "uint256"
        }
      ],
      "name": "delistERC721",
      "outputs": [],
      "stateMutability": "nonpayable",
      "type": "function"
    },
    {
      "inputs": [
        {
          "internalType": "uint256",
          "name": "amount",
          "type": "uint256"
        },
        {
          "internalType": "uint256",
          "name": "price",
          "type": "uint256"
        },
        {
          "internalType": "address",
          "name": "product",
          "type": "address"
        },
        {
          "internalType": "address",
          "name": "currency",
          "type": "address"
        }
      ],
      "name": "listERC20",
      "outputs": [
        {
          "internalType": "uint256",
          "name": "",
          "type": "uint256"
        }
      ],
      "stateMutability": "nonpayable",
      "type": "function"
    },
    {
      "inputs": [
        {
          "internalType": "uint256",
          "name": "id",
          "type": "uint256"
        },
        {
          "internalType": "uint256",
          "name": "price",
          "type": "uint256"
        },
        {
          "internalType": "address",
          "name": "product",
          "type": "address"
        },
        {
          "internalType": "address",
          "name": "currency",
          "type": "address"
        }
      ],
      "name": "listERC721",
      "outputs": [
        {
          "internalType": "uint256",
          "name": "",
          "type": "uint256"
        }
      ],
      "stateMutability": "nonpayable",
      "type": "function"
    },
    {
      "inputs": [],
      "name": "owner",
      "outputs": [
        {
          "internalType": "address",
          "name": "",
          "type": "address"
        }
      ],
      "stateMutability": "view",
      "type": "function"
    },
    {
      "inputs": [],
      "name": "renounceOwnership",
      "outputs": [],
      "stateMutability": "nonpayable",
      "type": "function"
    },
    {
      "inputs": [
        {
          "internalType": "address",
          "name": "",
          "type": "address"
        }
      ],
      "name": "sellerApprovals",
      "outputs": [
        {
          "internalType": "bool",
          "name": "",
          "type": "bool"
        }
      ],
      "stateMutability": "view",
      "type": "function"
    },
    {
      "inputs": [
        {
          "internalType": "address[]",
          "name": "targets",
          "type": "address[]"
        },
        {
          "internalType": "bool[]",
          "name": "approvals",
          "type": "bool[]"
        }
      ],
      "name": "setBuyers",
      "outputs": [],
      "stateMutability": "nonpayable",
      "type": "function"
    },
    {
      "inputs": [],
      "name": "setFeeDenominator",
      "outputs": [],
      "stateMutability": "nonpayable",
      "type": "function"
    },
    {
      "inputs": [],
      "name": "setFeeNumerator",
      "outputs": [],
      "stateMutability": "nonpayable",
      "type": "function"
    },
    {
      "inputs": [
        {
          "internalType": "address[]",
          "name": "targets",
          "type": "address[]"
        },
        {
          "internalType": "bool[]",
          "name": "approvals",
          "type": "bool[]"
        }
      ],
      "name": "setSellers",
      "outputs": [],
      "stateMutability": "nonpayable",
      "type": "function"
    },
    {
      "inputs": [
        {
          "internalType": "address",
          "name": "newOwner",
          "type": "address"
        }
      ],
      "name": "transferOwnership",
      "outputs": [],
      "stateMutability": "nonpayable",
      "type": "function"
    },
    {
      "inputs": [],
      "name": "updatePrice",
      "outputs": [],
      "stateMutability": "nonpayable",
      "type": "function"
    },
    {
      "inputs": [
        {
          "internalType": "uint256",
          "name": "listingId",
          "type": "uint256"
        },
        {
          "internalType": "uint256",
          "name": "bidId",
          "type": "uint256"
        }
      ],
      "name": "withdrawBid",
      "outputs": [],
      "stateMutability": "nonpayable",
      "type": "function"
    }
  ],
  "bytecode": "0x60806040523480156200001157600080fd5b5060405162003c8f38038062003c8f8339818101604052810190620000379190620001a9565b620000576200004b620000af60201b60201c565b620000b760201b60201c565b826008819055508160098190555080600a60006101000a81548173ffffffffffffffffffffffffffffffffffffffff021916908373ffffffffffffffffffffffffffffffffffffffff16021790555050505062000271565b600033905090565b60008060009054906101000a900473ffffffffffffffffffffffffffffffffffffffff169050816000806101000a81548173ffffffffffffffffffffffffffffffffffffffff021916908373ffffffffffffffffffffffffffffffffffffffff1602179055508173ffffffffffffffffffffffffffffffffffffffff168173ffffffffffffffffffffffffffffffffffffffff167f8be0079c531659141344cd1fd0a4f28419497f9722a3daafe3b4186f6b6457e060405160405180910390a35050565b6000815190506200018c816200023d565b92915050565b600081519050620001a38162000257565b92915050565b600080600060608486031215620001bf57600080fd5b6000620001cf8682870162000192565b9350506020620001e28682870162000192565b9250506040620001f5868287016200017b565b9150509250925092565b60006200020c8262000213565b9050919050565b600073ffffffffffffffffffffffffffffffffffffffff82169050919050565b6000819050919050565b6200024881620001ff565b81146200025457600080fd5b50565b620002628162000233565b81146200026e57600080fd5b50565b613a0e80620002816000396000f3fe608060405234801561001057600080fd5b50600436106101585760003560e01c8063944cce5b116100c3578063d73792a91161007c578063d73792a91461038b578063d73d55a3146103a9578063f2fde38b146103c5578063f626dab0146103e1578063fbcc035114610415578063fec1d6c61461044557610158565b8063944cce5b146102cf57806397895f3a146102eb578063a57356621461031b578063aebfa63514610337578063c1ab2a4f14610353578063c2a792571461036f57610158565b806341cd47bf1161011557806341cd47bf1461024557806345d84c941461026357806366c7f8e51461026d578063673a7e281461029d578063715018a6146102a75780638da5cb5b146102b157610158565b806302e9d5e41461015d57806302fa11bd146101795780630f2f8b2d146101ad578063151a4791146101dd5780632ac9bf091461020d5780632b2d046014610229575b600080fd5b61017760048036038101906101729190612ef3565b61044f565b005b610193600480360381019061018e9190612ea1565b6107c7565b6040516101a4959493929190613488565b60405180910390f35b6101c760048036038101906101c29190612ef3565b61085d565b6040516101d491906133f1565b60405180910390f35b6101f760048036038101906101f29190612f2f565b61088e565b60405161020491906133f1565b60405180910390f35b61022760048036038101906102229190612f92565b610ba0565b005b610243600480360381019061023e9190612dda565b610e36565b005b61024d610fcb565b60405161025a91906133f1565b60405180910390f35b61026b610fd1565b005b61028760048036038101906102829190612f2f565b61104f565b60405161029491906133f1565b60405180910390f35b6102a56113a1565b005b6102af6113a3565b005b6102b961142b565b6040516102c691906131b2565b60405180910390f35b6102e960048036038101906102e49190612ea1565b611454565b005b61030560048036038101906103009190612db1565b61193a565b6040516103129190613256565b60405180910390f35b61033560048036038101906103309190612ef3565b61195a565b005b610351600480360381019061034c9190612dda565b611bf8565b005b61036d60048036038101906103689190612ea1565b611d8d565b005b61038960048036038101906103849190612ef3565b612020565b005b610393612513565b6040516103a091906133f1565b60405180910390f35b6103c360048036038101906103be9190612ef3565b612519565b005b6103df60048036038101906103da9190612db1565b61283c565b005b6103fb60048036038101906103f69190612ea1565b612934565b60405161040c959493929190613488565b60405180910390f35b61042f600480360381019061042a9190612db1565b6129ca565b60405161043c9190613256565b60405180910390f35b61044d6129ea565b005b60006003600084815260200190815260200160002060020160009054906101000a900473ffffffffffffffffffffffffffffffffffffffff1690503373ffffffffffffffffffffffffffffffffffffffff168173ffffffffffffffffffffffffffffffffffffffff16146104f8576040517f08c379a00000000000000000000000000000000000000000000000000000000081526004016104ef906133b1565b60405180910390fd5b6000600560008581526020019081526020016000206000848152602001908152602001600020600001549050806003600086815260200190815260200160002060000154101561057d576040517f08c379a000000000000000000000000000000000000000000000000000000000815260040161057490613391565b60405180910390fd5b6003600085815260200190815260200160002060040160009054906101000a900473ffffffffffffffffffffffffffffffffffffffff1673ffffffffffffffffffffffffffffffffffffffff1663a9059cbb83600560008881526020019081526020016000206000878152602001908152602001600020600101546040518363ffffffff1660e01b815260040161061592919061322d565b602060405180830381600087803b15801561062f57600080fd5b505af1158015610643573d6000803e3d6000fd5b505050506040513d601f19601f820116820180604052508101906106679190612e78565b506003600085815260200190815260200160002060030160009054906101000a900473ffffffffffffffffffffffffffffffffffffffff1673ffffffffffffffffffffffffffffffffffffffff1663a9059cbb33836040518363ffffffff1660e01b81526004016106d992919061322d565b602060405180830381600087803b1580156106f357600080fd5b505af1158015610707573d6000803e3d6000fd5b505050506040513d601f19601f8201168201806040525081019061072b9190612e78565b50806003600086815260200190815260200160002060000160008282546107529190613612565b925050819055506107638484612a68565b60056000858152602001908152602001600020600084815260200190815260200160002060008082016000905560018201600090556002820160006101000a81549073ffffffffffffffffffffffffffffffffffffffff0219169055505050505050565b60036020528060005260406000206000915090508060000154908060010154908060020160009054906101000a900473ffffffffffffffffffffffffffffffffffffffff16908060030160009054906101000a900473ffffffffffffffffffffffffffffffffffffffff16908060040160009054906101000a900473ffffffffffffffffffffffffffffffffffffffff16905085565b6006602052816000526040600020818154811061087957600080fd5b90600052602060002001600091509150505481565b6000600160003373ffffffffffffffffffffffffffffffffffffffff1673ffffffffffffffffffffffffffffffffffffffff16815260200190815260200160002060009054906101000a900460ff1661091c576040517f08c379a000000000000000000000000000000000000000000000000000000000815260040161091390613291565b60405180910390fd5b8273ffffffffffffffffffffffffffffffffffffffff166323b872dd3330886040518463ffffffff1660e01b8152600401610959939291906131f6565b600060405180830381600087803b15801561097357600080fd5b505af1158015610987573d6000803e3d6000fd5b50505050600085853386866040516020016109a6959493929190613488565b6040516020818303038152906040528051906020012060001c90506040518060a001604052808781526020018681526020013373ffffffffffffffffffffffffffffffffffffffff1681526020018573ffffffffffffffffffffffffffffffffffffffff1681526020018473ffffffffffffffffffffffffffffffffffffffff1681525060046000838152602001908152602001600020600082015181600001556020820151816001015560408201518160020160006101000a81548173ffffffffffffffffffffffffffffffffffffffff021916908373ffffffffffffffffffffffffffffffffffffffff16021790555060608201518160030160006101000a81548173ffffffffffffffffffffffffffffffffffffffff021916908373ffffffffffffffffffffffffffffffffffffffff16021790555060808201518160040160006101000a81548173ffffffffffffffffffffffffffffffffffffffff021916908373ffffffffffffffffffffffffffffffffffffffff1602179055509050508373ffffffffffffffffffffffffffffffffffffffff163373ffffffffffffffffffffffffffffffffffffffff167f96121474b4be0e5edfa0cf9721fe3e06611dc0048f4ec160f3f4aa1c5ca3ec4188888786604051610b8c94939291906134db565b60405180910390a380915050949350505050565b600260003373ffffffffffffffffffffffffffffffffffffffff1673ffffffffffffffffffffffffffffffffffffffff16815260200190815260200160002060009054906101000a900460ff16610c2c576040517f08c379a0000000000000000000000000000000000000000000000000000000008152600401610c2390613311565b60405180910390fd5b6000828233604051602001610c4393929190613451565b6040516020818303038152906040528051906020012060001c905060006005600086815260200190815260200160002060008381526020019081526020016000206001015414610cc8576040517f08c379a0000000000000000000000000000000000000000000000000000000008152600401610cbf90613351565b60405180910390fd5b6006600085815260200190815260200160002080549050600760008681526020019081526020016000206000838152602001908152602001600020819055506006600085815260200190815260200160002081908060018154018082558091505060019003906000526020600020016000909190919091505560405180606001604052808481526020018381526020013373ffffffffffffffffffffffffffffffffffffffff16815250600560008681526020019081526020016000206000838152602001908152602001600020600082015181600001556020820151816001015560408201518160020160006101000a81548173ffffffffffffffffffffffffffffffffffffffff021916908373ffffffffffffffffffffffffffffffffffffffff160217905550905050837f379fe8bc550443c6867a021184bb0e5a961f3fcd271160873847410c7bdd0e28848433604051610e2893929190613451565b60405180910390a250505050565b610e3e612be8565b73ffffffffffffffffffffffffffffffffffffffff16610e5c61142b565b73ffffffffffffffffffffffffffffffffffffffff1614610eb2576040517f08c379a0000000000000000000000000000000000000000000000000000000008152600401610ea990613331565b60405180910390fd5b60005b84849050811015610fc457828282818110610ef9577f4e487b7100000000000000000000000000000000000000000000000000000000600052603260045260246000fd5b9050602002016020810190610f0e9190612e4f565b60016000878785818110610f4b577f4e487b7100000000000000000000000000000000000000000000000000000000600052603260045260246000fd5b9050602002016020810190610f609190612db1565b73ffffffffffffffffffffffffffffffffffffffff1673ffffffffffffffffffffffffffffffffffffffff16815260200190815260200160002060006101000a81548160ff0219169083151502179055508080610fbc9061368e565b915050610eb5565b5050505050565b60085481565b610fd9612be8565b73ffffffffffffffffffffffffffffffffffffffff16610ff761142b565b73ffffffffffffffffffffffffffffffffffffffff161461104d576040517f08c379a000000000000000000000000000000000000000000000000000000000815260040161104490613331565b60405180910390fd5b565b6000600160003373ffffffffffffffffffffffffffffffffffffffff1673ffffffffffffffffffffffffffffffffffffffff16815260200190815260200160002060009054906101000a900460ff166110dd576040517f08c379a00000000000000000000000000000000000000000000000000000000081526004016110d490613291565b60405180910390fd5b8273ffffffffffffffffffffffffffffffffffffffff166323b872dd3330886040518463ffffffff1660e01b815260040161111a939291906131f6565b602060405180830381600087803b15801561113457600080fd5b505af1158015611148573d6000803e3d6000fd5b505050506040513d601f19601f8201168201806040525081019061116c9190612e78565b50600084338585604051602001611186949392919061340c565b6040516020818303038152906040528051906020012060001c90506040518060a001604052806003600084815260200190815260200160002060000154886111ce9190613531565b81526020018681526020013373ffffffffffffffffffffffffffffffffffffffff1681526020018573ffffffffffffffffffffffffffffffffffffffff1681526020018473ffffffffffffffffffffffffffffffffffffffff1681525060036000838152602001908152602001600020600082015181600001556020820151816001015560408201518160020160006101000a81548173ffffffffffffffffffffffffffffffffffffffff021916908373ffffffffffffffffffffffffffffffffffffffff16021790555060608201518160030160006101000a81548173ffffffffffffffffffffffffffffffffffffffff021916908373ffffffffffffffffffffffffffffffffffffffff16021790555060808201518160040160006101000a81548173ffffffffffffffffffffffffffffffffffffffff021916908373ffffffffffffffffffffffffffffffffffffffff1602179055509050508373ffffffffffffffffffffffffffffffffffffffff163373ffffffffffffffffffffffffffffffffffffffff167f4dac2e5e670f156eb092f4d2b4bd3db441153ea88b602e360195f855f144c6d78888878660405161138d94939291906134db565b60405180910390a380915050949350505050565b565b6113ab612be8565b73ffffffffffffffffffffffffffffffffffffffff166113c961142b565b73ffffffffffffffffffffffffffffffffffffffff161461141f576040517f08c379a000000000000000000000000000000000000000000000000000000000815260040161141690613331565b60405180910390fd5b6114296000612bf0565b565b60008060009054906101000a900473ffffffffffffffffffffffffffffffffffffffff16905090565b600260003373ffffffffffffffffffffffffffffffffffffffff1673ffffffffffffffffffffffffffffffffffffffff16815260200190815260200160002060009054906101000a900460ff166114e0576040517f08c379a00000000000000000000000000000000000000000000000000000000081526004016114d790613311565b60405180910390fd5b6000600460008381526020019081526020016000206040518060a001604052908160008201548152602001600182015481526020016002820160009054906101000a900473ffffffffffffffffffffffffffffffffffffffff1673ffffffffffffffffffffffffffffffffffffffff1673ffffffffffffffffffffffffffffffffffffffff1681526020016003820160009054906101000a900473ffffffffffffffffffffffffffffffffffffffff1673ffffffffffffffffffffffffffffffffffffffff1673ffffffffffffffffffffffffffffffffffffffff1681526020016004820160009054906101000a900473ffffffffffffffffffffffffffffffffffffffff1673ffffffffffffffffffffffffffffffffffffffff1673ffffffffffffffffffffffffffffffffffffffff16815250509050600073ffffffffffffffffffffffffffffffffffffffff16816080015173ffffffffffffffffffffffffffffffffffffffff16141561168c576040517f08c379a000000000000000000000000000000000000000000000000000000000815260040161168390613371565b60405180910390fd5b600060095460085483602001516116a391906135b8565b6116ad9190613587565b9050816080015173ffffffffffffffffffffffffffffffffffffffff1663dd62ed3e33306040518363ffffffff1660e01b81526004016116ee9291906131cd565b60206040518083038186803b15801561170657600080fd5b505afa15801561171a573d6000803e3d6000fd5b505050506040513d601f19601f8201168201806040525081019061173e9190612eca565b50816080015173ffffffffffffffffffffffffffffffffffffffff166323b872dd33846040015185602001516040518463ffffffff1660e01b8152600401611788939291906131f6565b602060405180830381600087803b1580156117a257600080fd5b505af11580156117b6573d6000803e3d6000fd5b505050506040513d601f19601f820116820180604052508101906117da9190612e78565b50816080015173ffffffffffffffffffffffffffffffffffffffff166323b872dd33600a60009054906101000a900473ffffffffffffffffffffffffffffffffffffffff16846040518463ffffffff1660e01b815260040161183e939291906131f6565b602060405180830381600087803b15801561185857600080fd5b505af115801561186c573d6000803e3d6000fd5b505050506040513d601f19601f820116820180604052508101906118909190612e78565b50816060015173ffffffffffffffffffffffffffffffffffffffff166323b872dd303385600001516040518463ffffffff1660e01b81526004016118d6939291906131f6565b600060405180830381600087803b1580156118f057600080fd5b505af1158015611904573d6000803e3d6000fd5b50505050827fc0a8d68d4d1f533ef6cdb7a49068cbe04356682803cb7983c4ba33ce99100efd60405160405180910390a2505050565b60026020528060005260406000206000915054906101000a900460ff1681565b600260003373ffffffffffffffffffffffffffffffffffffffff1673ffffffffffffffffffffffffffffffffffffffff16815260200190815260200160002060009054906101000a900460ff166119e6576040517f08c379a00000000000000000000000000000000000000000000000000000000081526004016119dd90613311565b60405180910390fd5b600060056000848152602001908152602001600020600083815260200190815260200160002060020160009054906101000a900473ffffffffffffffffffffffffffffffffffffffff1690508073ffffffffffffffffffffffffffffffffffffffff163373ffffffffffffffffffffffffffffffffffffffff1614611aa0576040517f08c379a0000000000000000000000000000000000000000000000000000000008152600401611a97906132d1565b60405180910390fd5b6003600084815260200190815260200160002060040160009054906101000a900473ffffffffffffffffffffffffffffffffffffffff1673ffffffffffffffffffffffffffffffffffffffff1663a9059cbb82600560008781526020019081526020016000206000868152602001908152602001600020600101546040518363ffffffff1660e01b8152600401611b3892919061322d565b602060405180830381600087803b158015611b5257600080fd5b505af1158015611b66573d6000803e3d6000fd5b505050506040513d601f19601f82011682018060405250810190611b8a9190612e78565b50611b958383612a68565b60056000848152602001908152602001600020600083815260200190815260200160002060008082016000905560018201600090556002820160006101000a81549073ffffffffffffffffffffffffffffffffffffffff02191690555050505050565b611c00612be8565b73ffffffffffffffffffffffffffffffffffffffff16611c1e61142b565b73ffffffffffffffffffffffffffffffffffffffff1614611c74576040517f08c379a0000000000000000000000000000000000000000000000000000000008152600401611c6b90613331565b60405180910390fd5b60005b84849050811015611d8657828282818110611cbb577f4e487b7100000000000000000000000000000000000000000000000000000000600052603260045260246000fd5b9050602002016020810190611cd09190612e4f565b60026000878785818110611d0d577f4e487b7100000000000000000000000000000000000000000000000000000000600052603260045260246000fd5b9050602002016020810190611d229190612db1565b73ffffffffffffffffffffffffffffffffffffffff1673ffffffffffffffffffffffffffffffffffffffff16815260200190815260200160002060006101000a81548160ff0219169083151502179055508080611d7e9061368e565b915050611c77565b5050505050565b6000600460008381526020019081526020016000206040518060a001604052908160008201548152602001600182015481526020016002820160009054906101000a900473ffffffffffffffffffffffffffffffffffffffff1673ffffffffffffffffffffffffffffffffffffffff1673ffffffffffffffffffffffffffffffffffffffff1681526020016003820160009054906101000a900473ffffffffffffffffffffffffffffffffffffffff1673ffffffffffffffffffffffffffffffffffffffff1673ffffffffffffffffffffffffffffffffffffffff1681526020016004820160009054906101000a900473ffffffffffffffffffffffffffffffffffffffff1673ffffffffffffffffffffffffffffffffffffffff1673ffffffffffffffffffffffffffffffffffffffff168152505090503373ffffffffffffffffffffffffffffffffffffffff16816040015173ffffffffffffffffffffffffffffffffffffffff161480611f3557503373ffffffffffffffffffffffffffffffffffffffff16611f1d61142b565b73ffffffffffffffffffffffffffffffffffffffff16145b611f74576040517f08c379a0000000000000000000000000000000000000000000000000000000008152600401611f6b906133d1565b60405180910390fd5b806060015173ffffffffffffffffffffffffffffffffffffffff166323b872dd30836040015184600001516040518463ffffffff1660e01b8152600401611fbd939291906131f6565b600060405180830381600087803b158015611fd757600080fd5b505af1158015611feb573d6000803e3d6000fd5b50505050817f5db62f6a54d48d9bc8ab38f41eef80d3d41af8ab21d4c850a3276eb553d8efb160405160405180910390a25050565b600260003373ffffffffffffffffffffffffffffffffffffffff1673ffffffffffffffffffffffffffffffffffffffff16815260200190815260200160002060009054906101000a900460ff166120ac576040517f08c379a00000000000000000000000000000000000000000000000000000000081526004016120a390613311565b60405180910390fd5b6000600360008481526020019081526020016000206040518060a001604052908160008201548152602001600182015481526020016002820160009054906101000a900473ffffffffffffffffffffffffffffffffffffffff1673ffffffffffffffffffffffffffffffffffffffff1673ffffffffffffffffffffffffffffffffffffffff1681526020016003820160009054906101000a900473ffffffffffffffffffffffffffffffffffffffff1673ffffffffffffffffffffffffffffffffffffffff1673ffffffffffffffffffffffffffffffffffffffff1681526020016004820160009054906101000a900473ffffffffffffffffffffffffffffffffffffffff1673ffffffffffffffffffffffffffffffffffffffff1673ffffffffffffffffffffffffffffffffffffffff16815250509050600073ffffffffffffffffffffffffffffffffffffffff16816080015173ffffffffffffffffffffffffffffffffffffffff161415612258576040517f08c379a000000000000000000000000000000000000000000000000000000000815260040161224f90613371565b60405180910390fd5b600081602001518361226a91906135b8565b905060006009546008548361227f91906135b8565b6122899190613587565b9050826080015173ffffffffffffffffffffffffffffffffffffffff166323b872dd338560400151856040518463ffffffff1660e01b81526004016122d0939291906131f6565b602060405180830381600087803b1580156122ea57600080fd5b505af11580156122fe573d6000803e3d6000fd5b505050506040513d601f19601f820116820180604052508101906123229190612e78565b50826080015173ffffffffffffffffffffffffffffffffffffffff166323b872dd33600a60009054906101000a900473ffffffffffffffffffffffffffffffffffffffff16846040518463ffffffff1660e01b8152600401612386939291906131f6565b602060405180830381600087803b1580156123a057600080fd5b505af11580156123b4573d6000803e3d6000fd5b505050506040513d601f19601f820116820180604052508101906123d89190612e78565b508383600001511015612420576040517f08c379a0000000000000000000000000000000000000000000000000000000008152600401612417906132b1565b60405180910390fd5b826060015173ffffffffffffffffffffffffffffffffffffffff1663a9059cbb33866040518363ffffffff1660e01b815260040161245f92919061322d565b602060405180830381600087803b15801561247957600080fd5b505af115801561248d573d6000803e3d6000fd5b505050506040513d601f19601f820116820180604052508101906124b19190612e78565b50836003600087815260200190815260200160002060000160008282546124d89190613612565b92505081905550847fc0a8d68d4d1f533ef6cdb7a49068cbe04356682803cb7983c4ba33ce99100efd60405160405180910390a25050505050565b60095481565b6000600360008381526020019081526020016000206040518060a001604052908160008201548152602001600182015481526020016002820160009054906101000a900473ffffffffffffffffffffffffffffffffffffffff1673ffffffffffffffffffffffffffffffffffffffff1673ffffffffffffffffffffffffffffffffffffffff1681526020016003820160009054906101000a900473ffffffffffffffffffffffffffffffffffffffff1673ffffffffffffffffffffffffffffffffffffffff1673ffffffffffffffffffffffffffffffffffffffff1681526020016004820160009054906101000a900473ffffffffffffffffffffffffffffffffffffffff1673ffffffffffffffffffffffffffffffffffffffff1673ffffffffffffffffffffffffffffffffffffffff168152505090503373ffffffffffffffffffffffffffffffffffffffff16816040015173ffffffffffffffffffffffffffffffffffffffff1614806126c157503373ffffffffffffffffffffffffffffffffffffffff166126a961142b565b73ffffffffffffffffffffffffffffffffffffffff16145b612700576040517f08c379a00000000000000000000000000000000000000000000000000000000081526004016126f7906133d1565b60405180910390fd5b8281600001511015612747576040517f08c379a000000000000000000000000000000000000000000000000000000000815260040161273e906132f1565b60405180910390fd5b806060015173ffffffffffffffffffffffffffffffffffffffff1663a9059cbb8260400151856040518363ffffffff1660e01b815260040161278a92919061322d565b602060405180830381600087803b1580156127a457600080fd5b505af11580156127b8573d6000803e3d6000fd5b505050506040513d601f19601f820116820180604052508101906127dc9190612e78565b50826003600084815260200190815260200160002060000160008282546128039190613612565b92505081905550817f5db62f6a54d48d9bc8ab38f41eef80d3d41af8ab21d4c850a3276eb553d8efb160405160405180910390a2505050565b612844612be8565b73ffffffffffffffffffffffffffffffffffffffff1661286261142b565b73ffffffffffffffffffffffffffffffffffffffff16146128b8576040517f08c379a00000000000000000000000000000000000000000000000000000000081526004016128af90613331565b60405180910390fd5b600073ffffffffffffffffffffffffffffffffffffffff168173ffffffffffffffffffffffffffffffffffffffff161415612928576040517f08c379a000000000000000000000000000000000000000000000000000000000815260040161291f90613271565b60405180910390fd5b61293181612bf0565b50565b60046020528060005260406000206000915090508060000154908060010154908060020160009054906101000a900473ffffffffffffffffffffffffffffffffffffffff16908060030160009054906101000a900473ffffffffffffffffffffffffffffffffffffffff16908060040160009054906101000a900473ffffffffffffffffffffffffffffffffffffffff16905085565b60016020528060005260406000206000915054906101000a900460ff1681565b6129f2612be8565b73ffffffffffffffffffffffffffffffffffffffff16612a1061142b565b73ffffffffffffffffffffffffffffffffffffffff1614612a66576040517f08c379a0000000000000000000000000000000000000000000000000000000008152600401612a5d90613331565b60405180910390fd5b565b6006600083815260200190815260200160002060016006600085815260200190815260200160002080549050612a9e9190613612565b81548110612ad5577f4e487b7100000000000000000000000000000000000000000000000000000000600052603260045260246000fd5b9060005260206000200154600660008481526020019081526020016000206007600085815260200190815260200160002060008481526020019081526020016000205481548110612b4f577f4e487b7100000000000000000000000000000000000000000000000000000000600052603260045260246000fd5b906000526020600020018190555060066000838152602001908152602001600020805480612ba6577f4e487b7100000000000000000000000000000000000000000000000000000000600052603160045260246000fd5b60019003818190600052602060002001600090559055600760008381526020019081526020016000206000828152602001908152602001600020600090555050565b600033905090565b60008060009054906101000a900473ffffffffffffffffffffffffffffffffffffffff169050816000806101000a81548173ffffffffffffffffffffffffffffffffffffffff021916908373ffffffffffffffffffffffffffffffffffffffff1602179055508173ffffffffffffffffffffffffffffffffffffffff168173ffffffffffffffffffffffffffffffffffffffff167f8be0079c531659141344cd1fd0a4f28419497f9722a3daafe3b4186f6b6457e060405160405180910390a35050565b600081359050612cc381613993565b92915050565b60008083601f840112612cdb57600080fd5b8235905067ffffffffffffffff811115612cf457600080fd5b602083019150836020820283011115612d0c57600080fd5b9250929050565b60008083601f840112612d2557600080fd5b8235905067ffffffffffffffff811115612d3e57600080fd5b602083019150836020820283011115612d5657600080fd5b9250929050565b600081359050612d6c816139aa565b92915050565b600081519050612d81816139aa565b92915050565b600081359050612d96816139c1565b92915050565b600081519050612dab816139c1565b92915050565b600060208284031215612dc357600080fd5b6000612dd184828501612cb4565b91505092915050565b60008060008060408587031215612df057600080fd5b600085013567ffffffffffffffff811115612e0a57600080fd5b612e1687828801612cc9565b9450945050602085013567ffffffffffffffff811115612e3557600080fd5b612e4187828801612d13565b925092505092959194509250565b600060208284031215612e6157600080fd5b6000612e6f84828501612d5d565b91505092915050565b600060208284031215612e8a57600080fd5b6000612e9884828501612d72565b91505092915050565b600060208284031215612eb357600080fd5b6000612ec184828501612d87565b91505092915050565b600060208284031215612edc57600080fd5b6000612eea84828501612d9c565b91505092915050565b60008060408385031215612f0657600080fd5b6000612f1485828601612d87565b9250506020612f2585828601612d87565b9150509250929050565b60008060008060808587031215612f4557600080fd5b6000612f5387828801612d87565b9450506020612f6487828801612d87565b9350506040612f7587828801612cb4565b9250506060612f8687828801612cb4565b91505092959194509250565b600080600060608486031215612fa757600080fd5b6000612fb586828701612d87565b9350506020612fc686828701612d87565b9250506040612fd786828701612d87565b9150509250925092565b612fea81613646565b82525050565b612ff981613658565b82525050565b600061300c602683613520565b915061301782613735565b604082019050919050565b600061302f601583613520565b915061303a82613784565b602082019050919050565b6000613052601a83613520565b915061305d826137ad565b602082019050919050565b6000613075601c83613520565b9150613080826137d6565b602082019050919050565b6000613098601a83613520565b91506130a3826137ff565b602082019050919050565b60006130bb601483613520565b91506130c682613828565b602082019050919050565b60006130de602083613520565b91506130e982613851565b602082019050919050565b6000613101601d83613520565b915061310c8261387a565b602082019050919050565b6000613124601383613520565b915061312f826138a3565b602082019050919050565b6000613147602983613520565b9150613152826138cc565b604082019050919050565b600061316a601c83613520565b91506131758261391b565b602082019050919050565b600061318d602b83613520565b915061319882613944565b604082019050919050565b6131ac81613684565b82525050565b60006020820190506131c76000830184612fe1565b92915050565b60006040820190506131e26000830185612fe1565b6131ef6020830184612fe1565b9392505050565b600060608201905061320b6000830186612fe1565b6132186020830185612fe1565b61322560408301846131a3565b949350505050565b60006040820190506132426000830185612fe1565b61324f60208301846131a3565b9392505050565b600060208201905061326b6000830184612ff0565b92915050565b6000602082019050818103600083015261328a81612fff565b9050919050565b600060208201905081810360008301526132aa81613022565b9050919050565b600060208201905081810360008301526132ca81613045565b9050919050565b600060208201905081810360008301526132ea81613068565b9050919050565b6000602082019050818103600083015261330a8161308b565b9050919050565b6000602082019050818103600083015261332a816130ae565b9050919050565b6000602082019050818103600083015261334a816130d1565b9050919050565b6000602082019050818103600083015261336a816130f4565b9050919050565b6000602082019050818103600083015261338a81613117565b9050919050565b600060208201905081810360008301526133aa8161313a565b9050919050565b600060208201905081810360008301526133ca8161315d565b9050919050565b600060208201905081810360008301526133ea81613180565b9050919050565b600060208201905061340660008301846131a3565b92915050565b600060808201905061342160008301876131a3565b61342e6020830186612fe1565b61343b6040830185612fe1565b6134486060830184612fe1565b95945050505050565b600060608201905061346660008301866131a3565b61347360208301856131a3565b6134806040830184612fe1565b949350505050565b600060a08201905061349d60008301886131a3565b6134aa60208301876131a3565b6134b76040830186612fe1565b6134c46060830185612fe1565b6134d16080830184612fe1565b9695505050505050565b60006080820190506134f060008301876131a3565b6134fd60208301866131a3565b61350a6040830185612fe1565b61351760608301846131a3565b95945050505050565b600082825260208201905092915050565b600061353c82613684565b915061354783613684565b9250827fffffffffffffffffffffffffffffffffffffffffffffffffffffffffffffffff0382111561357c5761357b6136d7565b5b828201905092915050565b600061359282613684565b915061359d83613684565b9250826135ad576135ac613706565b5b828204905092915050565b60006135c382613684565b91506135ce83613684565b9250817fffffffffffffffffffffffffffffffffffffffffffffffffffffffffffffffff0483118215151615613607576136066136d7565b5b828202905092915050565b600061361d82613684565b915061362883613684565b92508282101561363b5761363a6136d7565b5b828203905092915050565b600061365182613664565b9050919050565b60008115159050919050565b600073ffffffffffffffffffffffffffffffffffffffff82169050919050565b6000819050919050565b600061369982613684565b91507fffffffffffffffffffffffffffffffffffffffffffffffffffffffffffffffff8214156136cc576136cb6136d7565b5b600182019050919050565b7f4e487b7100000000000000000000000000000000000000000000000000000000600052601160045260246000fd5b7f4e487b7100000000000000000000000000000000000000000000000000000000600052601260045260246000fd5b7f4f776e61626c653a206e6577206f776e657220697320746865207a65726f206160008201527f6464726573730000000000000000000000000000000000000000000000000000602082015250565b7f417070726f7665642073656c6c657273206f6e6c790000000000000000000000600082015250565b7f496e73756666696369656e74206c697374656420746f6b656e73000000000000600082015250565b7f4f6e6c79206269646465722063616e2063616e63656c20612062696400000000600082015250565b7f496e73756666696369656e7420746f6b656e73206c6973746564000000000000600082015250565b7f417070726f76656420627579657273206f6e6c79000000000000000000000000600082015250565b7f4f776e61626c653a2063616c6c6572206973206e6f7420746865206f776e6572600082015250565b7f426964206f662074686973207479706520616c7265616479206d616465000000600082015250565b7f696e76616c69642049442070726f766964656400000000000000000000000000600082015250565b7f496e73756666696369656e7420746f6b656e73206c697374656420746f20667560008201527f6c66696c6c206269640000000000000000000000000000000000000000000000602082015250565b7f4f6e6c792076656e646f722063616e2061636365707420612062696400000000600082015250565b7f4f6e6c792076656e646f72206f72206d61726b6574706c616365206f776e657260008201527f2063616e2064656c697374000000000000000000000000000000000000000000602082015250565b61399c81613646565b81146139a757600080fd5b50565b6139b381613658565b81146139be57600080fd5b50565b6139ca81613684565b81146139d557600080fd5b5056fea26469706673582212206fe42918058ba42b786f8cf55d80fa4ebf90d0c1c7748b55cf75ddce04bd45f064736f6c63430008040033",
  "linkReferences": {},
  "deployedLinkReferences": {}
}