{
  "_format": "hh-sol-artifact-1",
  "contractName": "ChangeblockMarketplace",
  "sourceName": "contracts/ChangeblockMarketplace.sol",
  "abi": [
    {
      "inputs": [
        {
          "internalType": "uint256",
          "name": "feeNumerator",
          "type": "uint256"
        },
        {
          "internalType": "uint256",
          "name": "feeDenominator",
          "type": "uint256"
        },
        {
          "internalType": "address",
          "name": "treasury",
          "type": "address"
        }
      ],
      "stateMutability": "nonpayable",
      "type": "constructor"
    },
    {
      "anonymous": false,
      "inputs": [
        {
          "indexed": true,
          "internalType": "uint256",
          "name": "listingId",
          "type": "uint256"
        },
        {
          "indexed": false,
          "internalType": "address",
          "name": "bidder",
          "type": "address"
        },
        {
          "indexed": false,
          "internalType": "uint256",
          "name": "quantity",
          "type": "uint256"
        },
        {
          "indexed": false,
          "internalType": "uint256",
          "name": "payment",
          "type": "uint256"
        }
      ],
      "name": "BidAccepted",
      "type": "event"
    },
    {
      "anonymous": false,
      "inputs": [
        {
          "indexed": true,
          "internalType": "uint256",
          "name": "listingId",
          "type": "uint256"
        },
        {
          "indexed": false,
          "internalType": "uint256",
          "name": "quantity",
          "type": "uint256"
        },
        {
          "indexed": false,
          "internalType": "uint256",
          "name": "price",
          "type": "uint256"
        },
        {
          "indexed": false,
          "internalType": "address",
          "name": "bidder",
          "type": "address"
        },
        {
          "indexed": false,
          "internalType": "uint256",
          "name": "index",
          "type": "uint256"
        }
      ],
      "name": "BidPlaced",
      "type": "event"
    },
    {
      "anonymous": false,
      "inputs": [
        {
          "indexed": true,
          "internalType": "uint256",
          "name": "listingId",
          "type": "uint256"
        },
        {
          "indexed": false,
          "internalType": "address",
          "name": "bidder",
          "type": "address"
        },
        {
          "indexed": false,
          "internalType": "uint256",
          "name": "index",
          "type": "uint256"
        }
      ],
      "name": "BidWithdrawn",
      "type": "event"
    },
    {
      "anonymous": false,
      "inputs": [
        {
          "indexed": true,
          "internalType": "uint256",
          "name": "listingId",
          "type": "uint256"
        },
        {
          "indexed": false,
          "internalType": "uint256",
          "name": "price",
          "type": "uint256"
        }
      ],
      "name": "ERC20PriceUpdate",
      "type": "event"
    },
    {
      "anonymous": false,
      "inputs": [
        {
          "indexed": false,
          "internalType": "uint256",
          "name": "amount",
          "type": "uint256"
        },
        {
          "indexed": false,
          "internalType": "uint256",
          "name": "price",
          "type": "uint256"
        },
        {
          "indexed": true,
          "internalType": "address",
          "name": "vendor",
          "type": "address"
        },
        {
          "indexed": true,
          "internalType": "address",
          "name": "product",
          "type": "address"
        },
        {
          "indexed": false,
          "internalType": "address",
          "name": "currency",
          "type": "address"
        },
        {
          "indexed": false,
          "internalType": "uint256",
          "name": "listingId",
          "type": "uint256"
        }
      ],
      "name": "ERC20Registration",
      "type": "event"
    },
    {
      "anonymous": false,
      "inputs": [
        {
          "indexed": false,
          "internalType": "uint256",
          "name": "id",
          "type": "uint256"
        },
        {
          "indexed": false,
          "internalType": "uint256",
          "name": "price",
          "type": "uint256"
        },
        {
          "indexed": true,
          "internalType": "address",
          "name": "vendor",
          "type": "address"
        },
        {
          "indexed": true,
          "internalType": "address",
          "name": "product",
          "type": "address"
        },
        {
          "indexed": false,
          "internalType": "address",
          "name": "currency",
          "type": "address"
        },
        {
          "indexed": false,
          "internalType": "uint256",
          "name": "listingId",
          "type": "uint256"
        }
      ],
      "name": "ERC721Registration",
      "type": "event"
    },
    {
      "anonymous": false,
      "inputs": [
        {
          "indexed": true,
          "internalType": "address",
          "name": "previousOwner",
          "type": "address"
        },
        {
          "indexed": true,
          "internalType": "address",
          "name": "newOwner",
          "type": "address"
        }
      ],
      "name": "OwnershipTransferred",
      "type": "event"
    },
    {
      "anonymous": false,
      "inputs": [
        {
          "indexed": true,
          "internalType": "uint256",
          "name": "listingId",
          "type": "uint256"
        }
      ],
      "name": "Sale",
      "type": "event"
    },
    {
      "inputs": [
        {
          "internalType": "uint256",
          "name": "",
          "type": "uint256"
        }
      ],
      "name": "ERC20Listings",
      "outputs": [
        {
          "internalType": "uint256",
          "name": "amount",
          "type": "uint256"
        },
        {
          "internalType": "uint256",
          "name": "price",
          "type": "uint256"
        },
        {
          "internalType": "address",
          "name": "vendor",
          "type": "address"
        },
        {
          "internalType": "address",
          "name": "product",
          "type": "address"
        },
        {
          "internalType": "address",
          "name": "currency",
          "type": "address"
        }
      ],
      "stateMutability": "view",
      "type": "function"
    },
    {
      "inputs": [
        {
          "internalType": "uint256",
          "name": "",
          "type": "uint256"
        }
      ],
      "name": "ERC721Listings",
      "outputs": [
        {
          "internalType": "uint256",
          "name": "id",
          "type": "uint256"
        },
        {
          "internalType": "uint256",
          "name": "price",
          "type": "uint256"
        },
        {
          "internalType": "address",
          "name": "vendor",
          "type": "address"
        },
        {
          "internalType": "address",
          "name": "product",
          "type": "address"
        },
        {
          "internalType": "address",
          "name": "currency",
          "type": "address"
        }
      ],
      "stateMutability": "view",
      "type": "function"
    },
    {
      "inputs": [],
      "name": "FEE_DENOMINATOR",
      "outputs": [
        {
          "internalType": "uint256",
          "name": "",
          "type": "uint256"
        }
      ],
      "stateMutability": "view",
      "type": "function"
    },
    {
      "inputs": [],
      "name": "FEE_NUMERATOR",
      "outputs": [
        {
          "internalType": "uint256",
          "name": "",
          "type": "uint256"
        }
      ],
      "stateMutability": "view",
      "type": "function"
    },
    {
      "inputs": [
        {
          "internalType": "uint256",
          "name": "listingId",
          "type": "uint256"
        },
        {
          "internalType": "address",
          "name": "bidder",
          "type": "address"
        },
        {
          "internalType": "uint256",
          "name": "index",
          "type": "uint256"
        },
        {
          "internalType": "uint256",
          "name": "quantity",
          "type": "uint256"
        },
        {
          "internalType": "uint256",
          "name": "payment",
          "type": "uint256"
        }
      ],
      "name": "acceptBid",
      "outputs": [],
      "stateMutability": "nonpayable",
      "type": "function"
    },
    {
      "inputs": [
        {
          "internalType": "uint256",
          "name": "listingId",
          "type": "uint256"
        },
        {
          "internalType": "uint256",
          "name": "quantity",
          "type": "uint256"
        },
        {
          "internalType": "uint256",
          "name": "payment",
          "type": "uint256"
        }
      ],
      "name": "bid",
      "outputs": [],
      "stateMutability": "nonpayable",
      "type": "function"
    },
    {
      "inputs": [
        {
          "internalType": "uint256",
          "name": "",
          "type": "uint256"
        },
        {
          "internalType": "address",
          "name": "",
          "type": "address"
        },
        {
          "internalType": "uint256",
          "name": "",
          "type": "uint256"
        }
      ],
      "name": "bids",
      "outputs": [
        {
          "internalType": "uint256",
          "name": "quantity",
          "type": "uint256"
        },
        {
          "internalType": "uint256",
          "name": "payment",
          "type": "uint256"
        }
      ],
      "stateMutability": "view",
      "type": "function"
    },
    {
      "inputs": [
        {
          "internalType": "uint256",
          "name": "listingId",
          "type": "uint256"
        },
        {
          "internalType": "uint256",
          "name": "amount",
          "type": "uint256"
        },
        {
          "internalType": "uint256",
          "name": "price",
          "type": "uint256"
        }
      ],
      "name": "buyERC20",
      "outputs": [],
      "stateMutability": "nonpayable",
      "type": "function"
    },
    {
      "inputs": [
        {
          "internalType": "uint256",
          "name": "listingId",
          "type": "uint256"
        },
        {
          "internalType": "uint256",
          "name": "price",
          "type": "uint256"
        }
      ],
      "name": "buyERC721",
      "outputs": [],
      "stateMutability": "nonpayable",
      "type": "function"
    },
    {
      "inputs": [
        {
          "internalType": "address",
          "name": "",
          "type": "address"
        }
      ],
      "name": "buyerApprovals",
      "outputs": [
        {
          "internalType": "bool",
          "name": "",
          "type": "bool"
        }
      ],
      "stateMutability": "view",
      "type": "function"
    },
    {
      "inputs": [
        {
          "internalType": "uint256",
          "name": "amount",
          "type": "uint256"
        },
        {
          "internalType": "uint256",
          "name": "listingId",
          "type": "uint256"
        }
      ],
      "name": "delistERC20",
      "outputs": [],
      "stateMutability": "nonpayable",
      "type": "function"
    },
    {
      "inputs": [
        {
          "internalType": "uint256",
          "name": "listingId",
          "type": "uint256"
        }
      ],
      "name": "delistERC721",
      "outputs": [],
      "stateMutability": "nonpayable",
      "type": "function"
    },
    {
      "inputs": [
        {
          "internalType": "uint256",
          "name": "amount",
          "type": "uint256"
        },
        {
          "internalType": "uint256",
          "name": "price",
          "type": "uint256"
        },
        {
          "internalType": "address",
          "name": "product",
          "type": "address"
        },
        {
          "internalType": "address",
          "name": "currency",
          "type": "address"
        }
      ],
      "name": "listERC20",
      "outputs": [
        {
          "internalType": "uint256",
          "name": "",
          "type": "uint256"
        }
      ],
      "stateMutability": "nonpayable",
      "type": "function"
    },
    {
      "inputs": [
        {
          "internalType": "uint256",
          "name": "id",
          "type": "uint256"
        },
        {
          "internalType": "uint256",
          "name": "price",
          "type": "uint256"
        },
        {
          "internalType": "address",
          "name": "product",
          "type": "address"
        },
        {
          "internalType": "address",
          "name": "currency",
          "type": "address"
        }
      ],
      "name": "listERC721",
      "outputs": [
        {
          "internalType": "uint256",
          "name": "",
          "type": "uint256"
        }
      ],
      "stateMutability": "nonpayable",
      "type": "function"
    },
    {
      "inputs": [],
      "name": "owner",
      "outputs": [
        {
          "internalType": "address",
          "name": "",
          "type": "address"
        }
      ],
      "stateMutability": "view",
      "type": "function"
    },
    {
      "inputs": [],
      "name": "renounceOwnership",
      "outputs": [],
      "stateMutability": "nonpayable",
      "type": "function"
    },
    {
      "inputs": [
        {
          "internalType": "address",
          "name": "",
          "type": "address"
        }
      ],
      "name": "sellerApprovals",
      "outputs": [
        {
          "internalType": "bool",
          "name": "",
          "type": "bool"
        }
      ],
      "stateMutability": "view",
      "type": "function"
    },
    {
      "inputs": [
        {
          "internalType": "address[]",
          "name": "targets",
          "type": "address[]"
        },
        {
          "internalType": "bool[]",
          "name": "approvals",
          "type": "bool[]"
        }
      ],
      "name": "setBuyers",
      "outputs": [],
      "stateMutability": "nonpayable",
      "type": "function"
    },
    {
      "inputs": [
        {
          "internalType": "uint256",
          "name": "feeDenominator",
          "type": "uint256"
        }
      ],
      "name": "setFeeDenominator",
      "outputs": [],
      "stateMutability": "nonpayable",
      "type": "function"
    },
    {
      "inputs": [
        {
          "internalType": "uint256",
          "name": "feeNumerator",
          "type": "uint256"
        }
      ],
      "name": "setFeeNumerator",
      "outputs": [],
      "stateMutability": "nonpayable",
      "type": "function"
    },
    {
      "inputs": [
        {
          "internalType": "address[]",
          "name": "targets",
          "type": "address[]"
        },
        {
          "internalType": "bool[]",
          "name": "approvals",
          "type": "bool[]"
        }
      ],
      "name": "setSellers",
      "outputs": [],
      "stateMutability": "nonpayable",
      "type": "function"
    },
    {
      "inputs": [
        {
          "internalType": "address",
          "name": "newOwner",
          "type": "address"
        }
      ],
      "name": "transferOwnership",
      "outputs": [],
      "stateMutability": "nonpayable",
      "type": "function"
    },
    {
      "inputs": [
        {
          "internalType": "uint256",
          "name": "listingId",
          "type": "uint256"
        },
        {
          "internalType": "uint256",
          "name": "price",
          "type": "uint256"
        }
      ],
      "name": "updateERC20Price",
      "outputs": [],
      "stateMutability": "nonpayable",
      "type": "function"
    },
    {
      "inputs": [
        {
          "internalType": "uint256",
          "name": "listingId",
          "type": "uint256"
        },
        {
          "internalType": "uint256",
          "name": "price",
          "type": "uint256"
        }
      ],
      "name": "updateERC721Price",
      "outputs": [],
      "stateMutability": "nonpayable",
      "type": "function"
    },
    {
      "inputs": [
        {
          "internalType": "uint256",
          "name": "listingId",
          "type": "uint256"
        },
        {
          "internalType": "uint256",
          "name": "index",
          "type": "uint256"
        }
      ],
      "name": "withdrawBid",
      "outputs": [],
      "stateMutability": "nonpayable",
      "type": "function"
    }
  ],
  "bytecode": "0x60806040523480156200001157600080fd5b50604051620043cf380380620043cf8339818101604052810190620000379190620001a9565b620000576200004b620000af60201b60201c565b620000b760201b60201c565b826006819055508160078190555080600860006101000a81548173ffffffffffffffffffffffffffffffffffffffff021916908373ffffffffffffffffffffffffffffffffffffffff16021790555050505062000271565b600033905090565b60008060009054906101000a900473ffffffffffffffffffffffffffffffffffffffff169050816000806101000a81548173ffffffffffffffffffffffffffffffffffffffff021916908373ffffffffffffffffffffffffffffffffffffffff1602179055508173ffffffffffffffffffffffffffffffffffffffff168173ffffffffffffffffffffffffffffffffffffffff167f8be0079c531659141344cd1fd0a4f28419497f9722a3daafe3b4186f6b6457e060405160405180910390a35050565b6000815190506200018c816200023d565b92915050565b600081519050620001a38162000257565b92915050565b600080600060608486031215620001bf57600080fd5b6000620001cf8682870162000192565b9350506020620001e28682870162000192565b9250506040620001f5868287016200017b565b9150509250925092565b60006200020c8262000213565b9050919050565b600073ffffffffffffffffffffffffffffffffffffffff82169050919050565b6000819050919050565b6200024881620001ff565b81146200025457600080fd5b50565b620002628162000233565b81146200026e57600080fd5b50565b61414e80620002816000396000f3fe608060405234801561001057600080fd5b50600436106101735760003560e01c806397895f3a116100de578063d73792a911610097578063f2fde38b11610071578063f2fde38b14610421578063f626dab01461043d578063fbcc035114610471578063ffda0a0b146104a157610173565b8063d73792a9146103cb578063d73d55a3146103e9578063efe5b8711461040557610173565b806397895f3a1461030f578063a45db9111461033f578063a57356621461035b578063aebfa63514610377578063c1ab2a4f14610393578063cb36639b146103af57610173565b806366c7f8e51161013057806366c7f8e51461024e578063715018a61461027e5780638449e22c146102885780638a30104a146102a45780638da5cb5b146102c057806394fccfb2146102de57610173565b806302fa11bd14610178578063151a4791146101ac5780632ac9bf09146101dc5780632b2d0460146101f857806341cd47bf1461021457806346b5047814610232575b600080fd5b610192600480360381019061018d9190613405565b6104bd565b6040516101a3959493929190613b2a565b60405180910390f35b6101c660048036038101906101c19190613530565b610553565b6040516101d39190613abd565b60405180910390f35b6101f660048036038101906101f19190613593565b61085f565b005b610212600480360381019061020d919061333e565b610aeb565b005b61021c610c80565b6040516102299190613abd565b60405180910390f35b61024c600480360381019061024791906134f4565b610c86565b005b61026860048036038101906102639190613530565b610d49565b6040516102759190613abd565b60405180910390f35b610286611099565b005b6102a2600480360381019061029d919061347d565b611121565b005b6102be60048036038101906102b99190613405565b6116a6565b005b6102c861172c565b6040516102d591906137f9565b60405180910390f35b6102f860048036038101906102f3919061342e565b611755565b604051610306929190613b01565b60405180910390f35b61032960048036038101906103249190613315565b6117a3565b60405161033691906138e2565b60405180910390f35b61035960048036038101906103549190613405565b6117c3565b005b610375600480360381019061037091906134f4565b611849565b005b610391600480360381019061038c919061333e565b611a84565b005b6103ad60048036038101906103a89190613405565b611c19565b005b6103c960048036038101906103c49190613593565b611f1a565b005b6103d3612454565b6040516103e09190613abd565b60405180910390f35b61040360048036038101906103fe91906134f4565b61245a565b005b61041f600480360381019061041a91906134f4565b6127fd565b005b61043b60048036038101906104369190613315565b612c9a565b005b61045760048036038101906104529190613405565b612d92565b604051610468959493929190613b2a565b60405180910390f35b61048b60048036038101906104869190613315565b612e28565b60405161049891906138e2565b60405180910390f35b6104bb60048036038101906104b691906134f4565b612e48565b005b60036020528060005260406000206000915090508060000154908060010154908060020160009054906101000a900473ffffffffffffffffffffffffffffffffffffffff16908060030160009054906101000a900473ffffffffffffffffffffffffffffffffffffffff16908060040160009054906101000a900473ffffffffffffffffffffffffffffffffffffffff16905085565b6000600160003373ffffffffffffffffffffffffffffffffffffffff1673ffffffffffffffffffffffffffffffffffffffff16815260200190815260200160002060009054906101000a900460ff166105e1576040517f08c379a00000000000000000000000000000000000000000000000000000000081526004016105d89061399d565b60405180910390fd5b8273ffffffffffffffffffffffffffffffffffffffff166323b872dd3330886040518463ffffffff1660e01b815260040161061e9392919061384b565b600060405180830381600087803b15801561063857600080fd5b505af115801561064c573d6000803e3d6000fd5b5050505060008584604051602001610665929190613ad8565b6040516020818303038152906040528051906020012060001c90506040518060a001604052808781526020018681526020013373ffffffffffffffffffffffffffffffffffffffff1681526020018573ffffffffffffffffffffffffffffffffffffffff1681526020018473ffffffffffffffffffffffffffffffffffffffff1681525060046000838152602001908152602001600020600082015181600001556020820151816001015560408201518160020160006101000a81548173ffffffffffffffffffffffffffffffffffffffff021916908373ffffffffffffffffffffffffffffffffffffffff16021790555060608201518160030160006101000a81548173ffffffffffffffffffffffffffffffffffffffff021916908373ffffffffffffffffffffffffffffffffffffffff16021790555060808201518160040160006101000a81548173ffffffffffffffffffffffffffffffffffffffff021916908373ffffffffffffffffffffffffffffffffffffffff1602179055509050508373ffffffffffffffffffffffffffffffffffffffff163373ffffffffffffffffffffffffffffffffffffffff167f96121474b4be0e5edfa0cf9721fe3e06611dc0048f4ec160f3f4aa1c5ca3ec418888878660405161084b9493929190613b7d565b60405180910390a380915050949350505050565b600260003373ffffffffffffffffffffffffffffffffffffffff1673ffffffffffffffffffffffffffffffffffffffff16815260200190815260200160002060009054906101000a900460ff166108eb576040517f08c379a00000000000000000000000000000000000000000000000000000000081526004016108e2906139fd565b60405180910390fd5b827f0596870c910fd22e7d7060a9123ea11d885af76b24003b78da44bf03a5d0eceb8383336005600089815260200190815260200160002060003373ffffffffffffffffffffffffffffffffffffffff1673ffffffffffffffffffffffffffffffffffffffff168152602001908152602001600020805490506040516109749493929190613b7d565b60405180910390a26005600084815260200190815260200160002060003373ffffffffffffffffffffffffffffffffffffffff1673ffffffffffffffffffffffffffffffffffffffff1681526020019081526020016000206040518060400160405280848152602001838152509080600181540180825580915050600190039060005260206000209060020201600090919091909150600082015181600001556020820151816001015550506003600084815260200190815260200160002060040160009054906101000a900473ffffffffffffffffffffffffffffffffffffffff1673ffffffffffffffffffffffffffffffffffffffff166323b872dd3330846040518463ffffffff1660e01b8152600401610a939392919061384b565b602060405180830381600087803b158015610aad57600080fd5b505af1158015610ac1573d6000803e3d6000fd5b505050506040513d601f19601f82011682018060405250810190610ae591906133dc565b50505050565b610af3612f0b565b73ffffffffffffffffffffffffffffffffffffffff16610b1161172c565b73ffffffffffffffffffffffffffffffffffffffff1614610b67576040517f08c379a0000000000000000000000000000000000000000000000000000000008152600401610b5e90613a1d565b60405180910390fd5b60005b84849050811015610c7957828282818110610bae577f4e487b7100000000000000000000000000000000000000000000000000000000600052603260045260246000fd5b9050602002016020810190610bc391906133b3565b60016000878785818110610c00577f4e487b7100000000000000000000000000000000000000000000000000000000600052603260045260246000fd5b9050602002016020810190610c159190613315565b73ffffffffffffffffffffffffffffffffffffffff1673ffffffffffffffffffffffffffffffffffffffff16815260200190815260200160002060006101000a81548160ff0219169083151502179055508080610c7190613d30565b915050610b6a565b5050505050565b60065481565b6003600083815260200190815260200160002060020160009054906101000a900473ffffffffffffffffffffffffffffffffffffffff1673ffffffffffffffffffffffffffffffffffffffff163373ffffffffffffffffffffffffffffffffffffffff1614610d2a576040517f08c379a0000000000000000000000000000000000000000000000000000000008152600401610d21906138fd565b60405180910390fd5b8060036000848152602001908152602001600020600101819055505050565b6000600160003373ffffffffffffffffffffffffffffffffffffffff1673ffffffffffffffffffffffffffffffffffffffff16815260200190815260200160002060009054906101000a900460ff16610dd7576040517f08c379a0000000000000000000000000000000000000000000000000000000008152600401610dce9061399d565b60405180910390fd5b8273ffffffffffffffffffffffffffffffffffffffff166323b872dd3330886040518463ffffffff1660e01b8152600401610e149392919061384b565b602060405180830381600087803b158015610e2e57600080fd5b505af1158015610e42573d6000803e3d6000fd5b505050506040513d601f19601f82011682018060405250810190610e6691906133dc565b506000338484604051602001610e7e93929190613814565b6040516020818303038152906040528051906020012060001c90506040518060a00160405280600360008481526020019081526020016000206000015488610ec69190613bd3565b81526020018681526020013373ffffffffffffffffffffffffffffffffffffffff1681526020018573ffffffffffffffffffffffffffffffffffffffff1681526020018473ffffffffffffffffffffffffffffffffffffffff1681525060036000838152602001908152602001600020600082015181600001556020820151816001015560408201518160020160006101000a81548173ffffffffffffffffffffffffffffffffffffffff021916908373ffffffffffffffffffffffffffffffffffffffff16021790555060608201518160030160006101000a81548173ffffffffffffffffffffffffffffffffffffffff021916908373ffffffffffffffffffffffffffffffffffffffff16021790555060808201518160040160006101000a81548173ffffffffffffffffffffffffffffffffffffffff021916908373ffffffffffffffffffffffffffffffffffffffff1602179055509050508373ffffffffffffffffffffffffffffffffffffffff163373ffffffffffffffffffffffffffffffffffffffff167f4dac2e5e670f156eb092f4d2b4bd3db441153ea88b602e360195f855f144c6d7888887866040516110859493929190613b7d565b60405180910390a380915050949350505050565b6110a1612f0b565b73ffffffffffffffffffffffffffffffffffffffff166110bf61172c565b73ffffffffffffffffffffffffffffffffffffffff1614611115576040517f08c379a000000000000000000000000000000000000000000000000000000000815260040161110c90613a1d565b60405180910390fd5b61111f6000612f13565b565b6003600086815260200190815260200160002060020160009054906101000a900473ffffffffffffffffffffffffffffffffffffffff1673ffffffffffffffffffffffffffffffffffffffff163373ffffffffffffffffffffffffffffffffffffffff16146111c5576040517f08c379a00000000000000000000000000000000000000000000000000000000081526004016111bc90613a5d565b60405180910390fd5b816003600087815260200190815260200160002060000154101561121e576040517f08c379a000000000000000000000000000000000000000000000000000000000815260040161121590613a3d565b60405180910390fd5b826005600087815260200190815260200160002060008673ffffffffffffffffffffffffffffffffffffffff1673ffffffffffffffffffffffffffffffffffffffff16815260200190815260200160002080549050116112b3576040517f08c379a00000000000000000000000000000000000000000000000000000000081526004016112aa9061395d565b60405180910390fd5b60006005600087815260200190815260200160002060008673ffffffffffffffffffffffffffffffffffffffff1673ffffffffffffffffffffffffffffffffffffffff168152602001908152602001600020848154811061133d577f4e487b7100000000000000000000000000000000000000000000000000000000600052603260045260246000fd5b90600052602060002090600202016040518060400160405290816000820154815260200160018201548152505090508281600001511480156113825750818160200151145b6113c1576040517f08c379a00000000000000000000000000000000000000000000000000000000081526004016113b89061397d565b60405180910390fd5b6000600754600654846113d49190613c5a565b6113de9190613c29565b905060006003600089815260200190815260200160002060040160009054906101000a900473ffffffffffffffffffffffffffffffffffffffff1690508073ffffffffffffffffffffffffffffffffffffffff1663a9059cbb3384876114449190613cb4565b6040518363ffffffff1660e01b8152600401611461929190613882565b602060405180830381600087803b15801561147b57600080fd5b505af115801561148f573d6000803e3d6000fd5b505050506040513d601f19601f820116820180604052508101906114b391906133dc565b508073ffffffffffffffffffffffffffffffffffffffff1663a9059cbb600860009054906101000a900473ffffffffffffffffffffffffffffffffffffffff16846040518363ffffffff1660e01b8152600401611511929190613882565b602060405180830381600087803b15801561152b57600080fd5b505af115801561153f573d6000803e3d6000fd5b505050506040513d601f19601f8201168201806040525081019061156391906133dc565b506003600089815260200190815260200160002060030160009054906101000a900473ffffffffffffffffffffffffffffffffffffffff1673ffffffffffffffffffffffffffffffffffffffff1663a9059cbb88876040518363ffffffff1660e01b81526004016115d5929190613882565b602060405180830381600087803b1580156115ef57600080fd5b505af1158015611603573d6000803e3d6000fd5b505050506040513d601f19601f8201168201806040525081019061162791906133dc565b5084600360008a8152602001908152602001600020600001600082825461164e9190613cb4565b92505081905550611660888888612fd7565b877fc010663b4671fbc59fd233abd280de5ff0f2f9c20931f3b0e289169d084daeb2888787604051611694939291906138ab565b60405180910390a25050505050505050565b6116ae612f0b565b73ffffffffffffffffffffffffffffffffffffffff166116cc61172c565b73ffffffffffffffffffffffffffffffffffffffff1614611722576040517f08c379a000000000000000000000000000000000000000000000000000000000815260040161171990613a1d565b60405180910390fd5b8060078190555050565b60008060009054906101000a900473ffffffffffffffffffffffffffffffffffffffff16905090565b6005602052826000526040600020602052816000526040600020818154811061177d57600080fd5b906000526020600020906002020160009250925050508060000154908060010154905082565b60026020528060005260406000206000915054906101000a900460ff1681565b6117cb612f0b565b73ffffffffffffffffffffffffffffffffffffffff166117e961172c565b73ffffffffffffffffffffffffffffffffffffffff161461183f576040517f08c379a000000000000000000000000000000000000000000000000000000000815260040161183690613a1d565b60405180910390fd5b8060068190555050565b806005600084815260200190815260200160002060003373ffffffffffffffffffffffffffffffffffffffff1673ffffffffffffffffffffffffffffffffffffffff16815260200190815260200160002080549050116118de576040517f08c379a00000000000000000000000000000000000000000000000000000000081526004016118d59061395d565b60405180910390fd5b6003600083815260200190815260200160002060040160009054906101000a900473ffffffffffffffffffffffffffffffffffffffff1673ffffffffffffffffffffffffffffffffffffffff1663a9059cbb336005600086815260200190815260200160002060003373ffffffffffffffffffffffffffffffffffffffff1673ffffffffffffffffffffffffffffffffffffffff16815260200190815260200160002084815481106119b9577f4e487b7100000000000000000000000000000000000000000000000000000000600052603260045260246000fd5b9060005260206000209060020201600101546040518363ffffffff1660e01b81526004016119e8929190613882565b602060405180830381600087803b158015611a0257600080fd5b505af1158015611a16573d6000803e3d6000fd5b505050506040513d601f19601f82011682018060405250810190611a3a91906133dc565b50611a46823383612fd7565b817f8f8619524e8d462cead34604bd2247ede24175801481e4d0b8059ac8aa41c3013383604051611a78929190613882565b60405180910390a25050565b611a8c612f0b565b73ffffffffffffffffffffffffffffffffffffffff16611aaa61172c565b73ffffffffffffffffffffffffffffffffffffffff1614611b00576040517f08c379a0000000000000000000000000000000000000000000000000000000008152600401611af790613a1d565b60405180910390fd5b60005b84849050811015611c1257828282818110611b47577f4e487b7100000000000000000000000000000000000000000000000000000000600052603260045260246000fd5b9050602002016020810190611b5c91906133b3565b60026000878785818110611b99577f4e487b7100000000000000000000000000000000000000000000000000000000600052603260045260246000fd5b9050602002016020810190611bae9190613315565b73ffffffffffffffffffffffffffffffffffffffff1673ffffffffffffffffffffffffffffffffffffffff16815260200190815260200160002060006101000a81548160ff0219169083151502179055508080611c0a90613d30565b915050611b03565b5050505050565b6000600460008381526020019081526020016000206040518060a001604052908160008201548152602001600182015481526020016002820160009054906101000a900473ffffffffffffffffffffffffffffffffffffffff1673ffffffffffffffffffffffffffffffffffffffff1673ffffffffffffffffffffffffffffffffffffffff1681526020016003820160009054906101000a900473ffffffffffffffffffffffffffffffffffffffff1673ffffffffffffffffffffffffffffffffffffffff1673ffffffffffffffffffffffffffffffffffffffff1681526020016004820160009054906101000a900473ffffffffffffffffffffffffffffffffffffffff1673ffffffffffffffffffffffffffffffffffffffff1673ffffffffffffffffffffffffffffffffffffffff168152505090503373ffffffffffffffffffffffffffffffffffffffff16816040015173ffffffffffffffffffffffffffffffffffffffff161480611dc157503373ffffffffffffffffffffffffffffffffffffffff16611da961172c565b73ffffffffffffffffffffffffffffffffffffffff16145b611e00576040517f08c379a0000000000000000000000000000000000000000000000000000000008152600401611df790613a7d565b60405180910390fd5b806060015173ffffffffffffffffffffffffffffffffffffffff166323b872dd30836040015184600001516040518463ffffffff1660e01b8152600401611e499392919061384b565b600060405180830381600087803b158015611e6357600080fd5b505af1158015611e77573d6000803e3d6000fd5b505050506004600083815260200190815260200160002060008082016000905560018201600090556002820160006101000a81549073ffffffffffffffffffffffffffffffffffffffff02191690556003820160006101000a81549073ffffffffffffffffffffffffffffffffffffffff02191690556004820160006101000a81549073ffffffffffffffffffffffffffffffffffffffff021916905550505050565b600260003373ffffffffffffffffffffffffffffffffffffffff1673ffffffffffffffffffffffffffffffffffffffff16815260200190815260200160002060009054906101000a900460ff16611fa6576040517f08c379a0000000000000000000000000000000000000000000000000000000008152600401611f9d906139fd565b60405180910390fd5b6000600360008581526020019081526020016000206040518060a001604052908160008201548152602001600182015481526020016002820160009054906101000a900473ffffffffffffffffffffffffffffffffffffffff1673ffffffffffffffffffffffffffffffffffffffff1673ffffffffffffffffffffffffffffffffffffffff1681526020016003820160009054906101000a900473ffffffffffffffffffffffffffffffffffffffff1673ffffffffffffffffffffffffffffffffffffffff1673ffffffffffffffffffffffffffffffffffffffff1681526020016004820160009054906101000a900473ffffffffffffffffffffffffffffffffffffffff1673ffffffffffffffffffffffffffffffffffffffff1673ffffffffffffffffffffffffffffffffffffffff16815250509050600073ffffffffffffffffffffffffffffffffffffffff16816080015173ffffffffffffffffffffffffffffffffffffffff161415612152576040517f08c379a000000000000000000000000000000000000000000000000000000000815260040161214990613a9d565b60405180910390fd5b81816020015114612198576040517f08c379a000000000000000000000000000000000000000000000000000000000815260040161218f9061393d565b60405180910390fd5b60008160200151846121aa9190613c5a565b90506000600754600654836121bf9190613c5a565b6121c99190613c29565b9050826080015173ffffffffffffffffffffffffffffffffffffffff166323b872dd338560400151856040518463ffffffff1660e01b81526004016122109392919061384b565b602060405180830381600087803b15801561222a57600080fd5b505af115801561223e573d6000803e3d6000fd5b505050506040513d601f19601f8201168201806040525081019061226291906133dc565b50826080015173ffffffffffffffffffffffffffffffffffffffff166323b872dd33600860009054906101000a900473ffffffffffffffffffffffffffffffffffffffff16846040518463ffffffff1660e01b81526004016122c69392919061384b565b602060405180830381600087803b1580156122e057600080fd5b505af11580156122f4573d6000803e3d6000fd5b505050506040513d601f19601f8201168201806040525081019061231891906133dc565b508483600001511015612360576040517f08c379a0000000000000000000000000000000000000000000000000000000008152600401612357906139bd565b60405180910390fd5b826060015173ffffffffffffffffffffffffffffffffffffffff1663a9059cbb33876040518363ffffffff1660e01b815260040161239f929190613882565b602060405180830381600087803b1580156123b957600080fd5b505af11580156123cd573d6000803e3d6000fd5b505050506040513d601f19601f820116820180604052508101906123f191906133dc565b50846003600088815260200190815260200160002060000160008282546124189190613cb4565b92505081905550857fc0a8d68d4d1f533ef6cdb7a49068cbe04356682803cb7983c4ba33ce99100efd60405160405180910390a2505050505050565b60075481565b6000600360008381526020019081526020016000206040518060a001604052908160008201548152602001600182015481526020016002820160009054906101000a900473ffffffffffffffffffffffffffffffffffffffff1673ffffffffffffffffffffffffffffffffffffffff1673ffffffffffffffffffffffffffffffffffffffff1681526020016003820160009054906101000a900473ffffffffffffffffffffffffffffffffffffffff1673ffffffffffffffffffffffffffffffffffffffff1673ffffffffffffffffffffffffffffffffffffffff1681526020016004820160009054906101000a900473ffffffffffffffffffffffffffffffffffffffff1673ffffffffffffffffffffffffffffffffffffffff1673ffffffffffffffffffffffffffffffffffffffff168152505090503373ffffffffffffffffffffffffffffffffffffffff16816040015173ffffffffffffffffffffffffffffffffffffffff16148061260257503373ffffffffffffffffffffffffffffffffffffffff166125ea61172c565b73ffffffffffffffffffffffffffffffffffffffff16145b612641576040517f08c379a000000000000000000000000000000000000000000000000000000000815260040161263890613a7d565b60405180910390fd5b8281600001511015612688576040517f08c379a000000000000000000000000000000000000000000000000000000000815260040161267f906139dd565b60405180910390fd5b806060015173ffffffffffffffffffffffffffffffffffffffff1663a9059cbb8260400151856040518363ffffffff1660e01b81526004016126cb929190613882565b602060405180830381600087803b1580156126e557600080fd5b505af11580156126f9573d6000803e3d6000fd5b505050506040513d601f19601f8201168201806040525081019061271d91906133dc565b5082816000015114156127ca576003600083815260200190815260200160002060008082016000905560018201600090556002820160006101000a81549073ffffffffffffffffffffffffffffffffffffffff02191690556003820160006101000a81549073ffffffffffffffffffffffffffffffffffffffff02191690556004820160006101000a81549073ffffffffffffffffffffffffffffffffffffffff021916905550506127f8565b826003600084815260200190815260200160002060000160008282546127f09190613cb4565b925050819055505b505050565b600260003373ffffffffffffffffffffffffffffffffffffffff1673ffffffffffffffffffffffffffffffffffffffff16815260200190815260200160002060009054906101000a900460ff16612889576040517f08c379a0000000000000000000000000000000000000000000000000000000008152600401612880906139fd565b60405180910390fd5b6000600460008481526020019081526020016000206040518060a001604052908160008201548152602001600182015481526020016002820160009054906101000a900473ffffffffffffffffffffffffffffffffffffffff1673ffffffffffffffffffffffffffffffffffffffff1673ffffffffffffffffffffffffffffffffffffffff1681526020016003820160009054906101000a900473ffffffffffffffffffffffffffffffffffffffff1673ffffffffffffffffffffffffffffffffffffffff1673ffffffffffffffffffffffffffffffffffffffff1681526020016004820160009054906101000a900473ffffffffffffffffffffffffffffffffffffffff1673ffffffffffffffffffffffffffffffffffffffff1673ffffffffffffffffffffffffffffffffffffffff16815250509050600073ffffffffffffffffffffffffffffffffffffffff16816080015173ffffffffffffffffffffffffffffffffffffffff161415612a35576040517f08c379a0000000000000000000000000000000000000000000000000000000008152600401612a2c90613a9d565b60405180910390fd5b81816020015114612a7b576040517f08c379a0000000000000000000000000000000000000000000000000000000008152600401612a729061393d565b60405180910390fd5b60006007546006548360200151612a929190613c5a565b612a9c9190613c29565b9050816080015173ffffffffffffffffffffffffffffffffffffffff166323b872dd33846040015185602001516040518463ffffffff1660e01b8152600401612ae79392919061384b565b602060405180830381600087803b158015612b0157600080fd5b505af1158015612b15573d6000803e3d6000fd5b505050506040513d601f19601f82011682018060405250810190612b3991906133dc565b50816080015173ffffffffffffffffffffffffffffffffffffffff166323b872dd33600860009054906101000a900473ffffffffffffffffffffffffffffffffffffffff16846040518463ffffffff1660e01b8152600401612b9d9392919061384b565b602060405180830381600087803b158015612bb757600080fd5b505af1158015612bcb573d6000803e3d6000fd5b505050506040513d601f19601f82011682018060405250810190612bef91906133dc565b50816060015173ffffffffffffffffffffffffffffffffffffffff166323b872dd303385600001516040518463ffffffff1660e01b8152600401612c359392919061384b565b600060405180830381600087803b158015612c4f57600080fd5b505af1158015612c63573d6000803e3d6000fd5b50505050837fc0a8d68d4d1f533ef6cdb7a49068cbe04356682803cb7983c4ba33ce99100efd60405160405180910390a250505050565b612ca2612f0b565b73ffffffffffffffffffffffffffffffffffffffff16612cc061172c565b73ffffffffffffffffffffffffffffffffffffffff1614612d16576040517f08c379a0000000000000000000000000000000000000000000000000000000008152600401612d0d90613a1d565b60405180910390fd5b600073ffffffffffffffffffffffffffffffffffffffff168173ffffffffffffffffffffffffffffffffffffffff161415612d86576040517f08c379a0000000000000000000000000000000000000000000000000000000008152600401612d7d9061391d565b60405180910390fd5b612d8f81612f13565b50565b60046020528060005260406000206000915090508060000154908060010154908060020160009054906101000a900473ffffffffffffffffffffffffffffffffffffffff16908060030160009054906101000a900473ffffffffffffffffffffffffffffffffffffffff16908060040160009054906101000a900473ffffffffffffffffffffffffffffffffffffffff16905085565b60016020528060005260406000206000915054906101000a900460ff1681565b6004600083815260200190815260200160002060020160009054906101000a900473ffffffffffffffffffffffffffffffffffffffff1673ffffffffffffffffffffffffffffffffffffffff163373ffffffffffffffffffffffffffffffffffffffff1614612eec576040517f08c379a0000000000000000000000000000000000000000000000000000000008152600401612ee3906138fd565b60405180910390fd5b8060046000848152602001908152602001600020600101819055505050565b600033905090565b60008060009054906101000a900473ffffffffffffffffffffffffffffffffffffffff169050816000806101000a81548173ffffffffffffffffffffffffffffffffffffffff021916908373ffffffffffffffffffffffffffffffffffffffff1602179055508173ffffffffffffffffffffffffffffffffffffffff168173ffffffffffffffffffffffffffffffffffffffff167f8be0079c531659141344cd1fd0a4f28419497f9722a3daafe3b4186f6b6457e060405160405180910390a35050565b6005600084815260200190815260200160002060008373ffffffffffffffffffffffffffffffffffffffff1673ffffffffffffffffffffffffffffffffffffffff16815260200190815260200160002060016005600086815260200190815260200160002060008573ffffffffffffffffffffffffffffffffffffffff1673ffffffffffffffffffffffffffffffffffffffff168152602001908152602001600020805490506130879190613cb4565b815481106130be577f4e487b7100000000000000000000000000000000000000000000000000000000600052603260045260246000fd5b90600052602060002090600202016005600085815260200190815260200160002060008473ffffffffffffffffffffffffffffffffffffffff1673ffffffffffffffffffffffffffffffffffffffff1681526020019081526020016000208281548110613154577f4e487b7100000000000000000000000000000000000000000000000000000000600052603260045260246000fd5b906000526020600020906002020160008201548160000155600182015481600101559050506005600084815260200190815260200160002060008373ffffffffffffffffffffffffffffffffffffffff1673ffffffffffffffffffffffffffffffffffffffff1681526020019081526020016000208054806131ff577f4e487b7100000000000000000000000000000000000000000000000000000000600052603160045260246000fd5b6001900381819060005260206000209060020201600080820160009055600182016000905550509055505050565b60008135905061323c816140d3565b92915050565b60008083601f84011261325457600080fd5b8235905067ffffffffffffffff81111561326d57600080fd5b60208301915083602082028301111561328557600080fd5b9250929050565b60008083601f84011261329e57600080fd5b8235905067ffffffffffffffff8111156132b757600080fd5b6020830191508360208202830111156132cf57600080fd5b9250929050565b6000813590506132e5816140ea565b92915050565b6000815190506132fa816140ea565b92915050565b60008135905061330f81614101565b92915050565b60006020828403121561332757600080fd5b60006133358482850161322d565b91505092915050565b6000806000806040858703121561335457600080fd5b600085013567ffffffffffffffff81111561336e57600080fd5b61337a87828801613242565b9450945050602085013567ffffffffffffffff81111561339957600080fd5b6133a58782880161328c565b925092505092959194509250565b6000602082840312156133c557600080fd5b60006133d3848285016132d6565b91505092915050565b6000602082840312156133ee57600080fd5b60006133fc848285016132eb565b91505092915050565b60006020828403121561341757600080fd5b600061342584828501613300565b91505092915050565b60008060006060848603121561344357600080fd5b600061345186828701613300565b93505060206134628682870161322d565b925050604061347386828701613300565b9150509250925092565b600080600080600060a0868803121561349557600080fd5b60006134a388828901613300565b95505060206134b48882890161322d565b94505060406134c588828901613300565b93505060606134d688828901613300565b92505060806134e788828901613300565b9150509295509295909350565b6000806040838503121561350757600080fd5b600061351585828601613300565b925050602061352685828601613300565b9150509250929050565b6000806000806080858703121561354657600080fd5b600061355487828801613300565b945050602061356587828801613300565b93505060406135768782880161322d565b92505060606135878782880161322d565b91505092959194509250565b6000806000606084860312156135a857600080fd5b60006135b686828701613300565b93505060206135c786828701613300565b92505060406135d886828701613300565b9150509250925092565b6135eb81613ce8565b82525050565b6135fa81613cfa565b82525050565b600061360d601c83613bc2565b915061361882613dd7565b602082019050919050565b6000613630602683613bc2565b915061363b82613e00565b604082019050919050565b6000613653602383613bc2565b915061365e82613e4f565b604082019050919050565b6000613676601583613bc2565b915061368182613e9e565b602082019050919050565b6000613699603983613bc2565b91506136a482613ec7565b604082019050919050565b60006136bc601583613bc2565b91506136c782613f16565b602082019050919050565b60006136df601a83613bc2565b91506136ea82613f3f565b602082019050919050565b6000613702601a83613bc2565b915061370d82613f68565b602082019050919050565b6000613725601483613bc2565b915061373082613f91565b602082019050919050565b6000613748602083613bc2565b915061375382613fba565b602082019050919050565b600061376b602983613bc2565b915061377682613fe3565b604082019050919050565b600061378e601a83613bc2565b915061379982614032565b602082019050919050565b60006137b1602b83613bc2565b91506137bc8261405b565b604082019050919050565b60006137d4601d83613bc2565b91506137df826140aa565b602082019050919050565b6137f381613d26565b82525050565b600060208201905061380e60008301846135e2565b92915050565b600060608201905061382960008301866135e2565b61383660208301856135e2565b61384360408301846135e2565b949350505050565b600060608201905061386060008301866135e2565b61386d60208301856135e2565b61387a60408301846137ea565b949350505050565b600060408201905061389760008301856135e2565b6138a460208301846137ea565b9392505050565b60006060820190506138c060008301866135e2565b6138cd60208301856137ea565b6138da60408301846137ea565b949350505050565b60006020820190506138f760008301846135f1565b92915050565b6000602082019050818103600083015261391681613600565b9050919050565b6000602082019050818103600083015261393681613623565b9050919050565b6000602082019050818103600083015261395681613646565b9050919050565b6000602082019050818103600083015261397681613669565b9050919050565b600060208201905081810360008301526139968161368c565b9050919050565b600060208201905081810360008301526139b6816136af565b9050919050565b600060208201905081810360008301526139d6816136d2565b9050919050565b600060208201905081810360008301526139f6816136f5565b9050919050565b60006020820190508181036000830152613a1681613718565b9050919050565b60006020820190508181036000830152613a368161373b565b9050919050565b60006020820190508181036000830152613a568161375e565b9050919050565b60006020820190508181036000830152613a7681613781565b9050919050565b60006020820190508181036000830152613a96816137a4565b9050919050565b60006020820190508181036000830152613ab6816137c7565b9050919050565b6000602082019050613ad260008301846137ea565b92915050565b6000604082019050613aed60008301856137ea565b613afa60208301846135e2565b9392505050565b6000604082019050613b1660008301856137ea565b613b2360208301846137ea565b9392505050565b600060a082019050613b3f60008301886137ea565b613b4c60208301876137ea565b613b5960408301866135e2565b613b6660608301856135e2565b613b7360808301846135e2565b9695505050505050565b6000608082019050613b9260008301876137ea565b613b9f60208301866137ea565b613bac60408301856135e2565b613bb960608301846137ea565b95945050505050565b600082825260208201905092915050565b6000613bde82613d26565b9150613be983613d26565b9250827fffffffffffffffffffffffffffffffffffffffffffffffffffffffffffffffff03821115613c1e57613c1d613d79565b5b828201905092915050565b6000613c3482613d26565b9150613c3f83613d26565b925082613c4f57613c4e613da8565b5b828204905092915050565b6000613c6582613d26565b9150613c7083613d26565b9250817fffffffffffffffffffffffffffffffffffffffffffffffffffffffffffffffff0483118215151615613ca957613ca8613d79565b5b828202905092915050565b6000613cbf82613d26565b9150613cca83613d26565b925082821015613cdd57613cdc613d79565b5b828203905092915050565b6000613cf382613d06565b9050919050565b60008115159050919050565b600073ffffffffffffffffffffffffffffffffffffffff82169050919050565b6000819050919050565b6000613d3b82613d26565b91507fffffffffffffffffffffffffffffffffffffffffffffffffffffffffffffffff821415613d6e57613d6d613d79565b5b600182019050919050565b7f4e487b7100000000000000000000000000000000000000000000000000000000600052601160045260246000fd5b7f4e487b7100000000000000000000000000000000000000000000000000000000600052601260045260246000fd5b7f4f6e6c792076656e646f722063616e2075706461746520707269636500000000600082015250565b7f4f776e61626c653a206e6577206f776e657220697320746865207a65726f206160008201527f6464726573730000000000000000000000000000000000000000000000000000602082015250565b7f43616e6e6f74206d616b6520707572636861736520617420696e70757420707260008201527f6963650000000000000000000000000000000000000000000000000000000000602082015250565b7f4e6f2062696420617420696e70757420696e6465780000000000000000000000600082015250565b7f42696420617420696e70757420696e64657820646f6573206e6f74206861766560008201527f20696e707574207175616e7469747920616e6420707269636500000000000000602082015250565b7f417070726f7665642073656c6c657273206f6e6c790000000000000000000000600082015250565b7f496e73756666696369656e74206c697374656420746f6b656e73000000000000600082015250565b7f496e73756666696369656e7420746f6b656e73206c6973746564000000000000600082015250565b7f417070726f76656420627579657273206f6e6c79000000000000000000000000600082015250565b7f4f776e61626c653a2063616c6c6572206973206e6f7420746865206f776e6572600082015250565b7f496e73756666696369656e7420746f6b656e73206c697374656420746f20667560008201527f6c66696c6c206269640000000000000000000000000000000000000000000000602082015250565b7f4f6e6c792076656e646f722063616e2061636365707420626964000000000000600082015250565b7f4f6e6c792076656e646f72206f72206d61726b6574706c616365206f776e657260008201527f2063616e2064656c697374000000000000000000000000000000000000000000602082015250565b7f4e6f6e2d76616c6964206c697374696e672049442070726f7669646564000000600082015250565b6140dc81613ce8565b81146140e757600080fd5b50565b6140f381613cfa565b81146140fe57600080fd5b50565b61410a81613d26565b811461411557600080fd5b5056fea2646970667358221220e79d51676f7ebd125bdf397b77e37e8a5f18c6544a96ae06afdb7293633c974e64736f6c63430008040033",
  "linkReferences": {},
  "deployedLinkReferences": {}
}